{
  "_format": "hh-sol-artifact-1",
  "contractName": "PostCreationManager",
  "sourceName": "contracts/post/PostCreationManager.sol",
  "abi": [
    {
      "inputs": [],
      "name": "AlreadyReported",
      "type": "error"
    },
    {
      "inputs": [],
      "name": "BatchCooldownActive",
      "type": "error"
    },
    {
      "inputs": [],
      "name": "BatchLimitExceeded",
      "type": "error"
    },
    {
      "inputs": [],
      "name": "CooldownActive",
      "type": "error"
    },
    {
      "inputs": [],
      "name": "EmptyMetadata",
      "type": "error"
    },
    {
      "inputs": [],
      "name": "InsufficientAccess",
      "type": "error"
    },
    {
      "inputs": [],
      "name": "InvalidCollectible",
      "type": "error"
    },
    {
      "inputs": [],
      "name": "InvalidCollectibleContract",
      "type": "error"
    },
    {
      "inputs": [],
      "name": "InvalidJsonFormat",
      "type": "error"
    },
    {
      "inputs": [],
      "name": "InvalidParentPost",
      "type": "error"
    },
    {
      "inputs": [],
      "name": "InvalidPostType",
      "type": "error"
    },
    {
      "inputs": [],
      "name": "MissingContentField",
      "type": "error"
    },
    {
      "inputs": [],
      "name": "MissingTitleField",
      "type": "error"
    },
    {
      "inputs": [],
      "name": "NotPostCreator",
      "type": "error"
    },
    {
      "inputs": [
        {
          "internalType": "uint256",
          "name": "status",
          "type": "uint256"
        }
      ],
      "name": "NotTribeMember",
      "type": "error"
    },
    {
      "inputs": [],
      "name": "PostDeleted",
      "type": "error"
    },
    {
      "anonymous": false,
      "inputs": [
        {
          "indexed": false,
          "internalType": "address",
          "name": "previousAdmin",
          "type": "address"
        },
        {
          "indexed": false,
          "internalType": "address",
          "name": "newAdmin",
          "type": "address"
        }
      ],
      "name": "AdminChanged",
      "type": "event"
    },
    {
      "anonymous": false,
      "inputs": [
        {
          "indexed": true,
          "internalType": "uint256",
          "name": "tribeId",
          "type": "uint256"
        },
        {
          "indexed": true,
          "internalType": "address",
          "name": "creator",
          "type": "address"
        },
        {
          "indexed": false,
          "internalType": "uint256[]",
          "name": "postIds",
          "type": "uint256[]"
        }
      ],
      "name": "BatchPostsCreated",
      "type": "event"
    },
    {
      "anonymous": false,
      "inputs": [
        {
          "indexed": true,
          "internalType": "address",
          "name": "beacon",
          "type": "address"
        }
      ],
      "name": "BeaconUpgraded",
      "type": "event"
    },
    {
      "anonymous": false,
      "inputs": [
        {
          "indexed": false,
          "internalType": "uint8",
          "name": "version",
          "type": "uint8"
        }
      ],
      "name": "Initialized",
      "type": "event"
    },
    {
      "anonymous": false,
      "inputs": [
        {
          "indexed": false,
          "internalType": "address",
          "name": "account",
          "type": "address"
        }
      ],
      "name": "Paused",
      "type": "event"
    },
    {
      "anonymous": false,
      "inputs": [
        {
          "indexed": true,
          "internalType": "uint256",
          "name": "postId",
          "type": "uint256"
        },
        {
          "indexed": true,
          "internalType": "uint256",
          "name": "tribeId",
          "type": "uint256"
        },
        {
          "indexed": true,
          "internalType": "address",
          "name": "creator",
          "type": "address"
        },
        {
          "indexed": false,
          "internalType": "string",
          "name": "metadata",
          "type": "string"
        }
      ],
      "name": "PostCreated",
      "type": "event"
    },
    {
      "anonymous": false,
      "inputs": [
        {
          "indexed": true,
          "internalType": "uint256",
          "name": "postId",
          "type": "uint256"
        },
        {
          "indexed": true,
          "internalType": "address",
          "name": "user",
          "type": "address"
        }
      ],
      "name": "PostDeleted",
      "type": "event"
    },
    {
      "anonymous": false,
      "inputs": [
        {
          "indexed": true,
          "internalType": "uint256",
          "name": "postId",
          "type": "uint256"
        },
        {
          "indexed": true,
          "internalType": "address",
          "name": "user",
          "type": "address"
        },
        {
          "indexed": false,
          "internalType": "enum IPostMinter.InteractionType",
          "name": "interactionType",
          "type": "uint8"
        }
      ],
      "name": "PostInteraction",
      "type": "event"
    },
    {
      "anonymous": false,
      "inputs": [
        {
          "indexed": true,
          "internalType": "uint256",
          "name": "postId",
          "type": "uint256"
        },
        {
          "indexed": true,
          "internalType": "address",
          "name": "reporter",
          "type": "address"
        },
        {
          "indexed": false,
          "internalType": "string",
          "name": "reason",
          "type": "string"
        }
      ],
      "name": "PostReported",
      "type": "event"
    },
    {
      "anonymous": false,
      "inputs": [
        {
          "indexed": true,
          "internalType": "enum IPostMinter.PostType",
          "name": "postType",
          "type": "uint8"
        },
        {
          "indexed": false,
          "internalType": "uint256",
          "name": "cooldown",
          "type": "uint256"
        }
      ],
      "name": "PostTypeCooldownUpdated",
      "type": "event"
    },
    {
      "anonymous": false,
      "inputs": [
        {
          "indexed": true,
          "internalType": "uint256",
          "name": "postId",
          "type": "uint256"
        },
        {
          "indexed": true,
          "internalType": "address",
          "name": "updater",
          "type": "address"
        },
        {
          "indexed": false,
          "internalType": "string",
          "name": "metadata",
          "type": "string"
        }
      ],
      "name": "PostUpdated",
      "type": "event"
    },
    {
      "anonymous": false,
      "inputs": [
        {
          "indexed": true,
          "internalType": "bytes32",
          "name": "role",
          "type": "bytes32"
        },
        {
          "indexed": true,
          "internalType": "bytes32",
          "name": "previousAdminRole",
          "type": "bytes32"
        },
        {
          "indexed": true,
          "internalType": "bytes32",
          "name": "newAdminRole",
          "type": "bytes32"
        }
      ],
      "name": "RoleAdminChanged",
      "type": "event"
    },
    {
      "anonymous": false,
      "inputs": [
        {
          "indexed": true,
          "internalType": "bytes32",
          "name": "role",
          "type": "bytes32"
        },
        {
          "indexed": true,
          "internalType": "address",
          "name": "account",
          "type": "address"
        },
        {
          "indexed": true,
          "internalType": "address",
          "name": "sender",
          "type": "address"
        }
      ],
      "name": "RoleGranted",
      "type": "event"
    },
    {
      "anonymous": false,
      "inputs": [
        {
          "indexed": true,
          "internalType": "bytes32",
          "name": "role",
          "type": "bytes32"
        },
        {
          "indexed": true,
          "internalType": "address",
          "name": "account",
          "type": "address"
        },
        {
          "indexed": true,
          "internalType": "address",
          "name": "sender",
          "type": "address"
        }
      ],
      "name": "RoleRevoked",
      "type": "event"
    },
    {
      "anonymous": false,
      "inputs": [
        {
          "indexed": false,
          "internalType": "address",
          "name": "account",
          "type": "address"
        }
      ],
      "name": "Unpaused",
      "type": "event"
    },
    {
      "anonymous": false,
      "inputs": [
        {
          "indexed": true,
          "internalType": "address",
          "name": "implementation",
          "type": "address"
        }
      ],
      "name": "Upgraded",
      "type": "event"
    },
    {
      "inputs": [],
      "name": "BATCH_POST_COOLDOWN",
      "outputs": [
        {
          "internalType": "uint256",
          "name": "",
          "type": "uint256"
        }
      ],
      "stateMutability": "view",
      "type": "function"
    },
    {
      "inputs": [],
      "name": "DEFAULT_ADMIN_ROLE",
      "outputs": [
        {
          "internalType": "bytes32",
          "name": "",
          "type": "bytes32"
        }
      ],
      "stateMutability": "view",
      "type": "function"
    },
    {
      "inputs": [],
      "name": "MAX_BATCH_POSTS",
      "outputs": [
        {
          "internalType": "uint256",
          "name": "",
          "type": "uint256"
        }
      ],
      "stateMutability": "view",
      "type": "function"
    },
    {
      "inputs": [],
      "name": "PROJECT_CREATOR_ROLE",
      "outputs": [
        {
          "internalType": "bytes32",
          "name": "",
          "type": "bytes32"
        }
      ],
      "stateMutability": "view",
      "type": "function"
    },
    {
      "inputs": [],
      "name": "RATE_LIMIT_MANAGER_ROLE",
      "outputs": [
        {
          "internalType": "bytes32",
          "name": "",
          "type": "bytes32"
        }
      ],
      "stateMutability": "view",
      "type": "function"
    },
    {
      "inputs": [],
      "name": "REPORT_THRESHOLD",
      "outputs": [
        {
          "internalType": "uint256",
          "name": "",
          "type": "uint256"
        }
      ],
      "stateMutability": "view",
      "type": "function"
    },
    {
      "inputs": [],
      "name": "collectibleController",
      "outputs": [
        {
          "internalType": "contract ICollectibleController",
          "name": "",
          "type": "address"
        }
      ],
      "stateMutability": "view",
      "type": "function"
    },
    {
      "inputs": [
        {
          "internalType": "uint256",
          "name": "tribeId",
          "type": "uint256"
        },
        {
          "components": [
            {
              "internalType": "string",
              "name": "metadata",
              "type": "string"
            },
            {
              "internalType": "bool",
              "name": "isGated",
              "type": "bool"
            },
            {
              "internalType": "address",
              "name": "collectibleContract",
              "type": "address"
            },
            {
              "internalType": "uint256",
              "name": "collectibleId",
              "type": "uint256"
            },
            {
              "internalType": "enum IPostMinter.PostType",
              "name": "postType",
              "type": "uint8"
            }
          ],
          "internalType": "struct IPostMinter.BatchPostData[]",
          "name": "posts",
          "type": "tuple[]"
        }
      ],
      "name": "createBatchPosts",
      "outputs": [
        {
          "internalType": "uint256[]",
          "name": "",
          "type": "uint256[]"
        }
      ],
      "stateMutability": "nonpayable",
      "type": "function"
    },
    {
      "inputs": [
        {
          "internalType": "uint256",
          "name": "tribeId",
          "type": "uint256"
        },
        {
          "internalType": "string",
          "name": "metadata",
          "type": "string"
        },
        {
          "internalType": "bool",
          "name": "isGated",
          "type": "bool"
        },
        {
          "internalType": "address",
          "name": "collectibleContract",
          "type": "address"
        },
        {
          "internalType": "uint256",
          "name": "collectibleId",
          "type": "uint256"
        }
      ],
      "name": "createPost",
      "outputs": [
        {
          "internalType": "uint256",
          "name": "",
          "type": "uint256"
        }
      ],
      "stateMutability": "nonpayable",
      "type": "function"
    },
    {
      "inputs": [
        {
          "internalType": "uint256",
          "name": "parentPostId",
          "type": "uint256"
        },
        {
          "internalType": "string",
          "name": "metadata",
          "type": "string"
        },
        {
          "internalType": "bool",
          "name": "isGated",
          "type": "bool"
        },
        {
          "internalType": "address",
          "name": "collectibleContract",
          "type": "address"
        },
        {
          "internalType": "uint256",
          "name": "collectibleId",
          "type": "uint256"
        }
      ],
      "name": "createReply",
      "outputs": [
        {
          "internalType": "uint256",
          "name": "",
          "type": "uint256"
        }
      ],
      "stateMutability": "nonpayable",
      "type": "function"
    },
    {
      "inputs": [
        {
          "internalType": "uint256",
          "name": "postId",
          "type": "uint256"
        }
      ],
      "name": "deletePost",
      "outputs": [],
      "stateMutability": "nonpayable",
      "type": "function"
    },
    {
      "inputs": [],
      "name": "feedManager",
      "outputs": [
        {
          "internalType": "contract PostFeedManager",
          "name": "",
          "type": "address"
        }
      ],
      "stateMutability": "view",
      "type": "function"
    },
    {
      "inputs": [],
      "name": "getBatchPostingLimits",
      "outputs": [
        {
          "internalType": "uint256",
          "name": "maxBatchSize",
          "type": "uint256"
        },
        {
          "internalType": "uint256",
          "name": "batchCooldown",
          "type": "uint256"
        }
      ],
      "stateMutability": "pure",
      "type": "function"
    },
    {
      "inputs": [
        {
          "internalType": "enum IPostMinter.PostType",
          "name": "postType",
          "type": "uint8"
        }
      ],
      "name": "getPostTypeCooldown",
      "outputs": [
        {
          "internalType": "uint256",
          "name": "",
          "type": "uint256"
        }
      ],
      "stateMutability": "view",
      "type": "function"
    },
    {
      "inputs": [
        {
          "internalType": "address",
          "name": "user",
          "type": "address"
        },
        {
          "internalType": "enum IPostMinter.PostType",
          "name": "postType",
          "type": "uint8"
        }
      ],
      "name": "getRemainingCooldown",
      "outputs": [
        {
          "internalType": "uint256",
          "name": "",
          "type": "uint256"
        }
      ],
      "stateMutability": "view",
      "type": "function"
    },
    {
      "inputs": [
        {
          "internalType": "bytes32",
          "name": "role",
          "type": "bytes32"
        }
      ],
      "name": "getRoleAdmin",
      "outputs": [
        {
          "internalType": "bytes32",
          "name": "",
          "type": "bytes32"
        }
      ],
      "stateMutability": "view",
      "type": "function"
    },
    {
      "inputs": [
        {
          "internalType": "bytes32",
          "name": "role",
          "type": "bytes32"
        },
        {
          "internalType": "address",
          "name": "account",
          "type": "address"
        }
      ],
      "name": "grantRole",
      "outputs": [],
      "stateMutability": "nonpayable",
      "type": "function"
    },
    {
      "inputs": [
        {
          "internalType": "bytes32",
          "name": "role",
          "type": "bytes32"
        },
        {
          "internalType": "address",
          "name": "account",
          "type": "address"
        }
      ],
      "name": "hasRole",
      "outputs": [
        {
          "internalType": "bool",
          "name": "",
          "type": "bool"
        }
      ],
      "stateMutability": "view",
      "type": "function"
    },
    {
      "inputs": [
        {
          "internalType": "address",
          "name": "_roleManager",
          "type": "address"
        },
        {
          "internalType": "address",
          "name": "_tribeController",
          "type": "address"
        },
        {
          "internalType": "address",
          "name": "_collectibleController",
          "type": "address"
        },
        {
          "internalType": "address",
          "name": "_feedManager",
          "type": "address"
        }
      ],
      "name": "initialize",
      "outputs": [],
      "stateMutability": "nonpayable",
      "type": "function"
    },
    {
      "inputs": [
        {
          "internalType": "address",
          "name": "",
          "type": "address"
        }
      ],
      "name": "lastBatchTime",
      "outputs": [
        {
          "internalType": "uint256",
          "name": "",
          "type": "uint256"
        }
      ],
      "stateMutability": "view",
      "type": "function"
    },
    {
      "inputs": [
        {
          "internalType": "address",
          "name": "",
          "type": "address"
        },
        {
          "internalType": "enum IPostMinter.PostType",
          "name": "",
          "type": "uint8"
        }
      ],
      "name": "lastPostTimeByType",
      "outputs": [
        {
          "internalType": "uint256",
          "name": "",
          "type": "uint256"
        }
      ],
      "stateMutability": "view",
      "type": "function"
    },
    {
      "inputs": [],
      "name": "nextPostId",
      "outputs": [
        {
          "internalType": "uint256",
          "name": "",
          "type": "uint256"
        }
      ],
      "stateMutability": "view",
      "type": "function"
    },
    {
      "inputs": [],
      "name": "pause",
      "outputs": [],
      "stateMutability": "nonpayable",
      "type": "function"
    },
    {
      "inputs": [],
      "name": "paused",
      "outputs": [
        {
          "internalType": "bool",
          "name": "",
          "type": "bool"
        }
      ],
      "stateMutability": "view",
      "type": "function"
    },
    {
      "inputs": [
        {
          "internalType": "enum IPostMinter.PostType",
          "name": "",
          "type": "uint8"
        }
      ],
      "name": "postTypeCooldowns",
      "outputs": [
        {
          "internalType": "uint256",
          "name": "",
          "type": "uint256"
        }
      ],
      "stateMutability": "view",
      "type": "function"
    },
    {
      "inputs": [],
      "name": "proxiableUUID",
      "outputs": [
        {
          "internalType": "bytes32",
          "name": "",
          "type": "bytes32"
        }
      ],
      "stateMutability": "view",
      "type": "function"
    },
    {
      "inputs": [
        {
          "internalType": "bytes32",
          "name": "role",
          "type": "bytes32"
        },
        {
          "internalType": "address",
          "name": "account",
          "type": "address"
        }
      ],
      "name": "renounceRole",
      "outputs": [],
      "stateMutability": "nonpayable",
      "type": "function"
    },
    {
      "inputs": [
        {
          "internalType": "uint256",
          "name": "",
          "type": "uint256"
        }
      ],
      "name": "reportCount",
      "outputs": [
        {
          "internalType": "uint256",
          "name": "",
          "type": "uint256"
        }
      ],
      "stateMutability": "view",
      "type": "function"
    },
    {
      "inputs": [
        {
          "internalType": "uint256",
          "name": "postId",
          "type": "uint256"
        },
        {
          "internalType": "string",
          "name": "reason",
          "type": "string"
        }
      ],
      "name": "reportPost",
      "outputs": [],
      "stateMutability": "nonpayable",
      "type": "function"
    },
    {
      "inputs": [
        {
          "internalType": "bytes32",
          "name": "role",
          "type": "bytes32"
        },
        {
          "internalType": "address",
          "name": "account",
          "type": "address"
        }
      ],
      "name": "revokeRole",
      "outputs": [],
      "stateMutability": "nonpayable",
      "type": "function"
    },
    {
      "inputs": [],
      "name": "roleManager",
      "outputs": [
        {
          "internalType": "contract IRoleManager",
          "name": "",
          "type": "address"
        }
      ],
      "stateMutability": "view",
      "type": "function"
    },
    {
      "inputs": [
        {
          "internalType": "enum IPostMinter.PostType",
          "name": "postType",
          "type": "uint8"
        },
        {
          "internalType": "uint256",
          "name": "cooldown",
          "type": "uint256"
        }
      ],
      "name": "setPostTypeCooldown",
      "outputs": [],
      "stateMutability": "nonpayable",
      "type": "function"
    },
    {
      "inputs": [
        {
          "internalType": "bytes4",
          "name": "interfaceId",
          "type": "bytes4"
        }
      ],
      "name": "supportsInterface",
      "outputs": [
        {
          "internalType": "bool",
          "name": "",
          "type": "bool"
        }
      ],
      "stateMutability": "view",
      "type": "function"
    },
    {
      "inputs": [],
      "name": "tribeController",
      "outputs": [
        {
          "internalType": "contract ITribeController",
          "name": "",
          "type": "address"
        }
      ],
      "stateMutability": "view",
      "type": "function"
    },
    {
      "inputs": [],
      "name": "unpause",
      "outputs": [],
      "stateMutability": "nonpayable",
      "type": "function"
    },
    {
      "inputs": [
        {
          "internalType": "uint256",
          "name": "postId",
          "type": "uint256"
        },
        {
          "internalType": "string",
          "name": "metadata",
          "type": "string"
        }
      ],
      "name": "updatePost",
      "outputs": [],
      "stateMutability": "nonpayable",
      "type": "function"
    },
    {
      "inputs": [
        {
          "internalType": "address",
          "name": "newImplementation",
          "type": "address"
        }
      ],
      "name": "upgradeTo",
      "outputs": [],
      "stateMutability": "nonpayable",
      "type": "function"
    },
    {
      "inputs": [
        {
          "internalType": "address",
          "name": "newImplementation",
          "type": "address"
        },
        {
          "internalType": "bytes",
          "name": "data",
          "type": "bytes"
        }
      ],
      "name": "upgradeToAndCall",
      "outputs": [],
      "stateMutability": "payable",
      "type": "function"
    }
  ],
  "bytecode": "0x60a0604052346200003657620000146200003b565b60405161511662000217823960805181818161116b015261128f015261511690f35b600080fd5b6200004562000047565b565b6200004562000045620000596200009e565b6200004562000189565b62000079906200007c906001600160a01b031682565b90565b6001600160a01b031690565b620000799062000063565b620000799062000088565b620000a93062000093565b608052565b620000799060081c5b60ff1690565b620000799054620000ae565b60208082526027908201527f496e697469616c697a61626c653a20636f6e747261637420697320696e697469604082015266616c697a696e6760c81b606082015260800190565b156200011857565b60405162461bcd60e51b8152806200013360048201620000c9565b0390fd5b6200007990620000b7565b62000079905462000137565b620000b762000079620000799260ff1690565b90620001756200007962000185926200014e565b825460ff191660ff919091161790565b9055565b620001a7620001a16200019d6000620000bd565b1590565b62000110565b620001b3600062000142565b60ff908190811603620001c35750565b620001d081600062000161565b620002117f7f26b83ff96e1f2b6a682f133852f6798a09c465da95921460cefb3847402498916200020060405190565b9182918260ff909116815260200190565b0390a156fe6080604052600436101561001257600080fd5b60003560e01c8062435da51461026c57806301ffc9a714610267578063094cd5ee14610262578063109330c51461025d57806316bfd12b1461025857806323c1a61c14610253578063248a9ca31461024e57806328eff150146102495780632f2ff15d1461024457806331e87f531461023f57806336568abe1461023a5780633659cfe6146102355780633f4ba83a146102305780634aa06447146102175780634b8552161461022b5780634f1ef2861461022657806352d1902d146102215780635c09bd981461021c5780635c8add07146102175780635c975abb146102125780636a2aef051461020d57806370367da51461020857806370c5af0c146102035780637341ec81146101fe5780637ef94bce146101f95780638456cb59146101f4578063851937e1146101ef57806391d14854146101ea57806394d76fa0146101e5578063a217fddf146101e0578063a4965ffe146101db578063a6791547146101d6578063acd971bf146101d1578063b406db9b146101cc578063d547741f146101c7578063dda82bdd146101c2578063f2a51677146101bd5763f8c8765e0361027157610cdb565b610c80565b610c65565b610c2f565b610c16565b610be6565b610b9b565b610ab5565b610a9a565b610a6d565b610a45565b610a2a565b6109e6565b6109cd565b61094a565b61091c565b6108ea565b61085b565b61081b565b610688565b610800565b6107d9565b6107c5565b6106af565b610651565b610639565b61060c565b6105f0565b6105b4565b610544565b610516565b6104fb565b6104b4565b61047c565b6103b6565b610362565b6102f9565b600080fd5b600091031261027157565b6001600160a01b031690565b61029f916008021c610281565b610281565b90565b9061029f915461028d565b61029f600060fb6102a2565b61029a61029f61029f92610281565b61029f906102b9565b61029f906102c8565b6102e3906102d1565b9052565b6020810192916102f791906102da565b565b3461027157610309366004610276565b6103206103146102ad565b604051918291826102e7565b0390f35b6001600160e01b03191690565b61033a81610324565b0361027157565b905035906102f782610331565b906020828203126102715761029f91610341565b346102715761032061037d61037836600461034e565b610cf7565b60405191829182901515815260200190565b8061033a565b905035906102f78261038f565b906020828203126102715761029f91610395565b34610271576103ce6103c93660046103a2565b614410565b604051005b6007111561027157565b905035906102f7826103d3565b906020828203126102715761029f916103dd565b634e487b7160e01b600052602160045260246000fd5b6007111561041e57565b6103fe565b906102f782610414565b61029f90610423565b906104409061042d565b600052602052604060002090565b61029f916008021c81565b9061029f915461044e565b61029f9061047761010291600092610436565b610459565b34610271576103206104976104923660046103ea565b610464565b6040515b9182918290815260200190565b61029f600060fc6102a2565b34610271576104c4366004610276565b6103206103146104a8565b7fa91575122619884f8f346f6f08d276f996bc367457e1cf69df01d9361cf4e0f190565b61029f6104cf565b346102715761050b366004610276565b6103206104976104f3565b346102715761032061049761052c3660046103a2565b610d7a565b9081526040810192916102f79160200152565b3461027157610554366004610276565b61055c615098565b9061032061056960405190565b92839283610531565b61029f90610281565b61033a81610572565b905035906102f78261057b565b91906040838203126102715761029f906105ab8185610395565b93602001610584565b34610271576103ce6105c7366004610591565b90610db1565b91906040838203126102715761029f906105e78185610584565b936020016103dd565b34610271576103206104976106063660046105cd565b90615054565b34610271576103ce61061f366004610591565b90610fc3565b906020828203126102715761029f91610584565b34610271576103ce61064c366004610625565b611342565b3461027157610661366004610276565b6103ce614b6a565b61029f61029f61029f9290565b61029f6005610669565b61029f610676565b3461027157610698366004610276565b610320610497610680565b61029f600060fd6102a2565b34610271576106bf366004610276565b6103206103146106a3565b634e487b7160e01b600052604160045260246000fd5b90601f01601f191681019081106001600160401b0382111761070157604052565b6106ca565b906102f761071360405190565b92836106e0565b6001600160401b03811161070157602090601f01601f19160190565b0190565b90826000939282370152565b9092919261075b6107568261071a565b610706565b93818552602085019082840111610271576102f79261073a565b9080601f830112156102715781602061029f93359101610746565b919091604081840312610271576107a78382610584565b9260208201356001600160401b0381116102715761029f9201610775565b6103ce6107d3366004610790565b90611697565b34610271576107e9366004610276565b6103206104976111d2565b61029f600060ff610459565b3461027157610810366004610276565b6103206104976107f4565b346102715761082b366004610276565b61032061037d6116a1565b90610440906102d1565b61047761029f9261085661010093600094610836565b610436565b34610271576103206104976108713660046105cd565b90610840565b80151561033a565b905035906102f782610877565b919060a083820312610271576108a28184610395565b9260208101356001600160401b03811161027157826108c2918301610775565b9261029f6108d3846040850161087f565b936108e18160608601610584565b93608001610395565b346102715761032061049761090036600461088c565b93929092613d85565b61029f9061047761010191600092610836565b3461027157610320610497610932366004610625565b610909565b61029f61012c610669565b61029f610937565b346102715761095a366004610276565b610320610497610942565b909182601f83011215610271578135916001600160401b03831161027157602001926001830284011161027157565b919091604081840312610271576109ab8382610395565b9260208201356001600160401b038111610271576109c99201610965565b9091565b34610271576103ce6109e0366004610994565b916146df565b34610271576109f6366004610276565b6103ce614adf565b7fd2ad11a4404270d22b2f1ce9a30bc7295171184fa77fc61dd65faeb32057710290565b61029f6109fe565b3461027157610a3a366004610276565b610320610497610a22565b346102715761032061037d610a5b366004610591565b90610d41565b61029f600060fe6102a2565b3461027157610a7d366004610276565b610320610314610a61565b61029f6000610669565b61029f610a88565b3461027157610aaa366004610276565b610320610497610a92565b3461027157610320610497610acb3660046103ea565b61503c565b909182601f83011215610271578135916001600160401b03831161027157602001926020830284011161027157565b91909160408184031261027157610b168382610395565b9260208201356001600160401b038111610271576109c99201610ad0565b90610b54610b4d610b43845190565b8084529260200190565b9260200190565b9060005b818110610b655750505090565b909192610b82610b7b6001928651815260200190565b9460200190565b929101610b58565b602080825261029f92910190610b34565b3461027157610320610bb7610bb1366004610aff565b916141e7565b60405191829182610b8a565b91906040838203126102715761029f90610bdd81856103dd565b93602001610395565b34610271576103ce610bf9366004610bc3565b90615032565b919091604081840312610271576107a78382610395565b34610271576103ce610c29366004610bff565b90614307565b34610271576103ce610c42366004610591565b90610f55565b9061044090610669565b61029f9061047761010391600092610c48565b3461027157610320610497610c7b3660046103a2565b610c52565b3461027157610320610497610c9636600461088c565b93929092612594565b60808183031261027157610cb38282610584565b9261029f610cc48460208501610584565b93610cd28160408601610584565b93606001610584565b34610271576103ce610cee366004610c9f565b92919091611c92565b610d07637965db0b60e01b610324565b610d1082610324565b14908115610d1c575090565b61029f9150611a77565b90610440565b61029f905b60ff1690565b61029f9054610d2c565b61029f916000610d5e610d6493610d56600090565b506065610d26565b01610836565b610d37565b61029f9081565b61029f9054610d69565b6001610d8b61029f92610d56600090565b01610d70565b906102f791610da7610da282610d7a565b610dbb565b906102f791611017565b906102f791610d91565b6102f7903390610ead565b61029f90610669565b60005b838110610de25750506000910152565b8181015183820152602001610dd2565b610736610e0a92602092610e04815190565b94859290565b93849101610dcf565b610e4b61029f9392610e45610e459376020b1b1b2b9b9a1b7b73a3937b61d1030b1b1b7bab73a1604d1b815260170190565b90610df2565b7001034b99036b4b9b9b4b733903937b6329607d1b815260110190565b610e89610e9260209361073693610e7d815190565b80835293849260200190565b95869101610dcf565b601f01601f191690565b602080825261029f92910190610e68565b90610ebf610ebb8284610d41565b1590565b610ec7575050565b610f369161029f610ee3610edd610f1d94611a4a565b92610dc6565b610ef8602091610ef283610669565b90611903565b92610f11610f0560405190565b94859384019283610e13565b908103825203826106e0565b6040515b62461bcd60e51b815291829160048301610e9c565b0390fd5b906102f791610f4b610da282610d7a565b906102f79161108e565b906102f791610f3a565b15610f6657565b60405162461bcd60e51b815260206004820152602f60248201527f416363657373436f6e74726f6c3a2063616e206f6e6c792072656e6f756e636560448201526e103937b632b9903337b91039b2b63360891b6064820152608490fd5b6102f79190610fe8610fd933610572565b610572565b610fe284610572565b14610f5f565b61108e565b9060ff905b9181191691161790565b9061100c61029f61101392151590565b8254610fed565b9055565b90611025610ebb8284610d41565b61102d575050565b6110486001611043836000610d5e876065610d26565b610ffc565b339061107e6110786110787f2f8788117e7eff1d82e926ec794901d17c78024a50270940304540a733656f0d9590565b926102d1565b9261108860405190565b600090a4565b906110998183610d41565b6110a1575050565b6110b660006110438382610d5e876065610d26565b339061107e6110786110787ff6391f5c32d9c69d2a47ea670b442974b53935d1edc7fd64eb21e047a839171b9590565b156110ed57565b60405162461bcd60e51b815260206004820152603860248201527f555550535570677261646561626c653a206d757374206e6f742062652063616c6044820152771b1959081d1a1c9bdd59da0819195b1959d85d1958d85b1b60421b6064820152608490fd5b61029f9061119b611163306102d1565b61119561118f7f0000000000000000000000000000000000000000000000000000000000000000610572565b91610572565b146110e6565b6111c9565b61029f7f360894a13ba1a3210667c828492db98dca3e2076cc3735a920a3ca505d382bbc610669565b5061029f6111a0565b61029f6000611153565b156111e357565b60405162461bcd60e51b815260206004820152602c60248201526000805160206150ca83398151915260448201526b19195b1959d85d1958d85b1b60a21b6064820152608490fd5b1561123257565b60405162461bcd60e51b815260206004820152602c60248201526000805160206150ca83398151915260448201526b6163746976652070726f787960a01b6064820152608490fd5b6102f7906112dc61128a306102d1565b6112c27f0000000000000000000000000000000000000000000000000000000000000000916112bb61118f84610572565b14156111dc565b6112d661118f6112d0611355565b92610572565b1461122b565b61131b565b906112ee6107568361071a565b918252565b369037565b906102f761130e611308846112e1565b9361071a565b601f1901602084016112f3565b6102f79061132881614cd4565b60009061133c61133783610669565b6112f8565b9061141f565b6102f79061127a565b61029f9054610572565b61029f600061136561029f6111a0565b0161134b565b61029f7f4910fdfa16fed3260ed0e7147f7cc6da11a60208b5b9406d12a635614ffd9143610669565b905051906102f78261038f565b906020828203126102715761029f91611394565b6040513d6000823e3d90fd5b156113c857565b60405162461bcd60e51b815260206004820152602960248201527f45524331393637557067726164653a20756e737570706f727465642070726f786044820152681a58589b195555525160ba1b6064820152608490fd5b9190611437600061143161029f61136b565b01610d37565b156114475750506102f7906115c5565b82602061145e611459611476966102d1565b6102d1565b6352d1902d9061146d60405190565b96879260e01b90565b825260049082905afa6000948161150d575b506114e95760405162461bcd60e51b815260206004820152602e60248201527f45524331393637557067726164653a206e657720696d706c656d656e7461746960448201526d6f6e206973206e6f74205555505360901b6064820152608490fd5b6115086102f7946115026114fe61029f6111a0565b9190565b146113c1565b6115ed565b61152f91955060203d8111611536575b61152781836106e0565b8101906113a1565b9338611488565b503d61151d565b1561154457565b60405162461bcd60e51b815260206004820152602d60248201527f455243313936373a206e657720696d706c656d656e746174696f6e206973206e60448201526c1bdd08184818dbdb9d1c9858dd609a1b6064820152608490fd5b906001600160a01b0390610ff2565b906115be61029f611013926102d1565b825461159f565b6102f7906115da6115d5826116ac565b61153d565b60006115e761029f6111a0565b016115ae565b916115f78361162c565b81516116066114fe6000610669565b11908115611624575b50611618575050565b61162191611709565b50565b90503861160f565b611635816115c5565b61165f7fbc7cd75a20ee27fd9adebab32041f755214dbc6bffa90cc0225b39da2e5c2d3b916102d1565b9061166960405190565b80805b0390a2565b906102f79161168261128a306102d1565b6102f79161168f82614cd4565b60019161141f565b906102f791611671565b61029f610136610d37565b3b6116ba6114fe6000610669565b1190565b6116c860276112e1565b7f416464726573733a206c6f772d6c6576656c2064656c65676174652063616c6c6020820152660819985a5b195960ca1b604082015290565b61029f6116be565b61029f91611715611701565b9161173a565b3d156117355761172a3d6112e1565b903d6000602084013e565b606090565b60008061029f949361174a606090565b50805190602001845af461175c61171b565b916117ae565b1561176957565b60405162461bcd60e51b815260206004820152601d60248201527f416464726573733a2063616c6c20746f206e6f6e2d636f6e74726163740000006044820152606490fd5b919290156117e0575081516117c66114fe6000610669565b146117cf575090565b6117db61029f916116ac565b611762565b82906117ea825190565b6117f76114fe6000610669565b11156118065750805190602001fd5b610f3690610f2160405190565b634e487b7160e01b600052601160045260246000fd5b8181029291811591840414171561183c57565b611813565b9190820180921161183c57565b634e487b7160e01b600052603260045260246000fd5b9061186d825190565b81101561187b570160200190565b61184e565b801561183c576000190190565b610d3161029f61029f9290565b61029f906118ae6114fe61029f9460ff1690565b901c90565b156118ba57565b60405162461bcd60e51b815280610f36600482016020808252818101527f537472696e67733a20686578206c656e67746820696e73756666696369656e74604082015260600190565b919060029261192f6113376119208461191b88610669565b611829565b61192987610669565b90611841565b91600090603061194761194184610669565b86611864565b5361197f611976600f60fb1b9261191b6001998a95871a61197061196a88610669565b8b611864565b53610669565b61192983610669565b905b6119a3575b5061029f9394509061199d6114fe61029f93610669565b146118b3565b916119ad86610669565b831115611a1b576f181899199a1a9b1b9c1cb0b131b232b360811b6119d2600f610669565b821690601082101561187b5787926119f2611a0f92611a15941a60f81b90565b851a6119fe8789611864565b53611a09600461188d565b9061189a565b93611880565b90611981565b91611986565b61029f61029f61029f92610281565b61029f601461188d565b61029f61029f61029f9260ff1690565b611a67611a6261029f92611a5c606090565b506102c8565b611a21565b610ef2611a72611a30565b611a3a565b611a90611a8a6301ffc9a760e01b610324565b91610324565b1490565b61029f9060081c610d31565b61029f9054611a94565b15611ab157565b60405162461bcd60e51b815260206004820152602e60248201527f496e697469616c697a61626c653a20636f6e747261637420697320616c72656160448201526d191e481a5b9a5d1a585b1a5e995960921b6064820152608490fd5b610d3161029f61029f9260ff1690565b9061100c61029f61101392611b0d565b9061ff009060081b610ff2565b90611b4a61029f61101392151590565b8254611b2d565b6102e39061188d565b6020810192916102f79190611b51565b92611bb59192611b7d610ebb6000611aa0565b938480611c58575b8015611c13575b611b9590611aaa565b60019585611bac611ba58961188d565b6000611b1d565b611c0357611c76565b611bbc5750565b611bc7600080611b3a565b611bfe7f7f26b83ff96e1f2b6a682f133852f6798a09c465da95921460cefb384740249891611bf560405190565b91829182611b5a565b0390a1565b611c0e876000611b3a565b611c76565b50611c28610ebb611c23306102d1565b6116ac565b8015611b8c5750611b95611c3c6000610d37565b611c50611c49600161188d565b9160ff1690565b149050611b8c565b50611c636000610d37565b611c70611c49600161188d565b10611b85565b90611c82939291614ca7565b611c8a611d60565b6102f7611d1b565b906102f7939291611b6a565b15611ca557565b60405162461bcd60e51b815260206004820152602b60248201527f496e697469616c697a61626c653a20636f6e7472616374206973206e6f74206960448201526a6e697469616c697a696e6760a81b6064820152608490fd5b611d10611d0b6000611aa0565b611c9e565b6102f76102f7611d40565b6102f7611cfe565b611d30611d0b6000611aa0565b6102f76102f76000610136610ffc565b6102f7611d23565b611d55611d0b6000611aa0565b6102f76102f7611dbb565b6102f7611d48565b611d75611d0b6000611aa0565b6102f7611da8565b61029f6001610669565b9060001990610ff2565b90611da161029f61101392610669565b8254611d87565b6102f7611db3611d7d565b610104611d91565b6102f7611d68565b9061029f9594939291611dd46125e2565b61212f565b9190820391821161183c57565b611df060076112e1565b66113a34ba36329160c91b602082015290565b61029f611de6565b611e1560096112e1565b681131b7b73a32b73a1160b91b602082015290565b61029f611e0b565b600019811461183c5760010190565b61029f610100610706565b906102e390610572565b906102e390610423565b61029f6101a0610706565b602090818080808080808080808080611e82611e60565b9d8e6000815201600081520160008152016060815201600081520160008152016000815201600081520160008152016000815201600081520160008152016000905250565b61029f611e6b565b61029f9051610572565b61029a61029f61029f9290565b61029f90611ed9565b90929192611eff6107568261071a565b93818552602085019082840111610271576102f792610dcf565b9080601f8301121561027157815161029f92602001611eef565b905051906102f782610877565b9190916101008184031261027157611f59610100610706565b81519093906001600160401b0381116102715781611f78918401611f19565b845260208201516001600160401b0381116102715781611f99918401611f19565b60208501526040820151906001600160401b03821161027157611fc181612018938501611f19565b60408601526060611fd482828601611394565b908601526080611fe682828601611394565b9086015260a0611ff882828601611394565b9086015260c061200a82828601611394565b9086015260e0809301611f33565b90830152565b906020828203126102715781516001600160401b0381116102715761029f9201611f40565b6102e390610572565b805182529061029f90610180806120946101a0840161207360208801516020870190612043565b61208260408801516040870152565b60608701518582036060870152610e68565b608080870151151590850152946120b360a082015160a0860190612043565b6120c260c082015160c0860152565b60e0818101511515908501526120df610100820151610100860152565b6120f3610120820151610120860190612043565b612104610140820151610140860152565b612115610160820151610160860152565b01511515910152565b602080825261029f9291019061204c565b50929390919061213e84614db8565b8290612148825190565b956000966121586114fe89610669565b146125825761218061217261216c89610669565b85611864565b516001600160f81b03191690565b612197607b60f81b5b916001600160f81b03191690565b1415801561254c575b61253a576121ad836147d3565b926121c2610ebb6121bc611e03565b83612fb5565b61252557610ebb6121db916121d5611e2a565b90612fb5565b612513576121e883614f60565b6121f183614fc5565b86339461227361220160ff610d70565b9561221561220e88611e32565b60ff611d91565b61226a612220611e41565b9761222b8c878b0152565b6122368b60208b0152565b84151560408a015261224b8760608b01611e4c565b6122568860808b0152565b6122638a60a08b01611e4c565b60c0890152565b60e08701611e56565b61227b611ec7565b50156124325761118f610fd461229092611ee6565b1461242057856122d3916122a761145960fd61134b565b6122c56372d996756122b860405190565b9586948593849360e01b90565b835260048301526024820190565b03915afa80156123e75760e0610ebb916122f69389916123fe575b500151151590565b6123ec5761230e9061230860fd61134b565b906125ff565b935b61231d61145960fe61134b565b946338c9078495803b156102715761234396839161233a60405190565b98899260e01b90565b8252818381612355876004830161211e565b03925af19586156123e75761029f966123bb575b500192612374845190565b6123b46123a161239b6123956000805160206150ea83398151915294610669565b94610669565b946102d1565b946123ab60405190565b91829182610e9c565b0390a45190565b6123da90833d85116123e0575b6123d281836106e0565b810190610276565b38612369565b503d6123c8565b6113b5565b6040516344b052a160e01b8152600490fd5b61241a91503d808b833e61241281836106e0565b81019061201e565b386122ee565b604051636fee389b60e01b8152600490fd5b929150612442905060c082015190565b9061244f60a08201611ecf565b9061245a8482015190565b6020820151909161246e6040820151151590565b61247a60608301611ecf565b6080909201519261248a88610669565b9461249489611ee6565b96429861249f611e60565b9a8b01526124b09060208b01611e4c565b60408901526060880152151560808701526124ce9060a08701611e4c565b60c085015287151560e08501526101008401526124ef906101208401611e4c565b6124f886610669565b61014083015261016082015284151561018082015293612310565b60405163afbbd4c560e01b8152600490fd5b60405160016201ed0960e61b03198152600490fd5b60405163c8774a8f60e01b8152600490fd5b5061256e61217261216c61255e865190565b6125686001610669565b90611dd9565b61257b607d60f81b612189565b14156121a0565b60405163ae92135760e01b8152600490fd5b61029f94939291906000611dc3565b156125aa57565b60405162461bcd60e51b815260206004820152601060248201526f14185d5cd8589b194e881c185d5cd95960821b6044820152606490fd5b6102f76125f0610ebb6116a1565b6125a3565b61029f9051610423565b61029f9161260b611ec7565b5061263f61261a602084015190565b61262381612f3a565b5061262d81612670565b61263960e085016125f5565b90612697565b604082015161264f575b50612b89565b61266a9061265f60608401611ecf565b608084015190612b1c565b38612649565b61267e610ebb6121bc611e03565b61252557610ebb612691916121d5611e2a565b61251357565b906126a26002610423565b6126ab82610423565b036126ba57506102f7906127b4565b6126c46001610423565b6126cd82610423565b036126dc57506102f790612829565b6126e66004610423565b6126ef82610423565b036126fe57506102f7906128e3565b6127086003610423565b61271182610423565b0361272057506102f790612dfb565b61272a6005610423565b61273382610423565b0361274257506102f790612e54565b61274c6006610423565b61275582610423565b0361276457506102f790612ead565b6127776127716000610423565b91610423565b1461277f5750565b6102f790612f11565b612792600e6112e1565b6d1132bb32b73a2232ba30b4b6399160911b602082015290565b61029f612788565b6127c2610ebb6121bc6127ac565b9081156127e4575b506127d157565b6040515b63c6eb31dd60e01b8152600490fd5b6127f791506127f16127ac565b906130a2565b386127ca565b612807600e6112e1565b6d1136b2b234b0a1b7b73a32b73a1160911b602082015290565b61029f6127fd565b612837610ebb6121bc612821565b90811561284557506127d157565b6127f791506127f1612821565b61285c60106112e1565b6f113a3cb832911d11282927a522a1aa1160811b602082015290565b61029f612852565b61288a60176112e1565b76113a3cb832911d11282927a522a1aa2faaa82220aa229160491b602082015290565b61029f612880565b6128bf60106112e1565b6f11383937b532b1ba2232ba30b4b6399160811b602082015290565b61029f6128b5565b6128f46128ee612878565b82612fb5565b1561292257612907610ebb6121bc6128db565b90811561291557506127d157565b6127f791506127f16128db565b61292d6128ee6128ad565b156127d1576102f790612a47565b612945600c6112e1565b6b113ab83230ba32aa3cb8329160a11b602082015290565b61029f61293b565b61296f600d6112e1565b6c5354415455535f55504441544560981b602082015290565b61029f612965565b61299a60106112e1565b6f4d494c4553544f4e455f55504441544560801b602082015290565b61029f612990565b6129c860146112e1565b7326a4a622a9aa27a722afa9aaa126a4a9a9a4a7a760611b602082015290565b61029f6129be565b6129fa60106112e1565b6f1136b4b632b9ba37b732a4b73232bc1160811b602082015290565b61029f6129f0565b612a28600b6112e1565b6a113732bba9ba30ba3ab99160a91b602082015290565b61029f612a1e565b612a55610ebb6121bc6128db565b6127d157612a6281613612565b600019146127d157612a7b612a7561295d565b826132b6565b8051612a8a6114fe6000610669565b146127d157612aa0612a9a612988565b8261355a565b15612adc5750612ab4610ebb6121bc612a3f565b6127d157610ebb612ac491612d3e565b612aca57565b604051630318bf7160e11b8152600490fd5b612ae7612a9a6129b6565b908115612b03575b50156127d157612ab4610ebb6121bc612a16565b612b169150612b106129e8565b9061355a565b38612aef565b91600092612b2f61118f610fd486611ee6565b1461242057612b42916122a784926102d1565b03915afa9182156123e757612b6892610ebb928260e09392612b6e575b50500151151590565b6123ec57565b612b8292503d8091833e61241281836106e0565b3880612b5f565b612b91611ec7565b5060c081015190612ba460a08201611ecf565b815160208301516040840151151593612bbf60608201611ecf565b60809091015190600095612bd287610669565b93612bdc88611ee6565b954297612be7611e60565b9a612bf2908b8d0152565b612bff9060208c01611e4c565b60408a0152606089015215156080880152612c1d9060a08801611e4c565b60c086015283151560e0860152610100850152612c3e906101208501611e4c565b612c4782610669565b610140840152610160830152151561018082015290565b612c68601c6112e1565b7b113ab83230ba32aa3cb832911d1129aa20aa2aa9afaaa82220aa229160211b602082015290565b61029f612c5e565b612ca2601f6112e1565b7f2275706461746554797065223a224d494c4553544f4e455f5550444154452200602082015290565b61029f612c98565b612cdd60236112e1565b7f2275706461746554797065223a224d494c4553544f4e455f5355424d4953534960208201526227a71160e91b604082015290565b61029f612cd3565b612d2460066112e1565b65113a32b0b69160d11b602082015290565b61029f612d1a565b612d496128ee612878565b612d9957612d586128ee6128ad565b612d625750600190565b612d6b81613612565b60001914612dce57612d7e6128ee612c90565b612d9957612d8d6128ee612ccb565b8015612dbd575b612d9f575b50600190565b610ebb612dae916121d5612d36565b612db85738612d99565b600090565b50612dc96128ee612d12565b612d94565b50600090565b612dde60096112e1565b681137b83a34b7b7399160b91b602082015290565b61029f612dd4565b612e09610ebb6121bc612df3565b908115612e1757506127d157565b6127f791506127f1612df3565b612e2e60126112e1565b711131b7b6b6bab734ba3ca232ba30b4b6399160711b602082015290565b61029f612e24565b612e62610ebb6121bc612e4c565b908115612e7057506127d157565b6127f791506127f1612e4c565b612e8760126112e1565b71113a3cb832911d1122a721a92ca82a22a21160711b602082015290565b61029f612e7d565b610ebb612ebc916121d5612ea5565b6127d157565b612ecc60066112e1565b65113a3cb8329160d11b602082015290565b61029f612ec2565b612ef0600d6112e1565b6c113a3cb832911d112a22ac2a1160991b602082015290565b61029f612ee6565b612f1c6128ee612ede565b9081612f2957506127d157565b6127f79150610ebb906121d5612f09565b8051600090612f4b6114fe83610669565b1461258257612172612f5f612f6592610669565b83611864565b612f72607b60f81b612189565b1415908115612f86575b5061253a57600190565b612fa0915080612f9a61255e612172935190565b90611864565b612fad607d60f81b612189565b141538612f7c565b8051612fc56114fe61029f855190565b1061309b57600090612fd682610669565b612feb61029f612fe4845190565b8651900390565b8110156130945760018081612fff86610669565b905b61301c575b506130145750600101612fd6565b935050505090565b61302e61029f88949795989693965190565b8110156130875761304461217288830184611864565b6130646121896130576121728588611864565b6001600160f81b03191690565b0361307a57919592949093909160010182613001565b5092509390928338613006565b9592949195939093613006565b5050905090565b5050600090565b80516130b26114fe61029f855190565b1061309b576000916130c383610669565b6130d861029f6130d1855190565b8451900390565b81101561317a57600180806130ec87610669565b905b613117575b5050613101576001016130c3565b61029f9350610736613111925190565b90613180565b61312761029f8698939495985190565b8110156131705761313e6121728883015b88611864565b613151612189613057612172858a611864565b036131635760010182919693926130ee565b50949150508338806130f3565b81969392506130f3565b50505090565b905b61318d61029f835190565b81108061323a575b156131a8576131a390611e32565b613182565b6131b361029f835190565b811080613219575b6131c6575050600090565b6131cf90611e32565b6131da61029f835190565b811091826131f5575b50506131f057388061309b565b600190565b61320492509061217291611864565b613211601160f91b612189565b1438806131e3565b506132276121728284611864565b613234601160f91b612189565b146131bb565b506132486121728284611864565b613255600160fd1b612189565b148015613283575b8061319557506132706121728284611864565b61327d601160f91b612189565b14613195565b506132916121728284611864565b61329e601d60f91b612189565b1461325d565b61029f60006112e1565b61029f6132a4565b80516132c66114fe61029f855190565b10613391576000916132d783610669565b6132e561029f6130d1855190565b81101561338557600180806132f987610669565b905b613324575b505061330e576001016132d7565b61029f935061073661331e925190565b9061339b565b61333461029f8698939495985190565b81101561337b57613349612172888301613138565b61335c612189613057612172858a611864565b0361336e5760010182919693926132fb565b5094915050833880613300565b8196939250613300565b5050505061029f6132ae565b505061029f6132ae565b905b6133a861029f835190565b8110806134e7575b156133c3576133be90611e32565b61339d565b6133ce61029f835190565b81101561339157805b6133e261029f845190565b8110806134c5575b806134a3575b80613481575b156134095761340490611e32565b6133d7565b916134176113378385611dd9565b9160009461342486610669565b61343161029f8488611dd9565b8110156134745761029f8361346b836134596121726134536134319786611841565b8a611864565b8b1a613465828b611864565b53611e32565b92505050613424565b509450505061029f915090565b5061348f6121728285611864565b61349c607d60f81b612189565b14156133f6565b506134b16121728285611864565b6134be600b60fa1b612189565b14156133f0565b506134d36121728285611864565b6134e0601160f91b612189565b14156133ea565b506134f56121728284611864565b613502600160fd1b612189565b148015613530575b806133b0575061351d6121728284611864565b61352a601160f91b612189565b146133b0565b5061353e6121728284611864565b61354b601d60f91b612189565b1461350a565b61029f91610df2565b6114fe611a9091613569600090565b5061358661357660405190565b8092610f11602083019182613551565b613598613591825190565b9160200190565b20926135a661357660405190565b6135b1613591825190565b2090565b6135bf60106112e1565b6f11383937b532b1ba2837b9ba24b2111d60811b602082015290565b61029f6135b5565b6135ed60116112e1565b701137b934b3b4b730b62837b9ba24b2111d60791b602082015290565b61029f6135e3565b61361a6135db565b61362c61362561360a565b918361368f565b9160001983036136405761029f925061368f565b505090565b61029f9060f81c611b0d565b61365d9060ff16611c49565b90039060ff821161183c57565b634e487b7160e01b600052601260045260246000fd5b811561368a570490565b61366a565b9060008061369c82610669565b6136b161029f6136aa875190565b8651612568565b81101561391657600180816136c586610669565b905b6138aa575b506136e057506136db90611e32565b61369c565b6136f08196926119298395975190565b905b613803575b93945b613706575b5050505090565b9091929361371561029f835190565b8510806137e1575b806137bf575b156137b957613753611a7261374361373e6121728987611864565b613645565b61374d603061188d565b90613651565b9084196137608382611dd9565b9061377961029f600a9361377385610669565b90613680565b83116137ae57509161379a61379f926137946137a595610669565b90611829565b611841565b94611e32565b929190816136fa565b965050505050505090565b936136ff565b506137cd6121728684611864565b6137da603960f81b612189565b1115613723565b506137ef6121728684611864565b6137fc600360fc1b612189565b101561371d565b61381361029f8394939695965190565b811080613840575b156138355761382990611e32565b909190829493946136f2565b9392939190916136f7565b5061384e6121728285611864565b61385b600160fd1b612189565b148015613889575b8061381b57506138766121728285611864565b613883601d60f91b612189565b1461381b565b506138976121728285611864565b6138a4601160f91b612189565b14613863565b6138ba61029f8894989995995190565b81101561390b576138d1612172611941838b611841565b6138e46121896130576121728588611864565b036138fe576138f38791611e32565b9092969793976136c7565b50509383959195386136cc565b9692969591956136cc565b50509150501990565b9061029f95949392916139306125e2565b613ab0565b905051906102f78261057b565b9190916101a0818403126102715761395b6101a0610706565b9260006139688284611394565b90850152602061397a82828501613935565b9085015260409061398d81838501611394565b828601526001806060850151931b038211610271576139b181612018938501611f19565b606086015260806139c482828601611f33565b9086015260a06139d682828601613935565b9086015260c06139e882828601611394565b9086015260e06139fa82828601611f33565b90860152610100613a0d82828601611394565b90860152610120613a2082828601613935565b90860152610140613a3382828601611394565b90860152610160613a4682828601611394565b90860152610180809301611f33565b906020828203126102715781516001600160401b0381116102715761029f9201613942565b6009111561041e57565b906102f782613a7a565b61029f90613a84565b6102e390613a8e565b6020810192916102f79190613a97565b5092939290613ac261029f60ff610d70565b821015613d7357613ad661145960fe61134b565b946340731c24956000613ae860405190565b8092613af48a60e01b90565b82526004820187905260249082905afa9081156123e757613b229161018091600091613d6057500151151590565b613d4e576000613b4196613b3961145960fe61134b565b60405161233a565b82526004820186905260249082905afa9081156123e757613c02613bee96613b7a6040613c1995613be79b600091613d2d575b50015190565b978891613b8683614db8565b60009a8b95613b9487614f60565b613b9d87614fc5565b613bde339b613bca613baf60ff610d70565b97613bbc61220e8a611e32565b613bc4611e41565b9a8b0152565b613bd58b60208b0152565b15156040890152565b60608701611e4c565b6080850152565b613bfb8760a08501611e4c565b60c0830152565b613c0f8760e08301611e56565b61230860fd61134b565b92613c2683610140860152565b613c3361145960fe61134b565b956338c9078496803b1561027157613c59978291613c5060405190565b998a9260e01b90565b8252818381613c6b8b6004830161211e565b03925af19485156123e75761029f97613cc496613d11575b500194613c8e865190565b613cb8613cb2613cac6000805160206150ea83398151915293610669565b93610669565b936102d1565b9586946123ab60405190565b0390a4600590613d0a613cf77f3473dfc886ad31b741db90afbfc515fb06d8c74b492a52b521040bffb99b109492610669565b92613d0160405190565b91829182613aa0565b0390a35190565b613d2790833d85116123e0576123d281836106e0565b38613c83565b613d48913d8091833e613d4081836106e0565b810190613a55565b38613b74565b604051632f526a5360e21b8152600490fd5b61241a913d8091833e613d4081836106e0565b60405163b81544cb60e01b8152600490fd5b61029f9493929190600061391f565b9061029f939291613da36125e2565b613ebf565b6001600160401b0381116107015760208091020190565b906112ee61075683613da8565b906102f761130e613ddc84613dbf565b93613da8565b903590609e193682900301821215610271570190565b9082101561187b57602061029f9202810190613de2565b903590601e19368290030182121561027157018035906001600160401b038211610271576020019136829003831361027157565b3561029f81610877565b3561029f8161057b565b3561029f8161038f565b3561029f816103d3565b61029f913691610746565b90613e7f825190565b81101561187b576020809102010190565b9190610e9281613ea7816107369560209181520190565b809561073a565b602080825261029f93910191613e90565b509192613ecb83614db8565b8392613ed861029f610676565b84116141d557613ee66109fe565b91613ef5610ebb338095610d41565b614197575b613f0385613dcc565b90600090613f1082610669565b875b81101561412c57613f24818a89613df8565b838101613f3091613e0f565b908a613f3d84828c613df8565b602001613f4990613e43565b818b86613f57818484613df8565b604001613f6390613e4d565b92613f6d92613df8565b606001613f7990613e57565b918c87613f8660ff610d70565b95613f9087611e32565b613f9b9060ff611d91565b613fa492613df8565b608001613fb090613e61565b94613fb9611e41565b96613fc48d8c8a0152565b613fcd91613e6b565b602087015215156040860152613fe69060608601611e4c565b6080840152613ff88960a08501611e4c565b60c083015261400a9060e08301611e56565b61401460fd61134b565b61401d916125ff565b61402760fe61134b565b614030906102d1565b916338c9078492803b156102715761405693869161404d60405190565b95869260e01b90565b8252818381614068886004830161211e565b03925af19182156123e7576140bd6140b4836140ad8f948a90613f129961410999614110575b50016140a98c6140a6856140a0855190565b92613e76565b52565b5190565b938d613df8565b87810190613e0f565b90916140d76000805160206150ea83398151915291610669565b906140e18b610669565b926140eb8d6102d1565b946141016140f860405190565b92839283613eae565b0390a4611e32565b9050613f10565b61412690833d85116123e0576123d281836106e0565b3861408e565b50965050935091506141494261414483610101610836565b611d91565b61417c6141767ff224a8904d2da43e6b8697f8834ed15dc8245dafd2e518b412f64ca71f843ac393610669565b916102d1565b9161418660405190565b806141918682610b8a565b0390a390565b426141bd6114fe61029f6141b56141b088610101610836565b610d70565b611929610937565b1015613efa576040516370224ca760e11b8152600490fd5b604051630d67f41160e21b8152600490fd5b61029f9291906060613d94565b906102f7916142016125e2565b61420a81614edd565b61421761145960fe61134b565b6340731c2490600061422860405190565b80926142348560e01b90565b82526004820186905260249082905afa9081156123e7576142629161018091600091613d6057500151151590565b613d4e5760006142869161427961145960fe61134b565b6040515b93849260e01b90565b82526004820185905260249082905afa9081156123e75783916060916000916142ee575b50015233906142e96142df613cb27f99cef96894bce91ada1fac6cdc3094423e3cb7dc7efc085c9e10d5e74fa990ad93610669565b936123ab60405190565b0390a3565b614301913d8091833e613d4081836106e0565b386142aa565b906102f7916141f4565b611d759061431d61446f565b6102f7906143296125e2565b61433281614edd565b614353600061434461145960fe61134b565b6340731c249061427d60405190565b82526004820185905260249082905afa9081156123e7576143819161018091600091613d6057500151151590565b613d4e5761439261145960fe61134b565b6372d3c39190803b15610271576143af9160009161427d60405190565b825260048201859052602490829084905af180156123e7576143fa575b50336143e96141766000805160206150aa83398151915293610669565b916143f360405190565b80806142e9565b61440a9060006123d281836106e0565b386143cc565b6102f790614311565b61029f6002610669565b1561442a57565b60405162461bcd60e51b815260206004820152601f60248201527f5265656e7472616e637947756172643a207265656e7472616e742063616c6c006044820152606490fd5b6102f761447d610104610d70565b611db3614488614419565b91821415614423565b90611d75929161449f61446f565b906102f792916144ad6125e2565b6144e1565b6144be6102e391610572565b60601b90565b6102e39060ff1660f81b90565b0180926144b2565b0180926144c4565b9190916144f6600061434461145960fe61134b565b82526004820185905260249082905afa9081156123e7576145249161018091600091613d6057500151151590565b613d4e573391600461457a61453882613a8e565b61456961454460405190565b8092610f1160208301918a8a84600193926144d96020836144d1601495610736979052565b614574613591825190565b20610dc6565b6145936114fe60019261458c84610669565b1692610669565b146146c0576145cb6141b0846101036145c66145af8383610c48565b6145c06145bb82610d70565b611e32565b90611d91565b610c48565b6145d96114fe61029f610676565b101561461b575b5061460e613cb27f52445589f146589c7ef4b77e2a66d0492b4addd046b14551af597215c433474693610669565b936142e96140f860405190565b61462861145960fe61134b565b906372d3c39190823b156102715784926146586000809461466561464b60405190565b9788968795869460e01b90565b8452830190815260200190565b03925af180156123e7576146aa575b506000805160206150aa83398151915261468d83610669565b614696856102d1565b916146a060405190565b600090a3386145e0565b6146ba9060006123d281836106e0565b38614674565b610f36906146cd60405190565b63770c15e360e01b8152918291820190565b906102f79291614491565b6146f4600e6112e1565b6d113a3cb832911d1122ab22a72a1160911b602082015290565b61029f6146ea565b61472060136112e1565b72113a3cb832911d112924a1a42fa6a2a224a09160691b602082015290565b61029f614716565b614751600d6112e1565b6c113a3cb832911d112827a6261160991b602082015290565b61029f614747565b61477c60196112e1565b78113a3cb832911d1121a7a6a6aaa724aa2cafaaa82220aa229160391b602082015290565b61029f614772565b906020828203126102715761029f91611f33565b9081526040810192916102f79160200190612043565b600090816147e26121bc61470e565b1561481d5750600291506147fa610ebb6121bc6127ac565b90811561480a575b506127d15790565b61481791506127f16127ac565b38614802565b6148286121bc61473f565b1561485c575060019150614840610ebb6121bc612821565b90811561484f57506127d15790565b61481791506127f1612821565b6148676121bc612878565b8015614ab8575b156149ff575060049081926148846121bc612878565b156149845761489661145960fb61134b565b60206391d14854916148a66104cf565b906148c533946148cf6148b860405190565b9687958694859460e01b90565b84528b84016147bd565b03915afa9081156123e7576148e8929161495c57501590565b61493d576148fa610ebb6121bc6128db565b90811561492a575b5061490b575090565b610f369061491860405190565b63c6eb31dd60e01b8152918291820190565b61493791506127f16128db565b38614902565b610f368261494a60405190565b630318bf7160e11b8152918291820190565b610ebb915060203d811161497d575b61497581836106e0565b8101906147a9565b503d61496b565b61498f6121bc6128ad565b6149995750505090565b6149a661145960fb61134b565b60206391d14854916149b66104cf565b906148c533946149c86148b860405190565b03915afa9081156123e7576149e1929161495c57501590565b61493d57610ebb6149f4916121d56128db565b61490b57808061317a565b909150614a0d6121bc61476a565b15614a405750600390614a24610ebb6121bc612df3565b908115614a3357506127d15790565b61481791506127f1612df3565b614a4b6121bc6147a1565b15614a695750614a62610ebb6005926121d5612e4c565b6127d15790565b90614a756128ee612ea5565b15614a81575050600690565b614a8c6128ee612ede565b9081614aa1575b501561029f576040516127d5565b614ab29150610ebb906121d5612f09565b38614a93565b50614ac46121bc6128ad565b61486e565b614ad4610da2610a88565b6102f76102f7614b4c565b6102f7614ac9565b614aef6125e2565b6102f7614b07565b6020810192916102f79190612043565b614b146001610136610ffc565b33611bfe7f62e78cea01bee320cd4e420270b5ea74000d11b0c9f74754ebdbfc544b05a25891614b4360405190565b91829182614af7565b6102f7614ae7565b614b5f610da2610a88565b6102f76102f7614bb9565b6102f7614b54565b614b7a614c04565b6102f7614b8a6000610136610ffc565b33611bfe7f5db9ee0a495bf2e6ff9c91a7834c1ba4fdd244a5e8aa4e537bd38aeae4b073aa91614b4360405190565b6102f7614b72565b15614bc857565b60405162461bcd60e51b815260206004820152601460248201527314185d5cd8589b194e881b9bdd081c185d5cd95960621b6044820152606490fd5b6102f7614c0f6116a1565b614bc1565b906102f7939291614c28611d0b6000611aa0565b614c62614c6993611459614c5b614c709795611459614c5461145997614c4c614cc0565b611459614cc0565b60fb6115ae565b60fc6115ae565b60fd6115ae565b60fe6115ae565b614c9f614c7b610a88565b614c86338092611017565b614c9781614c926109fe565b611017565b614c926104cf565b6102f7614cdd565b906102f7939291614c14565b6102f7611d0b6000611aa0565b6102f7614cb3565b506102f7610da2610a88565b6102f790614cc8565b6102f7614cea603c610669565b614cfc61010291614144600084610436565b614144614d096078610669565b91614d1983614144600184610436565b614d31614d26601e610669565b614144600284610436565b614d68614d3f61012c610669565b614d4e81614144600386610436565b614d5d85614144600486610436565b614144600584610436565b600690610436565b6004111561027157565b905051906102f782614d70565b906020828203126102715761029f91614d7a565b6004111561041e57565b906102f782614d9b565b61029f90614da5565b614dc561145960fc61134b565b906326e98b8b33926020614dd860405190565b8092614de48560e01b90565b82528180614df68989600484016147bd565b03915afa9081156123e757600091614ebf575b50614e1d614e176001614da5565b91614da5565b03614e2757505050565b90602091614e48614e3b61145960fc61134b565b91614e536148b860405190565b8452600484016147bd565b03915afa9081156123e757610f3691614e7491600091614e91575b50614daf565b60405163e3f9340d60e01b81529182916004830190815260200190565b614eb2915060203d8111614eb8575b614eaa81836106e0565b810190614d87565b83614e6e565b503d614ea0565b614ed7915060203d8111614eb857614eaa81836106e0565b38614e09565b6000614f0191614ef061145960fe61134b565b6122c56340731c246122b860405190565b03915afa9081156123e757614f2291602091600091614f47575b5001611ecf565b614f2e61118f33610572565b03614f3557565b6040516332b4f84560e21b8152600490fd5b614f5a913d8091833e613d4081836106e0565b38614f1b565b614f686109fe565b90614f77610ebb338094610d41565b614f7f575050565b6114fe61029f826119296141b0614fa36141b0614fac97610856429a610100610836565b92610102610436565b10614fb357565b60405163aa9a98df60e01b8152600490fd5b6102f79061414442916108566101003390610836565b906102f791614feb610da26109fe565b614ffb8261414483610102610436565b61166c6150287fc6c4ea05b7c57af45d48db1560fcabb6e1fca3d85920a5dd0b07d43c58089e949261042d565b9261049b60405190565b906102f791614fdb565b6141b061029f9161504b600090565b50610102610436565b906119296141b0614fa36141b08461085661507a97615071600090565b50610100610836565b428181101561508c5761029f91611dd9565b505061029f6000610669565b6150a0610676565b9061029f61093756fe1da4a15b15417b54b8b3bea2ca87cfc4c94f0fee7d86702d0dab9e2906e7a7d346756e6374696f6e206d7573742062652063616c6c6564207468726f7567682061a7a6dea2aa2bb38e8d1303241c981b5ba162215611d715da3efa50195c177da164736f6c6343000814000a",
  "linkReferences": {},
  "deployedLinkReferences": {}
}