{
  "_format": "hh-sol-artifact-1",
  "contractName": "CommunityPoints",
  "sourceName": "contracts/CommunityPoints.sol",
  "abi": [
    {
      "inputs": [
        {
          "internalType": "address",
          "name": "_roleManager",
          "type": "address"
        },
        {
          "internalType": "address",
          "name": "_verifier",
          "type": "address"
        }
      ],
      "stateMutability": "nonpayable",
      "type": "constructor"
    },
    {
      "inputs": [],
      "name": "ECDSAInvalidSignature",
      "type": "error"
    },
    {
      "inputs": [
        {
          "internalType": "uint256",
          "name": "length",
          "type": "uint256"
        }
      ],
      "name": "ECDSAInvalidSignatureLength",
      "type": "error"
    },
    {
      "inputs": [
        {
          "internalType": "bytes32",
          "name": "s",
          "type": "bytes32"
        }
      ],
      "name": "ECDSAInvalidSignatureS",
      "type": "error"
    },
    {
      "anonymous": false,
      "inputs": [
        {
          "indexed": true,
          "internalType": "address",
          "name": "user",
          "type": "address"
        },
        {
          "indexed": false,
          "internalType": "uint256",
          "name": "points",
          "type": "uint256"
        },
        {
          "indexed": false,
          "internalType": "uint256",
          "name": "collectibleType",
          "type": "uint256"
        }
      ],
      "name": "PointsRedeemed",
      "type": "event"
    },
    {
      "inputs": [
        {
          "internalType": "uint256",
          "name": "points",
          "type": "uint256"
        },
        {
          "internalType": "uint256",
          "name": "collectibleType",
          "type": "uint256"
        },
        {
          "internalType": "bytes",
          "name": "signature",
          "type": "bytes"
        }
      ],
      "name": "redeemPoints",
      "outputs": [],
      "stateMutability": "nonpayable",
      "type": "function"
    },
    {
      "inputs": [],
      "name": "roleManager",
      "outputs": [
        {
          "internalType": "contract RoleManager",
          "name": "",
          "type": "address"
        }
      ],
      "stateMutability": "view",
      "type": "function"
    },
    {
      "inputs": [
        {
          "internalType": "address",
          "name": "newVerifier",
          "type": "address"
        }
      ],
      "name": "setVerifier",
      "outputs": [],
      "stateMutability": "nonpayable",
      "type": "function"
    },
    {
      "inputs": [
        {
          "internalType": "bytes",
          "name": "",
          "type": "bytes"
        }
      ],
      "name": "usedSignatures",
      "outputs": [
        {
          "internalType": "bool",
          "name": "",
          "type": "bool"
        }
      ],
      "stateMutability": "view",
      "type": "function"
    },
    {
      "inputs": [],
      "name": "verifier",
      "outputs": [
        {
          "internalType": "address",
          "name": "",
          "type": "address"
        }
      ],
      "stateMutability": "view",
      "type": "function"
    }
  ],
  "bytecode": "0x60803461008d57601f61070638819003918201601f19168301916001600160401b0383118484101761009257808492604094855283398101031261008d57610052602061004b836100a8565b92016100a8565b600080546001600160a01b039384166001600160a01b0319918216179091556001805492909316911617905560405161064990816100bd8239f35b600080fd5b634e487b7160e01b600052604160045260246000fd5b51906001600160a01b038216820361008d5756fe60806040908082526004918236101561001757600080fd5b600091823560e01c908162435da514610443575080632b7ac3f31461041b5780635437988d146102cb57806362204a6e146100e55763e949580e1461005b57600080fd5b346100e157602092836003193601126100dd57803567ffffffffffffffff81116100d957366023820112156100d9579081602461009d9336930135910161049f565b838251918051945b8581106100c85750508160ff939481016002815203019020541690519015158152f35b8181018301518482015282016100a5565b8380fd5b8280fd5b5080fd5b508290346100dd5760603660031901126100dd5781359160249081359160443567ffffffffffffffff928382116102c757366023830112156102c75781810135928484116102c35780830192818536920101116102c3578651948484873760ff86868101600281526020988991030190205416610288578751868101913360601b83528a6034830152886054830152605482526080820190828210908211176102765789525190207f19457468657265756d205369676e6564204d6573736167653a0a3332000000008a52601c526101d76101ce603c8b206101c836888861049f565b906104eb565b909291926105b7565b6001546001600160a01b03908116911603610240575050908285949392827f8489cc43a42dbf9d33259b91b6c919c19644ac3b135272570f33f989637a11029751938492833781016002815203019020600160ff1982541617905582519485528401523392a280f35b865162461bcd60e51b815291820185905260119082015270496e76616c6964207369676e617475726560781b6044820152606490fd5b634e487b7160e01b8c5260418552838cfd5b875162461bcd60e51b81528084018790526016818401527514da59db985d1d5c9948185b1c9958591e481d5cd95960521b6044820152606490fd5b8880fd5b8780fd5b5082346100dd576020806003193601126100d95781356001600160a01b0381811694918590036103c957855416815163a217fddf60e01b815283818681855afa9081156104115790849188916103de575b506044845180948193632474521560e21b8352898301523360248301525afa9081156103d457869161039a575b501561036d575050506bffffffffffffffffffffffff60a01b600154161760015580f35b5162461bcd60e51b81529182015260096024820152682737ba1030b236b4b760b91b604482015260649150fd5b90508281813d83116103cd575b6103b18183610467565b810103126103c9575180151581036103c95786610349565b8580fd5b503d6103a7565b82513d88823e3d90fd5b82819392503d831161040a575b6103f58183610467565b81010312610406578390518861031c565b8680fd5b503d6103eb565b83513d89823e3d90fd5b50346100e157816003193601126100e15760015490516001600160a01b039091168152602090f35b8390346100e157816003193601126100e15790546001600160a01b03168152602090f35b90601f8019910116810190811067ffffffffffffffff82111761048957604052565b634e487b7160e01b600052604160045260246000fd5b92919267ffffffffffffffff821161048957604051916104c9601f8201601f191660200184610467565b8294818452818301116104e6578281602093846000960137010152565b600080fd5b815191906041830361051c5761051592506020820151906060604084015193015160001a90610527565b9192909190565b505060009160029190565b91907f7fffffffffffffffffffffffffffffff5d576e7357a4501ddfe92f46681b20a084116105ab57926020929160ff608095604051948552168484015260408301526060820152600092839182805260015afa1561059f5780516001600160a01b0381161561059657918190565b50809160019190565b604051903d90823e3d90fd5b50505060009160039190565b600481101561062657806105c9575050565b600181036105e35760405163f645eedf60e01b8152600490fd5b600281036106045760405163fce698f760e01b815260048101839052602490fd5b60031461060e5750565b602490604051906335e2f38360e21b82526004820152fd5b634e487b7160e01b600052602160045260246000fdfea164736f6c6343000814000a",
  "linkReferences": {},
  "deployedLinkReferences": {}
}