{
  "_format": "hh-sol-artifact-1",
  "contractName": "PostFeedManager",
  "sourceName": "contracts/PostFeedManager.sol",
  "abi": [
    {
      "inputs": [
        {
          "internalType": "address",
          "name": "_tribeController",
          "type": "address"
        }
      ],
      "stateMutability": "nonpayable",
      "type": "constructor"
    },
    {
      "inputs": [],
      "name": "AccessControlBadConfirmation",
      "type": "error"
    },
    {
      "inputs": [
        {
          "internalType": "address",
          "name": "account",
          "type": "address"
        },
        {
          "internalType": "bytes32",
          "name": "neededRole",
          "type": "bytes32"
        }
      ],
      "name": "AccessControlUnauthorizedAccount",
      "type": "error"
    },
    {
      "anonymous": false,
      "inputs": [
        {
          "indexed": true,
          "internalType": "bytes32",
          "name": "role",
          "type": "bytes32"
        },
        {
          "indexed": true,
          "internalType": "bytes32",
          "name": "previousAdminRole",
          "type": "bytes32"
        },
        {
          "indexed": true,
          "internalType": "bytes32",
          "name": "newAdminRole",
          "type": "bytes32"
        }
      ],
      "name": "RoleAdminChanged",
      "type": "event"
    },
    {
      "anonymous": false,
      "inputs": [
        {
          "indexed": true,
          "internalType": "bytes32",
          "name": "role",
          "type": "bytes32"
        },
        {
          "indexed": true,
          "internalType": "address",
          "name": "account",
          "type": "address"
        },
        {
          "indexed": true,
          "internalType": "address",
          "name": "sender",
          "type": "address"
        }
      ],
      "name": "RoleGranted",
      "type": "event"
    },
    {
      "anonymous": false,
      "inputs": [
        {
          "indexed": true,
          "internalType": "bytes32",
          "name": "role",
          "type": "bytes32"
        },
        {
          "indexed": true,
          "internalType": "address",
          "name": "account",
          "type": "address"
        },
        {
          "indexed": true,
          "internalType": "address",
          "name": "sender",
          "type": "address"
        }
      ],
      "name": "RoleRevoked",
      "type": "event"
    },
    {
      "inputs": [],
      "name": "DEFAULT_ADMIN_ROLE",
      "outputs": [
        {
          "internalType": "bytes32",
          "name": "",
          "type": "bytes32"
        }
      ],
      "stateMutability": "view",
      "type": "function"
    },
    {
      "inputs": [
        {
          "components": [
            {
              "internalType": "uint256",
              "name": "id",
              "type": "uint256"
            },
            {
              "internalType": "address",
              "name": "creator",
              "type": "address"
            },
            {
              "internalType": "uint256",
              "name": "tribeId",
              "type": "uint256"
            },
            {
              "internalType": "string",
              "name": "metadata",
              "type": "string"
            },
            {
              "internalType": "bool",
              "name": "isGated",
              "type": "bool"
            },
            {
              "internalType": "address",
              "name": "collectibleContract",
              "type": "address"
            },
            {
              "internalType": "uint256",
              "name": "collectibleId",
              "type": "uint256"
            },
            {
              "internalType": "bool",
              "name": "isEncrypted",
              "type": "bool"
            },
            {
              "internalType": "bytes32",
              "name": "encryptionKeyHash",
              "type": "bytes32"
            },
            {
              "internalType": "address",
              "name": "accessSigner",
              "type": "address"
            },
            {
              "internalType": "uint256",
              "name": "parentPostId",
              "type": "uint256"
            },
            {
              "internalType": "uint256",
              "name": "createdAt",
              "type": "uint256"
            },
            {
              "internalType": "bool",
              "name": "isDeleted",
              "type": "bool"
            }
          ],
          "internalType": "struct FeedHelpers.PostData",
          "name": "post",
          "type": "tuple"
        }
      ],
      "name": "addPost",
      "outputs": [],
      "stateMutability": "nonpayable",
      "type": "function"
    },
    {
      "inputs": [
        {
          "internalType": "address",
          "name": "user",
          "type": "address"
        },
        {
          "internalType": "uint256",
          "name": "offset",
          "type": "uint256"
        },
        {
          "internalType": "uint256",
          "name": "limit",
          "type": "uint256"
        }
      ],
      "name": "getFeedForUser",
      "outputs": [
        {
          "internalType": "uint256[]",
          "name": "postIds",
          "type": "uint256[]"
        },
        {
          "internalType": "uint256",
          "name": "total",
          "type": "uint256"
        }
      ],
      "stateMutability": "view",
      "type": "function"
    },
    {
      "inputs": [
        {
          "internalType": "uint256",
          "name": "postId",
          "type": "uint256"
        }
      ],
      "name": "getPost",
      "outputs": [
        {
          "components": [
            {
              "internalType": "uint256",
              "name": "id",
              "type": "uint256"
            },
            {
              "internalType": "address",
              "name": "creator",
              "type": "address"
            },
            {
              "internalType": "uint256",
              "name": "tribeId",
              "type": "uint256"
            },
            {
              "internalType": "string",
              "name": "metadata",
              "type": "string"
            },
            {
              "internalType": "bool",
              "name": "isGated",
              "type": "bool"
            },
            {
              "internalType": "address",
              "name": "collectibleContract",
              "type": "address"
            },
            {
              "internalType": "uint256",
              "name": "collectibleId",
              "type": "uint256"
            },
            {
              "internalType": "bool",
              "name": "isEncrypted",
              "type": "bool"
            },
            {
              "internalType": "bytes32",
              "name": "encryptionKeyHash",
              "type": "bytes32"
            },
            {
              "internalType": "address",
              "name": "accessSigner",
              "type": "address"
            },
            {
              "internalType": "uint256",
              "name": "parentPostId",
              "type": "uint256"
            },
            {
              "internalType": "uint256",
              "name": "createdAt",
              "type": "uint256"
            },
            {
              "internalType": "bool",
              "name": "isDeleted",
              "type": "bool"
            }
          ],
          "internalType": "struct FeedHelpers.PostData",
          "name": "",
          "type": "tuple"
        }
      ],
      "stateMutability": "view",
      "type": "function"
    },
    {
      "inputs": [
        {
          "internalType": "uint256",
          "name": "tribeId",
          "type": "uint256"
        },
        {
          "internalType": "uint256",
          "name": "offset",
          "type": "uint256"
        },
        {
          "internalType": "uint256",
          "name": "limit",
          "type": "uint256"
        }
      ],
      "name": "getPostsByTribe",
      "outputs": [
        {
          "internalType": "uint256[]",
          "name": "postIds",
          "type": "uint256[]"
        },
        {
          "internalType": "uint256",
          "name": "total",
          "type": "uint256"
        }
      ],
      "stateMutability": "view",
      "type": "function"
    },
    {
      "inputs": [
        {
          "internalType": "uint256",
          "name": "tribeId",
          "type": "uint256"
        },
        {
          "internalType": "address",
          "name": "user",
          "type": "address"
        },
        {
          "internalType": "uint256",
          "name": "offset",
          "type": "uint256"
        },
        {
          "internalType": "uint256",
          "name": "limit",
          "type": "uint256"
        }
      ],
      "name": "getPostsByTribeAndUser",
      "outputs": [
        {
          "internalType": "uint256[]",
          "name": "postIds",
          "type": "uint256[]"
        },
        {
          "internalType": "uint256",
          "name": "total",
          "type": "uint256"
        }
      ],
      "stateMutability": "view",
      "type": "function"
    },
    {
      "inputs": [
        {
          "internalType": "address",
          "name": "user",
          "type": "address"
        },
        {
          "internalType": "uint256",
          "name": "offset",
          "type": "uint256"
        },
        {
          "internalType": "uint256",
          "name": "limit",
          "type": "uint256"
        }
      ],
      "name": "getPostsByUser",
      "outputs": [
        {
          "internalType": "uint256[]",
          "name": "postIds",
          "type": "uint256[]"
        },
        {
          "internalType": "uint256",
          "name": "total",
          "type": "uint256"
        }
      ],
      "stateMutability": "view",
      "type": "function"
    },
    {
      "inputs": [
        {
          "internalType": "bytes32",
          "name": "role",
          "type": "bytes32"
        }
      ],
      "name": "getRoleAdmin",
      "outputs": [
        {
          "internalType": "bytes32",
          "name": "",
          "type": "bytes32"
        }
      ],
      "stateMutability": "view",
      "type": "function"
    },
    {
      "inputs": [
        {
          "internalType": "bytes32",
          "name": "role",
          "type": "bytes32"
        },
        {
          "internalType": "address",
          "name": "account",
          "type": "address"
        }
      ],
      "name": "grantRole",
      "outputs": [],
      "stateMutability": "nonpayable",
      "type": "function"
    },
    {
      "inputs": [
        {
          "internalType": "bytes32",
          "name": "role",
          "type": "bytes32"
        },
        {
          "internalType": "address",
          "name": "account",
          "type": "address"
        }
      ],
      "name": "hasRole",
      "outputs": [
        {
          "internalType": "bool",
          "name": "",
          "type": "bool"
        }
      ],
      "stateMutability": "view",
      "type": "function"
    },
    {
      "inputs": [
        {
          "internalType": "uint256",
          "name": "postId",
          "type": "uint256"
        }
      ],
      "name": "markPostDeleted",
      "outputs": [],
      "stateMutability": "nonpayable",
      "type": "function"
    },
    {
      "inputs": [
        {
          "internalType": "uint256",
          "name": "",
          "type": "uint256"
        }
      ],
      "name": "posts",
      "outputs": [
        {
          "internalType": "uint256",
          "name": "id",
          "type": "uint256"
        },
        {
          "internalType": "address",
          "name": "creator",
          "type": "address"
        },
        {
          "internalType": "uint256",
          "name": "tribeId",
          "type": "uint256"
        },
        {
          "internalType": "string",
          "name": "metadata",
          "type": "string"
        },
        {
          "internalType": "bool",
          "name": "isGated",
          "type": "bool"
        },
        {
          "internalType": "address",
          "name": "collectibleContract",
          "type": "address"
        },
        {
          "internalType": "uint256",
          "name": "collectibleId",
          "type": "uint256"
        },
        {
          "internalType": "bool",
          "name": "isEncrypted",
          "type": "bool"
        },
        {
          "internalType": "bytes32",
          "name": "encryptionKeyHash",
          "type": "bytes32"
        },
        {
          "internalType": "address",
          "name": "accessSigner",
          "type": "address"
        },
        {
          "internalType": "uint256",
          "name": "parentPostId",
          "type": "uint256"
        },
        {
          "internalType": "uint256",
          "name": "createdAt",
          "type": "uint256"
        },
        {
          "internalType": "bool",
          "name": "isDeleted",
          "type": "bool"
        }
      ],
      "stateMutability": "view",
      "type": "function"
    },
    {
      "inputs": [
        {
          "internalType": "bytes32",
          "name": "role",
          "type": "bytes32"
        },
        {
          "internalType": "address",
          "name": "callerConfirmation",
          "type": "address"
        }
      ],
      "name": "renounceRole",
      "outputs": [],
      "stateMutability": "nonpayable",
      "type": "function"
    },
    {
      "inputs": [
        {
          "internalType": "bytes32",
          "name": "role",
          "type": "bytes32"
        },
        {
          "internalType": "address",
          "name": "account",
          "type": "address"
        }
      ],
      "name": "revokeRole",
      "outputs": [],
      "stateMutability": "nonpayable",
      "type": "function"
    },
    {
      "inputs": [
        {
          "internalType": "bytes4",
          "name": "interfaceId",
          "type": "bytes4"
        }
      ],
      "name": "supportsInterface",
      "outputs": [
        {
          "internalType": "bool",
          "name": "",
          "type": "bool"
        }
      ],
      "stateMutability": "view",
      "type": "function"
    },
    {
      "inputs": [],
      "name": "tribeController",
      "outputs": [
        {
          "internalType": "contract ITribeController",
          "name": "",
          "type": "address"
        }
      ],
      "stateMutability": "view",
      "type": "function"
    }
  ],
  "bytecode": "0x60a03461007d57601f61167338819003918201601f19168301916001600160401b038311848410176100825780849260209460405283398101031261007d57516001600160a01b0381169081900361007d5760805261005d33610098565b5060405161154a908161012982396080518181816109d601526110350152f35b600080fd5b634e487b7160e01b600052604160045260246000fd5b6001600160a01b031660008181527fad3228b676f7d3cd4284a5443f17f1962b36e491b30a40b2405849e597ba5fb5602052604081205490919060ff1661012457818052816020526040822081835260205260408220600160ff1982541617905533917f2f8788117e7eff1d82e926ec794901d17c78024a50270940304540a733656f0d8180a4600190565b509056fe608080604052600436101561001357600080fd5b60003560e01c90816301ffc9a714610b1d5750806306f91f5614610aee5780630b1e7f8314610a0557806316bfd12b146109c0578063248a9ca3146109915780632688da311461097a5780632f2ff15d1461093b57806336568abe146108f457806338c907841461047657806340731c241461027b57806372d3c3911461020c57806391d14854146101bf578063a217fddf146101a3578063d547741f14610162578063ee196278146101335763faa5b626146100cf57600080fd5b3461012e57608036600319011261012e576100e8610d2e565b600435600052600360205260406000209060018060a01b031660005260205261011a60643560443560406000206113d7565b9061012a60405192839283610b70565b0390f35b600080fd5b3461012e5761011a61014436610d58565b6001600160a01b0390921660009081526002602052604090206113d7565b3461012e57604036600319011261012e576101a1600435610181610d2e565b9080600052600060205261019c600160406000200154610d8f565b610e51565b005b3461012e57600036600319011261012e57602060405160008152f35b3461012e57604036600319011261012e576101d8610d2e565b600435600052600060205260406000209060018060a01b0316600052602052602060ff604060002054166040519015158152f35b3461012e57602036600319011261012e573360009081527fad3228b676f7d3cd4284a5443f17f1962b36e491b30a40b2405849e597ba5fb560205260409020546102589060ff16610ec6565b6004356000526004602052600b604060002001600160ff19825416179055600080f35b3461012e57602036600319011261012e57600061018060405161029d81610bed565b8281528260208201528260408201526060808201528260808201528260a08201528260c08201528260e08201528261010082015282610120820152826101408201528261016082015201526004356000526004602052604060002060ff600b6040519261030984610bed565b8054845260018101546001600160a01b031660208501526002810154604085015261033660038201610c48565b606085015260048101548381161515608086015260018060a01b039060081c1660a0850152600581015460c085015282600682015416151560e0850152600781015461010085015260018060a01b036008820154166101208501526009810154610140850152600a81015461016085015201541615156101808201526040518091602082528051602083015260018060a01b036020820151166040830152604081015160608301526101806103fc60608301516101a060808601526101c0850190610cee565b916080810151151560a085015260018060a01b0360a08201511660c085015260c081015160e085015260e0810151151561010085015261010081015161012085015260018060a01b036101208201511661014085015261014081015161016085015261016081015182850152015115156101a08301520390f35b3461012e5760031960203682011261012e5767ffffffffffffffff6004351161012e576101a0906004353603011261012e576040516104b481610bed565b6004356004013581526104cb602460043501610d44565b6020820152600435604481013560408301526064013567ffffffffffffffff811161012e57600435013660238201121561012e57600481013567ffffffffffffffff81116108de576040519161052b601f8301601f191660200184610c26565b818352366024838301011161012e57816000926024602093018386013783010152606082015261055f608460043501610d82565b608082015261057260a460043501610d44565b60a082015260c4600435013560c082015261059160e460043501610d82565b60e082015261010460043501356101008201526105b361012460043501610d44565b6101208201526004356101448101356101408301526101648101356101608301526105e19061018401610d82565b6101808201523360009081527fad3228b676f7d3cd4284a5443f17f1962b36e491b30a40b2405849e597ba5fb560205260409020546106229060ff16610ec6565b805160005260046020526040600020908051825560018060a01b0360208201511660018301906bffffffffffffffffffffffff60a01b82541617905560408101516002830155606081015180519067ffffffffffffffff82116108de5761068c6003850154610bb3565b601f8111610897575b50602090601f83116001146108205791806101a195926107a494600092610815575b50508160011b916000199060031b1c19161760038201555b600481016106ef60808501511515829060ff801983541691151516179055565b60a08401518154610100600160a81b0360089290921b91909116610100600160a81b031990911617905560c0830151600582015560e083015160068201805460ff191691151560ff1691909117905561010083015160078201556008810160018060a01b03610120850151166bffffffffffffffffffffffff60a01b8254161790556101408301516009820155610160830151600a820155600b610180840151151591019060ff801983541691151516179055565b604081015160005260016020526107c16040600020825190610f31565b60018060a01b0360208201511660005260026020526107e66040600020825190610f31565b604081810151600090815260036020908152828220818501516001600160a01b03168352905220905190610f31565b0151905086806106b7565b906003850160005260206000209160005b601f198516811061087f5750926101a195926001926107a49583601f19811610610866575b505050811b0160038201556106cf565b015160001960f88460031b161c19169055868080610856565b91926020600181928685015181550194019201610831565b600385016000526020600020601f840160051c8101602085106108d7575b601f830160051c820181106108cb575050610695565b600081556001016108b5565b50806108b5565b634e487b7160e01b600052604160045260246000fd5b3461012e57604036600319011261012e5761090d610d2e565b336001600160a01b03821603610929576101a190600435610e51565b60405163334bd91960e11b8152600490fd5b3461012e57604036600319011261012e576101a160043561095a610d2e565b90806000526000602052610975600160406000200154610d8f565b610dd3565b3461012e5761011a61098b36610d58565b91611008565b3461012e57602036600319011261012e5760043560005260006020526020600160406000200154604051908152f35b3461012e57600036600319011261012e576040517f00000000000000000000000000000000000000000000000000000000000000006001600160a01b03168152602090f35b3461012e57602036600319011261012e5760043560005260046020526020604060002080549060018060a01b039081600182015416906002810154610a4c60038301610c48565b600483015494600584015460ff60068601541690600786015492610aa9816008890154169560098901549760ff600b600a8c01549b0154169a6040519e8f9e8f908152015260408d015260608c6101a091829101528c0190610cee565b9860ff8116151560808c015260081c1660a08a015260c0890152151560e088015261010087015261012086015261014085015261016084015215156101808301520390f35b3461012e57606036600319011261012e57600435600052600160205261011a60443560243560406000206113d7565b3461012e57602036600319011261012e576004359063ffffffff60e01b821680920361012e57602091637965db0b60e01b8114908115610b5f575b5015158152f35b6301ffc9a760e01b14905083610b58565b92919060408401604085528151809152606085019060208093019060005b84828210610b9f5750505050930152565b835185529384019390920191600101610b8e565b90600182811c92168015610be3575b6020831014610bcd57565b634e487b7160e01b600052602260045260246000fd5b91607f1691610bc2565b6101a0810190811067ffffffffffffffff8211176108de57604052565b6020810190811067ffffffffffffffff8211176108de57604052565b90601f8019910116810190811067ffffffffffffffff8211176108de57604052565b9060405191826000825492610c5c84610bb3565b908184526001948581169081600014610ccb5750600114610c88575b5050610c8692500383610c26565b565b9093915060005260209081600020936000915b818310610cb3575050610c8693508201013880610c78565b85548884018501529485019487945091830191610c9b565b915050610c8694506020925060ff191682840152151560051b8201013880610c78565b919082519283825260005b848110610d1a575050826000602080949584010152601f8019910116010190565b602081830181015184830182015201610cf9565b602435906001600160a01b038216820361012e57565b35906001600160a01b038216820361012e57565b606090600319011261012e576004356001600160a01b038116810361012e57906024359060443590565b3590811515820361012e57565b80600052600060205260406000203360005260205260ff6040600020541615610db55750565b6044906040519063e2517d3f60e01b82523360048301526024820152fd5b9060009180835282602052604083209160018060a01b03169182845260205260ff60408420541615600014610e4c57808352826020526040832082845260205260408320600160ff198254161790557f2f8788117e7eff1d82e926ec794901d17c78024a50270940304540a733656f0d339380a4600190565b505090565b9060009180835282602052604083209160018060a01b03169182845260205260ff604084205416600014610e4c5780835282602052604083208284526020526040832060ff1981541690557ff6391f5c32d9c69d2a47ea670b442974b53935d1edc7fd64eb21e047a839171b339380a4600190565b15610ecd57565b60405162461bcd60e51b815260206004820152600e60248201526d139bdd08185d5d1a1bdc9a5e995960921b6044820152606490fd5b8054821015610f1b5760005260206000200190600090565b634e487b7160e01b600052603260045260246000fd5b8054680100000000000000008110156108de57610f5391600182018155610f03565b819291549060031b91821b91600019901b1916179055565b67ffffffffffffffff81116108de5760051b60200190565b6000198114610f925760010190565b634e487b7160e01b600052601160045260246000fd5b8051821015610f1b5760209160051b010190565b91908201809211610f9257565b90610fd382610f6b565b610fe06040519182610c26565b8281528092610ff1601f1991610f6b565b0190602036910137565b91908203918211610f9257565b604051630641a64960e21b81526001600160a01b03918216600482015293602493916000908690869082907f0000000000000000000000000000000000000000000000000000000000000000165afa9485156113cb57600095611337575b50600092835b86518510156110a75761109b6110a191611086878a610fa8565b51600052600160205260406000205490610fbc565b94610f83565b9361106c565b9295919490935082841080159061132f575b611311576110c683610fc9565b936110d084610fc9565b9660009460005b8551811015611182576110ea8187610fa8565b516000526001602052604060002060009080545b8c8b82851061111a57505050505061111590610f83565b6110d7565b9a611175918161114f879e9787986111486111398361117b9a9b610f03565b959054600396871b1c92610fa8565b5288610f03565b9054911b1c600052600460205261116f82600a6040600020015492610fa8565b52610f83565b99610f83565b91906110fe565b5096945091965091508351946000935b866000198101116112fc5760001987018510156112815760005b6111b68689610ffb565b600019810190811161125357811015611268576111d38188610fa8565b516000526004602052600a60406000200154906001810181116112535761121d91611201600183018a610fa8565b516000526004602052600a604060002001541161122257610f83565b6111ac565b61122c8189610fa8565b5161123a600183018a610fa8565b51611245838b610fa8565b5261116f600183018a610fa8565b89634e487b7160e01b60005260116004526000fd5b50919361127790939193610f83565b9391929092611192565b955095509092915082856112958383610fbc565b11156112ea576112a6915085610ffb565b906112b082610fc9565b9260005b8381106112c357505050509190565b806112da6112d46112e59385610fbc565b85610fa8565b5161116f8288610fa8565b6112b4565b6112f76112a69282610fbc565b610ffb565b87634e487b7160e01b60005260116004526000fd5b505092505060405161132281610c0a565b6000815260003681379190565b5085156110b9565b9094503d806000833e61134a8183610c26565b810190602090818184031261012e5780519067ffffffffffffffff821161012e57019180601f8401121561012e57825161138381610f6b565b936113916040519586610c26565b818552838086019260051b82010192831161012e578301905b8282106113bc57505050509338611066565b815181529083019083016113aa565b6040513d6000823e3d90fd5b9290600091600091825b8654811015611436576113f48188610f03565b90549060031b1c8452600460205260ff600b6040862001541615611421575b61141c90610f83565b6113e1565b9361142e61141c91610f83565b949050611413565b509093929192828210156115225761144e9082610fbc565b8183821161151a575b61146091610ffb565b9361146a85610fc9565b9184938592865b8954811080611511575b156115035761148a818b610f03565b9054600391821b1c8952600460205260ff600b60408b20015416156114b9575b506114b490610f83565b611471565b9096908a8587106114ed57916114e5916114d68a6114b495610f03565b9054911b1c61116f828a610fa8565b965b906114aa565b505095936114fd6114b491610f83565b946114e7565b509650965050509150509190565b5088871061147b565b839150611457565b505092506040519061153382610c0a565b808252368137919056fea164736f6c6343000814000a",
  "linkReferences": {},
  "deployedLinkReferences": {}
}