{
  "_format": "hh-sol-artifact-1",
  "contractName": "EventTickets",
  "sourceName": "contracts/EventController.sol",
  "abi": [
    {
      "inputs": [],
      "stateMutability": "nonpayable",
      "type": "constructor"
    },
    {
      "inputs": [
        {
          "internalType": "address",
          "name": "sender",
          "type": "address"
        },
        {
          "internalType": "uint256",
          "name": "balance",
          "type": "uint256"
        },
        {
          "internalType": "uint256",
          "name": "needed",
          "type": "uint256"
        },
        {
          "internalType": "uint256",
          "name": "tokenId",
          "type": "uint256"
        }
      ],
      "name": "ERC1155InsufficientBalance",
      "type": "error"
    },
    {
      "inputs": [
        {
          "internalType": "address",
          "name": "approver",
          "type": "address"
        }
      ],
      "name": "ERC1155InvalidApprover",
      "type": "error"
    },
    {
      "inputs": [
        {
          "internalType": "uint256",
          "name": "idsLength",
          "type": "uint256"
        },
        {
          "internalType": "uint256",
          "name": "valuesLength",
          "type": "uint256"
        }
      ],
      "name": "ERC1155InvalidArrayLength",
      "type": "error"
    },
    {
      "inputs": [
        {
          "internalType": "address",
          "name": "operator",
          "type": "address"
        }
      ],
      "name": "ERC1155InvalidOperator",
      "type": "error"
    },
    {
      "inputs": [
        {
          "internalType": "address",
          "name": "receiver",
          "type": "address"
        }
      ],
      "name": "ERC1155InvalidReceiver",
      "type": "error"
    },
    {
      "inputs": [
        {
          "internalType": "address",
          "name": "sender",
          "type": "address"
        }
      ],
      "name": "ERC1155InvalidSender",
      "type": "error"
    },
    {
      "inputs": [
        {
          "internalType": "address",
          "name": "operator",
          "type": "address"
        },
        {
          "internalType": "address",
          "name": "owner",
          "type": "address"
        }
      ],
      "name": "ERC1155MissingApprovalForAll",
      "type": "error"
    },
    {
      "inputs": [
        {
          "internalType": "address",
          "name": "owner",
          "type": "address"
        }
      ],
      "name": "OwnableInvalidOwner",
      "type": "error"
    },
    {
      "inputs": [
        {
          "internalType": "address",
          "name": "account",
          "type": "address"
        }
      ],
      "name": "OwnableUnauthorizedAccount",
      "type": "error"
    },
    {
      "anonymous": false,
      "inputs": [
        {
          "indexed": true,
          "internalType": "address",
          "name": "account",
          "type": "address"
        },
        {
          "indexed": true,
          "internalType": "address",
          "name": "operator",
          "type": "address"
        },
        {
          "indexed": false,
          "internalType": "bool",
          "name": "approved",
          "type": "bool"
        }
      ],
      "name": "ApprovalForAll",
      "type": "event"
    },
    {
      "anonymous": false,
      "inputs": [
        {
          "indexed": true,
          "internalType": "uint256",
          "name": "eventId",
          "type": "uint256"
        },
        {
          "indexed": true,
          "internalType": "address",
          "name": "organizer",
          "type": "address"
        },
        {
          "indexed": false,
          "internalType": "string",
          "name": "metadataURI",
          "type": "string"
        },
        {
          "indexed": false,
          "internalType": "uint256",
          "name": "maxTickets",
          "type": "uint256"
        },
        {
          "indexed": false,
          "internalType": "uint256",
          "name": "price",
          "type": "uint256"
        },
        {
          "indexed": false,
          "internalType": "bool",
          "name": "isPrivate",
          "type": "bool"
        }
      ],
      "name": "EventCreated",
      "type": "event"
    },
    {
      "anonymous": false,
      "inputs": [
        {
          "indexed": true,
          "internalType": "address",
          "name": "previousOwner",
          "type": "address"
        },
        {
          "indexed": true,
          "internalType": "address",
          "name": "newOwner",
          "type": "address"
        }
      ],
      "name": "OwnershipTransferred",
      "type": "event"
    },
    {
      "anonymous": false,
      "inputs": [
        {
          "indexed": true,
          "internalType": "uint256",
          "name": "eventId",
          "type": "uint256"
        },
        {
          "indexed": true,
          "internalType": "address",
          "name": "requester",
          "type": "address"
        },
        {
          "indexed": false,
          "internalType": "uint256",
          "name": "amount",
          "type": "uint256"
        }
      ],
      "name": "TicketApproved",
      "type": "event"
    },
    {
      "anonymous": false,
      "inputs": [
        {
          "indexed": true,
          "internalType": "uint256",
          "name": "eventId",
          "type": "uint256"
        },
        {
          "indexed": true,
          "internalType": "address",
          "name": "buyer",
          "type": "address"
        },
        {
          "indexed": false,
          "internalType": "uint256",
          "name": "amount",
          "type": "uint256"
        }
      ],
      "name": "TicketPurchased",
      "type": "event"
    },
    {
      "anonymous": false,
      "inputs": [
        {
          "indexed": true,
          "internalType": "uint256",
          "name": "eventId",
          "type": "uint256"
        },
        {
          "indexed": true,
          "internalType": "address",
          "name": "requester",
          "type": "address"
        },
        {
          "indexed": false,
          "internalType": "uint256",
          "name": "amount",
          "type": "uint256"
        }
      ],
      "name": "TicketRejected",
      "type": "event"
    },
    {
      "anonymous": false,
      "inputs": [
        {
          "indexed": true,
          "internalType": "uint256",
          "name": "eventId",
          "type": "uint256"
        },
        {
          "indexed": true,
          "internalType": "address",
          "name": "requester",
          "type": "address"
        },
        {
          "indexed": false,
          "internalType": "uint256",
          "name": "amount",
          "type": "uint256"
        }
      ],
      "name": "TicketRequested",
      "type": "event"
    },
    {
      "anonymous": false,
      "inputs": [
        {
          "indexed": true,
          "internalType": "address",
          "name": "operator",
          "type": "address"
        },
        {
          "indexed": true,
          "internalType": "address",
          "name": "from",
          "type": "address"
        },
        {
          "indexed": true,
          "internalType": "address",
          "name": "to",
          "type": "address"
        },
        {
          "indexed": false,
          "internalType": "uint256[]",
          "name": "ids",
          "type": "uint256[]"
        },
        {
          "indexed": false,
          "internalType": "uint256[]",
          "name": "values",
          "type": "uint256[]"
        }
      ],
      "name": "TransferBatch",
      "type": "event"
    },
    {
      "anonymous": false,
      "inputs": [
        {
          "indexed": true,
          "internalType": "address",
          "name": "operator",
          "type": "address"
        },
        {
          "indexed": true,
          "internalType": "address",
          "name": "from",
          "type": "address"
        },
        {
          "indexed": true,
          "internalType": "address",
          "name": "to",
          "type": "address"
        },
        {
          "indexed": false,
          "internalType": "uint256",
          "name": "id",
          "type": "uint256"
        },
        {
          "indexed": false,
          "internalType": "uint256",
          "name": "value",
          "type": "uint256"
        }
      ],
      "name": "TransferSingle",
      "type": "event"
    },
    {
      "anonymous": false,
      "inputs": [
        {
          "indexed": false,
          "internalType": "string",
          "name": "value",
          "type": "string"
        },
        {
          "indexed": true,
          "internalType": "uint256",
          "name": "id",
          "type": "uint256"
        }
      ],
      "name": "URI",
      "type": "event"
    },
    {
      "inputs": [
        {
          "internalType": "address",
          "name": "requester",
          "type": "address"
        },
        {
          "internalType": "uint256",
          "name": "eventId",
          "type": "uint256"
        }
      ],
      "name": "approveRequest",
      "outputs": [],
      "stateMutability": "nonpayable",
      "type": "function"
    },
    {
      "inputs": [
        {
          "internalType": "address",
          "name": "account",
          "type": "address"
        },
        {
          "internalType": "uint256",
          "name": "id",
          "type": "uint256"
        }
      ],
      "name": "balanceOf",
      "outputs": [
        {
          "internalType": "uint256",
          "name": "",
          "type": "uint256"
        }
      ],
      "stateMutability": "view",
      "type": "function"
    },
    {
      "inputs": [
        {
          "internalType": "address[]",
          "name": "accounts",
          "type": "address[]"
        },
        {
          "internalType": "uint256[]",
          "name": "ids",
          "type": "uint256[]"
        }
      ],
      "name": "balanceOfBatch",
      "outputs": [
        {
          "internalType": "uint256[]",
          "name": "",
          "type": "uint256[]"
        }
      ],
      "stateMutability": "view",
      "type": "function"
    },
    {
      "inputs": [
        {
          "internalType": "uint256",
          "name": "eventId",
          "type": "uint256"
        }
      ],
      "name": "cancelEvent",
      "outputs": [],
      "stateMutability": "nonpayable",
      "type": "function"
    },
    {
      "inputs": [
        {
          "internalType": "string",
          "name": "metadataURI",
          "type": "string"
        },
        {
          "internalType": "uint256",
          "name": "maxTickets",
          "type": "uint256"
        },
        {
          "internalType": "uint256",
          "name": "price",
          "type": "uint256"
        },
        {
          "internalType": "bool",
          "name": "isPrivate",
          "type": "bool"
        }
      ],
      "name": "createEvent",
      "outputs": [
        {
          "internalType": "uint256",
          "name": "",
          "type": "uint256"
        }
      ],
      "stateMutability": "nonpayable",
      "type": "function"
    },
    {
      "inputs": [
        {
          "internalType": "uint256",
          "name": "",
          "type": "uint256"
        }
      ],
      "name": "events",
      "outputs": [
        {
          "internalType": "string",
          "name": "metadataURI",
          "type": "string"
        },
        {
          "internalType": "address",
          "name": "organizer",
          "type": "address"
        },
        {
          "internalType": "uint256",
          "name": "maxTickets",
          "type": "uint256"
        },
        {
          "internalType": "uint256",
          "name": "ticketsSold",
          "type": "uint256"
        },
        {
          "internalType": "uint256",
          "name": "price",
          "type": "uint256"
        },
        {
          "internalType": "bool",
          "name": "active",
          "type": "bool"
        },
        {
          "internalType": "bool",
          "name": "isPrivate",
          "type": "bool"
        }
      ],
      "stateMutability": "view",
      "type": "function"
    },
    {
      "inputs": [
        {
          "internalType": "uint256",
          "name": "id",
          "type": "uint256"
        }
      ],
      "name": "exists",
      "outputs": [
        {
          "internalType": "bool",
          "name": "",
          "type": "bool"
        }
      ],
      "stateMutability": "view",
      "type": "function"
    },
    {
      "inputs": [
        {
          "internalType": "address",
          "name": "account",
          "type": "address"
        },
        {
          "internalType": "address",
          "name": "operator",
          "type": "address"
        }
      ],
      "name": "isApprovedForAll",
      "outputs": [
        {
          "internalType": "bool",
          "name": "",
          "type": "bool"
        }
      ],
      "stateMutability": "view",
      "type": "function"
    },
    {
      "inputs": [],
      "name": "owner",
      "outputs": [
        {
          "internalType": "address",
          "name": "",
          "type": "address"
        }
      ],
      "stateMutability": "view",
      "type": "function"
    },
    {
      "inputs": [
        {
          "internalType": "uint256",
          "name": "eventId",
          "type": "uint256"
        },
        {
          "internalType": "uint256",
          "name": "amount",
          "type": "uint256"
        }
      ],
      "name": "purchaseTickets",
      "outputs": [],
      "stateMutability": "payable",
      "type": "function"
    },
    {
      "inputs": [
        {
          "internalType": "address",
          "name": "requester",
          "type": "address"
        },
        {
          "internalType": "uint256",
          "name": "eventId",
          "type": "uint256"
        }
      ],
      "name": "rejectRequest",
      "outputs": [],
      "stateMutability": "nonpayable",
      "type": "function"
    },
    {
      "inputs": [],
      "name": "renounceOwnership",
      "outputs": [],
      "stateMutability": "nonpayable",
      "type": "function"
    },
    {
      "inputs": [
        {
          "internalType": "uint256",
          "name": "eventId",
          "type": "uint256"
        },
        {
          "internalType": "uint256",
          "name": "amount",
          "type": "uint256"
        }
      ],
      "name": "requestTickets",
      "outputs": [],
      "stateMutability": "nonpayable",
      "type": "function"
    },
    {
      "inputs": [
        {
          "internalType": "address",
          "name": "from",
          "type": "address"
        },
        {
          "internalType": "address",
          "name": "to",
          "type": "address"
        },
        {
          "internalType": "uint256[]",
          "name": "ids",
          "type": "uint256[]"
        },
        {
          "internalType": "uint256[]",
          "name": "values",
          "type": "uint256[]"
        },
        {
          "internalType": "bytes",
          "name": "data",
          "type": "bytes"
        }
      ],
      "name": "safeBatchTransferFrom",
      "outputs": [],
      "stateMutability": "nonpayable",
      "type": "function"
    },
    {
      "inputs": [
        {
          "internalType": "address",
          "name": "from",
          "type": "address"
        },
        {
          "internalType": "address",
          "name": "to",
          "type": "address"
        },
        {
          "internalType": "uint256",
          "name": "id",
          "type": "uint256"
        },
        {
          "internalType": "uint256",
          "name": "value",
          "type": "uint256"
        },
        {
          "internalType": "bytes",
          "name": "data",
          "type": "bytes"
        }
      ],
      "name": "safeTransferFrom",
      "outputs": [],
      "stateMutability": "nonpayable",
      "type": "function"
    },
    {
      "inputs": [
        {
          "internalType": "address",
          "name": "operator",
          "type": "address"
        },
        {
          "internalType": "bool",
          "name": "approved",
          "type": "bool"
        }
      ],
      "name": "setApprovalForAll",
      "outputs": [],
      "stateMutability": "nonpayable",
      "type": "function"
    },
    {
      "inputs": [
        {
          "internalType": "bytes4",
          "name": "interfaceId",
          "type": "bytes4"
        }
      ],
      "name": "supportsInterface",
      "outputs": [
        {
          "internalType": "bool",
          "name": "",
          "type": "bool"
        }
      ],
      "stateMutability": "view",
      "type": "function"
    },
    {
      "inputs": [
        {
          "internalType": "address",
          "name": "",
          "type": "address"
        },
        {
          "internalType": "uint256",
          "name": "",
          "type": "uint256"
        }
      ],
      "name": "ticketRequests",
      "outputs": [
        {
          "internalType": "uint256",
          "name": "",
          "type": "uint256"
        }
      ],
      "stateMutability": "view",
      "type": "function"
    },
    {
      "inputs": [
        {
          "internalType": "uint256",
          "name": "",
          "type": "uint256"
        },
        {
          "internalType": "uint256",
          "name": "",
          "type": "uint256"
        }
      ],
      "name": "ticketTransferred",
      "outputs": [
        {
          "internalType": "bool",
          "name": "",
          "type": "bool"
        }
      ],
      "stateMutability": "view",
      "type": "function"
    },
    {
      "inputs": [],
      "name": "totalSupply",
      "outputs": [
        {
          "internalType": "uint256",
          "name": "",
          "type": "uint256"
        }
      ],
      "stateMutability": "view",
      "type": "function"
    },
    {
      "inputs": [
        {
          "internalType": "uint256",
          "name": "id",
          "type": "uint256"
        }
      ],
      "name": "totalSupply",
      "outputs": [
        {
          "internalType": "uint256",
          "name": "",
          "type": "uint256"
        }
      ],
      "stateMutability": "view",
      "type": "function"
    },
    {
      "inputs": [
        {
          "internalType": "address",
          "name": "newOwner",
          "type": "address"
        }
      ],
      "name": "transferOwnership",
      "outputs": [],
      "stateMutability": "nonpayable",
      "type": "function"
    },
    {
      "inputs": [
        {
          "internalType": "uint256",
          "name": "eventId",
          "type": "uint256"
        }
      ],
      "name": "uri",
      "outputs": [
        {
          "internalType": "string",
          "name": "",
          "type": "string"
        }
      ],
      "stateMutability": "view",
      "type": "function"
    }
  ],
  "bytecode": "0x6080346200014857602081016001600160401b03811182821017620001325760405260008091526002546001908181811c9116801562000127575b60208210146200011357601f8111620000c9575b5050806002553315620000b15760058054336001600160a01b031982168117909255604051926001600160a01b03909116907f8be0079c531659141344cd1fd0a4f28419497f9722a3daafe3b4186f6b6457e09080a361214b90816200014e8239f35b60249060405190631e4fbdf760e01b82526004820152fd5b60028352601f0160051c7f405787fa12a823e0f2b7631cc41b3ba8828b3321ca811111fa75cd3aa3bb5ace908101905b8181106200010857506200004e565b8381558201620000f9565b634e487b7160e01b83526022600452602483fd5b90607f16906200003a565b634e487b7160e01b600052604160045260246000fd5b600080fdfe6080604052600436101561001257600080fd5b60003560e01c8062fdd58e1461018657806301ffc9a714610181578063072f7c731461017c5780630b791430146101775780630e89341c1461017257806318160ddd1461016d57806328f608b9146101685780632986fc15146101635780632eb2c2d61461015e5780633e3328e2146101595780633f69babd146101545780634853f7001461014f5780634e1273f41461014a5780634f558e79146101455780636859dc1014610140578063715018a61461013b5780638da5cb5b14610136578063a22cb46514610131578063bd85b0391461012c578063e985e9c514610127578063f242432a14610122578063f2fde38b1461011d5763f4057c061461011857600080fd5b610f7a565b610eec565b610dce565b610d71565b610d45565b610c89565b610c60565b610bff565b610b6a565b610b3c565b610a82565b6109fe565b6109ac565b6108a6565b61077d565b6105c0565b610578565b61055a565b61051a565b610484565b6102ac565b61022f565b6101d0565b600435906001600160a01b03821682036101a157565b600080fd5b602435906001600160a01b03821682036101a157565b35906001600160a01b03821682036101a157565b346101a15760403660031901126101a15760206102146101ee61018b565b6024356000526000835260406000209060018060a01b0316600052602052604060002090565b54604051908152f35b6001600160e01b03198116036101a157565b346101a15760203660031901126101a157602060043561024e8161021d565b63ffffffff60e01b16636cdb3d1360e11b811490811561028c575b811561027b575b506040519015158152f35b6301ffc9a760e01b14905038610270565b6303a24d0760e21b81149150610269565b6064359081151582036101a157565b346101a15760803660031901126101a15760043567ffffffffffffffff8082116101a157366023830112156101a15781600401359081116101a15736602482840101116101a157610323916103139161030361029d565b916044359160248035920161167d565b6040519081529081906020820190565b0390f35b90600182811c92168015610357575b602083101461034157565b634e487b7160e01b600052602260045260246000fd5b91607f1691610336565b634e487b7160e01b600052604160045260246000fd5b90601f8019910116810190811067ffffffffffffffff82111761039957604052565b610361565b90604051918260008254926103b284610327565b90818452600194858116908160001461042157506001146103de575b50506103dc92500383610377565b565b9093915060005260209081600020936000915b8183106104095750506103dc935082010138806103ce565b855488840185015294850194879450918301916103f1565b9150506103dc94506020925060ff191682840152151560051b82010138806103ce565b919082519283825260005b848110610470575050826000602080949584010152601f8019910116010190565b60208183018101518483018201520161044f565b346101a15760203660031901126101a15760043560005260076020526104ec60406000206104b18161039e565b9060ff60018060a01b03600183015416916002810154906003810154600560048301549201549260405197889760e0895260e0890190610444565b956020880152604087015260608601526080850152818116151560a085015260081c16151560c08301520390f35b346101a15760203660031901126101a1576004356000526007602052610323610546604060002061039e565b604051918291602083526020830190610444565b346101a15760003660031901126101a1576020600454604051908152f35b346101a15760403660031901126101a1576001600160a01b0361059961018b565b16600052600960205260406000206024356000526020526020604060002054604051908152f35b346101a15760403660031901126101a1576004356024359080600052600760205261062f604060002061060760ff60058301546105fe828216611977565b60081c166119b6565b6106156004820154156119f8565b6002610625856003840154611a50565b9101541015611a5d565b3360009081526009602052604090206106549082905b90600052602052604060002090565b61065f838254611a50565b905560405191825233917fa8bbc8c830fa5bb60329cc960f45db5c56a201cf8bc2a1f19967b0ba67b1b4619080602081015b0390a3005b67ffffffffffffffff81116103995760051b60200190565b81601f820112156101a1578035916106c583610696565b926106d36040519485610377565b808452602092838086019260051b8201019283116101a1578301905b8282106106fd575050505090565b813581529083019083016106ef565b67ffffffffffffffff811161039957601f01601f191660200190565b9291926107348261070c565b916107426040519384610377565b8294818452818301116101a1578281602093846000960137010152565b9080601f830112156101a15781602061077a93359101610728565b90565b346101a15760a03660031901126101a15761079661018b565b61079e6101a6565b906044359167ffffffffffffffff908184116101a1576107c3600494369086016106ae565b906064358381116101a1576107db90369087016106ae565b926084359081116101a1576107f3903690870161075f565b936001600160a01b03808216903382141580610882575b6108555783161561083d57156108265761082495506111fa565b005b604051626a0d4560e21b8152600081880152602490fd5b604051632bfa23e760e11b8152600081890152602490fd5b6040805163711bec9160e11b815233818b019081526001600160a01b038616602082015290918291010390fd5b50600082815260016020908152604080832033845290915290205460ff161561080a565b346101a15760403660031901126101a1576108bf61018b565b6024359060009180835260076020527f6b9f91b3721b8cdbde00e0568ad7697f10480c910c1d73508693675a20339a0f6109a660018060a01b0361090d816001604089200154163314611a9e565b84169384865260096020528561099585610645610937826040862090600052602052604060002090565b5494610944861515611ada565b600361095a846000526007602052604060002090565b01610966878254611a50565b905561097b6109736113ac565b878584611b1b565b6001600160a01b0316600090815260096020526040902090565b556040519081529081906020820190565b0390a380f35b346101a15760203660031901126101a15760043560009080825260076020526109e560018060a01b036001604085200154163314611a9e565b8152600760205260408120600501805460ff1916905580f35b346101a15760403660031901126101a15760043560005260086020526040600020602435600052602052602060ff604060002054166040519015158152f35b90815180825260208080930193019160005b828110610a5d575050505090565b835185529381019392810192600101610a4f565b90602061077a928181520190610a3d565b346101a15760403660031901126101a15760043567ffffffffffffffff8082116101a157366023830112156101a1578160040135610abf81610696565b92610acd6040519485610377565b81845260209160248386019160051b830101913683116101a157602401905b828210610b2557856024358681116101a15761032391610b13610b199236906004016106ae565b90611135565b60405191829182610a71565b838091610b31846101bc565b815201910190610aec565b346101a15760203660031901126101a157600435600052600360205260206040600020541515604051908152f35b346101a15760403660031901126101a157610b8361018b565b6024359060009180835260076020527ffdaeb65e98571a61bbd73bc6130bd685fd1eccd0837a39443ad98a1f12b01d426109a660018060a01b03610bd1816001604089200154163314611a9e565b841693848652600960205260408620848752602052856109958561064560408420549461097b861515611ada565b346101a157600080600319360112610c5d57610c196110b5565b600580546001600160a01b0319811690915581906001600160a01b03167f8be0079c531659141344cd1fd0a4f28419497f9722a3daafe3b4186f6b6457e08280a380f35b80fd5b346101a15760003660031901126101a1576005546040516001600160a01b039091168152602090f35b346101a15760403660031901126101a157610ca261018b565b60243590811515908183036101a1576001600160a01b038116928315610d2d57610cee610cff9233600052600160205260406000209060018060a01b0316600052602052604060002090565b9060ff801983541691151516179055565b6040519081527f17307eab39ab6107e8899845ad3d59bd9653f200f220920489ca2b5937696c3160203392a3005b60405162ced3e160e81b815260006004820152602490fd5b346101a15760203660031901126101a15760043560005260036020526020604060002054604051908152f35b346101a15760403660031901126101a157602060ff610dc2610d9161018b565b610d996101a6565b6001600160a01b0391821660009081526001865260408082209290931681526020919091522090565b54166040519015158152f35b346101a15760a03660031901126101a157610de761018b565b610def6101a6565b60843567ffffffffffffffff81116101a157610e0f90369060040161075f565b906001600160a01b03838116903382141580610ec8575b610ea157821615610e885715610e705761082492610e686064356044359160405192600184526020840152604083019160018352606084015260808301604052565b9290916111fa565b604051626a0d4560e21b815260006004820152602490fd5b604051632bfa23e760e11b815260006004820152602490fd5b60405163711bec9160e11b81523360048201526001600160a01b0386166024820152604490fd5b50600082815260016020908152604080832033845290915290205460ff1615610e26565b346101a15760203660031901126101a157610f0561018b565b610f0d6110b5565b6001600160a01b03908116908115610f6157600554826bffffffffffffffffffffffff60a01b821617600555167f8be0079c531659141344cd1fd0a4f28419497f9722a3daafe3b4186f6b6457e0600080a3005b604051631e4fbdf760e01b815260006004820152602490fd5b60403660031901126101a15760043560243590610fa1816000526007602052604060002090565b610fc060ff6005830154610fb6828216611977565b60081c1615611bfa565b8260046003830192610fe2610fd6848654611a50565b60028301541015611a5d565b015480156110a457610fff610ff78383611c9f565b341015611cb2565b6110098282611c9f565b3411611067575b50505b61101e838254611a50565b905561103361102b6113ac565b838333611b1b565b60405191825233917fdbaaf4c87ce30816c961a81d110622a3227ede77953d4383d514ff88ab2e0fd3908060208101610691565b60008061107f61107982958395611c9f565b34611cf5565b81811561109b575b3390f115611096578238611010565b6113a0565b506108fc611087565b50506110b03415611c45565b611013565b6005546001600160a01b031633036110c957565b60405163118cdaa760e01b8152336004820152602490fd5b634e487b7160e01b600052601160045260246000fd5b60001981146111065760010190565b6110e1565b805182101561111f5760209160051b010190565b634e487b7160e01b600052603260045260246000fd5b919091805183518082036111d857505080519061115182610696565b9161115f6040519384610377565b80835261116e601f1991610696565b0190602091368385013760005b81518110156111d057600581901b8281018401519087018401516000908152602081815260408083206001600160a01b03909416835292905220546111cb91906111c5828761110b565b526110f7565b61117b565b509193505050565b604051635b05999160e01b815260048101919091526024810191909152604490fd5b919392906001600160a01b0380841615158061131c575b611267575b61122283878487611d4e565b8116611230575b5050505050565b84516001036112565760208061124c96015192015192336114fa565b3880808080611229565b61126294919233611646565b61124c565b9592909391600094855b875181101561130f57806112ca6112c56112c16112ba8c6112ab8660408f61129c61130a9b8661110b565b5181526008602052209261110b565b51600052602052604060002090565b5460ff1690565b1590565b611d02565b6113056112f86112ee6112dd848d61110b565b516000526008602052604060002090565b6112ab848d61110b565b805460ff19166001179055565b6110f7565b611271565b5091939690929450611216565b508082161515611211565b908160209103126101a1575161077a8161021d565b909260a09261077a9594600180861b0316835260006020840152604083015260608201528160808201520190610444565b919261077a95949160a094600180871b038092168552166020840152604083015260608201528160808201520190610444565b6040513d6000823e3d90fd5b604051906020820182811067ffffffffffffffff8211176103995760405260008252565b3d156113fb573d906113e18261070c565b916113ef6040519384610377565b82523d6000602084013e565b606090565b9293919093843b611412575050505050565b602091611435604051948593849363f23a6e6160e01b988986526004860161133c565b038160006001600160a01b0388165af1600091816114ca575b5061148d578261145c6113d0565b805191908261148657604051632bfa23e760e11b81526001600160a01b0383166004820152602490fd5b9050602001fd5b6001600160e01b031916036114a757503880808080611229565b604051632bfa23e760e11b81526001600160a01b03919091166004820152602490fd5b6114ec91925060203d81116114f3575b6114e48183610377565b810190611327565b903861144e565b503d6114da565b939290949194853b61150f575b505050505050565b611532602093604051958694859463f23a6e6160e01b998a87526004870161136d565b038160006001600160a01b0388165af160009181611574575b50611559578261145c6113d0565b6001600160e01b031916036114a75750388080808080611507565b61158d91925060203d81116114f3576114e48183610377565b903861154b565b926115c361077a95936115d19360018060a01b031686526000602087015260a0604087015260a0860190610a3d565b908482036060860152610a3d565b916080818403910152610444565b939061077a95936115c3916115d19460018060a01b03809216885216602087015260a0604087015260a0860190610a3d565b9293919093843b611623575050505050565b602091611435604051948593849363bc197c8160e01b9889865260048601611594565b939290949194853b61165a57505050505050565b611532602093604051958694859463bc197c8160e01b998a8752600487016115df565b929190936116896110b5565b821561175557506000905b600654946116a1866110f7565b60065560405160e081019381851067ffffffffffffffff86111761039957879561174161174f937fdaa04ca70daa843843bb7e6db7d34457dfdb47376aff972de397e13fd2b69026976040526116f836878c610728565b81523360208201528660408201526000606082015282608082015261172060a0820160019052565b83151560c082015261173c896000526007602052604060002090565b6117af565b604051948594339986611939565b0390a390565b90611694565b90601f811161176957505050565b600091825260208220906020601f850160051c830194106117a5575b601f0160051c01915b82811061179a57505050565b81815560010161178e565b9092508290611785565b9190805192835167ffffffffffffffff8111610399576117d9816117d38454610327565b8461175b565b6020948590601f83116001146118b9579261184f61182c6103dc97988560c096600596611898996000926118ae575b50508160011b916000199060031b1c19161784555b8701516001600160a01b031690565b6001830180546001600160a01b0319166001600160a01b03909216919091179055565b604085015160028201556060850151600382015560808501516004820155019261189161187f60a0830151151590565b859060ff801983541691151516179055565b0151151590565b815461ff00191690151560081b61ff0016179055565b015190503880611808565b90601f198316916118cf85600052602060002090565b9260005b81811061192257506103dc9798600186600596611898999661184f9660c09a61182c9710611909575b505050811b01845561181d565b015160001960f88460031b161c191690553880806118fc565b9293896001819287860151815501950193016118d3565b93908260609497969360a09260808852816080890152838801376000828288010152601f801991011685010195602085015260408401521515910152565b1561197e57565b60405162461bcd60e51b815260206004820152601060248201526f4576656e74206e6f742061637469766560801b6044820152606490fd5b156119bd57565b60405162461bcd60e51b8152602060048201526013602482015272139bdd0818481c1c9a5d985d1948195d995b9d606a1b6044820152606490fd5b156119ff57565b60405162461bcd60e51b815260206004820152602360248201527f50726976617465206f7074696f6e206f6e6c7920666f722066726565206576656044820152626e747360e81b6064820152608490fd5b9190820180921161110657565b15611a6457565b60405162461bcd60e51b81526020600482015260126024820152714e6f7420656e6f756768207469636b65747360701b6044820152606490fd5b15611aa557565b60405162461bcd60e51b815260206004820152600d60248201526c2737ba1037b933b0b734bd32b960991b6044820152606490fd5b15611ae157565b60405162461bcd60e51b8152602060048201526012602482015271139bc81c195b991a5b99c81c995c5d595cdd60721b6044820152606490fd5b93916001600160a01b03851615610e8857611b5360405192600184526020840152604083019160018352606084015260808301604052565b9091611b60828487611e5b565b600094855b8451871015611bb857611bac611bb2918860051b90611b9a602080848a010151938a0101516000526003602052604060002090565b611ba5838254611a50565b9055611a50565b966110f7565b95611b65565b611bd2919594929650611bcd90600454611a50565b600455565b8051600103611bf057906020806103dc959301519101519133611400565b6103dc9333611611565b15611c0157565b606460405162461bcd60e51b815260206004820152602060248201527f50726976617465206576656e74202d20757365207265717565737420666c6f776044820152fd5b15611c4c57565b60405162461bcd60e51b815260206004820152602560248201527f5061796d656e74206e6f7420726571756972656420666f722066726565207469604482015264636b65747360d81b6064820152608490fd5b8181029291811591840414171561110657565b15611cb957565b60405162461bcd60e51b8152602060048201526014602482015273125b9cdd59999a58da595b9d081c185e5b595b9d60621b6044820152606490fd5b9190820391821161110657565b15611d0957565b60405162461bcd60e51b815260206004820152601a60248201527f5469636b657420616c7265616479207472616e736665727265640000000000006044820152606490fd5b90939293611d5e85848385611f92565b6001600160a01b0391821615611dd5575b1615611d7a57509050565b6000805b8251821015611dc357611dbd908260051b90611db0602080848a01015193870101516000526003602052604060002090565b82815403905501916110f7565b90611d7e565b9150506103dc91925060045403600455565b92600091825b8451841015611e1c57611e10611e16918560051b90611b9a602080848d010151938a0101516000526003602052604060002090565b936110f7565b92611ddb565b611e31919350611bcd90959295600454611a50565b611d6f565b9091611e4d61077a93604084526040840190610a3d565b916020818403910152610a3d565b91909182518251908181036111d857505060005b8351811015611ef257600581901b8481016020908101519185010151611ea9929184906001600160a01b038216611eae575b5050506110f7565b611e6f565b611ee891611ec9611ee0926000526000602052604060002090565b9060018060a01b0316600052602052604060002090565b918254611a50565b9055388381611ea1565b50916001815114600014611f53576020908101519181015160408051938452918301526001600160a01b039092169160009133917fc3d58168c5ae7397731d063d5bbf3d657854427343f4c083240f7aacaa2d0f629190819081015b0390a4565b7f4a39dc06d4c0dbc64b70af90fd698a233a518aa5d07e595d983b8c0526c8f7fb611f4e6000939460405191829160018060a01b031696339583611e36565b93929180518351908181036111d857505060005b815181101561209957600581901b82810160209081015191860101516001600160a01b0392918590898516612012575b611fe8948216611fed575050506110f7565b611fa6565b61200891611ec9611ee0926000526000602052604060002090565b9055388481611ea1565b919293905061202f89611ec9846000526000602052604060002090565b548381106120625791869184611fe89695940361205a8c611ec9856000526000602052604060002090565b559450611fd6565b6040516303dee4c560e01b81526001600160a01b038b16600482015260248101919091526044810184905260648101839052608490fd5b5080519394939192916001036120fb576020908101519181015160408051938452918301526001600160a01b03928316939092169133917fc3d58168c5ae7397731d063d5bbf3d657854427343f4c083240f7aacaa2d0f629181908101611f4e565b6040516001600160a01b03938416949093169233927f4a39dc06d4c0dbc64b70af90fd698a233a518aa5d07e595d983b8c0526c8f7fb928291611f4e9183611e3656fea164736f6c6343000814000a",
  "linkReferences": {},
  "deployedLinkReferences": {}
}