{
  "_format": "hh-sol-artifact-1",
  "contractName": "ProfileNFTMinter",
  "sourceName": "contracts/ProfileNFTMinter.sol",
  "abi": [
    {
      "inputs": [
        {
          "internalType": "address",
          "name": "_roleManager",
          "type": "address"
        }
      ],
      "stateMutability": "nonpayable",
      "type": "constructor"
    },
    {
      "inputs": [
        {
          "internalType": "address",
          "name": "sender",
          "type": "address"
        },
        {
          "internalType": "uint256",
          "name": "tokenId",
          "type": "uint256"
        },
        {
          "internalType": "address",
          "name": "owner",
          "type": "address"
        }
      ],
      "name": "ERC721IncorrectOwner",
      "type": "error"
    },
    {
      "inputs": [
        {
          "internalType": "address",
          "name": "operator",
          "type": "address"
        },
        {
          "internalType": "uint256",
          "name": "tokenId",
          "type": "uint256"
        }
      ],
      "name": "ERC721InsufficientApproval",
      "type": "error"
    },
    {
      "inputs": [
        {
          "internalType": "address",
          "name": "approver",
          "type": "address"
        }
      ],
      "name": "ERC721InvalidApprover",
      "type": "error"
    },
    {
      "inputs": [
        {
          "internalType": "address",
          "name": "operator",
          "type": "address"
        }
      ],
      "name": "ERC721InvalidOperator",
      "type": "error"
    },
    {
      "inputs": [
        {
          "internalType": "address",
          "name": "owner",
          "type": "address"
        }
      ],
      "name": "ERC721InvalidOwner",
      "type": "error"
    },
    {
      "inputs": [
        {
          "internalType": "address",
          "name": "receiver",
          "type": "address"
        }
      ],
      "name": "ERC721InvalidReceiver",
      "type": "error"
    },
    {
      "inputs": [
        {
          "internalType": "address",
          "name": "sender",
          "type": "address"
        }
      ],
      "name": "ERC721InvalidSender",
      "type": "error"
    },
    {
      "inputs": [
        {
          "internalType": "uint256",
          "name": "tokenId",
          "type": "uint256"
        }
      ],
      "name": "ERC721NonexistentToken",
      "type": "error"
    },
    {
      "inputs": [
        {
          "internalType": "address",
          "name": "owner",
          "type": "address"
        }
      ],
      "name": "OwnableInvalidOwner",
      "type": "error"
    },
    {
      "inputs": [
        {
          "internalType": "address",
          "name": "account",
          "type": "address"
        }
      ],
      "name": "OwnableUnauthorizedAccount",
      "type": "error"
    },
    {
      "anonymous": false,
      "inputs": [
        {
          "indexed": true,
          "internalType": "address",
          "name": "owner",
          "type": "address"
        },
        {
          "indexed": true,
          "internalType": "address",
          "name": "approved",
          "type": "address"
        },
        {
          "indexed": true,
          "internalType": "uint256",
          "name": "tokenId",
          "type": "uint256"
        }
      ],
      "name": "Approval",
      "type": "event"
    },
    {
      "anonymous": false,
      "inputs": [
        {
          "indexed": true,
          "internalType": "address",
          "name": "owner",
          "type": "address"
        },
        {
          "indexed": true,
          "internalType": "address",
          "name": "operator",
          "type": "address"
        },
        {
          "indexed": false,
          "internalType": "bool",
          "name": "approved",
          "type": "bool"
        }
      ],
      "name": "ApprovalForAll",
      "type": "event"
    },
    {
      "anonymous": false,
      "inputs": [
        {
          "indexed": false,
          "internalType": "uint256",
          "name": "_fromTokenId",
          "type": "uint256"
        },
        {
          "indexed": false,
          "internalType": "uint256",
          "name": "_toTokenId",
          "type": "uint256"
        }
      ],
      "name": "BatchMetadataUpdate",
      "type": "event"
    },
    {
      "anonymous": false,
      "inputs": [
        {
          "indexed": false,
          "internalType": "uint256",
          "name": "_tokenId",
          "type": "uint256"
        }
      ],
      "name": "MetadataUpdate",
      "type": "event"
    },
    {
      "anonymous": false,
      "inputs": [
        {
          "indexed": true,
          "internalType": "address",
          "name": "previousOwner",
          "type": "address"
        },
        {
          "indexed": true,
          "internalType": "address",
          "name": "newOwner",
          "type": "address"
        }
      ],
      "name": "OwnershipTransferred",
      "type": "event"
    },
    {
      "anonymous": false,
      "inputs": [
        {
          "indexed": true,
          "internalType": "uint256",
          "name": "tokenId",
          "type": "uint256"
        },
        {
          "indexed": true,
          "internalType": "address",
          "name": "owner",
          "type": "address"
        },
        {
          "indexed": false,
          "internalType": "string",
          "name": "username",
          "type": "string"
        }
      ],
      "name": "ProfileCreated",
      "type": "event"
    },
    {
      "anonymous": false,
      "inputs": [
        {
          "indexed": true,
          "internalType": "uint256",
          "name": "tokenId",
          "type": "uint256"
        },
        {
          "indexed": false,
          "internalType": "string",
          "name": "newMetadataURI",
          "type": "string"
        }
      ],
      "name": "ProfileMetadataUpdated",
      "type": "event"
    },
    {
      "anonymous": false,
      "inputs": [
        {
          "indexed": true,
          "internalType": "address",
          "name": "from",
          "type": "address"
        },
        {
          "indexed": true,
          "internalType": "address",
          "name": "to",
          "type": "address"
        },
        {
          "indexed": true,
          "internalType": "uint256",
          "name": "tokenId",
          "type": "uint256"
        }
      ],
      "name": "Transfer",
      "type": "event"
    },
    {
      "inputs": [
        {
          "internalType": "address",
          "name": "to",
          "type": "address"
        },
        {
          "internalType": "uint256",
          "name": "tokenId",
          "type": "uint256"
        }
      ],
      "name": "approve",
      "outputs": [],
      "stateMutability": "nonpayable",
      "type": "function"
    },
    {
      "inputs": [
        {
          "internalType": "address",
          "name": "owner",
          "type": "address"
        }
      ],
      "name": "balanceOf",
      "outputs": [
        {
          "internalType": "uint256",
          "name": "",
          "type": "uint256"
        }
      ],
      "stateMutability": "view",
      "type": "function"
    },
    {
      "inputs": [
        {
          "internalType": "string",
          "name": "username",
          "type": "string"
        },
        {
          "internalType": "string",
          "name": "metadataURI",
          "type": "string"
        }
      ],
      "name": "createProfile",
      "outputs": [
        {
          "internalType": "uint256",
          "name": "",
          "type": "uint256"
        }
      ],
      "stateMutability": "nonpayable",
      "type": "function"
    },
    {
      "inputs": [
        {
          "internalType": "uint256",
          "name": "tokenId",
          "type": "uint256"
        }
      ],
      "name": "getApproved",
      "outputs": [
        {
          "internalType": "address",
          "name": "",
          "type": "address"
        }
      ],
      "stateMutability": "view",
      "type": "function"
    },
    {
      "inputs": [
        {
          "internalType": "uint256",
          "name": "tokenId",
          "type": "uint256"
        }
      ],
      "name": "getProfileByTokenId",
      "outputs": [
        {
          "internalType": "string",
          "name": "username",
          "type": "string"
        },
        {
          "internalType": "string",
          "name": "metadataURI",
          "type": "string"
        },
        {
          "internalType": "address",
          "name": "owner",
          "type": "address"
        }
      ],
      "stateMutability": "view",
      "type": "function"
    },
    {
      "inputs": [
        {
          "internalType": "string",
          "name": "username",
          "type": "string"
        }
      ],
      "name": "getTokenIdByUsername",
      "outputs": [
        {
          "internalType": "uint256",
          "name": "",
          "type": "uint256"
        }
      ],
      "stateMutability": "view",
      "type": "function"
    },
    {
      "inputs": [
        {
          "internalType": "address",
          "name": "owner",
          "type": "address"
        },
        {
          "internalType": "address",
          "name": "operator",
          "type": "address"
        }
      ],
      "name": "isApprovedForAll",
      "outputs": [
        {
          "internalType": "bool",
          "name": "",
          "type": "bool"
        }
      ],
      "stateMutability": "view",
      "type": "function"
    },
    {
      "inputs": [],
      "name": "name",
      "outputs": [
        {
          "internalType": "string",
          "name": "",
          "type": "string"
        }
      ],
      "stateMutability": "view",
      "type": "function"
    },
    {
      "inputs": [],
      "name": "owner",
      "outputs": [
        {
          "internalType": "address",
          "name": "",
          "type": "address"
        }
      ],
      "stateMutability": "view",
      "type": "function"
    },
    {
      "inputs": [
        {
          "internalType": "uint256",
          "name": "tokenId",
          "type": "uint256"
        }
      ],
      "name": "ownerOf",
      "outputs": [
        {
          "internalType": "address",
          "name": "",
          "type": "address"
        }
      ],
      "stateMutability": "view",
      "type": "function"
    },
    {
      "inputs": [],
      "name": "renounceOwnership",
      "outputs": [],
      "stateMutability": "nonpayable",
      "type": "function"
    },
    {
      "inputs": [],
      "name": "roleManager",
      "outputs": [
        {
          "internalType": "contract RoleManager",
          "name": "",
          "type": "address"
        }
      ],
      "stateMutability": "view",
      "type": "function"
    },
    {
      "inputs": [
        {
          "internalType": "address",
          "name": "from",
          "type": "address"
        },
        {
          "internalType": "address",
          "name": "to",
          "type": "address"
        },
        {
          "internalType": "uint256",
          "name": "tokenId",
          "type": "uint256"
        }
      ],
      "name": "safeTransferFrom",
      "outputs": [],
      "stateMutability": "nonpayable",
      "type": "function"
    },
    {
      "inputs": [
        {
          "internalType": "address",
          "name": "from",
          "type": "address"
        },
        {
          "internalType": "address",
          "name": "to",
          "type": "address"
        },
        {
          "internalType": "uint256",
          "name": "tokenId",
          "type": "uint256"
        },
        {
          "internalType": "bytes",
          "name": "data",
          "type": "bytes"
        }
      ],
      "name": "safeTransferFrom",
      "outputs": [],
      "stateMutability": "nonpayable",
      "type": "function"
    },
    {
      "inputs": [
        {
          "internalType": "address",
          "name": "operator",
          "type": "address"
        },
        {
          "internalType": "bool",
          "name": "approved",
          "type": "bool"
        }
      ],
      "name": "setApprovalForAll",
      "outputs": [],
      "stateMutability": "nonpayable",
      "type": "function"
    },
    {
      "inputs": [
        {
          "internalType": "bytes4",
          "name": "interfaceId",
          "type": "bytes4"
        }
      ],
      "name": "supportsInterface",
      "outputs": [
        {
          "internalType": "bool",
          "name": "",
          "type": "bool"
        }
      ],
      "stateMutability": "view",
      "type": "function"
    },
    {
      "inputs": [],
      "name": "symbol",
      "outputs": [
        {
          "internalType": "string",
          "name": "",
          "type": "string"
        }
      ],
      "stateMutability": "view",
      "type": "function"
    },
    {
      "inputs": [
        {
          "internalType": "uint256",
          "name": "tokenId",
          "type": "uint256"
        }
      ],
      "name": "tokenURI",
      "outputs": [
        {
          "internalType": "string",
          "name": "",
          "type": "string"
        }
      ],
      "stateMutability": "view",
      "type": "function"
    },
    {
      "inputs": [
        {
          "internalType": "address",
          "name": "from",
          "type": "address"
        },
        {
          "internalType": "address",
          "name": "to",
          "type": "address"
        },
        {
          "internalType": "uint256",
          "name": "tokenId",
          "type": "uint256"
        }
      ],
      "name": "transferFrom",
      "outputs": [],
      "stateMutability": "nonpayable",
      "type": "function"
    },
    {
      "inputs": [
        {
          "internalType": "address",
          "name": "newOwner",
          "type": "address"
        }
      ],
      "name": "transferOwnership",
      "outputs": [],
      "stateMutability": "nonpayable",
      "type": "function"
    },
    {
      "inputs": [
        {
          "internalType": "uint256",
          "name": "tokenId",
          "type": "uint256"
        },
        {
          "internalType": "string",
          "name": "newMetadataURI",
          "type": "string"
        }
      ],
      "name": "updateProfileMetadata",
      "outputs": [],
      "stateMutability": "nonpayable",
      "type": "function"
    },
    {
      "inputs": [
        {
          "internalType": "string",
          "name": "username",
          "type": "string"
        }
      ],
      "name": "usernameExists",
      "outputs": [
        {
          "internalType": "bool",
          "name": "",
          "type": "bool"
        }
      ],
      "stateMutability": "view",
      "type": "function"
    }
  ],
  "bytecode": "0x608034620003c357601f906001600160401b0390601f199062001f35388190038581018416830185811184821017620003ad57839282916040528339602092839181010312620003c357516001600160a01b03948582169491859003620003c3576200006a620003c8565b92600b84526a141c9bd99a5b194813919560aa1b818501526200008c620003c8565b90600782526650524f46494c4560c81b81830152845195848711620003ad576000968754966001978881811c91168015620003a2575b858210146200038e579081878493116200033b575b508490878311600114620002da578a92620002ce575b5050600019600383901b1c191690871b1787555b8251948511620002ba5785548681811c91168015620002af575b838210146200029b5790818587969594931162000242575b5081938511600114620001dd5750508592620001d1575b5050600019600383901b1c191690821b1790555b3315620001b95760075460018060a01b03199133838316176007557f8be0079c531659141344cd1fd0a4f28419497f9722a3daafe3b4186f6b6457e0604051953393169180a36008541617600855611b4c9081620003e98239f35b60249060405190631e4fbdf760e01b82526004820152fd5b0151905038806200014a565b869593929193168588528388209388905b8282106200022857505084116200020e575b505050811b0190556200015e565b015160001960f88460031b161c1916905538808062000200565b8484015186558897909501949384019390810190620001ee565b9091929394508688528288208580880160051c82019285891062000291575b9188978a9297969594930160051c01915b8281106200028257505062000133565b8a815588975089910162000272565b9250819262000261565b634e487b7160e01b88526022600452602488fd5b90607f16906200011b565b634e487b7160e01b87526041600452602487fd5b015190503880620000ed565b90848a9416918b8052868c20928c5b888282106200032457505084116200030a575b505050811b01875562000101565b015160001960f88460031b161c19169055388080620002fc565b8385015186558d97909501949384019301620002e9565b909150898052848a208780850160051c82019287861062000384575b918b91869594930160051c01915b82811062000375575050620000d7565b8c81558594508b910162000365565b9250819262000357565b634e487b7160e01b8a52602260045260248afd5b90607f1690620000c2565b634e487b7160e01b600052604160045260246000fd5b600080fd5b60408051919082016001600160401b03811183821017620003ad5760405256fe608060408181526004918236101561001657600080fd5b600090813560e01c908162435da5146111635750806301ffc9a7146110d857806306fdde0314611030578063081812fc14610ff4578063095ea7b314610f175780631833eaa114610e6c57806323b872dd14610e5457806342842e0e14610e255780636352211e14610df557806370a0823114610da1578063715018a614610d445780637b09a6e314610c75578063841e2fb714610a6b5780638da5cb5b14610a4257806395d89b411461095f578063a22cb465146108c1578063b88d4fde1461084e578063ba1feb8a14610282578063c87b56dd1461024b578063e985e9c5146101f9578063f2fde38b146101655763f309e3f91461011557600080fd5b346101625760203660031901126101625782359067ffffffffffffffff8211610162575061015361014e602094610158933691016112a8565b6117cf565b61175d565b5415159051908152f35b80fd5b5091346101f55760203660031901126101f5576101806111d0565b906101896112fb565b6001600160a01b039182169283156101df575050600754826bffffffffffffffffffffffff60a01b821617600755167f8be0079c531659141344cd1fd0a4f28419497f9722a3daafe3b4186f6b6457e08380a380f35b51631e4fbdf760e01b8152908101849052602490fd5b8280fd5b50903461024757806003193601126102475760ff816020936102196111d0565b6102216111eb565b6001600160a01b0391821683526005875283832091168252855220549151911615158152f35b5080fd5b5034610162576020366003190112610162575061026b61027e92356115e1565b90519182916020835260208301906111ab565b0390f35b509190346101f557806003193601126101f55767ffffffffffffffff91803583811161084a576102b590369083016112a8565b906024948535858111610247576102cf90369084016112a8565b946102d984611a28565b15610815576102e7846117cf565b966102f4610153896117cf565b546107da576009549661030688611783565b60095586519361031585611201565b80855233156107c5578881526020998a956002875260018060a01b038a842054168b8115159182610792575b33865260038a5260028d87209a60019b8c8154019055838852528c8620336bffffffffffffffffffffffff60a01b82541617905533907fddf252ad1be2c89b69c2b068fc378daa952ba7f163c4a11628f55a4df523b3ef8780a461077c57333b61065a575b506103b1838b6118b2565b858a0190818b11610648578b6103d391818c5193828580945193849201611188565b8101600a81520301902055888152600b8a5287812092875193858511610636576103fd8154611327565b948c601f968781116105f1575b5050808d8088831160011461058e57508591610583575b50600019600383901b1c191690881b1790555b898252600c8b528882209683519586116105725750506104548654611327565b83811161052f575b50899284116001146104d057918394918493946104c5575b50501b916000199060031b1c19161790555b827f64849d9017ccd37161417597e9733299a671f98dcb0907422672a2e159eb12178351868152806104bc3395898301906111ab565b0390a351908152f35b015192503880610474565b919083601f1981168785528b8520945b8c8883831061051857505050106104ff575b505050811b019055610486565b015160001960f88460031b161c191690553880806104f2565b8686015188559096019594850194879350016104e0565b8682528a82208480870160051c8201928d8810610569575b0160051c019086905b82811061055e57505061045c565b838155018690610550565b92508192610547565b634e487b7160e01b83526041905281fd5b90508a015138610421565b908a9350601f1983168588528d8389209389915b8383106105d85750505083116105bf575b5050811b019055610434565b8c015160001960f88460031b161c1916905538806105b3565b84015185558d969094019392830192908101908f6105a2565b838652878287209181850160051c830193851061062d575b0160051c019089905b82811061062257508e915061040a565b868155018990610612565b92508192610609565b50634e487b7160e01b82526041875290fd5b634e487b7160e01b8352601188528483fd5b9682978c869d9a979594839d999761069d8e519485938493630a85bd0160e11b9889865233908601528401528c60448401526080606484015260848301906111ab565b03818c335af1899181610738575b50610705578c8c8c8c8c3d156106fd573d6106c581611255565b906106d285519283611233565b81528091833d92013e5b805191826106fa575050505190633250574960e11b82523390820152fd5b01fd5b5060606106dc565b63ffffffff60e09d96989c999495979a9d1b160361072357386103a6565b8851633250574960e11b815233818901528490fd5b9091508a81813d8311610775575b6107508183611233565b8101031261077157516001600160e01b0319811681036107715790386106ab565b8980fd5b503d610746565b89516339e3563760e11b81528089018490528590fd5b600082815260046020526040902080546001600160a01b031916905580865260038a528c86208054600019019055610341565b859150875191633250574960e11b8352820152fd5b836016606492602089519362461bcd60e51b8552840152820152752ab9b2b93730b6b29030b63932b0b23c903a30b5b2b760511b6044820152fd5b845162461bcd60e51b81526020818501526010818901526f496e76616c696420757365726e616d6560801b6044820152606490fd5b8480fd5b508234610247576080366003190112610247576108696111d0565b6108716111eb565b6044359060643567ffffffffffffffff81116108bd57366023820112156108bd576108ba948160246108a893369301359101611271565b926108b4838383611407565b33611612565b80f35b8580fd5b509190346101f557806003193601126101f5576108dc6111d0565b906024359182151580930361084a576001600160a01b031692831561094a5750338452600560205280842083855260205280842060ff1981541660ff8416179055519081527f17307eab39ab6107e8899845ad3d59bd9653f200f220920489ca2b5937696c3160203392a380f35b836024925191630b61174360e31b8352820152fd5b50903461024757816003193601126102475780519082600180549161098383611327565b80865292828116908115610a1a57506001146109be575b5050506109ac8261027e940383611233565b519182916020835260208301906111ab565b94508085527fb10e2d527612073b26eecdfd717e6a320cf44b4afac2b0732d9fcbe2b7fa0cf65b828610610a02575050506109ac82602061027e958201019461099a565b805460208787018101919091529095019481016109e5565b61027e9750869350602092506109ac94915060ff191682840152151560051b8201019461099a565b50903461024757816003193601126102475760075490516001600160a01b039091168152602090f35b5091346101f557816003193601126101f55780359167ffffffffffffffff906024358281116108bd57610aa190369085016112a8565b92610aab856115a6565b336001600160a01b0390911603610c4157610ac684866118b2565b848652602092600c8452828720918551918211610c2e5750610ae88254611327565b601f8111610beb575b5083601f8211600114610b645791817f2e180a96d51cace5accd4b2bdbd998705f55cbdf59ee35654081155c50e6757f96959492610b53948a91610b59575b508160011b916000199060031b1c19161790555b519282849384528301906111ab565b0390a280f35b905086015138610b30565b82885284882090601f198316895b818110610bd4575092610b539492600192827f2e180a96d51cace5accd4b2bdbd998705f55cbdf59ee35654081155c50e6757f9a99989610610bbb575b5050811b019055610b44565b88015160001960f88460031b161c191690553880610baf565b91928760018192868c015181550194019201610b72565b828852848820601f830160051c810191868410610c24575b601f0160051c01905b818110610c195750610af1565b888155600101610c0c565b9091508190610c03565b634e487b7160e01b885260419052602487fd5b6020606492519162461bcd60e51b8352820152600f60248201526e2737ba103a37b5b2b71037bbb732b960891b6044820152fd5b50823461024757602036600319011261024757803591610c94836115a6565b91838252600b602052610ca985832054611327565b15610d08575092610cf5610cd3610ccd838787610ce79952600b60205220956115e1565b94611361565b9382519586956060875260608701906111ab565b9085820360208701526111ab565b6001600160a01b03909216908301520390f35b606490602086519162461bcd60e51b83528201526016602482015275141c9bd99a5b1948191bd95cc81b9bdd08195e1a5cdd60521b6044820152fd5b5034610162578060031936011261016257610d5d6112fb565b600780546001600160a01b0319811690915581906001600160a01b03167f8be0079c531659141344cd1fd0a4f28419497f9722a3daafe3b4186f6b6457e08280a380f35b5034610162576020366003190112610162576001600160a01b03610dc36111d0565b16928315610de05750806020938392526003845220549051908152f35b91516322718ad960e21b815291820152602490fd5b50346101625760203660031901126101625750610e14602092356115a6565b90516001600160a01b039091168152f35b509034610247576108ba90610e39366112c6565b91925192610e4684611201565b8584526108b4838383611407565b5034610162576108ba610e66366112c6565b91611407565b50903461024757602036600319011261024757823567ffffffffffffffff81116101f55761015361014e610ea392369087016112a8565b54918215610ed4576000198301928311610ec1576020838351908152f35b634e487b7160e01b815260118452602490fd5b815162461bcd60e51b8152602081860152601760248201527f557365726e616d6520646f6573206e6f742065786973740000000000000000006044820152606490fd5b509190346101f557806003193601126101f557610f326111d0565b91602435610f3f816115a6565b33151580610fe1575b80610fb8575b610fa2576001600160a01b039485169482918691167f8c5be1e5ebec7d5bd14f71427d1e84f3dd0314c0f7b2291e5b200ac8c7c3b9258880a48452602052822080546001600160a01b031916909117905580f35b835163a9fbf51f60e01b81523381850152602490fd5b506001600160a01b03811686526005602090815284872033885290528386205460ff1615610f4e565b506001600160a01b038116331415610f48565b5091346101f55760203660031901126101f557918260209335611016816115a6565b50825283528190205490516001600160a01b039091168152f35b50903461024757816003193601126102475780519082805461105181611327565b80855291600191808316908115610a1a575060011461107c575050506109ac8261027e940383611233565b80809650527f290decd9548b62a8d60345a988386fc84ba6bc95484008f6362f93160ef3e5635b8286106110c0575050506109ac82602061027e958201019461099a565b805460208787018101919091529095019481016110a3565b5091346101f55760203660031901126101f557359063ffffffff60e01b82168092036101f55760209250632483248360e11b821491821561111d575b50519015158152f35b9091506380ac58cd60e01b8114908115611152575b8115611141575b509038611114565b6301ffc9a760e01b14905038611139565b635b5e139f60e01b81149150611132565b9050346102475781600319360112610247576008546001600160a01b03168152602090f35b60005b83811061119b5750506000910152565b818101518382015260200161118b565b906020916111c481518092818552858086019101611188565b601f01601f1916010190565b600435906001600160a01b03821682036111e657565b600080fd5b602435906001600160a01b03821682036111e657565b6020810190811067ffffffffffffffff82111761121d57604052565b634e487b7160e01b600052604160045260246000fd5b90601f8019910116810190811067ffffffffffffffff82111761121d57604052565b67ffffffffffffffff811161121d57601f01601f191660200190565b92919261127d82611255565b9161128b6040519384611233565b8294818452818301116111e6578281602093846000960137010152565b9080601f830112156111e6578160206112c393359101611271565b90565b60609060031901126111e6576001600160a01b039060043582811681036111e6579160243590811681036111e6579060443590565b6007546001600160a01b0316330361130f57565b60405163118cdaa760e01b8152336004820152602490fd5b90600182811c92168015611357575b602083101461134157565b634e487b7160e01b600052602260045260246000fd5b91607f1691611336565b906040519182600082549261137584611327565b9081845260019485811690816000146113e457506001146113a1575b505061139f92500383611233565b565b9093915060005260209081600020936000915b8183106113cc57505061139f93508201013880611391565b855488840185015294850194879450918301916113b4565b91505061139f94506020925060ff191682840152151560051b8201013880611391565b6001600160a01b03918216929091831561158d576000928284528260209560028752604096848888205416968791331515806114f7575b509060027fddf252ad1be2c89b69c2b068fc378daa952ba7f163c4a11628f55a4df523b3ef92846114c4575b858352600381528b8320805460010190558683525289812080546001600160a01b0319168517905580a416928383036114a35750505050565b6064945051926364283d7b60e01b8452600484015260248301526044820152fd5b600087815260046020526040902080546001600160a01b0319169055848352600381528b8320805460001901905561146a565b9193945091508061154c575b156115135785929187913861143e565b878688611530576024915190637e27328960e01b82526004820152fd5b604491519063177e802f60e01b82523360048301526024820152fd5b503387148015611571575b806115035750858252600481523385898420541614611503565b5086825260058152878220338352815260ff8883205416611557565b604051633250574960e11b815260006004820152602490fd5b6000818152600260205260409020546001600160a01b03169081156115c9575090565b60249060405190637e27328960e01b82526004820152fd5b6115ea816115a6565b5060005260066020526116006040600020611361565b600060405161160e81611201565b5290565b909192833b611623575b5050505050565b604051630a85bd0160e11b8082526001600160a01b0393841660048301529383166024820152604481019190915260806064820152602095919093169390919083906116739060848301906111ab565b039285816000958187895af184918161171d575b506116e7575050503d6000146116df573d6116a181611255565b906116af6040519283611233565b81528091843d92013e5b805192836116da57604051633250574960e11b815260048101849052602490fd5b019050fd5b5060606116b9565b919450915063ffffffff60e01b16036117055750388080808061161c565b60249060405190633250574960e11b82526004820152fd5b9091508681813d8311611756575b6117358183611233565b8101031261084a57516001600160e01b03198116810361084a579038611687565b503d61172b565b6020611776918160405193828580945193849201611188565b8101600a81520301902090565b60001981146117925760010190565b634e487b7160e01b600052601160045260246000fd5b9081518110156117b9570160200190565b634e487b7160e01b600052603260045260246000fd5b9081516117db81611255565b906117e96040519283611233565b8082526117f8601f1991611255565b01602090368284013760005b84518110156118ab5761181781866117a8565b5190604160f892831c101580611894575b1561186d578261183882886117a8565b51831c019160ff83116117925761186892901b6001600160f81b03191660001a61186282866117a8565b53611783565b611804565b61186891506001600160f81b031961188582886117a8565b511660001a61186282866117a8565b50605a6118a182886117a8565b51831c1115611828565b5090925050565b91909160009080825260209160068352604081209085519067ffffffffffffffff8211611a14576118e38354611327565b601f81116119d1575b508490601f831160011461194d57907ff8e1a15aba9398e019f0b49df1a4fde98ee17ae345cb5f6b5e2c27f5033e8ce7969783611942575b50508160011b916000199060031b1c19161790555b604051908152a1565b015190503880611924565b9196601f198816848452868420935b8181106119ba57509160019391897ff8e1a15aba9398e019f0b49df1a4fde98ee17ae345cb5f6b5e2c27f5033e8ce7999a94106119a1575b505050811b019055611939565b015160001960f88460031b161c19169055388080611994565b92938760018192878601518155019501930161195c565b838252858220601f840160051c810191878510611a0a575b601f0160051c01905b8181106119ff57506118ec565b8281556001016119f2565b90915081906119e9565b634e487b7160e01b81526041600452602490fd5b805160038110908115611b34575b50611b2e576040516060810181811067ffffffffffffffff82111761121d57604052604081527f6162636465666768696a6b6c6d6e6f707172737475767778797a41424344454660208201527f4748494a4b4c4d4e4f505152535455565758595a303132333435363738395f2d60408201526000905b8251821015611b2657600092835b8251811015611b1c576001600160f81b031980611ad786856117a8565b511690611ae483866117a8565b511614611af957611af490611783565b611aba565b5092509060015b15611b1457611b0e90611783565b90611aac565b505050600090565b5092919091611b00565b505050600190565b50600090565b602091501138611a3656fea164736f6c6343000814000a",
  "linkReferences": {},
  "deployedLinkReferences": {}
}