{
  "_format": "hh-sol-artifact-1",
  "contractName": "CollectibleController",
  "sourceName": "contracts/CollectibleController.sol",
  "abi": [
    {
      "inputs": [
        {
          "internalType": "address",
          "name": "_roleManager",
          "type": "address"
        },
        {
          "internalType": "address",
          "name": "_tribeController",
          "type": "address"
        },
        {
          "internalType": "address",
          "name": "_pointSystem",
          "type": "address"
        }
      ],
      "stateMutability": "nonpayable",
      "type": "constructor"
    },
    {
      "inputs": [],
      "name": "AccessControlBadConfirmation",
      "type": "error"
    },
    {
      "inputs": [
        {
          "internalType": "address",
          "name": "account",
          "type": "address"
        },
        {
          "internalType": "bytes32",
          "name": "neededRole",
          "type": "bytes32"
        }
      ],
      "name": "AccessControlUnauthorizedAccount",
      "type": "error"
    },
    {
      "inputs": [
        {
          "internalType": "address",
          "name": "sender",
          "type": "address"
        },
        {
          "internalType": "uint256",
          "name": "balance",
          "type": "uint256"
        },
        {
          "internalType": "uint256",
          "name": "needed",
          "type": "uint256"
        },
        {
          "internalType": "uint256",
          "name": "tokenId",
          "type": "uint256"
        }
      ],
      "name": "ERC1155InsufficientBalance",
      "type": "error"
    },
    {
      "inputs": [
        {
          "internalType": "address",
          "name": "approver",
          "type": "address"
        }
      ],
      "name": "ERC1155InvalidApprover",
      "type": "error"
    },
    {
      "inputs": [
        {
          "internalType": "uint256",
          "name": "idsLength",
          "type": "uint256"
        },
        {
          "internalType": "uint256",
          "name": "valuesLength",
          "type": "uint256"
        }
      ],
      "name": "ERC1155InvalidArrayLength",
      "type": "error"
    },
    {
      "inputs": [
        {
          "internalType": "address",
          "name": "operator",
          "type": "address"
        }
      ],
      "name": "ERC1155InvalidOperator",
      "type": "error"
    },
    {
      "inputs": [
        {
          "internalType": "address",
          "name": "receiver",
          "type": "address"
        }
      ],
      "name": "ERC1155InvalidReceiver",
      "type": "error"
    },
    {
      "inputs": [
        {
          "internalType": "address",
          "name": "sender",
          "type": "address"
        }
      ],
      "name": "ERC1155InvalidSender",
      "type": "error"
    },
    {
      "inputs": [
        {
          "internalType": "address",
          "name": "operator",
          "type": "address"
        },
        {
          "internalType": "address",
          "name": "owner",
          "type": "address"
        }
      ],
      "name": "ERC1155MissingApprovalForAll",
      "type": "error"
    },
    {
      "anonymous": false,
      "inputs": [
        {
          "indexed": true,
          "internalType": "address",
          "name": "account",
          "type": "address"
        },
        {
          "indexed": true,
          "internalType": "address",
          "name": "operator",
          "type": "address"
        },
        {
          "indexed": false,
          "internalType": "bool",
          "name": "approved",
          "type": "bool"
        }
      ],
      "name": "ApprovalForAll",
      "type": "event"
    },
    {
      "anonymous": false,
      "inputs": [
        {
          "indexed": true,
          "internalType": "uint256",
          "name": "tribeId",
          "type": "uint256"
        },
        {
          "indexed": true,
          "internalType": "uint256",
          "name": "collectibleId",
          "type": "uint256"
        },
        {
          "indexed": true,
          "internalType": "address",
          "name": "claimer",
          "type": "address"
        }
      ],
      "name": "CollectibleClaimed",
      "type": "event"
    },
    {
      "anonymous": false,
      "inputs": [
        {
          "indexed": true,
          "internalType": "uint256",
          "name": "collectibleId",
          "type": "uint256"
        },
        {
          "indexed": true,
          "internalType": "uint256",
          "name": "tribeId",
          "type": "uint256"
        },
        {
          "indexed": false,
          "internalType": "string",
          "name": "name",
          "type": "string"
        },
        {
          "indexed": false,
          "internalType": "uint256",
          "name": "maxSupply",
          "type": "uint256"
        }
      ],
      "name": "CollectibleCreated",
      "type": "event"
    },
    {
      "anonymous": false,
      "inputs": [
        {
          "indexed": true,
          "internalType": "uint256",
          "name": "collectibleId",
          "type": "uint256"
        }
      ],
      "name": "CollectibleDeactivated",
      "type": "event"
    },
    {
      "anonymous": false,
      "inputs": [
        {
          "indexed": true,
          "internalType": "bytes32",
          "name": "role",
          "type": "bytes32"
        },
        {
          "indexed": true,
          "internalType": "bytes32",
          "name": "previousAdminRole",
          "type": "bytes32"
        },
        {
          "indexed": true,
          "internalType": "bytes32",
          "name": "newAdminRole",
          "type": "bytes32"
        }
      ],
      "name": "RoleAdminChanged",
      "type": "event"
    },
    {
      "anonymous": false,
      "inputs": [
        {
          "indexed": true,
          "internalType": "bytes32",
          "name": "role",
          "type": "bytes32"
        },
        {
          "indexed": true,
          "internalType": "address",
          "name": "account",
          "type": "address"
        },
        {
          "indexed": true,
          "internalType": "address",
          "name": "sender",
          "type": "address"
        }
      ],
      "name": "RoleGranted",
      "type": "event"
    },
    {
      "anonymous": false,
      "inputs": [
        {
          "indexed": true,
          "internalType": "bytes32",
          "name": "role",
          "type": "bytes32"
        },
        {
          "indexed": true,
          "internalType": "address",
          "name": "account",
          "type": "address"
        },
        {
          "indexed": true,
          "internalType": "address",
          "name": "sender",
          "type": "address"
        }
      ],
      "name": "RoleRevoked",
      "type": "event"
    },
    {
      "anonymous": false,
      "inputs": [
        {
          "indexed": true,
          "internalType": "address",
          "name": "operator",
          "type": "address"
        },
        {
          "indexed": true,
          "internalType": "address",
          "name": "from",
          "type": "address"
        },
        {
          "indexed": true,
          "internalType": "address",
          "name": "to",
          "type": "address"
        },
        {
          "indexed": false,
          "internalType": "uint256[]",
          "name": "ids",
          "type": "uint256[]"
        },
        {
          "indexed": false,
          "internalType": "uint256[]",
          "name": "values",
          "type": "uint256[]"
        }
      ],
      "name": "TransferBatch",
      "type": "event"
    },
    {
      "anonymous": false,
      "inputs": [
        {
          "indexed": true,
          "internalType": "address",
          "name": "operator",
          "type": "address"
        },
        {
          "indexed": true,
          "internalType": "address",
          "name": "from",
          "type": "address"
        },
        {
          "indexed": true,
          "internalType": "address",
          "name": "to",
          "type": "address"
        },
        {
          "indexed": false,
          "internalType": "uint256",
          "name": "id",
          "type": "uint256"
        },
        {
          "indexed": false,
          "internalType": "uint256",
          "name": "value",
          "type": "uint256"
        }
      ],
      "name": "TransferSingle",
      "type": "event"
    },
    {
      "anonymous": false,
      "inputs": [
        {
          "indexed": false,
          "internalType": "string",
          "name": "value",
          "type": "string"
        },
        {
          "indexed": true,
          "internalType": "uint256",
          "name": "id",
          "type": "uint256"
        }
      ],
      "name": "URI",
      "type": "event"
    },
    {
      "inputs": [],
      "name": "DEFAULT_ADMIN_ROLE",
      "outputs": [
        {
          "internalType": "bytes32",
          "name": "",
          "type": "bytes32"
        }
      ],
      "stateMutability": "view",
      "type": "function"
    },
    {
      "inputs": [
        {
          "internalType": "address",
          "name": "account",
          "type": "address"
        },
        {
          "internalType": "uint256",
          "name": "id",
          "type": "uint256"
        }
      ],
      "name": "balanceOf",
      "outputs": [
        {
          "internalType": "uint256",
          "name": "",
          "type": "uint256"
        }
      ],
      "stateMutability": "view",
      "type": "function"
    },
    {
      "inputs": [
        {
          "internalType": "address[]",
          "name": "accounts",
          "type": "address[]"
        },
        {
          "internalType": "uint256[]",
          "name": "ids",
          "type": "uint256[]"
        }
      ],
      "name": "balanceOfBatch",
      "outputs": [
        {
          "internalType": "uint256[]",
          "name": "",
          "type": "uint256[]"
        }
      ],
      "stateMutability": "view",
      "type": "function"
    },
    {
      "inputs": [
        {
          "internalType": "uint256",
          "name": "tribeId",
          "type": "uint256"
        },
        {
          "internalType": "uint256",
          "name": "collectibleId",
          "type": "uint256"
        }
      ],
      "name": "claimCollectible",
      "outputs": [],
      "stateMutability": "payable",
      "type": "function"
    },
    {
      "inputs": [
        {
          "internalType": "uint256",
          "name": "",
          "type": "uint256"
        }
      ],
      "name": "collectibleCount",
      "outputs": [
        {
          "internalType": "uint256",
          "name": "",
          "type": "uint256"
        }
      ],
      "stateMutability": "view",
      "type": "function"
    },
    {
      "inputs": [
        {
          "internalType": "uint256",
          "name": "",
          "type": "uint256"
        }
      ],
      "name": "collectibleTribe",
      "outputs": [
        {
          "internalType": "uint256",
          "name": "",
          "type": "uint256"
        }
      ],
      "stateMutability": "view",
      "type": "function"
    },
    {
      "inputs": [
        {
          "internalType": "uint256",
          "name": "",
          "type": "uint256"
        }
      ],
      "name": "collectibles",
      "outputs": [
        {
          "internalType": "string",
          "name": "name",
          "type": "string"
        },
        {
          "internalType": "string",
          "name": "symbol",
          "type": "string"
        },
        {
          "internalType": "string",
          "name": "metadataURI",
          "type": "string"
        },
        {
          "internalType": "uint256",
          "name": "maxSupply",
          "type": "uint256"
        },
        {
          "internalType": "uint256",
          "name": "currentSupply",
          "type": "uint256"
        },
        {
          "internalType": "uint256",
          "name": "price",
          "type": "uint256"
        },
        {
          "internalType": "uint256",
          "name": "pointsRequired",
          "type": "uint256"
        },
        {
          "internalType": "bool",
          "name": "isActive",
          "type": "bool"
        }
      ],
      "stateMutability": "view",
      "type": "function"
    },
    {
      "inputs": [
        {
          "internalType": "uint256",
          "name": "tribeId",
          "type": "uint256"
        },
        {
          "internalType": "string",
          "name": "name",
          "type": "string"
        },
        {
          "internalType": "string",
          "name": "symbol",
          "type": "string"
        },
        {
          "internalType": "string",
          "name": "metadataURI",
          "type": "string"
        },
        {
          "internalType": "uint256",
          "name": "maxSupply",
          "type": "uint256"
        },
        {
          "internalType": "uint256",
          "name": "price",
          "type": "uint256"
        },
        {
          "internalType": "uint256",
          "name": "pointsRequired",
          "type": "uint256"
        }
      ],
      "name": "createCollectible",
      "outputs": [
        {
          "internalType": "uint256",
          "name": "",
          "type": "uint256"
        }
      ],
      "stateMutability": "nonpayable",
      "type": "function"
    },
    {
      "inputs": [
        {
          "internalType": "uint256",
          "name": "tribeId",
          "type": "uint256"
        },
        {
          "internalType": "uint256",
          "name": "collectibleId",
          "type": "uint256"
        }
      ],
      "name": "deactivateCollectible",
      "outputs": [],
      "stateMutability": "nonpayable",
      "type": "function"
    },
    {
      "inputs": [
        {
          "internalType": "uint256",
          "name": "collectibleId",
          "type": "uint256"
        }
      ],
      "name": "getCollectible",
      "outputs": [
        {
          "components": [
            {
              "internalType": "string",
              "name": "name",
              "type": "string"
            },
            {
              "internalType": "string",
              "name": "symbol",
              "type": "string"
            },
            {
              "internalType": "string",
              "name": "metadataURI",
              "type": "string"
            },
            {
              "internalType": "uint256",
              "name": "maxSupply",
              "type": "uint256"
            },
            {
              "internalType": "uint256",
              "name": "currentSupply",
              "type": "uint256"
            },
            {
              "internalType": "uint256",
              "name": "price",
              "type": "uint256"
            },
            {
              "internalType": "uint256",
              "name": "pointsRequired",
              "type": "uint256"
            },
            {
              "internalType": "bool",
              "name": "isActive",
              "type": "bool"
            }
          ],
          "internalType": "struct CollectibleController.Collectible",
          "name": "",
          "type": "tuple"
        }
      ],
      "stateMutability": "view",
      "type": "function"
    },
    {
      "inputs": [
        {
          "internalType": "bytes32",
          "name": "role",
          "type": "bytes32"
        }
      ],
      "name": "getRoleAdmin",
      "outputs": [
        {
          "internalType": "bytes32",
          "name": "",
          "type": "bytes32"
        }
      ],
      "stateMutability": "view",
      "type": "function"
    },
    {
      "inputs": [
        {
          "internalType": "bytes32",
          "name": "role",
          "type": "bytes32"
        },
        {
          "internalType": "address",
          "name": "account",
          "type": "address"
        }
      ],
      "name": "grantRole",
      "outputs": [],
      "stateMutability": "nonpayable",
      "type": "function"
    },
    {
      "inputs": [
        {
          "internalType": "bytes32",
          "name": "role",
          "type": "bytes32"
        },
        {
          "internalType": "address",
          "name": "account",
          "type": "address"
        }
      ],
      "name": "hasRole",
      "outputs": [
        {
          "internalType": "bool",
          "name": "",
          "type": "bool"
        }
      ],
      "stateMutability": "view",
      "type": "function"
    },
    {
      "inputs": [
        {
          "internalType": "address",
          "name": "account",
          "type": "address"
        },
        {
          "internalType": "address",
          "name": "operator",
          "type": "address"
        }
      ],
      "name": "isApprovedForAll",
      "outputs": [
        {
          "internalType": "bool",
          "name": "",
          "type": "bool"
        }
      ],
      "stateMutability": "view",
      "type": "function"
    },
    {
      "inputs": [],
      "name": "pointSystem",
      "outputs": [
        {
          "internalType": "contract IPointSystem",
          "name": "",
          "type": "address"
        }
      ],
      "stateMutability": "view",
      "type": "function"
    },
    {
      "inputs": [
        {
          "internalType": "bytes32",
          "name": "role",
          "type": "bytes32"
        },
        {
          "internalType": "address",
          "name": "callerConfirmation",
          "type": "address"
        }
      ],
      "name": "renounceRole",
      "outputs": [],
      "stateMutability": "nonpayable",
      "type": "function"
    },
    {
      "inputs": [
        {
          "internalType": "bytes32",
          "name": "role",
          "type": "bytes32"
        },
        {
          "internalType": "address",
          "name": "account",
          "type": "address"
        }
      ],
      "name": "revokeRole",
      "outputs": [],
      "stateMutability": "nonpayable",
      "type": "function"
    },
    {
      "inputs": [],
      "name": "roleManager",
      "outputs": [
        {
          "internalType": "contract IRoleManager",
          "name": "",
          "type": "address"
        }
      ],
      "stateMutability": "view",
      "type": "function"
    },
    {
      "inputs": [
        {
          "internalType": "address",
          "name": "from",
          "type": "address"
        },
        {
          "internalType": "address",
          "name": "to",
          "type": "address"
        },
        {
          "internalType": "uint256[]",
          "name": "ids",
          "type": "uint256[]"
        },
        {
          "internalType": "uint256[]",
          "name": "values",
          "type": "uint256[]"
        },
        {
          "internalType": "bytes",
          "name": "data",
          "type": "bytes"
        }
      ],
      "name": "safeBatchTransferFrom",
      "outputs": [],
      "stateMutability": "nonpayable",
      "type": "function"
    },
    {
      "inputs": [
        {
          "internalType": "address",
          "name": "from",
          "type": "address"
        },
        {
          "internalType": "address",
          "name": "to",
          "type": "address"
        },
        {
          "internalType": "uint256",
          "name": "id",
          "type": "uint256"
        },
        {
          "internalType": "uint256",
          "name": "value",
          "type": "uint256"
        },
        {
          "internalType": "bytes",
          "name": "data",
          "type": "bytes"
        }
      ],
      "name": "safeTransferFrom",
      "outputs": [],
      "stateMutability": "nonpayable",
      "type": "function"
    },
    {
      "inputs": [
        {
          "internalType": "address",
          "name": "operator",
          "type": "address"
        },
        {
          "internalType": "bool",
          "name": "approved",
          "type": "bool"
        }
      ],
      "name": "setApprovalForAll",
      "outputs": [],
      "stateMutability": "nonpayable",
      "type": "function"
    },
    {
      "inputs": [
        {
          "internalType": "address",
          "name": "_pointSystem",
          "type": "address"
        }
      ],
      "name": "setPointSystem",
      "outputs": [],
      "stateMutability": "nonpayable",
      "type": "function"
    },
    {
      "inputs": [
        {
          "internalType": "bytes4",
          "name": "interfaceId",
          "type": "bytes4"
        }
      ],
      "name": "supportsInterface",
      "outputs": [
        {
          "internalType": "bool",
          "name": "",
          "type": "bool"
        }
      ],
      "stateMutability": "view",
      "type": "function"
    },
    {
      "inputs": [],
      "name": "tribeController",
      "outputs": [
        {
          "internalType": "contract ITribeController",
          "name": "",
          "type": "address"
        }
      ],
      "stateMutability": "view",
      "type": "function"
    },
    {
      "inputs": [
        {
          "internalType": "uint256",
          "name": "collectibleId",
          "type": "uint256"
        }
      ],
      "name": "uri",
      "outputs": [
        {
          "internalType": "string",
          "name": "",
          "type": "string"
        }
      ],
      "stateMutability": "view",
      "type": "function"
    }
  ],
  "bytecode": "0x6080346200024557601f6200250438819003918201601f19168301926001600160401b03929091838511838610176200022f578160609284926040978852833981010312620002455762000053816200024a565b916020926200007185620000698686016200024a565b94016200024a565b85519092858201908111828210176200022f57865260008091526002546001908181811c9116801562000224575b878210146200021057601f8111620001e4575b50506002556001600160a01b03908116928315620001a05781169182156200015e57169283156200011b575060018060a01b03199182600454161760045581600554161760055560065416176006556200010c336200025f565b50516122129081620002f28239f35b60649085519062461bcd60e51b82526004820152601c60248201527f496e76616c696420706f696e742073797374656d2061646472657373000000006044820152fd5b60648587519062461bcd60e51b825280600483015260248201527f496e76616c696420747269626520636f6e74726f6c6c657220616464726573736044820152fd5b855162461bcd60e51b815260048101869052601c60248201527f496e76616c696420726f6c65206d616e616765722061646472657373000000006044820152606490fd5b60028352601f878420910160051c8101905b818110620002055750620000b2565b8381558201620001f6565b634e487b7160e01b83526022600452602483fd5b90607f16906200009f565b634e487b7160e01b600052604160045260246000fd5b600080fd5b51906001600160a01b03821682036200024557565b6001600160a01b031660008181527f3617319a054d772f909f7c479a2cebe5066e836a939412e32403c99029b92eff602052604081205490919060ff16620002ed5781805260036020526040822081835260205260408220600160ff1982541617905533917f2f8788117e7eff1d82e926ec794901d17c78024a50270940304540a733656f0d8180a4600190565b509056fe6080604052600436101561001257600080fd5b60003560e01c8062435da5146101a5578062fdd58e146101a057806301ffc9a71461019b5780630a09859d146101965780630e89341c1461019157806316bfd12b1461018c578063248a9ca3146101875780632dbd6fdd146101825780632eb2c2d61461017d5780632f2ff15d1461017857806336568abe146101735780634e1273f41461016e57806372d996751461016957806391d1485414610164578063988f95e71461015f5780639ca76a1a1461015a578063a217fddf14610155578063a22cb46514610150578063bd5dcce21461014b578063cde155c214610146578063d547741f14610141578063e25dcfb91461013c578063e985e9c514610137578063ed7f7761146101325763f242432a1461012d57600080fd5b611031565b610fa1565b610f45565b610f19565b610ed7565b610eab565b610d44565b610c84565b610c68565b610bcf565b610b34565b610ade565b6109fd565b6108b6565b610823565b6107e1565b6106b3565b6105a4565b610575565b61054c565b610505565b610449565b610247565b6101e4565b346101ce5760003660031901126101ce576004546040516001600160a01b039091168152602090f35b600080fd5b6001600160a01b038116036101ce57565b346101ce5760403660031901126101ce57602061022c600435610206816101d3565b6024356000526000835260406000209060018060a01b0316600052602052604060002090565b54604051908152f35b6001600160e01b03198116036101ce57565b346101ce5760203660031901126101ce57602060043561026681610235565b63ffffffff60e01b16637965db0b60e01b811490811561028c575b506040519015158152f35b636cdb3d1360e11b8114915081156102be575b81156102ad575b5038610281565b6301ffc9a760e01b149050386102a6565b6303a24d0760e21b8114915061029f565b90600182811c921680156102ff575b60208310146102e957565b634e487b7160e01b600052602260045260246000fd5b91607f16916102de565b634e487b7160e01b600052604160045260246000fd5b610100810190811067ffffffffffffffff82111761033c57604052565b610309565b90601f8019910116810190811067ffffffffffffffff82111761033c57604052565b9060405191826000825492610377846102cf565b9081845260019485811690816000146103e657506001146103a3575b50506103a192500383610341565b565b9093915060005260209081600020936000915b8183106103ce5750506103a193508201013880610393565b855488840185015294850194879450918301916103b6565b9150506103a194506020925060ff191682840152151560051b8201013880610393565b919082519283825260005b848110610435575050826000602080949584010152601f8019910116010190565b602081830181015184830182015201610414565b346101ce5760203660031901126101ce5760043560005260076020526104c9604060002061047681610363565b9061048360018201610363565b61048f60028301610363565b9160038101549260048201546104e56005840154926104d760ff6007600688015497015416966040519a8b9a610100808d528c0190610409565b908a820360208c0152610409565b9088820360408a0152610409565b946060870152608086015260a085015260c0840152151560e08301520390f35b346101ce5760203660031901126101ce5760043560005260076020526105486105346002604060002001610363565b604051918291602083526020830190610409565b0390f35b346101ce5760003660031901126101ce576005546040516001600160a01b039091168152602090f35b346101ce5760203660031901126101ce5760043560005260036020526020600160406000200154604051908152f35b346101ce5760003660031901126101ce576006546040516001600160a01b039091168152602090f35b604051906103a18261031f565b67ffffffffffffffff811161033c5760051b60200190565b81601f820112156101ce57803591610609836105da565b926106176040519485610341565b808452602092838086019260051b8201019283116101ce578301905b828210610641575050505090565b81358152908301908301610633565b67ffffffffffffffff811161033c57601f01601f191660200190565b81601f820112156101ce5780359061068382610650565b926106916040519485610341565b828452602083830101116101ce57816000926020809301838601378301015290565b346101ce5760a03660031901126101ce57600480356106d1816101d3565b6024356106dd816101d3565b67ffffffffffffffff906044358281116101ce576106fe90369086016105f2565b906064358381116101ce5761071690369087016105f2565b926084359081116101ce5761072e903690870161066c565b936001600160a01b038082169033821415806107bd575b6107905783161561077857156107615761075f95506113df565b005b604051626a0d4560e21b8152600081880152602490fd5b604051632bfa23e760e11b8152600081890152602490fd5b6040805163711bec9160e11b815233818b019081526001600160a01b038616602082015290918291010390fd5b50600082815260016020908152604080832033845290915290205460ff1615610745565b346101ce5760403660031901126101ce5761075f602435600435610804826101d3565b80600052600360205261081e600160406000200154611157565b61119a565b346101ce5760403660031901126101ce57602435610840816101d3565b336001600160a01b0382160361085c5761075f90600435611234565b60405163334bd91960e11b8152600490fd5b90815180825260208080930193019160005b82811061088e575050505090565b835185529381019392810192600101610880565b9060206108b392818152019061086e565b90565b346101ce5760403660031901126101ce5760043567ffffffffffffffff8082116101ce57366023830112156101ce5781600401356108f3816105da565b926109016040519485610341565b81845260209160248386019160051b830101913683116101ce57602401905b82821061095957856024358681116101ce576105489161094761094d9236906004016105f2565b9061131a565b604051918291826108a2565b8380918335610967816101d3565b815201910190610920565b6108b39060208152825160e06109ca61099961010093846020870152610120860190610409565b6109b5602088015191601f199283888303016040890152610409565b90604088015190868303016060870152610409565b9460608101516080850152608081015160a085015260a081015160c085015260c081015182850152015191019015159052565b346101ce5760203660031901126101ce57610548604060e08151610a208161031f565b606081526060602082015260608382015260009181836060819401528260808201528260a08201528260c082015201526004358152600760205220610ad2610ac96007610a6b6105cd565b93610a7581610363565b8552610a8360018201610363565b6020860152610a9460028201610363565b60408601526003810154606086015260048101546080860152600581015460a0860152600681015460c0860152015460ff1690565b151560e0830152565b60405191829182610972565b346101ce5760403660031901126101ce57602060ff610b28602435610b02816101d3565b6004356000526003845260406000209060018060a01b0316600052602052604060002090565b54166040519015158152f35b346101ce5760403660031901126101ce5760043560018060a01b039060246020836005541660405192838092634ce0ed3d60e01b82528660048301525afa8015610bca5761075f93610b9192600092610b9a575b5016331461199a565b60243590612154565b610bbc91925060203d8111610bc3575b610bb48183610341565b810190611985565b9038610b88565b503d610baa565b6116a8565b346101ce5760203660031901126101ce57600435610bec816101d3565b3360009081527f3617319a054d772f909f7c479a2cebe5066e836a939412e32403c99029b92eff602052604081205490919060ff1615610c495760018060a01b03166bffffffffffffffffffffffff60a01b600654161760065580f35b60405163e2517d3f60e01b815233600482015260248101839052604490fd5b346101ce5760003660031901126101ce57602060405160008152f35b346101ce5760403660031901126101ce57600435610ca1816101d3565b60243590811515908183036101ce576001600160a01b038116928315610d2c57610ced610cfe9233600052600160205260406000209060018060a01b0316600052602052604060002090565b9060ff801983541691151516179055565b6040519081527f17307eab39ab6107e8899845ad3d59bd9653f200f220920489ca2b5937696c3160203392a3005b60405162ced3e160e81b815260006004820152602490fd5b60403660031901126101ce57600435602435610d6a816000526007602052604060002090565b610d80610d7b600783015460ff1690565b611eb7565b610d9f83610d98846000526009602052604060002090565b5414611efc565b60048101906006825491610db860038201548410611f38565b600581015480610e99575b5001549081610e14575b610dd791506112dc565b9055610deb610de46116b4565b823361200f565b33917f383d48db775ecb68b47179eacdc741216ce9ed1a73d862dadb7052d65adf9820600080a4005b6006546001600160a01b031660405163f72967e160e01b81526004810187905233602482015290602090829060449082905afa928315610bca57610dd793610e6692600091610e6b575b501015611fcd565b610dcd565b610e8c915060203d8111610e92575b610e848183610341565b810190611fbe565b38610e5e565b503d610e7a565b610ea590341015611f7b565b38610dc3565b346101ce5760203660031901126101ce5760043560005260096020526020604060002054604051908152f35b346101ce5760403660031901126101ce5761075f602435600435610efa826101d3565b806000526003602052610f14600160406000200154611157565b611234565b346101ce5760203660031901126101ce5760043560005260086020526020604060002054604051908152f35b346101ce5760403660031901126101ce57602060ff610b28600435610f69816101d3565b60243590610f76826101d3565b60018060a01b03166000526001845260406000209060018060a01b0316600052602052604060002090565b346101ce5760e03660031901126101ce5767ffffffffffffffff6024358181116101ce57610fd390369060040161066c565b906044358181116101ce57610fec90369060040161066c565b916064359182116101ce576105489261100c61102193369060040161066c565b9160c4359260a43592608435926004356119d8565b6040519081529081906020820190565b346101ce5760a03660031901126101ce5760043561104e816101d3565b60243561105a816101d3565b60843567ffffffffffffffff81116101ce5761107a90369060040161066c565b906001600160a01b03838116903382141580611133575b61110c578216156110f357156110db5761075f926110d36064356044359160405192600184526020840152604083019160018352606084015260808301604052565b9290916113df565b604051626a0d4560e21b815260006004820152602490fd5b604051632bfa23e760e11b815260006004820152602490fd5b60405163711bec9160e11b81523360048201526001600160a01b0386166024820152604490fd5b50600082815260016020908152604080832033845290915290205460ff1615611091565b600081815260036020908152604080832033845290915290205460ff161561117c5750565b6044906040519063e2517d3f60e01b82523360048301526024820152fd5b600090808252600360205260ff6111c684604085209060018060a01b0316600052602052604060002090565b541661122e578082526003602090815260408084206001600160a01b038616600090815292529020805460ff1916600117905533926001600160a01b0316917f2f8788117e7eff1d82e926ec794901d17c78024a50270940304540a733656f0d9080a4600190565b50905090565b600090808252600360205260ff61126084604085209060018060a01b0316600052602052604060002090565b54161561122e578082526003602090815260408084206001600160a01b038616600090815292529020805460ff1916905533926001600160a01b0316917ff6391f5c32d9c69d2a47ea670b442974b53935d1edc7fd64eb21e047a839171b9080a4600190565b634e487b7160e01b600052601160045260246000fd5b60001981146112eb5760010190565b6112c6565b80518210156113045760209160051b010190565b634e487b7160e01b600052603260045260246000fd5b919091805183518082036113bd575050805190611336826105da565b916113446040519384610341565b808352611353601f19916105da565b0190602091368385013760005b81518110156113b557600581901b8281018401519087018401516000908152602081815260408083206001600160a01b03909416835292905220546113b091906113aa82876112f0565b526112dc565b611360565b509193505050565b604051635b05999160e01b815260048101919091526024810191909152604490fd5b9491909181518451908181036113bd57505060005b825181101561150757600581901b83810160209081015191870101516001600160a01b03929186908a8516611480575b61143794821661143c575b5050506112dc565b6113f4565b6114769161145761146e926000526000602052604060002090565b9060018060a01b0316600052602052604060002090565b9182546115fd565b905538858161142f565b919293905061149d8a611457846000526000602052604060002090565b548381106114d05791879184611437969594036114c88d611457856000526000602052604060002090565b559450611424565b6040516303dee4c560e01b81526001600160a01b038c16600482015260248101919091526044810184905260648101839052608490fd5b5094919392909360018551146000146115b2576020858101518382015160408051928352928201526001600160a01b03838116929086169133917fc3d58168c5ae7397731d063d5bbf3d657854427343f4c083240f7aacaa2d0f6291a45b6001600160a01b03811661157b575b5050505050565b84516001036115a1576020806115979601519201519233611802565b3880808080611574565b6115ad9491923361194e565b611597565b6040516001600160a01b03828116919085169033907f4a39dc06d4c0dbc64b70af90fd698a233a518aa5d07e595d983b8c0526c8f7fb90806115f5888c8361160a565b0390a4611565565b919082018092116112eb57565b90916116216108b39360408452604084019061086e565b91602081840391015261086e565b908160209103126101ce57516108b381610235565b909260a0926108b39594600180861b0316835260006020840152604083015260608201528160808201520190610409565b91926108b395949160a094600180871b038092168552166020840152604083015260608201528160808201520190610409565b6040513d6000823e3d90fd5b604051906020820182811067ffffffffffffffff82111761033c5760405260008252565b3d15611703573d906116e982610650565b916116f76040519384610341565b82523d6000602084013e565b606090565b9293919093843b61171a575050505050565b60209161173d604051948593849363f23a6e6160e01b9889865260048601611644565b038160006001600160a01b0388165af1600091816117d2575b5061179557826117646116d8565b805191908261178e57604051632bfa23e760e11b81526001600160a01b0383166004820152602490fd5b9050602001fd5b6001600160e01b031916036117af57503880808080611574565b604051632bfa23e760e11b81526001600160a01b03919091166004820152602490fd5b6117f491925060203d81116117fb575b6117ec8183610341565b81019061162f565b9038611756565b503d6117e2565b939290949194853b611817575b505050505050565b61183a602093604051958694859463f23a6e6160e01b998a875260048701611675565b038160006001600160a01b0388165af16000918161187c575b5061186157826117646116d8565b6001600160e01b031916036117af575038808080808061180f565b61189591925060203d81116117fb576117ec8183610341565b9038611853565b926118cb6108b395936118d99360018060a01b031686526000602087015260a0604087015260a086019061086e565b90848203606086015261086e565b916080818403910152610409565b93906108b395936118cb916118d99460018060a01b03809216885216602087015260a0604087015260a086019061086e565b9293919093843b61192b575050505050565b60209161173d604051948593849363bc197c8160e01b988986526004860161189c565b939290949194853b61196257505050505050565b61183a602093604051958694859463bc197c8160e01b998a8752600487016118e7565b908160209103126101ce57516108b3816101d3565b156119a157565b60405162461bcd60e51b815260206004820152600f60248201526e2737ba103a3934b1329030b236b4b760891b6044820152606490fd5b9495602493949260018060a01b03916020836005541660405197888092634ce0ed3d60e01b82528c60048301525afa958615610bca577f464fb7e96c5b680a910116718bea4ebb614bd7f00d76b1ea14bc789f77052def96611ae294611a4892600092610b9a575016331461199a565b611a5484511515611b2d565b611a6082511515611b68565b611a6c87511515611ba5565b611a77851515611be8565b611a8b886000526008602052604060002090565b54988997611a976105cd565b93868552602085015260408401528560608401526000608084015260a083015260c0820152611ac960e0820160019052565b611add866000526007602052604060002090565b611d48565b611af6856000526008602052604060002090565b611b0081546112dc565b905584611b17856000526009602052604060002090565b55611b2760405192839283611e9b565b0390a390565b15611b3457565b60405162461bcd60e51b815260206004820152600c60248201526b496e76616c6964206e616d6560a01b6044820152606490fd5b15611b6f57565b60405162461bcd60e51b815260206004820152600e60248201526d125b9d985b1a59081cde5b589bdb60921b6044820152606490fd5b15611bac57565b60405162461bcd60e51b8152602060048201526014602482015273496e76616c6964206d657461646174612055524960601b6044820152606490fd5b15611bef57565b60405162461bcd60e51b815260206004820152600e60248201526d496e76616c696420737570706c7960901b6044820152606490fd5b90601f8111611c3357505050565b600091825260208220906020601f850160051c83019410611c6f575b601f0160051c01915b828110611c6457505050565b818155600101611c58565b9092508290611c4f565b919091825167ffffffffffffffff811161033c57611ca181611c9b84546102cf565b84611c25565b602080601f8311600114611cdd575081929394600092611cd2575b50508160011b916000199060031b1c1916179055565b015190503880611cbc565b90601f19831695611cf385600052602060002090565b926000905b888210611d3057505083600195969710611d17575b505050811b019055565b015160001960f88460031b161c19169055388080611d0d565b80600185968294968601518155019501930190611cf8565b919091825192835167ffffffffffffffff811161033c57611d7381611d6d85546102cf565b85611c25565b6020948590601f8311600114611e1e5792611dc06103a1969784611e009560e095600798600092611e13575b50508160011b916000199060031b1c19161787555b82015160018701611c79565b611dd1604082015160028701611c79565b606081015160038601556080810151600486015560a0810151600586015560c081015160068601550151151590565b91019060ff801983541691151516179055565b015190503880611d9f565b90601f19831691611e3486600052602060002090565b9260005b818110611e8457509760018560e09560079895611dc095611e00996103a19d9e10611e6b575b505050811b018755611db4565b015160001960f88460031b161c19169055388080611e5e565b929389600181928786015181550195019301611e38565b929190611eb2602091604086526040860190610409565b930152565b15611ebe57565b60405162461bcd60e51b8152602060048201526016602482015275436f6c6c65637469626c65206e6f742061637469766560501b6044820152606490fd5b15611f0357565b60405162461bcd60e51b815260206004820152600d60248201526c496e76616c696420747269626560981b6044820152606490fd5b15611f3f57565b60405162461bcd60e51b815260206004820152601460248201527314dd5c1c1b1e481b1a5b5a5d081c995858da195960621b6044820152606490fd5b15611f8257565b60405162461bcd60e51b8152602060048201526014602482015273125b9cdd59999a58da595b9d081c185e5b595b9d60621b6044820152606490fd5b908160209103126101ce575190565b15611fd457565b60405162461bcd60e51b8152602060048201526013602482015272496e73756666696369656e7420706f696e747360681b6044820152606490fd5b6001600160a01b038116929183156110f35761204a604051916001835260208301526040820190600182526001606084015260808301604052565b9281518451908181036113bd57505060005b82518110156120a1578061209c9160051b61209561146e87611457602080868b010151958c010151946000526000602052604060002090565b90556112dc565b61205c565b5092919360018251146000146121185760208281015184820151604080519283529282015260009133917fc3d58168c5ae7397731d063d5bbf3d657854427343f4c083240f7aacaa2d0f629190a45b805160010361210e57906020806103a1959301519101519133611708565b6103a19333611919565b60006040517f4a39dc06d4c0dbc64b70af90fd698a233a518aa5d07e595d983b8c0526c8f7fb33918061214c88888361160a565b0390a46120f0565b61216d6000918383526009602052604083205414611efc565b818152600760205260ff600760408320015416156121ca577f10d7fa2a8b5e554c7b5f49607e17c3bc8f54d789c90174fa887553eef08f54ae9060076121bd846000526007602052604060002090565b01805460ff1916905580a2565b60405162461bcd60e51b8152602060048201526013602482015272105b1c9958591e4819195858dd1a5d985d1959606a1b6044820152606490fdfea164736f6c6343000814000a",
  "linkReferences": {},
  "deployedLinkReferences": {}
}