{
  "_format": "hh-sol-artifact-1",
  "contractName": "RoleManager",
  "sourceName": "contracts/RoleManager.sol",
  "abi": [
    {
      "inputs": [],
      "stateMutability": "nonpayable",
      "type": "constructor"
    },
    {
      "inputs": [],
      "name": "AccessControlBadConfirmation",
      "type": "error"
    },
    {
      "inputs": [
        {
          "internalType": "address",
          "name": "account",
          "type": "address"
        },
        {
          "internalType": "bytes32",
          "name": "neededRole",
          "type": "bytes32"
        }
      ],
      "name": "AccessControlUnauthorizedAccount",
      "type": "error"
    },
    {
      "anonymous": false,
      "inputs": [
        {
          "indexed": true,
          "internalType": "address",
          "name": "assigner",
          "type": "address"
        }
      ],
      "name": "FanAssignerAuthorized",
      "type": "event"
    },
    {
      "anonymous": false,
      "inputs": [
        {
          "indexed": true,
          "internalType": "bytes32",
          "name": "role",
          "type": "bytes32"
        },
        {
          "indexed": true,
          "internalType": "bytes32",
          "name": "previousAdminRole",
          "type": "bytes32"
        },
        {
          "indexed": true,
          "internalType": "bytes32",
          "name": "newAdminRole",
          "type": "bytes32"
        }
      ],
      "name": "RoleAdminChanged",
      "type": "event"
    },
    {
      "anonymous": false,
      "inputs": [
        {
          "indexed": true,
          "internalType": "address",
          "name": "user",
          "type": "address"
        },
        {
          "indexed": true,
          "internalType": "bytes32",
          "name": "role",
          "type": "bytes32"
        }
      ],
      "name": "RoleAssigned",
      "type": "event"
    },
    {
      "anonymous": false,
      "inputs": [
        {
          "indexed": true,
          "internalType": "bytes32",
          "name": "role",
          "type": "bytes32"
        },
        {
          "indexed": true,
          "internalType": "address",
          "name": "account",
          "type": "address"
        },
        {
          "indexed": true,
          "internalType": "address",
          "name": "sender",
          "type": "address"
        }
      ],
      "name": "RoleGranted",
      "type": "event"
    },
    {
      "anonymous": false,
      "inputs": [
        {
          "indexed": true,
          "internalType": "bytes32",
          "name": "role",
          "type": "bytes32"
        },
        {
          "indexed": true,
          "internalType": "address",
          "name": "account",
          "type": "address"
        },
        {
          "indexed": true,
          "internalType": "address",
          "name": "sender",
          "type": "address"
        }
      ],
      "name": "RoleRevoked",
      "type": "event"
    },
    {
      "anonymous": false,
      "inputs": [
        {
          "indexed": true,
          "internalType": "address",
          "name": "user",
          "type": "address"
        },
        {
          "indexed": true,
          "internalType": "bytes32",
          "name": "role",
          "type": "bytes32"
        }
      ],
      "name": "RoleRevoked",
      "type": "event"
    },
    {
      "inputs": [],
      "name": "ARTIST_ROLE",
      "outputs": [
        {
          "internalType": "bytes32",
          "name": "",
          "type": "bytes32"
        }
      ],
      "stateMutability": "view",
      "type": "function"
    },
    {
      "inputs": [],
      "name": "BRAND_ROLE",
      "outputs": [
        {
          "internalType": "bytes32",
          "name": "",
          "type": "bytes32"
        }
      ],
      "stateMutability": "view",
      "type": "function"
    },
    {
      "inputs": [],
      "name": "DEFAULT_ADMIN_ROLE",
      "outputs": [
        {
          "internalType": "bytes32",
          "name": "",
          "type": "bytes32"
        }
      ],
      "stateMutability": "view",
      "type": "function"
    },
    {
      "inputs": [],
      "name": "FAN_ASSIGNER_ROLE",
      "outputs": [
        {
          "internalType": "bytes32",
          "name": "",
          "type": "bytes32"
        }
      ],
      "stateMutability": "view",
      "type": "function"
    },
    {
      "inputs": [],
      "name": "FAN_ROLE",
      "outputs": [
        {
          "internalType": "bytes32",
          "name": "",
          "type": "bytes32"
        }
      ],
      "stateMutability": "view",
      "type": "function"
    },
    {
      "inputs": [],
      "name": "MODERATOR_ROLE",
      "outputs": [
        {
          "internalType": "bytes32",
          "name": "",
          "type": "bytes32"
        }
      ],
      "stateMutability": "view",
      "type": "function"
    },
    {
      "inputs": [],
      "name": "ORGANIZER_ROLE",
      "outputs": [
        {
          "internalType": "bytes32",
          "name": "",
          "type": "bytes32"
        }
      ],
      "stateMutability": "view",
      "type": "function"
    },
    {
      "inputs": [],
      "name": "POLL_CREATOR_ROLE",
      "outputs": [
        {
          "internalType": "bytes32",
          "name": "",
          "type": "bytes32"
        }
      ],
      "stateMutability": "view",
      "type": "function"
    },
    {
      "inputs": [],
      "name": "POST_CREATOR_ROLE",
      "outputs": [
        {
          "internalType": "bytes32",
          "name": "",
          "type": "bytes32"
        }
      ],
      "stateMutability": "view",
      "type": "function"
    },
    {
      "inputs": [],
      "name": "PROPOSAL_CREATOR_ROLE",
      "outputs": [
        {
          "internalType": "bytes32",
          "name": "",
          "type": "bytes32"
        }
      ],
      "stateMutability": "view",
      "type": "function"
    },
    {
      "inputs": [],
      "name": "QUIZ_CREATOR_ROLE",
      "outputs": [
        {
          "internalType": "bytes32",
          "name": "",
          "type": "bytes32"
        }
      ],
      "stateMutability": "view",
      "type": "function"
    },
    {
      "inputs": [
        {
          "internalType": "address",
          "name": "user",
          "type": "address"
        }
      ],
      "name": "assignFanRole",
      "outputs": [],
      "stateMutability": "nonpayable",
      "type": "function"
    },
    {
      "inputs": [
        {
          "internalType": "address",
          "name": "user",
          "type": "address"
        },
        {
          "internalType": "bytes32",
          "name": "role",
          "type": "bytes32"
        }
      ],
      "name": "assignRole",
      "outputs": [],
      "stateMutability": "nonpayable",
      "type": "function"
    },
    {
      "inputs": [
        {
          "internalType": "address",
          "name": "assigner",
          "type": "address"
        }
      ],
      "name": "authorizeFanAssigner",
      "outputs": [],
      "stateMutability": "nonpayable",
      "type": "function"
    },
    {
      "inputs": [
        {
          "internalType": "bytes32",
          "name": "role",
          "type": "bytes32"
        }
      ],
      "name": "getRoleAdmin",
      "outputs": [
        {
          "internalType": "bytes32",
          "name": "",
          "type": "bytes32"
        }
      ],
      "stateMutability": "view",
      "type": "function"
    },
    {
      "inputs": [
        {
          "internalType": "address",
          "name": "user",
          "type": "address"
        }
      ],
      "name": "getUserRoles",
      "outputs": [
        {
          "internalType": "bytes32[]",
          "name": "",
          "type": "bytes32[]"
        }
      ],
      "stateMutability": "view",
      "type": "function"
    },
    {
      "inputs": [
        {
          "internalType": "bytes32",
          "name": "role",
          "type": "bytes32"
        },
        {
          "internalType": "address",
          "name": "account",
          "type": "address"
        }
      ],
      "name": "grantRole",
      "outputs": [],
      "stateMutability": "nonpayable",
      "type": "function"
    },
    {
      "inputs": [
        {
          "internalType": "address",
          "name": "user",
          "type": "address"
        },
        {
          "internalType": "bytes32[]",
          "name": "roles",
          "type": "bytes32[]"
        }
      ],
      "name": "hasAllRoles",
      "outputs": [
        {
          "internalType": "bool",
          "name": "",
          "type": "bool"
        }
      ],
      "stateMutability": "view",
      "type": "function"
    },
    {
      "inputs": [
        {
          "internalType": "address",
          "name": "user",
          "type": "address"
        },
        {
          "internalType": "bytes32[]",
          "name": "roles",
          "type": "bytes32[]"
        }
      ],
      "name": "hasAnyRole",
      "outputs": [
        {
          "internalType": "bool",
          "name": "",
          "type": "bool"
        }
      ],
      "stateMutability": "view",
      "type": "function"
    },
    {
      "inputs": [
        {
          "internalType": "bytes32",
          "name": "role",
          "type": "bytes32"
        },
        {
          "internalType": "address",
          "name": "account",
          "type": "address"
        }
      ],
      "name": "hasRole",
      "outputs": [
        {
          "internalType": "bool",
          "name": "",
          "type": "bool"
        }
      ],
      "stateMutability": "view",
      "type": "function"
    },
    {
      "inputs": [
        {
          "internalType": "address",
          "name": "user",
          "type": "address"
        },
        {
          "internalType": "bytes32",
          "name": "role",
          "type": "bytes32"
        }
      ],
      "name": "removeRole",
      "outputs": [],
      "stateMutability": "nonpayable",
      "type": "function"
    },
    {
      "inputs": [
        {
          "internalType": "bytes32",
          "name": "role",
          "type": "bytes32"
        },
        {
          "internalType": "address",
          "name": "callerConfirmation",
          "type": "address"
        }
      ],
      "name": "renounceRole",
      "outputs": [],
      "stateMutability": "nonpayable",
      "type": "function"
    },
    {
      "inputs": [
        {
          "internalType": "bytes32",
          "name": "role",
          "type": "bytes32"
        },
        {
          "internalType": "address",
          "name": "account",
          "type": "address"
        }
      ],
      "name": "revokeRole",
      "outputs": [],
      "stateMutability": "nonpayable",
      "type": "function"
    },
    {
      "inputs": [
        {
          "internalType": "bytes4",
          "name": "interfaceId",
          "type": "bytes4"
        }
      ],
      "name": "supportsInterface",
      "outputs": [
        {
          "internalType": "bool",
          "name": "",
          "type": "bool"
        }
      ],
      "stateMutability": "view",
      "type": "function"
    }
  ],
  "bytecode": "0x6080604052346100225761001233610027565b50604051610f9590816100b88239f35b600080fd5b6001600160a01b031660008181527fad3228b676f7d3cd4284a5443f17f1962b36e491b30a40b2405849e597ba5fb5602052604081205490919060ff166100b357818052816020526040822081835260205260408220600160ff1982541617905533917f2f8788117e7eff1d82e926ec794901d17c78024a50270940304540a733656f0d8180a4600190565b509056fe608060408181526004918236101561001657600080fd5b600092833560e01c91826301ffc9a714610a865750816306a36aee146106e157816315b3958e146106a65781631d9486de14610677578163248a9ca31461064d5781632c519e6e146106125781632f2ff15d146105e85781633224dfd6146105ad57816336568abe146105675781633711e8f61461052c57816365fdcd64146104f15781636853920e1461049157816368ca78f9146104755781636fcc9146146104505781637909cb5914610415578163797669c9146103da57816391d1485414610394578163949e8d2c1461033557816399fdf9f9146102fa578163a217fddf146102df578163a966a0df146102a4578163c9f317401461019b578163d547741f14610158575063f41d16e21461012d57600080fd5b3461015457816003193601126101545760209051600080516020610f698339815191528152f35b5080fd5b91905034610197578060031936011261019757610193913561018e600161017d610af4565b938387528660205286200154610bc2565b610dae565b5080f35b8280fd5b905034610197576020806003193601126102a0576101b7610ad9565b92848052848252808520338652825260ff81862054168015610265575b156102245784600080516020610f69833981519152856101f381610c9a565b506001600160a01b03167f0666448aae9b9c8249fd8213a35a9c10218a0eac2fb39b96ed90c67214c7e7618380a380f35b5162461bcd60e51b815291820152601860248201527f43616c6c6572206973206e6f7420617574686f72697a65640000000000000000604482015260649150fd5b507f232aaa91097cd1c424674d9a7a8ed253faf3509deccbed30156c58261e3762548552848252808520338652825260ff81862054166101d4565b8380fd5b505034610154578160031936011261015457602090517f877a78dc988c0ec5f58453b44888a55eb39755c3d5ed8d8ea990912aa3ef29c68152f35b50503461015457816003193601126101545751908152602090f35b505034610154578160031936011261015457602090517f232aaa91097cd1c424674d9a7a8ed253faf3509deccbed30156c58261e3762548152f35b83346103915760203660031901126103915761034f610ad9565b610357610b6a565b61036081610be8565b506001600160a01b03167fa68ac0418cdf931b0973590fc412bf29768a8f3ea8aabdb9515f05bb018f7bd08280a280f35b80fd5b9050346101975781600319360112610197578160209360ff926103b5610af4565b903582528186528282206001600160a01b039091168252855220549151911615158152f35b505034610154578160031936011261015457602090517f71f3d55856e4058ed06ee057d79ada615f65cdf5f9ee88181b914225088f834f8152f35b505034610154578160031936011261015457602090517f4d2e7a1e3f5dd6e203f087b15756ccf0e4ccd947fe1b639a38540089a1e47f638152f35b5050346101545760209061046c61046636610b0a565b91610ed4565b90519015158152f35b5050346101545760209061046c61048b36610b0a565b91610e6e565b50503461015457366003190112610391576104aa610ad9565b602435906104b6610b6a565b6104c08183610dae565b506001600160a01b03167fea83a7caef01824e96446a8c4bc8ff4669edd99e129b53e32c077f85d21680818380a380f35b505034610154578160031936011261015457602090517fdd057e4f7b238d4c4e39da618fb49ffe6165996f3b117d2d6c2f5fa5f14a185c8152f35b505034610154578160031936011261015457602090517fd52b9622fe3ce468afb95246111fe2ff28de74ab22e427623dca2ad2172e5f598152f35b838334610154578060031936011261015457610581610af4565b90336001600160a01b0383160361059e5750610193919235610dae565b5163334bd91960e11b81528390fd5b505034610154578160031936011261015457602090517ff903ac88d99e2ad0554114b9feb3f1669705fc1aec87b3b5349651bb7da32b6e8152f35b91905034610197578060031936011261019757610193913561060d600161017d610af4565b610d35565b505034610154578160031936011261015457602090517f399bc110c7610ecddc22e1dcd4f4a685dbc611344debc29d83653480ba14783a8152f35b90503461019757602036600319011261019757816020936001923581528085522001549051908152f35b5050346101545736600319011261039157610690610ad9565b6024359061069c610b6a565b6101f38183610d35565b505034610154578160031936011261015457602090517f8a21e8fdae6c23863f7de5307e2e7162c88dab602a41610addb5f1505d2593988152f35b9190503461019757602091826003193601126102a0576106ff610ad9565b9282519461014086019567ffffffffffffffff9681811088821117610a73578552600981526101209583820187368237825115610a6057600080516020610f698339815191529052815196600197881015610a60577f4d2e7a1e3f5dd6e203f087b15756ccf0e4ccd947fe1b639a38540089a1e47f6387840152825160021015610a60577f877a78dc988c0ec5f58453b44888a55eb39755c3d5ed8d8ea990912aa3ef29c66060840152825160031015610a60577fd52b9622fe3ce468afb95246111fe2ff28de74ab22e427623dca2ad2172e5f5960808401528251861015610a60577f71f3d55856e4058ed06ee057d79ada615f65cdf5f9ee88181b914225088f834f60a0840152825160051015610a60577f399bc110c7610ecddc22e1dcd4f4a685dbc611344debc29d83653480ba14783a60c0840152825160061015610a60577fdd057e4f7b238d4c4e39da618fb49ffe6165996f3b117d2d6c2f5fa5f14a185c60e0840152825160071015610a60577ff903ac88d99e2ad0554114b9feb3f1669705fc1aec87b3b5349651bb7da32b6e610100840152825160081015610a60577f8a21e8fdae6c23863f7de5307e2e7162c88dab602a41610addb5f1505d2593989083015282978784905b610a18575b5097601f96979860ff809216906108e982610f15565b8a518a199a909991018a16890191821189831017610a05575089528087529698969395949361091790610f15565b8585019901368a37859182885b610961575b50505050508451948186019282875251809352850195925b82811061094e5785870386f35b8351875295810195928101928401610941565b9084939291899b999598969798518110156109f8576109ad826109848388610f43565b51600052600060205260406000209060018060a01b031660005260205260ff6040600020541690565b6109cb575b6109bb90610e23565b9091929394989a97969597610924565b926109f06109bb916109dd8688610f43565b516109ea8683168d610f43565b52610f57565b9390506109b2565b5099979996959496610929565b634e487b7160e01b875260419052602486fd5b8351811015610a5b57610a2f836109848387610f43565b610a44575b610a3e8991610e23565b906108ce565b98610a3e610a528a92610f57565b9a915050610a34565b6108d3565b634e487b7160e01b845260328652602484fd5b634e487b7160e01b835260418552602483fd5b849134610197576020366003190112610197573563ffffffff60e01b81168091036101975760209250637965db0b60e01b8114908115610ac8575b5015158152f35b6301ffc9a760e01b14905083610ac1565b600435906001600160a01b0382168203610aef57565b600080fd5b602435906001600160a01b0382168203610aef57565b6040600319820112610aef576004356001600160a01b0381168103610aef579160243567ffffffffffffffff92838211610aef5780602383011215610aef578160040135938411610aef5760248460051b83010111610aef576024019190565b3360009081527fad3228b676f7d3cd4284a5443f17f1962b36e491b30a40b2405849e597ba5fb5602052604081205460ff1615610ba45750565b6044906040519063e2517d3f60e01b82523360048301526024820152fd5b80600052600060205260406000203360005260205260ff6040600020541615610ba45750565b6001600160a01b031660008181527fd6d97283ba7615ebcaa9321a67bfd5bb9763454bb90c5efef1a6cf434e124a7f60205260408120549091907f232aaa91097cd1c424674d9a7a8ed253faf3509deccbed30156c58261e3762549060ff16610c9557808352826020526040832082845260205260408320600160ff198254161790557f2f8788117e7eff1d82e926ec794901d17c78024a50270940304540a733656f0d339380a4600190565b505090565b6001600160a01b031660008181527f858a9a25ff5215030fd2fdfce249d9aba9c9c84c81005f05b2d0f790b6bafc7c6020526040812054909190600080516020610f698339815191529060ff16610c9557808352826020526040832082845260205260408320600160ff198254161790557f2f8788117e7eff1d82e926ec794901d17c78024a50270940304540a733656f0d339380a4600190565b9060009180835282602052604083209160018060a01b03169182845260205260ff60408420541615600014610c9557808352826020526040832082845260205260408320600160ff198254161790557f2f8788117e7eff1d82e926ec794901d17c78024a50270940304540a733656f0d339380a4600190565b9060009180835282602052604083209160018060a01b03169182845260205260ff604084205416600014610c955780835282602052604083208284526020526040832060ff1981541690557ff6391f5c32d9c69d2a47ea670b442974b53935d1edc7fd64eb21e047a839171b339380a4600190565b6000198114610e325760010190565b634e487b7160e01b600052601160045260246000fd5b9190811015610e585760051b0190565b634e487b7160e01b600052603260045260246000fd5b60005b838110610e815750505050600090565b610eb982610e90838787610e48565b35600052600060205260406000209060018060a01b031660005260205260ff6040600020541690565b610ecb57610ec690610e23565b610e71565b50505050600190565b90600091825b848110610eeb575050505050600190565b610efa82610e90838887610e48565b15610f0d57610f0890610e23565b610eda565b505050905090565b67ffffffffffffffff8111610f2d5760051b60200190565b634e487b7160e01b600052604160045260246000fd5b8051821015610e585760209160051b010190565b60ff1660ff8114610e32576001019056febca0505abd2b509ad0eaa840e6f168977e35443c6d3673d54b38d65824c63872a164736f6c6343000814000a",
  "linkReferences": {},
  "deployedLinkReferences": {}
}