{
  "_format": "hh-sol-artifact-1",
  "contractName": "PointSystem",
  "sourceName": "contracts/PointSystem.sol",
  "abi": [
    {
      "inputs": [
        {
          "internalType": "address",
          "name": "_roleManager",
          "type": "address"
        },
        {
          "internalType": "address",
          "name": "_tribeController",
          "type": "address"
        }
      ],
      "stateMutability": "nonpayable",
      "type": "constructor"
    },
    {
      "inputs": [],
      "name": "AccessControlBadConfirmation",
      "type": "error"
    },
    {
      "inputs": [
        {
          "internalType": "address",
          "name": "account",
          "type": "address"
        },
        {
          "internalType": "bytes32",
          "name": "neededRole",
          "type": "bytes32"
        }
      ],
      "name": "AccessControlUnauthorizedAccount",
      "type": "error"
    },
    {
      "anonymous": false,
      "inputs": [
        {
          "indexed": true,
          "internalType": "uint256",
          "name": "tribeId",
          "type": "uint256"
        },
        {
          "indexed": false,
          "internalType": "bytes32",
          "name": "actionType",
          "type": "bytes32"
        },
        {
          "indexed": false,
          "internalType": "uint256",
          "name": "points",
          "type": "uint256"
        }
      ],
      "name": "ActionPointsUpdated",
      "type": "event"
    },
    {
      "anonymous": false,
      "inputs": [
        {
          "indexed": true,
          "internalType": "uint256",
          "name": "tribeId",
          "type": "uint256"
        },
        {
          "indexed": true,
          "internalType": "address",
          "name": "member",
          "type": "address"
        },
        {
          "indexed": false,
          "internalType": "uint256",
          "name": "points",
          "type": "uint256"
        },
        {
          "indexed": false,
          "internalType": "bytes32",
          "name": "actionType",
          "type": "bytes32"
        }
      ],
      "name": "PointsAwarded",
      "type": "event"
    },
    {
      "anonymous": false,
      "inputs": [
        {
          "indexed": true,
          "internalType": "uint256",
          "name": "tribeId",
          "type": "uint256"
        },
        {
          "indexed": true,
          "internalType": "address",
          "name": "member",
          "type": "address"
        },
        {
          "indexed": false,
          "internalType": "uint256",
          "name": "points",
          "type": "uint256"
        },
        {
          "indexed": false,
          "internalType": "string",
          "name": "reason",
          "type": "string"
        }
      ],
      "name": "PointsDeducted",
      "type": "event"
    },
    {
      "anonymous": false,
      "inputs": [
        {
          "indexed": true,
          "internalType": "bytes32",
          "name": "role",
          "type": "bytes32"
        },
        {
          "indexed": true,
          "internalType": "bytes32",
          "name": "previousAdminRole",
          "type": "bytes32"
        },
        {
          "indexed": true,
          "internalType": "bytes32",
          "name": "newAdminRole",
          "type": "bytes32"
        }
      ],
      "name": "RoleAdminChanged",
      "type": "event"
    },
    {
      "anonymous": false,
      "inputs": [
        {
          "indexed": true,
          "internalType": "bytes32",
          "name": "role",
          "type": "bytes32"
        },
        {
          "indexed": true,
          "internalType": "address",
          "name": "account",
          "type": "address"
        },
        {
          "indexed": true,
          "internalType": "address",
          "name": "sender",
          "type": "address"
        }
      ],
      "name": "RoleGranted",
      "type": "event"
    },
    {
      "anonymous": false,
      "inputs": [
        {
          "indexed": true,
          "internalType": "bytes32",
          "name": "role",
          "type": "bytes32"
        },
        {
          "indexed": true,
          "internalType": "address",
          "name": "account",
          "type": "address"
        },
        {
          "indexed": true,
          "internalType": "address",
          "name": "sender",
          "type": "address"
        }
      ],
      "name": "RoleRevoked",
      "type": "event"
    },
    {
      "anonymous": false,
      "inputs": [
        {
          "indexed": true,
          "internalType": "uint256",
          "name": "tribeId",
          "type": "uint256"
        },
        {
          "indexed": false,
          "internalType": "address",
          "name": "tokenAddress",
          "type": "address"
        },
        {
          "indexed": false,
          "internalType": "string",
          "name": "name",
          "type": "string"
        },
        {
          "indexed": false,
          "internalType": "string",
          "name": "symbol",
          "type": "string"
        }
      ],
      "name": "TribeTokenCreated",
      "type": "event"
    },
    {
      "inputs": [],
      "name": "COMMENT_ACTION",
      "outputs": [
        {
          "internalType": "bytes32",
          "name": "",
          "type": "bytes32"
        }
      ],
      "stateMutability": "view",
      "type": "function"
    },
    {
      "inputs": [],
      "name": "CUSTOM_ACTION",
      "outputs": [
        {
          "internalType": "bytes32",
          "name": "",
          "type": "bytes32"
        }
      ],
      "stateMutability": "view",
      "type": "function"
    },
    {
      "inputs": [],
      "name": "DEFAULT_ADMIN_ROLE",
      "outputs": [
        {
          "internalType": "bytes32",
          "name": "",
          "type": "bytes32"
        }
      ],
      "stateMutability": "view",
      "type": "function"
    },
    {
      "inputs": [],
      "name": "LIKE_ACTION",
      "outputs": [
        {
          "internalType": "bytes32",
          "name": "",
          "type": "bytes32"
        }
      ],
      "stateMutability": "view",
      "type": "function"
    },
    {
      "inputs": [],
      "name": "POLL_ACTION",
      "outputs": [
        {
          "internalType": "bytes32",
          "name": "",
          "type": "bytes32"
        }
      ],
      "stateMutability": "view",
      "type": "function"
    },
    {
      "inputs": [],
      "name": "POST_ACTION",
      "outputs": [
        {
          "internalType": "bytes32",
          "name": "",
          "type": "bytes32"
        }
      ],
      "stateMutability": "view",
      "type": "function"
    },
    {
      "inputs": [],
      "name": "QUIZ_ACTION",
      "outputs": [
        {
          "internalType": "bytes32",
          "name": "",
          "type": "bytes32"
        }
      ],
      "stateMutability": "view",
      "type": "function"
    },
    {
      "inputs": [
        {
          "internalType": "uint256",
          "name": "",
          "type": "uint256"
        },
        {
          "internalType": "address",
          "name": "",
          "type": "address"
        },
        {
          "internalType": "bytes32",
          "name": "",
          "type": "bytes32"
        }
      ],
      "name": "actionCounts",
      "outputs": [
        {
          "internalType": "uint256",
          "name": "",
          "type": "uint256"
        }
      ],
      "stateMutability": "view",
      "type": "function"
    },
    {
      "inputs": [
        {
          "internalType": "uint256",
          "name": "",
          "type": "uint256"
        },
        {
          "internalType": "bytes32",
          "name": "",
          "type": "bytes32"
        }
      ],
      "name": "actionPoints",
      "outputs": [
        {
          "internalType": "uint256",
          "name": "",
          "type": "uint256"
        }
      ],
      "stateMutability": "view",
      "type": "function"
    },
    {
      "inputs": [
        {
          "internalType": "uint256",
          "name": "tribeId",
          "type": "uint256"
        },
        {
          "internalType": "address",
          "name": "member",
          "type": "address"
        },
        {
          "internalType": "uint256",
          "name": "points",
          "type": "uint256"
        },
        {
          "internalType": "bytes32",
          "name": "actionType",
          "type": "bytes32"
        }
      ],
      "name": "awardPoints",
      "outputs": [],
      "stateMutability": "nonpayable",
      "type": "function"
    },
    {
      "inputs": [
        {
          "internalType": "uint256",
          "name": "tribeId",
          "type": "uint256"
        },
        {
          "internalType": "address[]",
          "name": "members",
          "type": "address[]"
        },
        {
          "internalType": "uint256",
          "name": "points",
          "type": "uint256"
        },
        {
          "internalType": "bytes32",
          "name": "actionType",
          "type": "bytes32"
        }
      ],
      "name": "batchAwardPoints",
      "outputs": [],
      "stateMutability": "nonpayable",
      "type": "function"
    },
    {
      "inputs": [
        {
          "internalType": "uint256",
          "name": "tribeId",
          "type": "uint256"
        },
        {
          "internalType": "string",
          "name": "name",
          "type": "string"
        },
        {
          "internalType": "string",
          "name": "symbol",
          "type": "string"
        }
      ],
      "name": "createTribeToken",
      "outputs": [],
      "stateMutability": "nonpayable",
      "type": "function"
    },
    {
      "inputs": [
        {
          "internalType": "uint256",
          "name": "tribeId",
          "type": "uint256"
        },
        {
          "internalType": "address",
          "name": "member",
          "type": "address"
        },
        {
          "internalType": "uint256",
          "name": "points",
          "type": "uint256"
        },
        {
          "internalType": "string",
          "name": "reason",
          "type": "string"
        }
      ],
      "name": "deductPoints",
      "outputs": [],
      "stateMutability": "nonpayable",
      "type": "function"
    },
    {
      "inputs": [
        {
          "internalType": "uint256",
          "name": "tribeId",
          "type": "uint256"
        },
        {
          "internalType": "address",
          "name": "member",
          "type": "address"
        },
        {
          "internalType": "bytes32",
          "name": "actionType",
          "type": "bytes32"
        }
      ],
      "name": "getActionCount",
      "outputs": [
        {
          "internalType": "uint256",
          "name": "",
          "type": "uint256"
        }
      ],
      "stateMutability": "view",
      "type": "function"
    },
    {
      "inputs": [
        {
          "internalType": "uint256",
          "name": "tribeId",
          "type": "uint256"
        },
        {
          "internalType": "bytes32",
          "name": "actionType",
          "type": "bytes32"
        }
      ],
      "name": "getActionPoints",
      "outputs": [
        {
          "internalType": "uint256",
          "name": "",
          "type": "uint256"
        }
      ],
      "stateMutability": "view",
      "type": "function"
    },
    {
      "inputs": [
        {
          "internalType": "uint256",
          "name": "tribeId",
          "type": "uint256"
        },
        {
          "internalType": "address",
          "name": "member",
          "type": "address"
        }
      ],
      "name": "getMemberPoints",
      "outputs": [
        {
          "internalType": "uint256",
          "name": "",
          "type": "uint256"
        }
      ],
      "stateMutability": "view",
      "type": "function"
    },
    {
      "inputs": [
        {
          "internalType": "bytes32",
          "name": "role",
          "type": "bytes32"
        }
      ],
      "name": "getRoleAdmin",
      "outputs": [
        {
          "internalType": "bytes32",
          "name": "",
          "type": "bytes32"
        }
      ],
      "stateMutability": "view",
      "type": "function"
    },
    {
      "inputs": [
        {
          "internalType": "uint256",
          "name": "tribeId",
          "type": "uint256"
        },
        {
          "internalType": "uint256",
          "name": "limit",
          "type": "uint256"
        }
      ],
      "name": "getTopMembers",
      "outputs": [
        {
          "internalType": "address[]",
          "name": "members",
          "type": "address[]"
        },
        {
          "internalType": "uint256[]",
          "name": "points",
          "type": "uint256[]"
        }
      ],
      "stateMutability": "view",
      "type": "function"
    },
    {
      "inputs": [
        {
          "internalType": "bytes32",
          "name": "role",
          "type": "bytes32"
        },
        {
          "internalType": "address",
          "name": "account",
          "type": "address"
        }
      ],
      "name": "grantRole",
      "outputs": [],
      "stateMutability": "nonpayable",
      "type": "function"
    },
    {
      "inputs": [
        {
          "internalType": "bytes32",
          "name": "role",
          "type": "bytes32"
        },
        {
          "internalType": "address",
          "name": "account",
          "type": "address"
        }
      ],
      "name": "hasRole",
      "outputs": [
        {
          "internalType": "bool",
          "name": "",
          "type": "bool"
        }
      ],
      "stateMutability": "view",
      "type": "function"
    },
    {
      "inputs": [
        {
          "internalType": "uint256",
          "name": "",
          "type": "uint256"
        }
      ],
      "name": "memberCount",
      "outputs": [
        {
          "internalType": "uint256",
          "name": "",
          "type": "uint256"
        }
      ],
      "stateMutability": "view",
      "type": "function"
    },
    {
      "inputs": [
        {
          "internalType": "uint256",
          "name": "tribeId",
          "type": "uint256"
        },
        {
          "internalType": "address",
          "name": "member",
          "type": "address"
        },
        {
          "internalType": "bytes32",
          "name": "actionType",
          "type": "bytes32"
        }
      ],
      "name": "recordAction",
      "outputs": [],
      "stateMutability": "nonpayable",
      "type": "function"
    },
    {
      "inputs": [
        {
          "internalType": "bytes32",
          "name": "role",
          "type": "bytes32"
        },
        {
          "internalType": "address",
          "name": "callerConfirmation",
          "type": "address"
        }
      ],
      "name": "renounceRole",
      "outputs": [],
      "stateMutability": "nonpayable",
      "type": "function"
    },
    {
      "inputs": [
        {
          "internalType": "bytes32",
          "name": "role",
          "type": "bytes32"
        },
        {
          "internalType": "address",
          "name": "account",
          "type": "address"
        }
      ],
      "name": "revokeRole",
      "outputs": [],
      "stateMutability": "nonpayable",
      "type": "function"
    },
    {
      "inputs": [],
      "name": "roleManager",
      "outputs": [
        {
          "internalType": "contract IRoleManager",
          "name": "",
          "type": "address"
        }
      ],
      "stateMutability": "view",
      "type": "function"
    },
    {
      "inputs": [
        {
          "internalType": "uint256",
          "name": "tribeId",
          "type": "uint256"
        },
        {
          "internalType": "bytes32",
          "name": "actionType",
          "type": "bytes32"
        },
        {
          "internalType": "uint256",
          "name": "points",
          "type": "uint256"
        }
      ],
      "name": "setActionPoints",
      "outputs": [],
      "stateMutability": "nonpayable",
      "type": "function"
    },
    {
      "inputs": [
        {
          "internalType": "bytes4",
          "name": "interfaceId",
          "type": "bytes4"
        }
      ],
      "name": "supportsInterface",
      "outputs": [
        {
          "internalType": "bool",
          "name": "",
          "type": "bool"
        }
      ],
      "stateMutability": "view",
      "type": "function"
    },
    {
      "inputs": [],
      "name": "tribeController",
      "outputs": [
        {
          "internalType": "contract ITribeController",
          "name": "",
          "type": "address"
        }
      ],
      "stateMutability": "view",
      "type": "function"
    },
    {
      "inputs": [
        {
          "internalType": "uint256",
          "name": "",
          "type": "uint256"
        },
        {
          "internalType": "uint256",
          "name": "",
          "type": "uint256"
        }
      ],
      "name": "tribeMembers",
      "outputs": [
        {
          "internalType": "address",
          "name": "",
          "type": "address"
        }
      ],
      "stateMutability": "view",
      "type": "function"
    },
    {
      "inputs": [
        {
          "internalType": "uint256",
          "name": "",
          "type": "uint256"
        }
      ],
      "name": "tribeTokens",
      "outputs": [
        {
          "internalType": "address",
          "name": "",
          "type": "address"
        }
      ],
      "stateMutability": "view",
      "type": "function"
    }
  ],
  "bytecode": "0x608034620000a257601f620028e038819003918201601f19168301916001600160401b03831184841017620000a7578084926040948552833981010312620000a2576200005a60206200005283620000bd565b9201620000bd565b600180546001600160a01b039384166001600160a01b031991821617909155600280549290931691161790556200009133620000d2565b5060405161277c9081620001648239f35b600080fd5b634e487b7160e01b600052604160045260246000fd5b51906001600160a01b0382168203620000a257565b6001600160a01b031660008181527fad3228b676f7d3cd4284a5443f17f1962b36e491b30a40b2405849e597ba5fb5602052604081205490919060ff166200015f57818052816020526040822081835260205260408220600160ff1982541617905533917f2f8788117e7eff1d82e926ec794901d17c78024a50270940304540a733656f0d8180a4600190565b509056fe608060408181526004803610156200001657600080fd5b600092833560e01c908162435da51462000f8e5750806301ffc9a71462000f345780630af88a6a1462000f1d57806316bfd12b1462000ef25780631c9df2501462000e65578063248a9ca31462000e3a57806328d4142d1462000d6a5780632f2ff15d1462000d3a57806336568abe1462000cec578063473fa1b41462000c9d5780635b98ecd21462000c695780635d331efa1462000c2c57806362ee13dc1462000bef5780636a2391881462000bb25780636e8165e81462000b89578063781cb96d1462000b4c5780637844471d1462000b0f5780638c439cde14620008d257806391d14854146200088a57806399f1c4ab14620006605780639f3887be146200044f578063a217fddf1462000432578063c56a221114620002db578063c7b010811462000362578063d547741f146200031c578063e0c4386614620002db578063f15b7815146200029e578063f61dc81e14620001f4578063f72967e114620001bc5763fba72d0f146200018b57600080fd5b34620001b8576020928291620001a13662000fb5565b919083528552828220908252845220549051908152f35b8280fd5b509134620001f15781600319360112620001f15750620001ea602092620001e262000fcc565b9035620015ff565b9051908152f35b80fd5b5050346200029a5790620002136200020c3662000fb5565b90620016e9565b9091835193849381850191855280518092526060850191602080920190845b8181106200027957505050848203818601528080855193848152019401925b8281106200026157505050500390f35b83518552869550938101939281019260010162000251565b82516001600160a01b03168552889750938301939183019160010162000232565b5080fd5b5050346200029a57816003193601126200029a57602090517fd2cb9bec761762794c5f1aac30cd08c4b162e1c154230a5c97134039a182238b8152f35b5050346200029a5780602092620002f236620010d5565b918352600586528383209060018060a01b0316600052855282600020908252845220549051908152f35b509034620001b85780600319360112620001b8576200035e91356200035860016200034662000fcc565b93838752866020528620015462001101565b620011c5565b5080f35b509034620001b8576200037536620010d5565b92909193602460018060a01b0360208160025416855193848092634ce0ed3d60e01b82528b888301525afa918215620004285790620003c192918992620003f1575b501633146200125c565b8486526020528085208386526020528420549081620003de578480f35b620003e9936200131d565b388080808480f35b6200041891925060203d811162000420575b6200040f81836200103d565b8101906200123b565b9038620003b7565b503d62000403565b84513d8a823e3d90fd5b5050346200029a57816003193601126200029a5751908152602090f35b5034620001b8576060366003190112620001b85780359067ffffffffffffffff906024358281116200065c576200048a903690830162001060565b906044358381116200065857620004a5903690830162001060565b9060018060a01b039081600254169487518096634ce0ed3d60e01b825288848301528160246020998a935afa80156200064e57620004f0918b916200062c575b50841633146200125c565b8689526003865282888a205416620005f257875191610d3b908184019284841090841117620005df575090829162001a35833960608152620005486200053a60608301886200129b565b82810389840152866200129b565b908930910152039088f08015620005d55791620005c17fc7d24d9816619f970d073f4d8694a2c99eecbea6f2cd988195fb16b5139ebdd7969792620005cf941694888a5260038752838a20866bffffffffffffffffffffffff60a01b82541617905560608451978897885287015260608601906200129b565b91848303908501526200129b565b0390a280f35b86513d89823e3d90fd5b634e487b7160e01b8b526041905260248afd5b875162461bcd60e51b81528083018790526014602482015273546f6b656e20616c72656164792065786973747360601b6044820152606490fd5b620006479150883d8a1162000420576200040f81836200103d565b38620004e5565b89513d8c823e3d90fd5b8680fd5b8580fd5b5034620001b8576080366003190112620001b8578035602491823567ffffffffffffffff81116200065c57366023820112156200065c578082013594620006a786620010bc565b91620006b6825193846200103d565b868352602096868885019160051b8301019136831162000886578701905b8282106200086057505050604435946064359760018060a01b03946002988381888c5416875192838092634ce0ed3d60e01b82528d888301525afa9081156200085657906200073091859162000834575b50881633146200125c565b825b865181101562000830576200078582898d54168a62000752858c6200169c565b518a516326e98b8b60e01b81528881018f8152929091166001600160a01b03166020830152938492918391829160400190565b03915afa90811562000826578591620007f2575b5083811015620007df57906001620007b79214620007bd57620012f7565b62000732565b620007d98d8c8b620007d0858d6200169c565b51168d6200131d565b620012f7565b5050634e487b7160e01b83525060219052fd5b620008179150833d85116200081e575b6200080e81836200103d565b810190620012dd565b3862000799565b503d62000802565b87513d87823e3d90fd5b8380f35b6200084f9150833d851162000420576200040f81836200103d565b3862000725565b86513d86823e3d90fd5b81356001600160a01b038116810362000881578152908801908801620006d4565b600080fd5b8980fd5b5034620001b85781600319360112620001b85781602093620008ab62000fcc565b92358152808552209060018060a01b0316600052825260ff81600020541690519015158152f35b5034620001b8576080366003190112620001b857803590620008f362000fcc565b6044359060643567ffffffffffffffff8111620006585762000919903690850162001060565b9060018060a01b039081600254169487518096634ce0ed3d60e01b825288838301528160246020998a935afa80156200064e5762000963918b916200062c5750841633146200125c565b8689526003865282888a2054169081620009c0575b505091620009ba917f6792a6aa121cfb3ffbd39ea21e6ce7bdc23f3b8cd1a1eb97335b6676f24df263959493888051968796875286015216968301906200129b565b0390a380f35b88516370a0823160e01b8152838516828201528781602481865afa801562000b055787918c9162000aca575b501062000a91578990823b156200029a57895163079cc67960e41b81526001600160a01b0385169181019182526020820188905292839182908490829060400103925af1801562000a875762000a44575b8062000978565b917f6792a6aa121cfb3ffbd39ea21e6ce7bdc23f3b8cd1a1eb97335b6676f24df263959493919862000a7a620009ba9462001012565b9891939495509162000a3d565b88513d8b823e3d90fd5b885162461bcd60e51b81529081018790526013602482015272496e73756666696369656e7420706f696e747360681b6044820152606490fd5b809250898092503d831162000afd575b62000ae681836200103d565b8101031262000af95786905138620009ec565b8a80fd5b503d62000ada565b8a513d8d823e3d90fd5b5050346200029a57816003193601126200029a57602090517f20a7e963730ef234739a56fba92a73b221512fafff21ac1b046a0efd34a99f0a8152f35b5050346200029a57816003193601126200029a57602090517f22c6db2dfceb52bea6352d964f1bc9f1a150341e587f0446d755837336bf7f568152f35b5034620001b8576020366003190112620001b85760209282913581526007845220549051908152f35b5050346200029a57816003193601126200029a57602090517f6bf78b95dcf61ea15283338e1ea537d8421004f9ff29c76cbbb6f81ecd28b6438152f35b5050346200029a57816003193601126200029a57602090517f55af7c2a80a51ae510e967df77cc81dceab46494d038e6713e6b67108b90737a8152f35b5050346200029a57816003193601126200029a57602090517f2fca5a5e7ccde9ff7491efb205181f9945d95feee2f835f237ff423414a824e38152f35b5034620001b8576020366003190112620001b85735825260036020908152918190205490516001600160a01b039091168152f35b5050346200029a5762000cb03662000fb5565b929081526006602052818120908154841015620001f1575060209262000cd69162000fe3565b905491519160018060a01b039160031b1c168152f35b509190346200029a57806003193601126200029a5762000d0b62000fcc565b90336001600160a01b0383160362000d2b57506200035e919235620011c5565b5163334bd91960e11b81528390fd5b509034620001b85780600319360112620001b8576200035e913562000d6460016200034662000fcc565b62001146565b509034620001b8576060366003190112620001b85781359060243560443560018060a01b03948560025416908451968792634ce0ed3d60e01b8452878385015283602460209586935afa97881562000e30579762000df6917f726304e7106cf8a00a935f1b9a1ee537c917c67d4ce88c1daa3213133cbd0c7998998b9262000e1457501633146200125c565b8688528152838720838852815281848820558351928352820152a280f35b62000418919250853d871162000420576200040f81836200103d565b86513d8b823e3d90fd5b5034620001b8576020366003190112620001b857816020936001923581528085522001549051908152f35b5034620001b8576080366003190112620001b857803562000e8562000fcc565b6002548451634ce0ed3d60e01b815293840183905290926001600160a01b03916020908290602490829086165afa94851562000ee957509362000ed89162000ee6958792620003f157501633146200125c565b60643591604435916200131d565b80f35b513d87823e3d90fd5b5050346200029a57816003193601126200029a5760025490516001600160a01b039091168152602090f35b5034620001b8576020928291620001a13662000fb5565b5034620001b8576020366003190112620001b857359063ffffffff60e01b8216809203620001b85760209250637965db0b60e01b821491821562000f7c575b50519015158152f35b6301ffc9a760e01b1491503862000f73565b8490346200029a57816003193601126200029a576001546001600160a01b03168152602090f35b604090600319011262000881576004359060243590565b602435906001600160a01b03821682036200088157565b805482101562000ffc5760005260206000200190600090565b634e487b7160e01b600052603260045260246000fd5b67ffffffffffffffff81116200102757604052565b634e487b7160e01b600052604160045260246000fd5b90601f8019910116810190811067ffffffffffffffff8211176200102757604052565b81601f82011215620008815780359067ffffffffffffffff821162001027576040519262001099601f8401601f1916602001856200103d565b828452602083830101116200088157816000926020809301838601378301015290565b67ffffffffffffffff8111620010275760051b60200190565b60609060031901126200088157600435906024356001600160a01b038116810362000881579060443590565b80600052600060205260406000203360005260205260ff6040600020541615620011285750565b6044906040519063e2517d3f60e01b82523360048301526024820152fd5b9060009180835282602052604083209160018060a01b03169182845260205260ff60408420541615600014620011c057808352826020526040832082845260205260408320600160ff198254161790557f2f8788117e7eff1d82e926ec794901d17c78024a50270940304540a733656f0d339380a4600190565b505090565b9060009180835282602052604083209160018060a01b03169182845260205260ff604084205416600014620011c05780835282602052604083208284526020526040832060ff1981541690557ff6391f5c32d9c69d2a47ea670b442974b53935d1edc7fd64eb21e047a839171b339380a4600190565b908160209103126200088157516001600160a01b0381168103620008815790565b156200126457565b60405162461bcd60e51b815260206004820152600f60248201526e2737ba103a3934b1329030b236b4b760891b6044820152606490fd5b919082519283825260005b848110620012c8575050826000602080949584010152601f8019910116010190565b602081830181015184830182015201620012a6565b908160209103126200088157516004811015620008815790565b6000198114620013075760010190565b634e487b7160e01b600052601160045260246000fd5b600254604080516326e98b8b60e01b815260048082018590526001600160a01b03868116602484015290989795969495929493602092600092909184908390604490829085165afa918215620015f5578392620015d1575b508a821015620015be57600180920362001584578783526003918285528188852054168062001514575b5088845260058552818885209a16998a6000528552876000208685528552878420620013cc8154620012f7565b9055838181815b620014b9575b50501562001417575b505050507f282af003be039209076c64e920407cdfb6744fc6f666d4ff698f28d010d3394394959697508351928352820152a3565b8884526006855287842080549168010000000000000000831015620014a5577f282af003be039209076c64e920407cdfb6744fc6f666d4ff698f28d010d339439a9b9c9d509162001471918a969594938201815562000fe3565b81939154911b918c831b921b19161790558781526007835220620014968154620012f7565b905587969594388080620013e2565b50634e487b7160e01b855260418d52602485fd5b8b8752600788528c858c808a20548410156200150b5783620014e19160068d528b2062000fe3565b905490891b1c16146200150057620014f990620012f7565b81620013d3565b5090508138620013d9565b505050620013d9565b803b15620015805788516340c10f1960e01b81526001600160a01b038c16818f01908152602081018a90529091869183919082908490829060400103925af180156200157657156200139f576200156e9094919462001012565b92386200139f565b89513d87823e3d90fd5b8480fd5b865162461bcd60e51b8152808c0185905260146024820152732737ba1030b71030b1ba34bb329036b2b6b132b960611b6044820152606490fd5b634e487b7160e01b835260218b52602483fd5b620015ed919250843d86116200081e576200080e81836200103d565b903862001375565b87513d85823e3d90fd5b60009081526003602052604081205490916001600160a01b039182169182620016285750505090565b602460209260405194859384926370a0823160e01b84521660048301525afa918215620016905780926200165b57505090565b9091506020823d821162001687575b8162001679602093836200103d565b81010312620001f157505190565b3d91506200166a565b604051903d90823e3d90fd5b805182101562000ffc5760209160051b010190565b90620016bd82620010bc565b620016cc60405191826200103d565b8281528092620016df601f1991620010bc565b0190602036910137565b91620016f582620016b1565b6200170083620016b1565b91600094808652602092600784526040948588205492831562001a27576200172e84989298959395620016b1565b966200173a85620016b1565b968a5b8b8782106200191e57935050505093600019978885019385851193845b6200190a57858810156200188b578b5b88880388811162001877578c81019081116200187757811015620018565762001794818b6200169c565b5160018201908183116200184257818d91620017b6620017c695948f6200169c565b5111620017cc575b5050620012f7565b6200176a565b808d620018056200183993620017e387846200169c565b5192620017f182826200169c565b51620017fe89836200169c565b526200169c565b526001600160a01b0392836200181c86836200169c565b5116936200182b83836200169c565b5116620017fe86836200169c565b528b38620017be565b634e487b7160e01b8f52601160045260248ffd5b50919396620018699095919395620012f7565b96939184959391956200175a565b634e487b7160e01b8e52601160045260248efd5b935097949350975097949350808210600014620019015750925b838110620018b35750505050565b620018fb906001600160a01b03620018cc82856200169c565b5116620018da828a6200169c565b52620018e781856200169c565b51620018f482896200169c565b52620012f7565b620018a5565b905092620018a5565b634e487b7160e01b8c52601160045260248cfd5b90826200193d8286989e98858f968a909e9c9e52600685522062000fe3565b905460039190911b1c6001600160a01b03168062001970575b5050620019649150620012f7565b9993999694966200173d565b806200198184620019b1966200169c565b52855163f72967e160e01b8152600481018890526001600160a01b03909116602482015292839081906044820190565b0381305afa801562001a1d578d90620019e3575b620019649250620019d7828c6200169c565b528a9150823862001956565b508282813d831162001a15575b620019fc81836200103d565b8101031262001a1157620019649151620019c5565b8c80fd5b503d620019f0565b84513d8f823e3d90fd5b509650935050925050919056fe60406080815234620003d05762000d3b803803806200001e81620003d5565b9283398101606082820312620003d05781516001600160401b039290838111620003d0578262000050918301620003fb565b60209283830151858111620003d05786916200006e918501620003fb565b9201516001600160a01b0381169490859003620003d0578151818111620002d0576003908154906001948583811c93168015620003c5575b88841014620003af578190601f9384811162000359575b508890848311600114620002f257600092620002e6575b505060001982851b1c191690851b1782555b8451928311620002d05760049485548581811c91168015620002c5575b88821014620002b05782811162000265575b5086918411600114620001fa57938394918492600095620001ee575b50501b92600019911b1c19161781555b600580546001600160a01b031916841790558215620001d7576002546b033b2e3c9fd0803ce800000091828201809211620001c2575060025560008381528083528481208054830190558451918252917fddf252ad1be2c89b69c2b068fc378daa952ba7f163c4a11628f55a4df523b3ef91a3516108cd90816200046e8239f35b601190634e487b7160e01b6000525260246000fd5b602490600085519163ec442f0560e01b8352820152fd5b01519350388062000131565b9190601f198416928660005284886000209460005b8a898383106200024d575050501062000232575b50505050811b01815562000141565b01519060f884600019921b161c191690553880808062000223565b8686015189559097019694850194889350016200020f565b86600052876000208380870160051c8201928a8810620002a6575b0160051c019086905b8281106200029957505062000115565b6000815501869062000289565b9250819262000280565b602287634e487b7160e01b6000525260246000fd5b90607f169062000103565b634e487b7160e01b600052604160045260246000fd5b015190503880620000d4565b90879350601f19831691866000528a6000209260005b8c82821062000342575050841162000329575b505050811b018255620000e6565b015160001983871b60f8161c191690553880806200031b565b8385015186558b9790950194938401930162000308565b90915084600052886000208480850160051c8201928b8610620003a5575b918991869594930160051c01915b82811062000395575050620000bd565b6000815585945089910162000385565b9250819262000377565b634e487b7160e01b600052602260045260246000fd5b92607f1692620000a6565b600080fd5b6040519190601f01601f191682016001600160401b03811183821017620002d057604052565b919080601f84011215620003d05782516001600160401b038111620002d05760209062000431601f8201601f19168301620003d5565b92818452828287010111620003d05760005b8181106200045957508260009394955001015290565b85810183015184820184015282016200044356fe608060408181526004918236101561001657600080fd5b600092833560e01c91826306fdde031461051e57508163095ea7b31461047457816318160ddd1461045557816323b872dd14610418578163313ce567146103fc57816340c10f191461030157816342966c68146102e357816370a08231146102ac57816379cc67901461027657816395d89b411461015757508063a9059cbb14610127578063dd62ed3e146100df5763f77c4791146100b457600080fd5b346100db57816003193601126100db5760055490516001600160a01b039091168152602090f35b5080fd5b50346100db57806003193601126100db57806020926100fc61063f565b61010461065a565b6001600160a01b0391821683526001865283832091168252845220549051908152f35b50346100db57806003193601126100db5760209061015061014661063f565b6024359033610670565b5160018152f35b8383346100db57816003193601126100db57805190828454600181811c9080831692831561026c575b60209384841081146102595783885290811561023d57506001146101e8575b505050829003601f01601f191682019267ffffffffffffffff8411838510176101d557508291826101d19252826105f6565b0390f35b634e487b7160e01b815260418552602490fd5b8787529192508591837f8a35acfbc15ff81a39ae7d344fd709f28e8600b4aa8c65c6b64bfe7fe36bd19b5b838510610229575050505083010185808061019f565b805488860183015293019284908201610213565b60ff1916878501525050151560051b840101905085808061019f565b634e487b7160e01b895260228a52602489fd5b91607f1691610180565b5050346100db573660031901126102a9576102a661029261063f565b602435906102a182338361074e565b610821565b80f35b80fd5b5050346100db5760203660031901126100db5760209181906001600160a01b036102d461063f565b16815280845220549051908152f35b8390346100db5760203660031901126100db576102a6903533610821565b919050346103f857806003193601126103f85761031c61063f565b60055460243592916001600160a01b0391821633036103b557169283156103a0576002549083820180921161038d575084927fddf252ad1be2c89b69c2b068fc378daa952ba7f163c4a11628f55a4df523b3ef9260209260025585855284835280852082815401905551908152a380f35b634e487b7160e01b865260119052602485fd5b84602492519163ec442f0560e01b8352820152fd5b825162461bcd60e51b8152602081870152601860248201527f4f6e6c7920636f6e74726f6c6c65722063616e206d696e7400000000000000006044820152606490fd5b8280fd5b5050346100db57816003193601126100db576020905160128152f35b5050346100db5760603660031901126100db5760209061015061043961063f565b61044161065a565b6044359161045083338361074e565b610670565b5050346100db57816003193601126100db576020906002549051908152f35b9050346103f857816003193601126103f85761048e61063f565b602435903315610507576001600160a01b03169182156104f057508083602095338152600187528181208582528752205582519081527f8c5be1e5ebec7d5bd14f71427d1e84f3dd0314c0f7b2291e5b200ac8c7c3b925843392a35160018152f35b8351634a1406b160e11b8152908101859052602490fd5b835163e602df0560e01b8152808401869052602490fd5b849084346103f857826003193601126103f85782600354600181811c908083169283156105ec575b60209384841081146102595783885290811561023d575060011461059657505050829003601f01601f191682019267ffffffffffffffff8411838510176101d557508291826101d19252826105f6565b600387529192508591837fc2575a0e9e593c00f959f8c92f12db2869c3395a3b0502d05e2516446f71f85b5b8385106105d8575050505083010185808061019f565b8054888601830152930192849082016105c2565b91607f1691610546565b6020808252825181830181905290939260005b82811061062b57505060409293506000838284010152601f8019910116010190565b818101860151848201604001528501610609565b600435906001600160a01b038216820361065557565b600080fd5b602435906001600160a01b038216820361065557565b916001600160a01b03808416928315610735571692831561071c57600090838252816020526040822054908382106106ea575091604082827fddf252ad1be2c89b69c2b068fc378daa952ba7f163c4a11628f55a4df523b3ef958760209652828652038282205586815220818154019055604051908152a3565b60405163391434e360e21b81526001600160a01b03919091166004820152602481019190915260448101839052606490fd5b60405163ec442f0560e01b815260006004820152602490fd5b604051634b637e8f60e11b815260006004820152602490fd5b9160018060a01b03809316916000938385526001602052604093848620918316918287526020528486205492600019841061078d575b50505050505050565b8484106107f1575080156107d95781156107c157855260016020528385209085526020520391205538808080808080610784565b8451634a1406b160e11b815260048101879052602490fd5b845163e602df0560e01b815260048101879052602490fd5b8551637dc7a0d960e11b81526001600160a01b039190911660048201526024810184905260448101859052606490fd5b906001600160a01b038216908115610735576000928284528360205260408420549082821061088e5750817fddf252ad1be2c89b69c2b068fc378daa952ba7f163c4a11628f55a4df523b3ef926020928587528684520360408620558060025403600255604051908152a3565b60405163391434e360e21b81526001600160a01b03919091166004820152602481019190915260448101829052606490fdfea164736f6c6343000814000aa164736f6c6343000814000a",
  "linkReferences": {},
  "deployedLinkReferences": {}
}