{
  "_format": "hh-sol-artifact-1",
  "contractName": "TribePoints",
  "sourceName": "contracts/PointSystem.sol",
  "abi": [
    {
      "inputs": [
        {
          "internalType": "string",
          "name": "name",
          "type": "string"
        },
        {
          "internalType": "string",
          "name": "symbol",
          "type": "string"
        },
        {
          "internalType": "address",
          "name": "_controller",
          "type": "address"
        }
      ],
      "stateMutability": "nonpayable",
      "type": "constructor"
    },
    {
      "inputs": [
        {
          "internalType": "address",
          "name": "spender",
          "type": "address"
        },
        {
          "internalType": "uint256",
          "name": "allowance",
          "type": "uint256"
        },
        {
          "internalType": "uint256",
          "name": "needed",
          "type": "uint256"
        }
      ],
      "name": "ERC20InsufficientAllowance",
      "type": "error"
    },
    {
      "inputs": [
        {
          "internalType": "address",
          "name": "sender",
          "type": "address"
        },
        {
          "internalType": "uint256",
          "name": "balance",
          "type": "uint256"
        },
        {
          "internalType": "uint256",
          "name": "needed",
          "type": "uint256"
        }
      ],
      "name": "ERC20InsufficientBalance",
      "type": "error"
    },
    {
      "inputs": [
        {
          "internalType": "address",
          "name": "approver",
          "type": "address"
        }
      ],
      "name": "ERC20InvalidApprover",
      "type": "error"
    },
    {
      "inputs": [
        {
          "internalType": "address",
          "name": "receiver",
          "type": "address"
        }
      ],
      "name": "ERC20InvalidReceiver",
      "type": "error"
    },
    {
      "inputs": [
        {
          "internalType": "address",
          "name": "sender",
          "type": "address"
        }
      ],
      "name": "ERC20InvalidSender",
      "type": "error"
    },
    {
      "inputs": [
        {
          "internalType": "address",
          "name": "spender",
          "type": "address"
        }
      ],
      "name": "ERC20InvalidSpender",
      "type": "error"
    },
    {
      "anonymous": false,
      "inputs": [
        {
          "indexed": true,
          "internalType": "address",
          "name": "owner",
          "type": "address"
        },
        {
          "indexed": true,
          "internalType": "address",
          "name": "spender",
          "type": "address"
        },
        {
          "indexed": false,
          "internalType": "uint256",
          "name": "value",
          "type": "uint256"
        }
      ],
      "name": "Approval",
      "type": "event"
    },
    {
      "anonymous": false,
      "inputs": [
        {
          "indexed": true,
          "internalType": "address",
          "name": "from",
          "type": "address"
        },
        {
          "indexed": true,
          "internalType": "address",
          "name": "to",
          "type": "address"
        },
        {
          "indexed": false,
          "internalType": "uint256",
          "name": "value",
          "type": "uint256"
        }
      ],
      "name": "Transfer",
      "type": "event"
    },
    {
      "inputs": [
        {
          "internalType": "address",
          "name": "owner",
          "type": "address"
        },
        {
          "internalType": "address",
          "name": "spender",
          "type": "address"
        }
      ],
      "name": "allowance",
      "outputs": [
        {
          "internalType": "uint256",
          "name": "",
          "type": "uint256"
        }
      ],
      "stateMutability": "view",
      "type": "function"
    },
    {
      "inputs": [
        {
          "internalType": "address",
          "name": "spender",
          "type": "address"
        },
        {
          "internalType": "uint256",
          "name": "value",
          "type": "uint256"
        }
      ],
      "name": "approve",
      "outputs": [
        {
          "internalType": "bool",
          "name": "",
          "type": "bool"
        }
      ],
      "stateMutability": "nonpayable",
      "type": "function"
    },
    {
      "inputs": [
        {
          "internalType": "address",
          "name": "account",
          "type": "address"
        }
      ],
      "name": "balanceOf",
      "outputs": [
        {
          "internalType": "uint256",
          "name": "",
          "type": "uint256"
        }
      ],
      "stateMutability": "view",
      "type": "function"
    },
    {
      "inputs": [
        {
          "internalType": "uint256",
          "name": "value",
          "type": "uint256"
        }
      ],
      "name": "burn",
      "outputs": [],
      "stateMutability": "nonpayable",
      "type": "function"
    },
    {
      "inputs": [
        {
          "internalType": "address",
          "name": "account",
          "type": "address"
        },
        {
          "internalType": "uint256",
          "name": "value",
          "type": "uint256"
        }
      ],
      "name": "burnFrom",
      "outputs": [],
      "stateMutability": "nonpayable",
      "type": "function"
    },
    {
      "inputs": [],
      "name": "controller",
      "outputs": [
        {
          "internalType": "address",
          "name": "",
          "type": "address"
        }
      ],
      "stateMutability": "view",
      "type": "function"
    },
    {
      "inputs": [],
      "name": "decimals",
      "outputs": [
        {
          "internalType": "uint8",
          "name": "",
          "type": "uint8"
        }
      ],
      "stateMutability": "view",
      "type": "function"
    },
    {
      "inputs": [
        {
          "internalType": "address",
          "name": "to",
          "type": "address"
        },
        {
          "internalType": "uint256",
          "name": "amount",
          "type": "uint256"
        }
      ],
      "name": "mint",
      "outputs": [],
      "stateMutability": "nonpayable",
      "type": "function"
    },
    {
      "inputs": [],
      "name": "name",
      "outputs": [
        {
          "internalType": "string",
          "name": "",
          "type": "string"
        }
      ],
      "stateMutability": "view",
      "type": "function"
    },
    {
      "inputs": [],
      "name": "symbol",
      "outputs": [
        {
          "internalType": "string",
          "name": "",
          "type": "string"
        }
      ],
      "stateMutability": "view",
      "type": "function"
    },
    {
      "inputs": [],
      "name": "totalSupply",
      "outputs": [
        {
          "internalType": "uint256",
          "name": "",
          "type": "uint256"
        }
      ],
      "stateMutability": "view",
      "type": "function"
    },
    {
      "inputs": [
        {
          "internalType": "address",
          "name": "to",
          "type": "address"
        },
        {
          "internalType": "uint256",
          "name": "value",
          "type": "uint256"
        }
      ],
      "name": "transfer",
      "outputs": [
        {
          "internalType": "bool",
          "name": "",
          "type": "bool"
        }
      ],
      "stateMutability": "nonpayable",
      "type": "function"
    },
    {
      "inputs": [
        {
          "internalType": "address",
          "name": "from",
          "type": "address"
        },
        {
          "internalType": "address",
          "name": "to",
          "type": "address"
        },
        {
          "internalType": "uint256",
          "name": "value",
          "type": "uint256"
        }
      ],
      "name": "transferFrom",
      "outputs": [
        {
          "internalType": "bool",
          "name": "",
          "type": "bool"
        }
      ],
      "stateMutability": "nonpayable",
      "type": "function"
    }
  ],
  "bytecode": "0x60406080815234620003d05762000d3b803803806200001e81620003d5565b9283398101606082820312620003d05781516001600160401b039290838111620003d0578262000050918301620003fb565b60209283830151858111620003d05786916200006e918501620003fb565b9201516001600160a01b0381169490859003620003d0578151818111620002d0576003908154906001948583811c93168015620003c5575b88841014620003af578190601f9384811162000359575b508890848311600114620002f257600092620002e6575b505060001982851b1c191690851b1782555b8451928311620002d05760049485548581811c91168015620002c5575b88821014620002b05782811162000265575b5086918411600114620001fa57938394918492600095620001ee575b50501b92600019911b1c19161781555b600580546001600160a01b031916841790558215620001d7576002546b033b2e3c9fd0803ce800000091828201809211620001c2575060025560008381528083528481208054830190558451918252917fddf252ad1be2c89b69c2b068fc378daa952ba7f163c4a11628f55a4df523b3ef91a3516108cd90816200046e8239f35b601190634e487b7160e01b6000525260246000fd5b602490600085519163ec442f0560e01b8352820152fd5b01519350388062000131565b9190601f198416928660005284886000209460005b8a898383106200024d575050501062000232575b50505050811b01815562000141565b01519060f884600019921b161c191690553880808062000223565b8686015189559097019694850194889350016200020f565b86600052876000208380870160051c8201928a8810620002a6575b0160051c019086905b8281106200029957505062000115565b6000815501869062000289565b9250819262000280565b602287634e487b7160e01b6000525260246000fd5b90607f169062000103565b634e487b7160e01b600052604160045260246000fd5b015190503880620000d4565b90879350601f19831691866000528a6000209260005b8c82821062000342575050841162000329575b505050811b018255620000e6565b015160001983871b60f8161c191690553880806200031b565b8385015186558b9790950194938401930162000308565b90915084600052886000208480850160051c8201928b8610620003a5575b918991869594930160051c01915b82811062000395575050620000bd565b6000815585945089910162000385565b9250819262000377565b634e487b7160e01b600052602260045260246000fd5b92607f1692620000a6565b600080fd5b6040519190601f01601f191682016001600160401b03811183821017620002d057604052565b919080601f84011215620003d05782516001600160401b038111620002d05760209062000431601f8201601f19168301620003d5565b92818452828287010111620003d05760005b8181106200045957508260009394955001015290565b85810183015184820184015282016200044356fe608060408181526004918236101561001657600080fd5b600092833560e01c91826306fdde031461051e57508163095ea7b31461047457816318160ddd1461045557816323b872dd14610418578163313ce567146103fc57816340c10f191461030157816342966c68146102e357816370a08231146102ac57816379cc67901461027657816395d89b411461015757508063a9059cbb14610127578063dd62ed3e146100df5763f77c4791146100b457600080fd5b346100db57816003193601126100db5760055490516001600160a01b039091168152602090f35b5080fd5b50346100db57806003193601126100db57806020926100fc61063f565b61010461065a565b6001600160a01b0391821683526001865283832091168252845220549051908152f35b50346100db57806003193601126100db5760209061015061014661063f565b6024359033610670565b5160018152f35b8383346100db57816003193601126100db57805190828454600181811c9080831692831561026c575b60209384841081146102595783885290811561023d57506001146101e8575b505050829003601f01601f191682019267ffffffffffffffff8411838510176101d557508291826101d19252826105f6565b0390f35b634e487b7160e01b815260418552602490fd5b8787529192508591837f8a35acfbc15ff81a39ae7d344fd709f28e8600b4aa8c65c6b64bfe7fe36bd19b5b838510610229575050505083010185808061019f565b805488860183015293019284908201610213565b60ff1916878501525050151560051b840101905085808061019f565b634e487b7160e01b895260228a52602489fd5b91607f1691610180565b5050346100db573660031901126102a9576102a661029261063f565b602435906102a182338361074e565b610821565b80f35b80fd5b5050346100db5760203660031901126100db5760209181906001600160a01b036102d461063f565b16815280845220549051908152f35b8390346100db5760203660031901126100db576102a6903533610821565b919050346103f857806003193601126103f85761031c61063f565b60055460243592916001600160a01b0391821633036103b557169283156103a0576002549083820180921161038d575084927fddf252ad1be2c89b69c2b068fc378daa952ba7f163c4a11628f55a4df523b3ef9260209260025585855284835280852082815401905551908152a380f35b634e487b7160e01b865260119052602485fd5b84602492519163ec442f0560e01b8352820152fd5b825162461bcd60e51b8152602081870152601860248201527f4f6e6c7920636f6e74726f6c6c65722063616e206d696e7400000000000000006044820152606490fd5b8280fd5b5050346100db57816003193601126100db576020905160128152f35b5050346100db5760603660031901126100db5760209061015061043961063f565b61044161065a565b6044359161045083338361074e565b610670565b5050346100db57816003193601126100db576020906002549051908152f35b9050346103f857816003193601126103f85761048e61063f565b602435903315610507576001600160a01b03169182156104f057508083602095338152600187528181208582528752205582519081527f8c5be1e5ebec7d5bd14f71427d1e84f3dd0314c0f7b2291e5b200ac8c7c3b925843392a35160018152f35b8351634a1406b160e11b8152908101859052602490fd5b835163e602df0560e01b8152808401869052602490fd5b849084346103f857826003193601126103f85782600354600181811c908083169283156105ec575b60209384841081146102595783885290811561023d575060011461059657505050829003601f01601f191682019267ffffffffffffffff8411838510176101d557508291826101d19252826105f6565b600387529192508591837fc2575a0e9e593c00f959f8c92f12db2869c3395a3b0502d05e2516446f71f85b5b8385106105d8575050505083010185808061019f565b8054888601830152930192849082016105c2565b91607f1691610546565b6020808252825181830181905290939260005b82811061062b57505060409293506000838284010152601f8019910116010190565b818101860151848201604001528501610609565b600435906001600160a01b038216820361065557565b600080fd5b602435906001600160a01b038216820361065557565b916001600160a01b03808416928315610735571692831561071c57600090838252816020526040822054908382106106ea575091604082827fddf252ad1be2c89b69c2b068fc378daa952ba7f163c4a11628f55a4df523b3ef958760209652828652038282205586815220818154019055604051908152a3565b60405163391434e360e21b81526001600160a01b03919091166004820152602481019190915260448101839052606490fd5b60405163ec442f0560e01b815260006004820152602490fd5b604051634b637e8f60e11b815260006004820152602490fd5b9160018060a01b03809316916000938385526001602052604093848620918316918287526020528486205492600019841061078d575b50505050505050565b8484106107f1575080156107d95781156107c157855260016020528385209085526020520391205538808080808080610784565b8451634a1406b160e11b815260048101879052602490fd5b845163e602df0560e01b815260048101879052602490fd5b8551637dc7a0d960e11b81526001600160a01b039190911660048201526024810184905260448101859052606490fd5b906001600160a01b038216908115610735576000928284528360205260408420549082821061088e5750817fddf252ad1be2c89b69c2b068fc378daa952ba7f163c4a11628f55a4df523b3ef926020928587528684520360408620558060025403600255604051908152a3565b60405163391434e360e21b81526001600160a01b03919091166004820152602481019190915260448101829052606490fdfea164736f6c6343000814000a",
  "linkReferences": {},
  "deployedLinkReferences": {}
}