{
  "_format": "hh-sol-artifact-1",
  "contractName": "ContentManager",
  "sourceName": "contracts/ContentManager.sol",
  "abi": [
    {
      "inputs": [
        {
          "internalType": "address",
          "name": "_roleManager",
          "type": "address"
        },
        {
          "internalType": "address",
          "name": "_tribeController",
          "type": "address"
        }
      ],
      "stateMutability": "nonpayable",
      "type": "constructor"
    },
    {
      "inputs": [],
      "name": "AccessControlBadConfirmation",
      "type": "error"
    },
    {
      "inputs": [
        {
          "internalType": "address",
          "name": "account",
          "type": "address"
        },
        {
          "internalType": "bytes32",
          "name": "neededRole",
          "type": "bytes32"
        }
      ],
      "name": "AccessControlUnauthorizedAccount",
      "type": "error"
    },
    {
      "anonymous": false,
      "inputs": [
        {
          "indexed": true,
          "internalType": "uint256",
          "name": "postId",
          "type": "uint256"
        },
        {
          "indexed": false,
          "internalType": "address",
          "name": "voter",
          "type": "address"
        },
        {
          "indexed": false,
          "internalType": "uint256",
          "name": "optionIndex",
          "type": "uint256"
        }
      ],
      "name": "PollVoteSubmitted",
      "type": "event"
    },
    {
      "anonymous": false,
      "inputs": [
        {
          "indexed": true,
          "internalType": "uint256",
          "name": "tribeId",
          "type": "uint256"
        },
        {
          "indexed": true,
          "internalType": "uint256",
          "name": "postId",
          "type": "uint256"
        },
        {
          "indexed": false,
          "internalType": "address",
          "name": "author",
          "type": "address"
        },
        {
          "indexed": false,
          "internalType": "enum ContentManager.PostType",
          "name": "postType",
          "type": "uint8"
        }
      ],
      "name": "PostCreated",
      "type": "event"
    },
    {
      "anonymous": false,
      "inputs": [
        {
          "indexed": true,
          "internalType": "uint256",
          "name": "tribeId",
          "type": "uint256"
        },
        {
          "indexed": true,
          "internalType": "uint256",
          "name": "postId",
          "type": "uint256"
        }
      ],
      "name": "PostDeleted",
      "type": "event"
    },
    {
      "anonymous": false,
      "inputs": [
        {
          "indexed": true,
          "internalType": "uint256",
          "name": "postId",
          "type": "uint256"
        },
        {
          "indexed": false,
          "internalType": "address",
          "name": "participant",
          "type": "address"
        },
        {
          "indexed": false,
          "internalType": "uint256",
          "name": "score",
          "type": "uint256"
        }
      ],
      "name": "QuizAnswerSubmitted",
      "type": "event"
    },
    {
      "anonymous": false,
      "inputs": [
        {
          "indexed": true,
          "internalType": "bytes32",
          "name": "role",
          "type": "bytes32"
        },
        {
          "indexed": true,
          "internalType": "bytes32",
          "name": "previousAdminRole",
          "type": "bytes32"
        },
        {
          "indexed": true,
          "internalType": "bytes32",
          "name": "newAdminRole",
          "type": "bytes32"
        }
      ],
      "name": "RoleAdminChanged",
      "type": "event"
    },
    {
      "anonymous": false,
      "inputs": [
        {
          "indexed": true,
          "internalType": "bytes32",
          "name": "role",
          "type": "bytes32"
        },
        {
          "indexed": true,
          "internalType": "address",
          "name": "account",
          "type": "address"
        },
        {
          "indexed": true,
          "internalType": "address",
          "name": "sender",
          "type": "address"
        }
      ],
      "name": "RoleGranted",
      "type": "event"
    },
    {
      "anonymous": false,
      "inputs": [
        {
          "indexed": true,
          "internalType": "bytes32",
          "name": "role",
          "type": "bytes32"
        },
        {
          "indexed": true,
          "internalType": "address",
          "name": "account",
          "type": "address"
        },
        {
          "indexed": true,
          "internalType": "address",
          "name": "sender",
          "type": "address"
        }
      ],
      "name": "RoleRevoked",
      "type": "event"
    },
    {
      "inputs": [],
      "name": "DEFAULT_ADMIN_ROLE",
      "outputs": [
        {
          "internalType": "bytes32",
          "name": "",
          "type": "bytes32"
        }
      ],
      "stateMutability": "view",
      "type": "function"
    },
    {
      "inputs": [
        {
          "internalType": "uint256",
          "name": "tribeId",
          "type": "uint256"
        },
        {
          "internalType": "string",
          "name": "contentURI",
          "type": "string"
        },
        {
          "internalType": "string[]",
          "name": "options",
          "type": "string[]"
        },
        {
          "internalType": "uint256",
          "name": "duration",
          "type": "uint256"
        }
      ],
      "name": "createPoll",
      "outputs": [
        {
          "internalType": "uint256",
          "name": "",
          "type": "uint256"
        }
      ],
      "stateMutability": "nonpayable",
      "type": "function"
    },
    {
      "inputs": [
        {
          "internalType": "uint256",
          "name": "tribeId",
          "type": "uint256"
        },
        {
          "internalType": "string",
          "name": "contentURI",
          "type": "string"
        },
        {
          "internalType": "enum ContentManager.PostType",
          "name": "postType",
          "type": "uint8"
        }
      ],
      "name": "createPost",
      "outputs": [
        {
          "internalType": "uint256",
          "name": "",
          "type": "uint256"
        }
      ],
      "stateMutability": "nonpayable",
      "type": "function"
    },
    {
      "inputs": [
        {
          "internalType": "uint256",
          "name": "tribeId",
          "type": "uint256"
        },
        {
          "internalType": "string",
          "name": "contentURI",
          "type": "string"
        },
        {
          "internalType": "string[]",
          "name": "questions",
          "type": "string[]"
        },
        {
          "internalType": "bytes32[]",
          "name": "answerHashes",
          "type": "bytes32[]"
        },
        {
          "internalType": "uint256",
          "name": "pointsPerQuestion",
          "type": "uint256"
        },
        {
          "internalType": "uint256",
          "name": "duration",
          "type": "uint256"
        }
      ],
      "name": "createQuiz",
      "outputs": [
        {
          "internalType": "uint256",
          "name": "",
          "type": "uint256"
        }
      ],
      "stateMutability": "nonpayable",
      "type": "function"
    },
    {
      "inputs": [
        {
          "internalType": "uint256",
          "name": "tribeId",
          "type": "uint256"
        },
        {
          "internalType": "uint256",
          "name": "postId",
          "type": "uint256"
        }
      ],
      "name": "deletePost",
      "outputs": [],
      "stateMutability": "nonpayable",
      "type": "function"
    },
    {
      "inputs": [
        {
          "internalType": "uint256",
          "name": "postId",
          "type": "uint256"
        }
      ],
      "name": "getPollOptions",
      "outputs": [
        {
          "internalType": "string[]",
          "name": "",
          "type": "string[]"
        }
      ],
      "stateMutability": "view",
      "type": "function"
    },
    {
      "inputs": [
        {
          "internalType": "uint256",
          "name": "postId",
          "type": "uint256"
        },
        {
          "internalType": "uint256",
          "name": "optionIndex",
          "type": "uint256"
        }
      ],
      "name": "getPollVotes",
      "outputs": [
        {
          "internalType": "uint256",
          "name": "",
          "type": "uint256"
        }
      ],
      "stateMutability": "view",
      "type": "function"
    },
    {
      "inputs": [
        {
          "internalType": "uint256",
          "name": "tribeId",
          "type": "uint256"
        },
        {
          "internalType": "uint256",
          "name": "postId",
          "type": "uint256"
        }
      ],
      "name": "getPost",
      "outputs": [
        {
          "components": [
            {
              "internalType": "address",
              "name": "author",
              "type": "address"
            },
            {
              "internalType": "string",
              "name": "contentURI",
              "type": "string"
            },
            {
              "internalType": "uint256",
              "name": "timestamp",
              "type": "uint256"
            },
            {
              "internalType": "bool",
              "name": "isActive",
              "type": "bool"
            },
            {
              "internalType": "enum ContentManager.PostType",
              "name": "postType",
              "type": "uint8"
            }
          ],
          "internalType": "struct ContentManager.Post",
          "name": "",
          "type": "tuple"
        }
      ],
      "stateMutability": "view",
      "type": "function"
    },
    {
      "inputs": [
        {
          "internalType": "uint256",
          "name": "postId",
          "type": "uint256"
        }
      ],
      "name": "getQuizQuestions",
      "outputs": [
        {
          "internalType": "string[]",
          "name": "",
          "type": "string[]"
        }
      ],
      "stateMutability": "view",
      "type": "function"
    },
    {
      "inputs": [
        {
          "internalType": "bytes32",
          "name": "role",
          "type": "bytes32"
        }
      ],
      "name": "getRoleAdmin",
      "outputs": [
        {
          "internalType": "bytes32",
          "name": "",
          "type": "bytes32"
        }
      ],
      "stateMutability": "view",
      "type": "function"
    },
    {
      "inputs": [
        {
          "internalType": "bytes32",
          "name": "role",
          "type": "bytes32"
        },
        {
          "internalType": "address",
          "name": "account",
          "type": "address"
        }
      ],
      "name": "grantRole",
      "outputs": [],
      "stateMutability": "nonpayable",
      "type": "function"
    },
    {
      "inputs": [
        {
          "internalType": "bytes32",
          "name": "role",
          "type": "bytes32"
        },
        {
          "internalType": "address",
          "name": "account",
          "type": "address"
        }
      ],
      "name": "hasRole",
      "outputs": [
        {
          "internalType": "bool",
          "name": "",
          "type": "bool"
        }
      ],
      "stateMutability": "view",
      "type": "function"
    },
    {
      "inputs": [
        {
          "internalType": "uint256",
          "name": "",
          "type": "uint256"
        }
      ],
      "name": "polls",
      "outputs": [
        {
          "internalType": "uint256",
          "name": "endTime",
          "type": "uint256"
        },
        {
          "internalType": "bool",
          "name": "isActive",
          "type": "bool"
        }
      ],
      "stateMutability": "view",
      "type": "function"
    },
    {
      "inputs": [
        {
          "internalType": "uint256",
          "name": "",
          "type": "uint256"
        }
      ],
      "name": "postCount",
      "outputs": [
        {
          "internalType": "uint256",
          "name": "",
          "type": "uint256"
        }
      ],
      "stateMutability": "view",
      "type": "function"
    },
    {
      "inputs": [
        {
          "internalType": "uint256",
          "name": "",
          "type": "uint256"
        },
        {
          "internalType": "uint256",
          "name": "",
          "type": "uint256"
        }
      ],
      "name": "posts",
      "outputs": [
        {
          "internalType": "address",
          "name": "author",
          "type": "address"
        },
        {
          "internalType": "string",
          "name": "contentURI",
          "type": "string"
        },
        {
          "internalType": "uint256",
          "name": "timestamp",
          "type": "uint256"
        },
        {
          "internalType": "bool",
          "name": "isActive",
          "type": "bool"
        },
        {
          "internalType": "enum ContentManager.PostType",
          "name": "postType",
          "type": "uint8"
        }
      ],
      "stateMutability": "view",
      "type": "function"
    },
    {
      "inputs": [
        {
          "internalType": "uint256",
          "name": "",
          "type": "uint256"
        }
      ],
      "name": "quizzes",
      "outputs": [
        {
          "internalType": "uint256",
          "name": "pointsPerQuestion",
          "type": "uint256"
        },
        {
          "internalType": "uint256",
          "name": "endTime",
          "type": "uint256"
        },
        {
          "internalType": "bool",
          "name": "isActive",
          "type": "bool"
        }
      ],
      "stateMutability": "view",
      "type": "function"
    },
    {
      "inputs": [
        {
          "internalType": "bytes32",
          "name": "role",
          "type": "bytes32"
        },
        {
          "internalType": "address",
          "name": "callerConfirmation",
          "type": "address"
        }
      ],
      "name": "renounceRole",
      "outputs": [],
      "stateMutability": "nonpayable",
      "type": "function"
    },
    {
      "inputs": [
        {
          "internalType": "bytes32",
          "name": "role",
          "type": "bytes32"
        },
        {
          "internalType": "address",
          "name": "account",
          "type": "address"
        }
      ],
      "name": "revokeRole",
      "outputs": [],
      "stateMutability": "nonpayable",
      "type": "function"
    },
    {
      "inputs": [],
      "name": "roleManager",
      "outputs": [
        {
          "internalType": "contract IRoleManager",
          "name": "",
          "type": "address"
        }
      ],
      "stateMutability": "view",
      "type": "function"
    },
    {
      "inputs": [
        {
          "internalType": "uint256",
          "name": "tribeId",
          "type": "uint256"
        },
        {
          "internalType": "uint256",
          "name": "postId",
          "type": "uint256"
        },
        {
          "internalType": "uint256",
          "name": "optionIndex",
          "type": "uint256"
        }
      ],
      "name": "submitPollVote",
      "outputs": [],
      "stateMutability": "nonpayable",
      "type": "function"
    },
    {
      "inputs": [
        {
          "internalType": "uint256",
          "name": "tribeId",
          "type": "uint256"
        },
        {
          "internalType": "uint256",
          "name": "postId",
          "type": "uint256"
        },
        {
          "internalType": "string[]",
          "name": "answers",
          "type": "string[]"
        }
      ],
      "name": "submitQuizAnswers",
      "outputs": [],
      "stateMutability": "nonpayable",
      "type": "function"
    },
    {
      "inputs": [
        {
          "internalType": "bytes4",
          "name": "interfaceId",
          "type": "bytes4"
        }
      ],
      "name": "supportsInterface",
      "outputs": [
        {
          "internalType": "bool",
          "name": "",
          "type": "bool"
        }
      ],
      "stateMutability": "view",
      "type": "function"
    },
    {
      "inputs": [],
      "name": "tribeController",
      "outputs": [
        {
          "internalType": "contract ITribeController",
          "name": "",
          "type": "address"
        }
      ],
      "stateMutability": "view",
      "type": "function"
    }
  ],
  "bytecode": "0x608034620000a257601f6200272f38819003918201601f19168301916001600160401b03831184841017620000a7578084926040948552833981010312620000a2576200005a60206200005283620000bd565b9201620000bd565b600180546001600160a01b039384166001600160a01b031991821617909155600280549290931691161790556200009133620000d2565b506040516125cb9081620001648239f35b600080fd5b634e487b7160e01b600052604160045260246000fd5b51906001600160a01b0382168203620000a257565b6001600160a01b031660008181527fad3228b676f7d3cd4284a5443f17f1962b36e491b30a40b2405849e597ba5fb5602052604081205490919060ff166200015f57818052816020526040822081835260205260408220600160ff1982541617905533917f2f8788117e7eff1d82e926ec794901d17c78024a50270940304540a733656f0d8180a4600190565b509056fe608080604052600436101561001357600080fd5b60003560e01c908162435da5146120805750806301ffc9a71461202a57806316bfd12b14612001578063248a9ca314611fd25780632848378814611fa65780632f2ff15d14611f75578063346df1081461199157806336568abe1461195857806337151279146119225780633d2471b01461189957806346bc5569146113875780635078194e146111f5578063538bcde314610f7b57806388409afa14610f3057806391d1485414610ef0578063a217fddf14610ed4578063ac2f007414610e97578063b31308c714610adc578063c4507d2914610343578063c4c9a9c01461024d578063d547741f1461021a578063d7aaf6481461019f5763f75627651461011b57600080fd5b3461019a5760208060031936011261019a5760043560005260058152604060002080546101478161215c565b9161015560405193846120e5565b8183526000908152838120938084015b83831061017e576040518061017a878261233e565b0390f35b600182819261018c89612243565b815201960192019194610165565b600080fd5b3461019a5760208060031936011261019a5760043560005260068152604060002080546101cb8161215c565b916101d960405193846120e5565b8183526000908152838120938084015b8383106101fe576040518061017a878261233e565b600182819261020c89612243565b8152019601920191946101e9565b3461019a5761024b61022b366120a4565b908060005260006020526102466001604060002001546123a0565b612462565b005b3461019a5761025b366121f3565b60405191610268836120ca565b600083526000608060209460608682015282604082015282606082015201526000526003825260406000209060005281526040600020604051906102ab826120ca565b80546001600160a01b0390811683529261017a906102cb60018401612243565b90808501918252610329600360028601549560408801968752015492606087019260ff85161515845261030860ff60808a019660081c168661250e565b604051988998828a525116908801525160a0604088015260c087019061230c565b9351606086015251151560808501525160a0840190612331565b3461019a5760c036600319011261019a576024356001600160401b03811161019a57610373903690600401612106565b6044356001600160401b03811161019a57610392903690600401612173565b90606435916001600160401b03831161019a573660238401121561019a5782600401356103be8161215c565b936103cc60405195866120e5565b818552602085016024819360051b8301019136831161019a57602401905b828210610acc575050600254604051634ce0ed3d60e01b815260048035908201529150602090829060249082906001600160a01b03165afa908115610a5d57600091610a9d575b506001600160a01b0316331480156109b7575b1561097357815184510361092e5760043560005260046020526040600020549260405190610471826120ca565b33825260208201524260408201526001606082015260036080820152600435600052600360205260406000208460005260205260406000209060018060a01b038151166001600160601b0360a01b83541617825560208101518051906001600160401b0382116106ba576104e86001850154612209565b601f81116108f9575b50602090601f83116001146108865760809392916000918361087b575b50508160011b916000199060031b1c19161760018401555b6040810151600284015561054f60608201511515600385019060ff801983541691151516179055565b015160058110156108655760039061ff00828401549160081b169061ff001916179101556004356000526004602052604060002061058d8154612531565b905582604051338152600360208201527fec30b3f00e0a5340412c437eacca4af72b90f3c19e277ec6510a21d66109613a604060043592a3826000526006602052604060002091805190600160401b82116106ba5783548285558083106107f0575b50600084815260208082209392015b8282106106d05750505050600182019351906001600160401b0382116106ba57600160401b82116106ba578454828655808310610691575b5093600052602060002060005b82811061067d57602085600486608435600282015561066460a43542612556565b600382015501805460ff19166001179055604051908152f35b600190602087519701968184015501610643565b8560005282602060002091820191015b8181106106ae5750610636565b600081556001016106a1565b634e487b7160e01b600052604160045260246000fd5b80518051906001600160401b0382116106ba576106ed8654612209565b601f81116107b3575b50602090601f8311600114610743579282600194936020938695600092610738575b5050600019600383901b1c191690841b1787555b019401910190926105fe565b015190508d80610718565b908660005260206000209160005b601f198516811061079b575083602093600196938796938794601f19811610610782575b505050811b01875561072c565b015160001960f88460031b161c191690558d8080610775565b91926020600181928685015181550194019201610751565b6107e090876000526020600020601f850160051c810191602086106107e6575b601f0160051c019061251a565b8a6106f6565b90915081906107d3565b846000526020600020908382015b818301811061080e5750506105ef565b8061081b60019254612209565b80610828575b50016107fe565b601f8111831461083e5750600081555b8a610821565b60009082825261085c601f60208420920160051c820185830161251a565b81835555610838565b634e487b7160e01b600052602160045260246000fd5b01519050898061050e565b906001850160005260206000209160005b601f19851681106108e1575091839160019360809695601f198116106108c8575b505050811b016001840155610526565b015160001960f88460031b161c191690558980806108b8565b91926020600181928685015181550194019201610897565b61092890600186016000526020600020601f850160051c810191602086106107e657601f0160051c019061251a565b886104f1565b60405162461bcd60e51b815260206004820152601e60248201527f5175657374696f6e7320616e6420616e7377657273206d69736d6174636800006044820152606490fd5b606460405162461bcd60e51b815260206004820152602060248201527f4e6f7420617574686f72697a656420746f20637265617465207175697a7a65736044820152fd5b506001546040516319126feb60e11b81526001600160a01b0390911690602081600481855afa908115610a5d57600091610a69575b50604051632474521560e21b815260048101919091523360248201529060209082908180604481015b03915afa908115610a5d57600091610a2e575b50610444565b610a50915060203d602011610a56575b610a4881836120e5565b8101906124f6565b85610a28565b503d610a3e565b6040513d6000823e3d90fd5b90506020813d602011610a95575b81610a84602093836120e5565b8101031261019a5751610a156109ec565b3d9150610a77565b610abf915060203d602011610ac5575b610ab781836120e5565b8101906124d7565b85610431565b503d610aad565b81358152602091820191016103ea565b3461019a57606036600319011261019a576001600160401b0360043560243582811161019a57610b10903690600401612106565b9060443590600582101561019a57600254604051634ce0ed3d60e01b815260048101839052602095916001600160a01b03919087908290602490829086165afa908115610a5d57600091610e7a575b50811633148015610dc2575b15610d7d5782600052600486526040600020549460405190610b8c826120ca565b3382528782019081526040820190428252606083019460018087526080850195610bb68a8861250e565b8860005260038c5260406000208b6000528c5260406000209551166001600160601b0360a01b865416178555808501925180519283116106ba57610bfa8454612209565b8c601f8211610d4c575b50508b908c601f8511600114610cdb57509280610c59979593819360039896600094610cd0575b50501b9160001990871b1c19161790555b5160028201550192511515839060ff801983541691151516179055565b5160058110156108655784938260409261ff007fec30b3f00e0a5340412c437eacca4af72b90f3c19e277ec6510a21d66109613a95549160081b169061ff001916179055836000526004875281600020610cb38154612531565b9055610cc782519133835288830190612331565ba3604051908152f35b015192508f80610c2b565b9190601f9493941984168660005283600020936000905b828210610d355750509160039795939185610c599a98969410610d1d575b505050811b019055610c3c565b015160001983891b60f8161c191690558d8080610d10565b808886978294978701518155019601940190610cf2565b610d7691866000528160002090601f870160051c82019287106107e657601f0160051c019061251a565b8c8c610c04565b60405162461bcd60e51b815260048101879052601e60248201527f4e6f7420617574686f72697a656420746f2063726561746520706f73747300006044820152606490fd5b508060015416604051631628cf3760e11b81528781600481855afa8015610a5d578891600091610e49575b50604051632474521560e21b815260048101919091523360248201529182908180604481015b03915afa908115610a5d57600091610e2c575b50610b6b565b610e439150873d8911610a5657610a4881836120e5565b87610e26565b82819392503d8311610e73575b610e6081836120e5565b8101031261019a57518790610e13610ded565b503d610e56565b610e919150873d8911610ac557610ab781836120e5565b87610b5f565b3461019a57602036600319011261019a57600435600052600560205260408060002060ff6003600283015492015416825191825215156020820152f35b3461019a57600036600319011261019a57602060405160008152f35b3461019a57610efe366120a4565b90600052600060205260406000209060018060a01b0316600052602052602060ff604060002054166040519015158152f35b3461019a57602036600319011261019a5760043560005260066020526060604060002060028101549060ff600460038301549201541690604051928352602083015215156040820152f35b3461019a57606036600319011261019a5760248035906044356001600160401b03811161019a57610fb0903690600401612173565b600280546040516326e98b8b60e01b815260048035908201523360248201529293602093909290918490839060449082906001600160a01b03165afa918215610a5d576000926111c6575b5060048210156111b157611012600180931461257b565b856000526006845260406000209160ff600484015416806111a4575b1561116b5785518354036111275782810180546000979295909288875b61108d575b60408051338152602081018c90528c917f56836fe933193c87ceeff25c35dec19874c7b14d50959e5fa0d4760d2b3d9eac9190819081015b0390a2005b815181101561112257888160051b830101516040516110c88b82816110bb81830196878151938492016122e9565b81010380845201826120e5565b5190208582101561110d5784600052818a6000200154146110f3575b6110ed90612531565b8761104b565b986111056110ed918789015490612556565b9990506110e4565b83634e487b7160e01b60005260326004526000fd5b611050565b60405162461bcd60e51b8152600481018690526019818601527f496e76616c6964206e756d626572206f6620616e7377657273000000000000006044820152606490fd5b60405162461bcd60e51b815260048101869052601281860152715175697a206973206e6f742061637469766560701b6044820152606490fd5b506003830154421061102e565b82634e487b7160e01b60005260216004526000fd5b6111e7919250843d86116111ee575b6111df81836120e5565b810190612563565b9086610ffb565b503d6111d5565b3461019a57606036600319011261019a576002546040516326e98b8b60e01b8152600480359082015233602480830191909152359160448035926020929091839183919082906001600160a01b03165afa908115610a5d5760009161136a575b50600481101561086557600161126b911461257b565b8260005260058152604060002060ff6003820154168061135d575b156113235780548310156112ed57916110889160017f160880b8f500ca630c362d3a48da8aa1ed9bccdad93f7ebd26a799ffe753d7af948360005201905260406000206112d38154612531565b905560408051338152602081019290925290918291820190565b60405162461bcd60e51b815260048101839052600e60248201526d24b73b30b634b21037b83a34b7b760911b6044820152606490fd5b60405162461bcd60e51b8152600481018390526012602482015271506f6c6c206973206e6f742061637469766560701b6044820152606490fd5b5060028101544210611286565b6113819150823d84116111ee576111df81836120e5565b84611255565b3461019a57611395366121f3565b600254604051634ce0ed3d60e01b808252600482018590529293926024926020926001600160a01b039182169084818781855afa908115610a5d5760009161187c575b508216331480156117c4575b801561170c575b8015611654575b156116125785600052600392838552604060002088600052855260ff846040600020015416156115d7578490866040518094819382528a60048301525afa908115610a5d576000916115ba575b50813391160361155b575b50836000528082526040600020856000528252806040600020019260ff199384815416905584600052818352604060002086600052835260ff826040600020015460081c166005811015611546576002036114dd57509060059085600052526040600020019081541690555b7fbcb5aed86bc918a3d0afb8c2b27a94547e8abdf185104d885f0a7c7d221810bb600080a3005b84600052818352604060002086600052835260ff826040600020015460081c16906005821015611532575014611515575b50506114b6565b60069084600052526004604060002001908154169055828061150e565b634e487b7160e01b60009081526021600452fd5b50634e487b7160e01b60009081526021600452fd5b84600052818352604060002086600052835233906040600020541603611581578561144a565b5060136064926040519262461bcd60e51b84526004840152820152722737ba103a3432903837b9ba1030baba3437b960691b6044820152fd5b6115d19150843d8611610ac557610ab781836120e5565b8761143f565b60405162461bcd60e51b81526004810186905260148188015273141bdcdd08185b1c9958591e4819195b195d195960621b6044820152606490fd5b606485856040519162461bcd60e51b83528160048401528201527f4e6f7420617574686f72697a656420746f206d616e61676520636f6e74656e746044820152fd5b5081600154166040516319126feb60e11b81528581600481855afa8015610a5d5786916000916116db575b50604051632474521560e21b815260048101919091523360248201529182908180604481015b03915afa908115610a5d576000916116be575b506113f2565b6116d59150853d8711610a5657610a4881836120e5565b886116b8565b82819392503d8311611705575b6116f281836120e5565b8101031261019a575185906116a561167f565b503d6116e8565b50816001541660405163197f735960e21b81528581600481855afa8015610a5d578691600091611793575b50604051632474521560e21b815260048101919091523360248201529182908180604481015b03915afa908115610a5d57600091611776575b506113eb565b61178d9150853d8711610a5657610a4881836120e5565b88611770565b82819392503d83116117bd575b6117aa81836120e5565b8101031261019a5751859061175d611737565b503d6117a0565b508160015416604051631628cf3760e11b81528581600481855afa8015610a5d57869160009161184b575b50604051632474521560e21b815260048101919091523360248201529182908180604481015b03915afa908115610a5d5760009161182e575b506113e4565b6118459150853d8711610a5657610a4881836120e5565b88611828565b82819392503d8311611875575b61186281836120e5565b8101031261019a575185906118156117ef565b503d611858565b6118939150853d8711610ac557610ab781836120e5565b886113d8565b3461019a576118a7366121f3565b906000526003602052604060002090600052602052604060002060018060a01b038154166118d760018301612243565b9161017a60036002830154920154611901604051958695865260a0602087015260a086019061230c565b92604085015260ff81161515606085015260ff608085019160081c16612331565b3461019a57611930366121f3565b9060005260056020526001604060002001906000526020526020604060002054604051908152f35b3461019a57611966366120a4565b336001600160a01b0382160361197f5761024b91612462565b60405163334bd91960e11b8152600490fd5b3461019a57608036600319011261019a576024356001600160401b03811161019a576119c1903690600401612106565b6044356001600160401b03811161019a576119e0903690600401612173565b906024602060018060a01b036002541660405192838092634ce0ed3d60e01b825260043560048301525afa908115610a5d57600091611f56575b506001600160a01b031633148015611e8c575b15611e475760043560005260046020526040600020549060405190611a51826120ca565b338252602082015242604082015260016060820152600260808201526004356000526003602052604060002082600052602052604060002060018060a01b038251166001600160601b0360a01b82541617815560208201518051906001600160401b0382116106ba57611ac76001840154612209565b601f8111611e12575b50602090601f8311600114611d9e57918060809492600394600092611d93575b505060001982851b1c1916600191821b17908201555b604084015160028201550191611b2e60608201511515849060ff801983541691151516179055565b015160058110156108655761ff0082549160081b169061ff00191617905560043560005260046020526040600020611b668154612531565b905580604051338152600260208201527fec30b3f00e0a5340412c437eacca4af72b90f3c19e277ec6510a21d66109613a604060043592a3806000526005602052604060002091805190600160401b82116106ba578354828555808310611d1e575b50600084815260208082209392015b828210611c0957602085600388611bf060643542612556565b600282015501805460ff19166001179055604051908152f35b80518051906001600160401b0382116106ba57611c268654612209565b601f8111611cec575b50602090601f8311600114611c7c579282600194936020938695600092611c71575b5050600019600383901b1c191690841b1787555b01940191019092611bd7565b015190508b80611c51565b908660005260206000209160005b601f1985168110611cd4575083602093600196938796938794601f19811610611cbb575b505050811b018755611c65565b015160001960f88460031b161c191690558b8080611cae565b91926020600181928685015181550194019201611c8a565b611d1890876000526020600020601f850160051c810191602086106107e657601f0160051c019061251a565b88611c2f565b846000526020600020908382015b8183018110611d3c575050611bc8565b80611d4960019254612209565b80611d56575b5001611d2c565b601f81118314611d6c5750600081555b88611d4f565b600090828252611d8a601f60208420920160051c820185830161251a565b81835555611d66565b015190508880611af0565b906001840160005260206000209160005b601f1985168110611dfa5750926080949260019260039583601f19811610611de2575b505050811b016001820155611b06565b015160001983871b60f8161c19169055888080611dd2565b91926020600181928685015181550194019201611daf565b611e4190600185016000526020600020601f850160051c810191602086106107e657601f0160051c019061251a565b86611ad0565b60405162461bcd60e51b815260206004820152601e60248201527f4e6f7420617574686f72697a656420746f2063726561746520706f6c6c7300006044820152606490fd5b5060015460405163197f735960e21b81526001600160a01b0390911690602081600481855afa908115610a5d57600091611f22575b50604051632474521560e21b815260048101919091523360248201529060209082908180604481015b03915afa908115610a5d57600091611f03575b50611a2d565b611f1c915060203d602011610a5657610a4881836120e5565b83611efd565b90506020813d602011611f4e575b81611f3d602093836120e5565b8101031261019a5751611eea611ec1565b3d9150611f30565b611f6f915060203d602011610ac557610ab781836120e5565b83611a1a565b3461019a5761024b611f86366120a4565b90806000526000602052611fa16001604060002001546123a0565b6123e4565b3461019a57602036600319011261019a5760043560005260046020526020604060002054604051908152f35b3461019a57602036600319011261019a5760043560005260006020526020600160406000200154604051908152f35b3461019a57600036600319011261019a576002546040516001600160a01b039091168152602090f35b3461019a57602036600319011261019a5760043563ffffffff60e01b811680910361019a57602090637965db0b60e01b811490811561206f575b506040519015158152f35b6301ffc9a760e01b14905082612064565b3461019a57600036600319011261019a576001546001600160a01b03168152602090f35b604090600319011261019a57600435906024356001600160a01b038116810361019a5790565b60a081019081106001600160401b038211176106ba57604052565b90601f801991011681019081106001600160401b038211176106ba57604052565b81601f8201121561019a578035906001600160401b0382116106ba576040519261213a601f8401601f1916602001856120e5565b8284526020838301011161019a57816000926020809301838601378301015290565b6001600160401b0381116106ba5760051b60200190565b9080601f8301121561019a5781359061218b8261215c565b9261219960405194856120e5565b828452602092838086019160051b8301019280841161019a57848301915b8483106121c75750505050505090565b82356001600160401b03811161019a5786916121e884848094890101612106565b8152019201916121b7565b604090600319011261019a576004359060243590565b90600182811c92168015612239575b602083101461222357565b634e487b7160e01b600052602260045260246000fd5b91607f1691612218565b906040519182600082549261225784612209565b9081845260019485811690816000146122c65750600114612283575b5050612281925003836120e5565b565b9093915060005260209081600020936000915b8183106122ae57505061228193508201013880612273565b85548884018501529485019487945091830191612296565b91505061228194506020925060ff191682840152151560051b8201013880612273565b60005b8381106122fc5750506000910152565b81810151838201526020016122ec565b90602091612325815180928185528580860191016122e9565b601f01601f1916010190565b9060058210156108655752565b602080820190808352835180925260408301928160408460051b8301019501936000915b8483106123725750505050505090565b9091929394958480612390600193603f198682030187528a5161230c565b9801930193019194939290612362565b80600052600060205260406000203360005260205260ff60406000205416156123c65750565b6044906040519063e2517d3f60e01b82523360048301526024820152fd5b9060009180835282602052604083209160018060a01b03169182845260205260ff6040842054161560001461245d57808352826020526040832082845260205260408320600160ff198254161790557f2f8788117e7eff1d82e926ec794901d17c78024a50270940304540a733656f0d339380a4600190565b505090565b9060009180835282602052604083209160018060a01b03169182845260205260ff60408420541660001461245d5780835282602052604083208284526020526040832060ff1981541690557ff6391f5c32d9c69d2a47ea670b442974b53935d1edc7fd64eb21e047a839171b339380a4600190565b9081602091031261019a57516001600160a01b038116810361019a5790565b9081602091031261019a5751801515810361019a5790565b60058210156108655752565b818110612525575050565b6000815560010161251a565b60001981146125405760010190565b634e487b7160e01b600052601160045260246000fd5b9190820180921161254057565b9081602091031261019a5751600481101561019a5790565b1561258257565b60405162461bcd60e51b81526020600482015260146024820152732737ba1030b71030b1ba34bb329036b2b6b132b960611b6044820152606490fdfea164736f6c6343000814000a",
  "linkReferences": {},
  "deployedLinkReferences": {}
}