{
  "_format": "hh-sol-artifact-1",
  "contractName": "Analytics",
  "sourceName": "contracts/Analytics.sol",
  "abi": [
    {
      "inputs": [
        {
          "internalType": "address",
          "name": "_tribeController",
          "type": "address"
        },
        {
          "internalType": "address",
          "name": "_pointSystem",
          "type": "address"
        },
        {
          "internalType": "address",
          "name": "_postMinter",
          "type": "address"
        }
      ],
      "stateMutability": "nonpayable",
      "type": "constructor"
    },
    {
      "inputs": [
        {
          "internalType": "uint256",
          "name": "tribeId",
          "type": "uint256"
        },
        {
          "internalType": "address",
          "name": "member",
          "type": "address"
        }
      ],
      "name": "getMemberActivityScore",
      "outputs": [
        {
          "internalType": "uint256",
          "name": "",
          "type": "uint256"
        }
      ],
      "stateMutability": "view",
      "type": "function"
    },
    {
      "inputs": [
        {
          "internalType": "uint256",
          "name": "tribeId",
          "type": "uint256"
        },
        {
          "internalType": "uint256",
          "name": "offset",
          "type": "uint256"
        },
        {
          "internalType": "uint256",
          "name": "limit",
          "type": "uint256"
        }
      ],
      "name": "getMostActiveMembers",
      "outputs": [
        {
          "internalType": "address[]",
          "name": "members",
          "type": "address[]"
        },
        {
          "internalType": "uint256[]",
          "name": "activityScores",
          "type": "uint256[]"
        }
      ],
      "stateMutability": "view",
      "type": "function"
    },
    {
      "inputs": [
        {
          "internalType": "uint256",
          "name": "",
          "type": "uint256"
        },
        {
          "internalType": "uint256",
          "name": "limit",
          "type": "uint256"
        }
      ],
      "name": "getPopularTribes",
      "outputs": [
        {
          "internalType": "uint256[]",
          "name": "tribeIds",
          "type": "uint256[]"
        },
        {
          "internalType": "uint256[]",
          "name": "memberCounts",
          "type": "uint256[]"
        },
        {
          "internalType": "string[]",
          "name": "names",
          "type": "string[]"
        }
      ],
      "stateMutability": "pure",
      "type": "function"
    },
    {
      "inputs": [
        {
          "internalType": "uint256",
          "name": "tribeId",
          "type": "uint256"
        },
        {
          "internalType": "uint256",
          "name": "offset",
          "type": "uint256"
        },
        {
          "internalType": "uint256",
          "name": "limit",
          "type": "uint256"
        }
      ],
      "name": "getTribeMembers",
      "outputs": [
        {
          "internalType": "address[]",
          "name": "members",
          "type": "address[]"
        },
        {
          "internalType": "enum ITribeController.MemberStatus[]",
          "name": "statuses",
          "type": "uint8[]"
        },
        {
          "internalType": "uint256",
          "name": "total",
          "type": "uint256"
        }
      ],
      "stateMutability": "nonpayable",
      "type": "function"
    },
    {
      "inputs": [],
      "name": "pointSystem",
      "outputs": [
        {
          "internalType": "contract IPointSystem",
          "name": "",
          "type": "address"
        }
      ],
      "stateMutability": "view",
      "type": "function"
    },
    {
      "inputs": [],
      "name": "postMinter",
      "outputs": [
        {
          "internalType": "contract IPostMinter",
          "name": "",
          "type": "address"
        }
      ],
      "stateMutability": "view",
      "type": "function"
    },
    {
      "inputs": [],
      "name": "tribeController",
      "outputs": [
        {
          "internalType": "contract ITribeController",
          "name": "",
          "type": "address"
        }
      ],
      "stateMutability": "view",
      "type": "function"
    },
    {
      "inputs": [
        {
          "internalType": "uint256",
          "name": "tribeId",
          "type": "uint256"
        }
      ],
      "name": "updateMemberCache",
      "outputs": [],
      "stateMutability": "nonpayable",
      "type": "function"
    }
  ],
  "bytecode": "0x6080346100a057601f6113ef38819003918201601f19168301916001600160401b038311848410176100a5578084926060946040528339810103126100a057610047816100bb565b906100606040610059602084016100bb565b92016100bb565b60018060a01b0380928160018060a01b03199516856000541617600055168360015416176001551690600254161760025560405161131f90816100d08239f35b600080fd5b634e487b7160e01b600052604160045260246000fd5b51906001600160a01b03821682036100a05756fe6080604052600436101561001257600080fd5b6000803560e01c90816316bfd12b1461009a575080632dbd6fdd146100955780633341f85b146100905780633eebb62a1461008b57806356fab63b1461008657806361a07ffe14610081578063e50626da1461007c5763eeb94f091461007757600080fd5b6103b3565b610321565b6102b6565b610241565b610218565b610123565b6100c1565b346100be57806003193601126100be57546001600160a01b03166080908152602090f35b80fd5b346100ea5760003660031901126100ea576001546040516001600160a01b039091168152602090f35b600080fd5b90815180825260208080930193019160005b82811061010f575050505090565b835185529381019392810192600101610101565b346100ea5760403660031901126100ea57610143606460243511156103e5565b61014b6104b4565b6101536104b4565b906040516101608161043e565b60009283825261018d61017e604051946060865260608601906100ef565b602092858203848701526100ef565b9083820360408501528251908183528083019281808460051b83010195019387915b8483106101bc5787870388f35b90919293949584601f198084840301855288518b815191828652815b838110610201575050818501840152601f011690910181019681019594936001019201906101af565b8181018601518782018701528a958f9350016101d8565b346100ea5760003660031901126100ea576002546040516001600160a01b039091168152602090f35b346100ea5760203660031901126100ea5761025d600435610d85565b005b60609060031901126100ea57600435906024359060443590565b90815180825260208080930193019160005b828110610299575050505090565b83516001600160a01b03168552938101939281019260010161028b565b346100ea576102ea6102f86102d36102cd3661025f565b91611176565b604092919251938493604085526040850190610279565b9083820360208501526100ef565b0390f35b634e487b7160e01b600052602160045260246000fd5b6004111561031c57565b6102fc565b346100ea576103386103323661025f565b916105ad565b919061034f60405192606084526060840190610279565b926020938381038585015284808451928381520193019460005b82811061037d578580868660408301520390f35b90919293865190600482101561031c5790815295820195820193929190600101610369565b6001600160a01b038116036100ea57565b346100ea5760403660031901126100ea5760206103dd6024356103d5816103a2565b600435610979565b604051908152f35b156103ec57565b60405162461bcd60e51b815260206004820152601460248201527342617463682073697a6520746f6f206c6172676560601b6044820152606490fd5b634e487b7160e01b600052604160045260246000fd5b6020810190811067ffffffffffffffff82111761045a57604052565b610428565b90601f8019910116810190811067ffffffffffffffff82111761045a57604052565b908160209103126100ea575190565b6040513d6000823e3d90fd5b67ffffffffffffffff811161045a5760051b60200190565b6040516104c08161043e565b60008152906000368137565b906104d68261049c565b6104e3604051918261045f565b82815280926104f4601f199161049c565b0190602036910137565b634e487b7160e01b600052601160045260246000fd5b9190820180921161052157565b6104fe565b9190820391821161052157565b60001981146105215760010190565b634e487b7160e01b600052603260045260246000fd5b80548210156105705760005260206000200190600090565b610542565b908160209103126100ea575160048110156100ea5790565b80518210156105705760209160051b010190565b600482101561031c5752565b90916105bc60648211156103e5565b600080549094906105dd906001600160a01b03165b6001600160a01b031690565b91604093845194635ce9284f60e01b865260209283876004978180610609888c83019190602083019252565b03915afa968715610805578997610884575b508680891015610865575086610631828a610514565b111561085f57506106428787610526565b945b61064d866104cc565b92610657876104cc565b9761066c826000526003602052604060002090565b96606461068d610686856000526004602052604060002090565b5443610526565b1161083a575b8b988b6106a08282610514565b811080610830575b1561080a5781898f8c906106d76105d16106c28785610558565b905460039190911b1c6001600160a01b031690565b6106f3575b5050506106eb6106a092610533565b91908e610514565b5461074b935061071b906106c2908690610715906001600160a01b03166105d1565b93610558565b8a516326e98b8b60e01b8152808b018a81526001600160a01b039092166020830152938492918391829160400190565b03915afa908115610805578f916107d8575b5061076781610312565b8c6001821461077d575b505081898f8c906106dc565b6107ce8d6107c9859f948f838f966107bf6106eb986107b08d9b6107aa6106c26106a09f6107c499610558565b9261058d565b6001600160a01b039091169052565b61058d565b6105a1565b610533565b9c9250508c610771565b6107f891508a3d8c116107fe575b6107f0818361045f565b810190610575565b3861075d565b503d6107e6565b610490565b509650989a5098505050509291508110610825575b50929190565b80825284523861081f565b50895481106106a8565b965061084582610d85565b610859826000526003602052604060002090565b96610693565b94610644565b975050505050935050506108776104b4565b916108806104b4565b9190565b6108a5919750843d86116108ac575b61089d818361045f565b810190610481565b953861061b565b503d610893565b91906040838203126100ea57825167ffffffffffffffff81116100ea5783019080601f830112156100ea578151906108ea8261049c565b916108f8604051938461045f565b808352602093848085019260051b8201019283116100ea5784809101915b838310610927575050505092015190565b8251815291810191859101610916565b9060648202918083046064149015171561052157565b9060148202918083046014149015171561052157565b9060058202918083046005149015171561052157565b6000805490929190610993906001600160a01b03166105d1565b604080516326e98b8b60e01b815260048082018590526001600160a01b0386166024830152949192602092908390839060449082905afa918215610805578792610c58575b506109e282610312565b6001809203610c4f57958683610a36969798610a076105d1865460018060a01b031690565b875163f72967e160e01b8152808c018b81526001600160a01b0390931660208401529889928391829160400190565b03915afa958615610805578296610c2a575b50600254610aa4918391610a64906001600160a01b03166105d1565b8751637d52db1360e11b81528b81019a8b526001600160a01b0390921660208b0152600060408b01526103e860608b015298909283918291608090910190565b03818a5afa9485156108055782918396610c04575b509082918495949398839a84975b610b04575b5050505050505050610b019392610aef610af5610aef94610aef610afb95610937565b90610514565b9161094d565b91610963565b90565b909192939495969a84518c1015610bfe57610b1f8c8661058d565b518451634033d61960e01b8082528482019283526001602084015290918a90839081906040010381885afa90811561080557610b748f9e8c93610b6d91610b95968d92610be6575b50610514565b9e8961058d565b51908751938492839283528783016020600091939293604081019481520152565b0381875afa801561080557610bba92610bb4928992610bc75750610514565b9b610533565b9695949392919085610ac7565b610bdf9192508b3d8d116108ac5761089d818361045f565b9038610b67565b610bdf919250863d88116108ac5761089d818361045f565b9a610acc565b909550610c2391503d8084833e610c1b818361045f565b8101906108b3565b9438610ab9565b610aa4919650610c478391863d88116108ac5761089d818361045f565b969150610a48565b50505050505090565b610c70919250833d85116107fe576107f0818361045f565b90386109d8565b80549060009081815582610c8a57505050565b815260208120918201915b828110610ca157505050565b818155600101610c95565b908160209103126100ea5751610b01816103a2565b80546801000000000000000081101561045a57610ce391600182018155610558565b819291549060031b9160018060a01b03809116831b921b1916179055565b60209081818403126100ea5780519067ffffffffffffffff82116100ea57019180601f840112156100ea578251610d378161049c565b93610d45604051958661045f565b818552838086019260051b8201019283116100ea578301905b828210610d6c575050505090565b8380918351610d7a816103a2565b815201910190610d5e565b6064610d9e610686836000526004602052604060002090565b111561117357610dc0610dbb826000526003602052604060002090565b610c77565b60008054610dd6906001600160a01b03166105d1565b60408051635ce9284f60e01b81526004808201869052936020918281602481885afa801561080557611156575b50825191634ce0ed3d60e01b8352808380610e258a8a83019190602083019252565b0381885afa93841561080557610e759587948496611125575b5081516326e98b8b60e01b8082529581018a81526001600160a01b0388166020820152909784928992909183918291604090910190565b03915afa958615610805578396611100575b5090610ed791610e9687610312565b60018097146110a4575b835484908a90610eb8906001600160a01b03166105d1565b835163ac3f83db60e01b8152808c019283529586928391829160200190565b03915afa9586156108055787938597611080575b5084935b610f15575b505050505050505050610f1243916000526004602052604060002090565b55565b865184101561107b5783610f3a610f2d8a968a61058d565b516001600160a01b031690565b6001600160a01b038381169116141580610fe5575b90610f5d91610f6357610533565b93610eef565b610f8d610f7a8d6000526003602052604060002090565b610f87610f2d848d61058d565b90610cc1565b8b610fdf8a610fc9610f2d85610fc3610fb2610fac610f2d848861058d565b88610979565b966000526005602052604060002090565b9361058d565b60018060a01b0316600052602052604060002090565b55610533565b508554909450610ffd906001600160a01b03166105d1565b93838b61100d610f2d848c61058d565b85518a8152808e019283526001600160a01b0390911660208301529687918290819060400103915afa9081156108055789610f5d928197899161105e575b5061105581610312565b14909150610f4f565b6110759150873d89116107fe576107f0818361045f565b3861104b565b610ef4565b61109d9197503d8087833e611095818361045f565b810190610d01565b9538610eeb565b6110c1866110bc8b6000526003602052604060002090565b610cc1565b6110cb868a610979565b6110fa876110e38c6000526005602052604060002090565b9060018060a01b0316600052602052604060002090565b55610ea0565b8291965061111d90610ed7933d84116107fe576107f0818361045f565b959091610e87565b8391965061114890823d841161114f575b611140818361045f565b810190610cac565b9590610e3e565b503d611136565b61116c90833d85116108ac5761089d818361045f565b5038610e03565b50565b92919061118660648311156103e5565b60005461119b906001600160a01b03166105d1565b604051635ce9284f60e01b81526004810186905290602090829060249082905afa908115610805576000916112f4575b50808210156112de57806111df8484610514565b11156112d6576111ef9250610526565b915b6111fa836104cc565b90611204846104cc565b611218826000526003602052604060002090565b9260009283958554965b878110806112cd575b156112b2576112406105d16106c2838a610558565b611253575b61124e90610533565b611222565b946112aa61124e9161127561126b6106c28a8c610558565b6107b0838961058d565b61129961128c866000526005602052604060002090565b610fc96106c28b8d610558565b546112a4828961058d565b52610533565b959050611245565b5095505092509381106112c457509190565b80825283529190565b5088861061122b565b5050916111f1565b50505090506112eb6104b4565b90610b016104b4565b61130c915060203d81116108ac5761089d818361045f565b386111cb56fea164736f6c6343000814000a",
  "linkReferences": {},
  "deployedLinkReferences": {}
}