{
  "_format": "hh-sol-artifact-1",
  "contractName": "Voting",
  "sourceName": "contracts/Voting.sol",
  "abi": [
    {
      "inputs": [
        {
          "internalType": "address",
          "name": "_roleManager",
          "type": "address"
        },
        {
          "internalType": "address",
          "name": "_tribeController",
          "type": "address"
        }
      ],
      "stateMutability": "nonpayable",
      "type": "constructor"
    },
    {
      "anonymous": false,
      "inputs": [
        {
          "indexed": true,
          "internalType": "uint256",
          "name": "proposalId",
          "type": "uint256"
        },
        {
          "indexed": true,
          "internalType": "uint256",
          "name": "tribeId",
          "type": "uint256"
        },
        {
          "indexed": true,
          "internalType": "address",
          "name": "creator",
          "type": "address"
        },
        {
          "indexed": false,
          "internalType": "string",
          "name": "title",
          "type": "string"
        },
        {
          "indexed": false,
          "internalType": "string",
          "name": "description",
          "type": "string"
        },
        {
          "indexed": false,
          "internalType": "uint256",
          "name": "startTime",
          "type": "uint256"
        },
        {
          "indexed": false,
          "internalType": "uint256",
          "name": "endTime",
          "type": "uint256"
        }
      ],
      "name": "ProposalCreated",
      "type": "event"
    },
    {
      "anonymous": false,
      "inputs": [
        {
          "indexed": true,
          "internalType": "uint256",
          "name": "proposalId",
          "type": "uint256"
        },
        {
          "indexed": false,
          "internalType": "enum Voting.ProposalStatus",
          "name": "newStatus",
          "type": "uint8"
        }
      ],
      "name": "ProposalStatusChanged",
      "type": "event"
    },
    {
      "anonymous": false,
      "inputs": [
        {
          "indexed": true,
          "internalType": "uint256",
          "name": "proposalId",
          "type": "uint256"
        },
        {
          "indexed": true,
          "internalType": "address",
          "name": "voter",
          "type": "address"
        },
        {
          "indexed": false,
          "internalType": "bool",
          "name": "support",
          "type": "bool"
        }
      ],
      "name": "VoteCasted",
      "type": "event"
    },
    {
      "inputs": [
        {
          "internalType": "uint256",
          "name": "proposalId",
          "type": "uint256"
        }
      ],
      "name": "cancelProposal",
      "outputs": [],
      "stateMutability": "nonpayable",
      "type": "function"
    },
    {
      "inputs": [
        {
          "internalType": "uint256",
          "name": "tribeId",
          "type": "uint256"
        },
        {
          "internalType": "string",
          "name": "title",
          "type": "string"
        },
        {
          "internalType": "string",
          "name": "description",
          "type": "string"
        },
        {
          "internalType": "uint256",
          "name": "votingPeriod",
          "type": "uint256"
        }
      ],
      "name": "createProposal",
      "outputs": [
        {
          "internalType": "uint256",
          "name": "",
          "type": "uint256"
        }
      ],
      "stateMutability": "nonpayable",
      "type": "function"
    },
    {
      "inputs": [
        {
          "internalType": "uint256",
          "name": "proposalId",
          "type": "uint256"
        }
      ],
      "name": "executeProposal",
      "outputs": [],
      "stateMutability": "nonpayable",
      "type": "function"
    },
    {
      "inputs": [
        {
          "internalType": "uint256",
          "name": "proposalId",
          "type": "uint256"
        }
      ],
      "name": "getProposalInfo",
      "outputs": [
        {
          "internalType": "uint256",
          "name": "tribeId",
          "type": "uint256"
        },
        {
          "internalType": "address",
          "name": "creator",
          "type": "address"
        },
        {
          "internalType": "string",
          "name": "title",
          "type": "string"
        },
        {
          "internalType": "string",
          "name": "description",
          "type": "string"
        },
        {
          "internalType": "uint256",
          "name": "forVotes",
          "type": "uint256"
        },
        {
          "internalType": "uint256",
          "name": "againstVotes",
          "type": "uint256"
        },
        {
          "internalType": "uint256",
          "name": "startTime",
          "type": "uint256"
        },
        {
          "internalType": "uint256",
          "name": "endTime",
          "type": "uint256"
        },
        {
          "internalType": "enum Voting.ProposalStatus",
          "name": "status",
          "type": "uint8"
        }
      ],
      "stateMutability": "view",
      "type": "function"
    },
    {
      "inputs": [
        {
          "internalType": "uint256",
          "name": "proposalId",
          "type": "uint256"
        },
        {
          "internalType": "address",
          "name": "voter",
          "type": "address"
        }
      ],
      "name": "hasVoted",
      "outputs": [
        {
          "internalType": "bool",
          "name": "",
          "type": "bool"
        }
      ],
      "stateMutability": "view",
      "type": "function"
    },
    {
      "inputs": [],
      "name": "nextProposalId",
      "outputs": [
        {
          "internalType": "uint256",
          "name": "",
          "type": "uint256"
        }
      ],
      "stateMutability": "view",
      "type": "function"
    },
    {
      "inputs": [
        {
          "internalType": "uint256",
          "name": "",
          "type": "uint256"
        }
      ],
      "name": "proposals",
      "outputs": [
        {
          "internalType": "uint256",
          "name": "tribeId",
          "type": "uint256"
        },
        {
          "internalType": "address",
          "name": "creator",
          "type": "address"
        },
        {
          "internalType": "string",
          "name": "title",
          "type": "string"
        },
        {
          "internalType": "string",
          "name": "description",
          "type": "string"
        },
        {
          "internalType": "uint256",
          "name": "forVotes",
          "type": "uint256"
        },
        {
          "internalType": "uint256",
          "name": "againstVotes",
          "type": "uint256"
        },
        {
          "internalType": "uint256",
          "name": "startTime",
          "type": "uint256"
        },
        {
          "internalType": "uint256",
          "name": "endTime",
          "type": "uint256"
        },
        {
          "internalType": "enum Voting.ProposalStatus",
          "name": "status",
          "type": "uint8"
        }
      ],
      "stateMutability": "view",
      "type": "function"
    },
    {
      "inputs": [],
      "name": "roleManager",
      "outputs": [
        {
          "internalType": "contract IRoleManager",
          "name": "",
          "type": "address"
        }
      ],
      "stateMutability": "view",
      "type": "function"
    },
    {
      "inputs": [],
      "name": "tribeController",
      "outputs": [
        {
          "internalType": "contract ITribeController",
          "name": "",
          "type": "address"
        }
      ],
      "stateMutability": "view",
      "type": "function"
    },
    {
      "inputs": [
        {
          "internalType": "uint256",
          "name": "proposalId",
          "type": "uint256"
        },
        {
          "internalType": "bool",
          "name": "support",
          "type": "bool"
        }
      ],
      "name": "vote",
      "outputs": [],
      "stateMutability": "nonpayable",
      "type": "function"
    }
  ],
  "bytecode": "0x60803461008d57601f6111b238819003918201601f19168301916001600160401b0383118484101761009257808492604094855283398101031261008d57610052602061004b836100a8565b92016100a8565b600080546001600160a01b039384166001600160a01b031991821617909155600180549290931691161790556040516110f590816100bd8239f35b600080fd5b634e487b7160e01b600052604160045260246000fd5b51906001600160a01b038216820361008d5756fe608080604052600436101561001357600080fd5b60003560e01c908162435da514610d9257508063013cf08b14610d175780630d61b51914610b6e57806316bfd12b14610b455780632ab09d1414610b275780634385963214610ab55780635ada0a4114610549578063bc903cb8146104b1578063c9d27afe146101ef5763e0a8f6f51461008c57600080fd5b346101ea576020806003193601126101ea576004359081600052600381526100bd600660406000200154151561105a565b600082815260038252604090206001810154336001600160a01b0391821614908115610171575b501561013b579060087f3346abf262ac5179e9052765fb72484e0baab1f356f08442bb7a3054147631de92016003815461012a60ff821661012481610ef8565b156110a6565b60ff191617905560405160038152a2005b60405162461bcd60e51b815260048101839052600e60248201526d139bdd08185d5d1a1bdc9a5e995960921b6044820152606490fd5b8091506001541690838354602460405180958193634ce0ed3d60e01b835260048301525afa9182156101de576000926101af575b50163314386100e4565b6101d0919250843d86116101d7575b6101c88183610df0565b81019061101a565b90386101a5565b503d6101be565b6040513d6000823e3d90fd5b600080fd5b346101ea5760403660031901126101ea576024803580151590600435908281036101ea578160005260209060038252610231600660406000200154151561105a565b826000526003825261025160ff6008604060002001541661012481610ef8565b826000526003825260066040600020015442106104785782600052600382526007604060002001544211610445578260005260038252604060002060018060a01b03600154168382546044604051809481936326e98b8b60e01b83526004830152338c8301525afa80156101de5760009061040e575b600191506102d481610ef8565b036103d55760098101913360005282845260ff604060002054166103a157156103655760040180549060018201809211610350577f5aaa9aad7433112662b9e5ae23b96ed62b00035f413ab908c55607284e0804e294959650555b3360005281526040600020600160ff198254161790556040519384523393a3005b86634e487b7160e01b60005260116004526000fd5b60050180549060018201809211610350577f5aaa9aad7433112662b9e5ae23b96ed62b00035f413ab908c55607284e0804e2949596505561032f565b60405162461bcd60e51b815260048101859052600d818901526c105b1c9958591e481d9bdd1959609a1b6044820152606490fd5b60405162461bcd60e51b815260048101849052601281880152712737ba1030903a3934b1329036b2b6b132b960711b6044820152606490fd5b508381813d831161043e575b6104248183610df0565b810103126101ea575160048110156101ea576001906102c7565b503d61041a565b60405162461bcd60e51b815260048101839052600c818701526b159bdd1a5b99c8195b99195960a21b6044820152606490fd5b60405162461bcd60e51b81526004810183905260128187015271159bdd1a5b99c81b9bdd081cdd185c9d195960721b6044820152606490fd5b346101ea5760203660031901126101ea576004358060005260036020526104e1600660406000200154151561105a565b60005260036020526040600020805461054560018060a01b03600184015416926004810154600582015460068301549060078401549260ff60088601541694610538600361053160028401610e12565b9201610e12565b90604051998a998a610f18565b0390f35b346101ea5760803660031901126101ea5760243567ffffffffffffffff81116101ea5761057a903690600401610f7d565b9060443567ffffffffffffffff81116101ea5761059b903690600401610f7d565b600054604051630ad9cac760e11b8082529395936001600160a01b039283169291602081600481875afa9081156101de57600091610a83575b50604051632474521560e21b8082526004820192909252336024820152602081604481885afa80156101de5761061291600091610a64575b50610fc3565b604051918252602082600481875afa9182156101de57600092610a2e575b5060405190815260048101919091523360248201529160209083908180604481015b03915afa9182156101de576000926109fd575b508115610999575b5061067790610fc3565b6002549260001984146107ed5760018401600255836000526003602052604060002094600435865560018601336bffffffffffffffffffffffff60a01b82541617905567ffffffffffffffff84116108c3576106d66002870154610db6565b601f8111610952575b50836000601f82116001146108e4576000916108d9575b508460011b906000198660031b1c19161760028701555b67ffffffffffffffff83116108c3576107296003870154610db6565b601f811161087c575b50826000601f821160011461080e57600091610803575b508360011b906000198560031b1c19161760038701555b4260068701556064354201928342116107ed576107a06107ad9360088987600760209c01550160ff19815416905560405196608088526080880191611039565b9185830388870152611039565b904260408401526060830152827fe30f571c96fbc063797c08c8fddfffb8d533b04c20e637562b942fc62ede5f21339380600435940390a4604051908152f35b634e487b7160e01b600052601160045260246000fd5b905081013587610749565b9050601f19841690600388016000528460206000209260005b818110610861575010610847575b5050600183811b016003870155610760565b820135600019600386901b60f8161c191690558680610835565b85840135855560019094019360209384019388935001610827565b600387016000526020600020601f850160051c8101602086106108bc575b601f830160051c820181106108b0575050610732565b6000815560010161089a565b508061089a565b634e487b7160e01b600052604160045260246000fd5b9050820135876106f6565b90506002870160005260206000209060005b601f198716811061093a575085601f19811610610920575b5050600184811b01600287015561070d565b830135600019600387901b60f8161c19169055868061090e565b909160206001819285880135815501930191016108f6565b600287016000526020600020601f860160051c810160208710610992575b601f830160051c820181106109865750506106df565b60008155600101610970565b5080610970565b602491506020816001541660405193848092634ce0ed3d60e01b825260043560048301525afa9081156101de57610677926000926109dc575b501633149061066d565b6109f691925060203d6020116101d7576101c88183610df0565b90876109d2565b610a2091925060203d602011610a27575b610a188183610df0565b810190610fab565b9086610665565b503d610a0e565b91506020823d602011610a5c575b81610a4960209383610df0565b810103126101ea57905190610652610630565b3d9150610a3c565b610a7d915060203d602011610a2757610a188183610df0565b8a61060c565b90506020813d602011610aad575b81610a9e60209383610df0565b810103126101ea5751886105d4565b3d9150610a91565b346101ea5760403660031901126101ea576024356001600160a01b03811690600435908290036101ea57806000526003602052610afb600660406000200154151561105a565b6000526003602052600960406000200190600052602052602060ff604060002054166040519015158152f35b346101ea5760003660031901126101ea576020600254604051908152f35b346101ea5760003660031901126101ea576001546040516001600160a01b039091168152602090f35b346101ea576020806003193601126101ea57600435908160005260038152610b9f600660406000200154151561105a565b816000526003815260406000205460018060a01b0382816001541692602460405180958193634ce0ed3d60e01b835260048301525afa9182156101de57600092610cf8575b5033911603610cc257816000526003815260406000206008810190815490610c1260ff831661012481610ef8565b6007810154421115610c84579160ff9183600560047f3346abf262ac5179e9052765fb72484e0baab1f356f08442bb7a3054147631de9796015491015410600014610c775750600182198254161781555b541660405190610c7281610ef8565b8152a2005b8219166002178155610c63565b60405162461bcd60e51b81526004810185905260166024820152752b37ba34b733903832b934b7b2103737ba1037bb32b960511b6044820152606490fd5b6064906040519062461bcd60e51b82526004820152600f60248201526e2737ba103a3934b1329030b236b4b760891b6044820152fd5b610d10919250833d85116101d7576101c88183610df0565b9084610be4565b346101ea5760203660031901126101ea576004356000908152600360205260409020805460018201546001600160a01b03169161054590610d5a60028201610e12565b90610d6760038201610e12565b600482015460058301549060068401549260ff600860078701549601541695604051998a998a610f18565b346101ea5760003660031901126101ea576000546001600160a01b03168152602090f35b90600182811c92168015610de6575b6020831014610dd057565b634e487b7160e01b600052602260045260246000fd5b91607f1691610dc5565b90601f8019910116810190811067ffffffffffffffff8211176108c357604052565b9060405191826000825492610e2684610db6565b908184526001948581169081600014610e955750600114610e52575b5050610e5092500383610df0565b565b9093915060005260209081600020936000915b818310610e7d575050610e5093508201013880610e42565b85548884018501529485019487945091830191610e65565b915050610e5094506020925060ff191682840152151560051b8201013880610e42565b919082519283825260005b848110610ee4575050826000602080949584010152601f8019910116010190565b602081830181015184830182015201610ec3565b60041115610f0257565b634e487b7160e01b600052602160045260246000fd5b9592610f4d90610f5b936101009996939c9b9a979c895260018060a01b031660208901526101208060408a0152880190610eb8565b908682036060880152610eb8565b97608085015260a084015260c083015260e0820152610f7983610ef8565b0152565b9181601f840112156101ea5782359167ffffffffffffffff83116101ea57602083818601950101116101ea57565b908160209103126101ea575180151581036101ea5790565b15610fca57565b60405162461bcd60e51b815260206004820152602260248201527f4e6f7420617574686f72697a656420746f206372656174652070726f706f73616044820152616c7360f01b6064820152608490fd5b908160209103126101ea57516001600160a01b03811681036101ea5790565b908060209392818452848401376000828201840152601f01601f1916010190565b1561106157565b60405162461bcd60e51b815260206004820152601760248201527f50726f706f73616c20646f6573206e6f742065786973740000000000000000006044820152606490fd5b156110ad57565b60405162461bcd60e51b815260206004820152601360248201527250726f706f73616c206e6f742061637469766560681b6044820152606490fdfea164736f6c6343000814000a",
  "linkReferences": {},
  "deployedLinkReferences": {}
}