{
  "_format": "hh-sol-artifact-1",
  "contractName": "ProjectController",
  "sourceName": "contracts/ProjectController.sol",
  "abi": [
    {
      "inputs": [
        {
          "internalType": "address",
          "name": "_postMinter",
          "type": "address"
        },
        {
          "internalType": "address",
          "name": "_tribeController",
          "type": "address"
        }
      ],
      "stateMutability": "nonpayable",
      "type": "constructor"
    },
    {
      "inputs": [],
      "name": "AccessControlBadConfirmation",
      "type": "error"
    },
    {
      "inputs": [
        {
          "internalType": "address",
          "name": "account",
          "type": "address"
        },
        {
          "internalType": "bytes32",
          "name": "neededRole",
          "type": "bytes32"
        }
      ],
      "name": "AccessControlUnauthorizedAccount",
      "type": "error"
    },
    {
      "anonymous": false,
      "inputs": [
        {
          "indexed": true,
          "internalType": "uint256",
          "name": "projectId",
          "type": "uint256"
        },
        {
          "indexed": true,
          "internalType": "uint256",
          "name": "milestoneIndex",
          "type": "uint256"
        },
        {
          "indexed": false,
          "internalType": "enum IProjectController.MilestoneStatus",
          "name": "status",
          "type": "uint8"
        }
      ],
      "name": "MilestoneUpdated",
      "type": "event"
    },
    {
      "anonymous": false,
      "inputs": [
        {
          "indexed": true,
          "internalType": "uint256",
          "name": "projectId",
          "type": "uint256"
        },
        {
          "indexed": true,
          "internalType": "uint256",
          "name": "postId",
          "type": "uint256"
        },
        {
          "indexed": false,
          "internalType": "address",
          "name": "creator",
          "type": "address"
        }
      ],
      "name": "ProjectCreated",
      "type": "event"
    },
    {
      "anonymous": false,
      "inputs": [
        {
          "indexed": true,
          "internalType": "uint256",
          "name": "projectId",
          "type": "uint256"
        },
        {
          "indexed": false,
          "internalType": "enum IProjectController.ProjectStatus",
          "name": "status",
          "type": "uint8"
        }
      ],
      "name": "ProjectStatusUpdated",
      "type": "event"
    },
    {
      "anonymous": false,
      "inputs": [
        {
          "indexed": true,
          "internalType": "bytes32",
          "name": "role",
          "type": "bytes32"
        },
        {
          "indexed": true,
          "internalType": "bytes32",
          "name": "previousAdminRole",
          "type": "bytes32"
        },
        {
          "indexed": true,
          "internalType": "bytes32",
          "name": "newAdminRole",
          "type": "bytes32"
        }
      ],
      "name": "RoleAdminChanged",
      "type": "event"
    },
    {
      "anonymous": false,
      "inputs": [
        {
          "indexed": true,
          "internalType": "bytes32",
          "name": "role",
          "type": "bytes32"
        },
        {
          "indexed": true,
          "internalType": "address",
          "name": "account",
          "type": "address"
        },
        {
          "indexed": true,
          "internalType": "address",
          "name": "sender",
          "type": "address"
        }
      ],
      "name": "RoleGranted",
      "type": "event"
    },
    {
      "anonymous": false,
      "inputs": [
        {
          "indexed": true,
          "internalType": "bytes32",
          "name": "role",
          "type": "bytes32"
        },
        {
          "indexed": true,
          "internalType": "address",
          "name": "account",
          "type": "address"
        },
        {
          "indexed": true,
          "internalType": "address",
          "name": "sender",
          "type": "address"
        }
      ],
      "name": "RoleRevoked",
      "type": "event"
    },
    {
      "anonymous": false,
      "inputs": [
        {
          "indexed": true,
          "internalType": "uint256",
          "name": "projectId",
          "type": "uint256"
        },
        {
          "indexed": true,
          "internalType": "address",
          "name": "member",
          "type": "address"
        }
      ],
      "name": "TeamMemberAdded",
      "type": "event"
    },
    {
      "inputs": [],
      "name": "DEFAULT_ADMIN_ROLE",
      "outputs": [
        {
          "internalType": "bytes32",
          "name": "",
          "type": "bytes32"
        }
      ],
      "stateMutability": "view",
      "type": "function"
    },
    {
      "inputs": [],
      "name": "PROJECT_MANAGER_ROLE",
      "outputs": [
        {
          "internalType": "bytes32",
          "name": "",
          "type": "bytes32"
        }
      ],
      "stateMutability": "view",
      "type": "function"
    },
    {
      "inputs": [],
      "name": "REVIEWER_ROLE",
      "outputs": [
        {
          "internalType": "bytes32",
          "name": "",
          "type": "bytes32"
        }
      ],
      "stateMutability": "view",
      "type": "function"
    },
    {
      "inputs": [
        {
          "internalType": "uint256",
          "name": "projectId",
          "type": "uint256"
        },
        {
          "internalType": "address",
          "name": "member",
          "type": "address"
        }
      ],
      "name": "addTeamMember",
      "outputs": [],
      "stateMutability": "nonpayable",
      "type": "function"
    },
    {
      "inputs": [
        {
          "internalType": "uint256",
          "name": "projectId",
          "type": "uint256"
        },
        {
          "internalType": "uint256",
          "name": "milestoneIndex",
          "type": "uint256"
        }
      ],
      "name": "getMilestone",
      "outputs": [
        {
          "components": [
            {
              "internalType": "string",
              "name": "title",
              "type": "string"
            },
            {
              "internalType": "uint256",
              "name": "budget",
              "type": "uint256"
            },
            {
              "internalType": "uint256",
              "name": "deadline",
              "type": "uint256"
            },
            {
              "internalType": "enum IProjectController.MilestoneStatus",
              "name": "status",
              "type": "uint8"
            },
            {
              "internalType": "uint256[]",
              "name": "dependencies",
              "type": "uint256[]"
            },
            {
              "internalType": "string",
              "name": "deliverables",
              "type": "string"
            },
            {
              "internalType": "uint256",
              "name": "completedAt",
              "type": "uint256"
            },
            {
              "internalType": "address",
              "name": "reviewer",
              "type": "address"
            }
          ],
          "internalType": "struct IProjectController.Milestone",
          "name": "",
          "type": "tuple"
        }
      ],
      "stateMutability": "view",
      "type": "function"
    },
    {
      "inputs": [
        {
          "internalType": "uint256",
          "name": "projectId",
          "type": "uint256"
        }
      ],
      "name": "getProject",
      "outputs": [
        {
          "internalType": "uint256",
          "name": "postId",
          "type": "uint256"
        },
        {
          "internalType": "address",
          "name": "creator",
          "type": "address"
        },
        {
          "internalType": "uint256",
          "name": "tribeId",
          "type": "uint256"
        },
        {
          "internalType": "enum IProjectController.ProjectStatus",
          "name": "status",
          "type": "uint8"
        },
        {
          "internalType": "uint256",
          "name": "totalBudget",
          "type": "uint256"
        },
        {
          "internalType": "uint256",
          "name": "startDate",
          "type": "uint256"
        },
        {
          "internalType": "uint256",
          "name": "duration",
          "type": "uint256"
        },
        {
          "internalType": "address[]",
          "name": "team",
          "type": "address[]"
        }
      ],
      "stateMutability": "view",
      "type": "function"
    },
    {
      "inputs": [
        {
          "internalType": "bytes32",
          "name": "role",
          "type": "bytes32"
        }
      ],
      "name": "getRoleAdmin",
      "outputs": [
        {
          "internalType": "bytes32",
          "name": "",
          "type": "bytes32"
        }
      ],
      "stateMutability": "view",
      "type": "function"
    },
    {
      "inputs": [
        {
          "internalType": "bytes32",
          "name": "role",
          "type": "bytes32"
        },
        {
          "internalType": "address",
          "name": "account",
          "type": "address"
        }
      ],
      "name": "grantRole",
      "outputs": [],
      "stateMutability": "nonpayable",
      "type": "function"
    },
    {
      "inputs": [
        {
          "internalType": "bytes32",
          "name": "role",
          "type": "bytes32"
        },
        {
          "internalType": "address",
          "name": "account",
          "type": "address"
        }
      ],
      "name": "hasRole",
      "outputs": [
        {
          "internalType": "bool",
          "name": "",
          "type": "bool"
        }
      ],
      "stateMutability": "view",
      "type": "function"
    },
    {
      "inputs": [],
      "name": "nextProjectId",
      "outputs": [
        {
          "internalType": "uint256",
          "name": "",
          "type": "uint256"
        }
      ],
      "stateMutability": "view",
      "type": "function"
    },
    {
      "inputs": [],
      "name": "postMinter",
      "outputs": [
        {
          "internalType": "contract IPostMinter",
          "name": "",
          "type": "address"
        }
      ],
      "stateMutability": "view",
      "type": "function"
    },
    {
      "inputs": [
        {
          "internalType": "uint256",
          "name": "",
          "type": "uint256"
        }
      ],
      "name": "postToProject",
      "outputs": [
        {
          "internalType": "uint256",
          "name": "",
          "type": "uint256"
        }
      ],
      "stateMutability": "view",
      "type": "function"
    },
    {
      "inputs": [
        {
          "internalType": "uint256",
          "name": "",
          "type": "uint256"
        }
      ],
      "name": "projects",
      "outputs": [
        {
          "internalType": "uint256",
          "name": "postId",
          "type": "uint256"
        },
        {
          "internalType": "address",
          "name": "creator",
          "type": "address"
        },
        {
          "internalType": "uint256",
          "name": "tribeId",
          "type": "uint256"
        },
        {
          "internalType": "enum IProjectController.ProjectStatus",
          "name": "status",
          "type": "uint8"
        },
        {
          "internalType": "uint256",
          "name": "totalBudget",
          "type": "uint256"
        },
        {
          "internalType": "uint256",
          "name": "startDate",
          "type": "uint256"
        },
        {
          "internalType": "uint256",
          "name": "duration",
          "type": "uint256"
        },
        {
          "internalType": "uint256",
          "name": "milestoneCount",
          "type": "uint256"
        }
      ],
      "stateMutability": "view",
      "type": "function"
    },
    {
      "inputs": [
        {
          "internalType": "bytes32",
          "name": "role",
          "type": "bytes32"
        },
        {
          "internalType": "address",
          "name": "callerConfirmation",
          "type": "address"
        }
      ],
      "name": "renounceRole",
      "outputs": [],
      "stateMutability": "nonpayable",
      "type": "function"
    },
    {
      "inputs": [
        {
          "internalType": "uint256",
          "name": "projectId",
          "type": "uint256"
        },
        {
          "internalType": "uint256",
          "name": "milestoneIndex",
          "type": "uint256"
        },
        {
          "internalType": "bool",
          "name": "approved",
          "type": "bool"
        }
      ],
      "name": "reviewMilestone",
      "outputs": [],
      "stateMutability": "nonpayable",
      "type": "function"
    },
    {
      "inputs": [
        {
          "internalType": "bytes32",
          "name": "role",
          "type": "bytes32"
        },
        {
          "internalType": "address",
          "name": "account",
          "type": "address"
        }
      ],
      "name": "revokeRole",
      "outputs": [],
      "stateMutability": "nonpayable",
      "type": "function"
    },
    {
      "inputs": [
        {
          "internalType": "uint256",
          "name": "projectId",
          "type": "uint256"
        },
        {
          "internalType": "uint256",
          "name": "milestoneIndex",
          "type": "uint256"
        }
      ],
      "name": "startMilestone",
      "outputs": [],
      "stateMutability": "nonpayable",
      "type": "function"
    },
    {
      "inputs": [
        {
          "internalType": "uint256",
          "name": "projectId",
          "type": "uint256"
        },
        {
          "internalType": "uint256",
          "name": "milestoneIndex",
          "type": "uint256"
        },
        {
          "internalType": "string",
          "name": "deliverableURI",
          "type": "string"
        }
      ],
      "name": "submitMilestoneDeliverable",
      "outputs": [],
      "stateMutability": "nonpayable",
      "type": "function"
    },
    {
      "inputs": [
        {
          "internalType": "bytes4",
          "name": "interfaceId",
          "type": "bytes4"
        }
      ],
      "name": "supportsInterface",
      "outputs": [
        {
          "internalType": "bool",
          "name": "",
          "type": "bool"
        }
      ],
      "stateMutability": "view",
      "type": "function"
    },
    {
      "inputs": [],
      "name": "tribeController",
      "outputs": [
        {
          "internalType": "contract ITribeController",
          "name": "",
          "type": "address"
        }
      ],
      "stateMutability": "view",
      "type": "function"
    },
    {
      "inputs": [
        {
          "internalType": "uint256",
          "name": "postId",
          "type": "uint256"
        }
      ],
      "name": "validateAndCreateProject",
      "outputs": [
        {
          "internalType": "uint256",
          "name": "",
          "type": "uint256"
        }
      ],
      "stateMutability": "nonpayable",
      "type": "function"
    },
    {
      "inputs": [
        {
          "internalType": "uint256",
          "name": "postId",
          "type": "uint256"
        }
      ],
      "name": "validateAndCreateUpdate",
      "outputs": [],
      "stateMutability": "nonpayable",
      "type": "function"
    }
  ],
  "bytecode": "0x608034620000a257601f6200210338819003918201601f19168301916001600160401b03831184841017620000a7578084926040948552833981010312620000a2576200005a60206200005283620000bd565b9201620000bd565b600180546001600160a01b039384166001600160a01b031991821617909155600280549290931691161790556200009133620000d2565b50604051611f9f9081620001648239f35b600080fd5b634e487b7160e01b600052604160045260246000fd5b51906001600160a01b0382168203620000a257565b6001600160a01b031660008181527fad3228b676f7d3cd4284a5443f17f1962b36e491b30a40b2405849e597ba5fb5602052604081205490919060ff166200015f57818052816020526040822081835260205260408220600160ff1982541617905533917f2f8788117e7eff1d82e926ec794901d17c78024a50270940304540a733656f0d8180a4600190565b509056fe608080604052600436101561001357600080fd5b60003560e01c90816301ffc9a7146117fc57508063107046bd1461177057806316bfd12b146117475780631a609005146114c4578063248a9ca31461149557806329c76a731461145a5780632f2ff15d1461141b5780633220d5301461131f57806336568abe146112d85780633b129a561461129d5780633eebb62a146112745780634e0469861461104057806353f0c158146109985780638ed9895c146107cd57806391d1485414610780578063948c8d6e14610658578063a217fddf1461063c578063a2af4d44146102c3578063baa669fe14610297578063d547741f14610256578063e935b7b1146102385763f0f3f2c81461011157600080fd5b346102335760203660031901126102335760043560005260036020526040600020805460018060a01b036001830154169160028101549160ff600383015416936004830154906005840154600685015490604051938460206007890154918281520190600782990160005260206000209060005b818110610214575050508561019b910386611a85565b6101c2604051998a9961010096878c01998c5260208c015260408b015260608a019061184f565b608088015260a087015260c086015260e0850152518091526101208301919060005b8181106101f2575050500390f35b82516001600160a01b03168452859450602093840193909201916001016101e4565b82546001600160a01b0316845260209093019260019283019201610185565b600080fd5b34610233576000366003190112610233576020600554604051908152f35b346102335760403660031901126102335761029560043561027561185c565b908060005260006020526102906001604060002001546118dd565b61199f565b005b346102335760203660031901126102335760043560005260046020526020604060002054604051908152f35b346102335760203660031901126102335760015460405163101cc70960e21b81526004803590820152906001600160a01b03906000908390602490829085165afa80156106305761031f92600091610604575b50163314611b8b565b610327611f4d565b50610330611f4d565b600081526020810190610341611d4d565b82526000604082015260608101906001825280519182600052600360205260406000209333600052600a850160205261038160ff60406000205416611d0f565b805160208151910120610392611d4d565b60208151910120146000146105455750506040810151918060005260036020526040600020926103c760098501548210611d79565b8060005260088401602052604060002060006004820154905b8181106104f857505060038101600360ff1982541617905560064291015581600080516020611f73833981519152602060405160038152a3600983015492600160005b85811061049f575b5060409450610460575b50505b0151906009810154821061044857005b600b9160005201602052600435604060002055600080f35b600301600260ff198254161790557f8fb6fda973f304b2834c4147004045448416c05b253872373ac5b19f4a5b7a5d6020845160028152a28380610435565b806000526008830160205260ff6003604060002001541660058110156104e2576003036104d4576104cf90611bca565b610423565b50506040935060008661042b565b634e487b7160e01b600052602160045260246000fd5b6105058160048501611bd9565b90549060031b1c6000526008870160205260ff600360406000200154169060058210156104e25761053b60036105409314611df6565b611bca565b6103e0565b7ff48be56f128754e86f37896f9dadc6f08dc57a2486c52b16a79d458d9cfb50a89051602081519101206c5354415455535f55504441544560981b602060405161058e81611a69565b600d81520152146105a4575b5060409150610438565b519160048310156104e2577f8fb6fda973f304b2834c4147004045448416c05b253872373ac5b19f4a5b7a5d602060409483600052600382526003866000200160ff1981541660ff83161790556105fd8651809261184f565ba28361059a565b61062191503d806000833e6106198183611a85565b810190611ac8565b50505050505050905083610316565b6040513d6000823e3d90fd5b3461023357600036600319011261023357602060405160008152f35b346102335760403660031901126102335760043561067461185c565b908060005260206003815260018060a01b039081600160406000200154163303610746578260005260038152604060002093600a8501928116948560005283835260ff6040600020541661070b579060076106cf9201611c07565b83600052526040600020600160ff198254161790557f1ecb79e38af33b5e8751cc9cf391eb185feff6f68630686146e1e2e2753f00d8600080a3005b60405162461bcd60e51b815260048101849052601360248201527220b63932b0b23c903a32b0b69036b2b6b132b960691b6044820152606490fd5b6064906040519062461bcd60e51b8252600482015260136024820152722737ba10383937b532b1ba1031b932b0ba37b960691b6044820152fd5b346102335760403660031901126102335761079961185c565b600435600052600060205260406000209060018060a01b0316600052602052602060ff604060002054166040519015158152f35b34610233576107db36611872565b6107e3611e42565b5081600052602091600383526108026009604060002001548310611d79565b60005260038252600860406000200190600052815260406000206040519061082982611a14565b61083281611e82565b825260019182820154938082019485526002830154936040830194855260ff60038501541690606084019160058110156104e2578293919352600485016040519081838254918281520191600052836000209060005b8181106109855750505091816108a960079695936109069a9b950382611a85565b6080870190815261091e6108bf60058a01611e82565b9360a0890194855260068a01549960c08a019a8b5260018060a01b039889910154169b60e08a019c8d526040519b8c9a868c52516101206101009c8d8982015201906118ab565b965160408d01525160608c01525160808b01906118d0565b5193601f1993848a82030160a08b015282808751928381520196019260005b828110610972575050505050916109619187989351908883030160c08901526118ab565b935160e08601525116908301520390f35b845188529681019693810193830161093d565b8254845292850192918701918701610888565b346102335760203660031901126102335760015460405163101cc70960e21b8152600480359082015290600090829060249082906001600160a01b03165afa9081156106305760009060009261101b575b506109fe336001600160a01b03831614611b8b565b610a06611f26565b50610a0f611f26565b683635c9adc5dea000008152620151804201804211610fee57602082015262278d00604082015260405180606081011067ffffffffffffffff606083011117610ece57606081016040526002815260005b604081106110045750604051610a7581611a4d565b600081526213c68042014211610fee5760405190610a9282611a14565b604051610a9e81611a69565b601081526f54657374204d696c6573746f6e65203160801b60208201528252681b1ae4d6e2ef50000060208301526213c68042016040830152600060608301526080820152604051610aef81611a4d565b6000815260a0820152600060c0820152600060e0820152610b0f82611c42565b52610b1981611c42565b50604051610b2681611a69565b60018152602036818301376000610b3c82611c42565b5262278d0042014211610fee5760405190610b5682611a14565b604051610b6281611a69565b601081526f2a32b9ba1026b4b632b9ba37b732901960811b60208201528252681b1ae4d6e2ef500000602083015262278d0042016040830152600060608301526080820152604051610bb381611a4d565b6000815260a0820152600060c0820152600060e0820152610bd382611c4f565b52610bdd81611c4f565b506060820152600554610bef81611bca565b600555806000526003602052604060002093600435855560018060a01b0384166bffffffffffffffffffffffff60a01b600187015416176001860155600285015560ff196003850154166003850155815160048501556020820151600585015560408201516006850155610c668360078601611c07565b6001600160a01b0383166000908152600a850160205260408120805460ff191660011790555b60608301518051821015610f8f576020908260051b01015181600052600886016020526040600020815180519067ffffffffffffffff8211610ece578190610cde82610cd88654611c5f565b86611cb0565b602090601f8311600114610f2357600092610f18575b50508160011b916000199060031b1c19161781555b6020820151600182015560408201516002820155606082015160058110156104e257610d389060038301611cf7565b608082015180519067ffffffffffffffff8211610ece57600160401b8211610ece576020906004840154836004860155808410610ef8575b500160048301600052602060002060005b838110610ee4575050505060a082015180519067ffffffffffffffff8211610ece57610dbd82610db46005860154611c5f565b60058601611cb0565b602090601f8311600114610e56579180610e4696959492600794600092610e4b575b50508160011b916000199060031b1c19161760058201555b60c08301516006820155019060e060018060a01b03910151166bffffffffffffffffffffffff60a01b8254161790558060005260088601602052600360406000200160ff198154169055611bca565b610c8c565b015190508b80610ddf565b906005840160005260206000209160005b601f1985168110610eb6575092610e469695949260019260079583601f19811610610e9d575b505050811b016005820155610df7565b015160001960f88460031b161c191690558b8080610e8d565b91926020600181928685015181550194019201610e67565b634e487b7160e01b600052604160045260246000fd5b600190602084519401938184015501610d81565b610f12906004860160005284846000209182019101611c99565b8a610d70565b015190508980610cf4565b9250836000526020600020906000935b601f1984168510610f74576001945083601f19811610610f5b575b505050811b018155610d09565b015160001960f88460031b161c19169055898080610f4e565b81810151835560209485019460019093019290910190610f33565b6020838688600960608901515191015560043560005260048352816040600020556040519060018060a01b03168152817f2e16fe6185221195ff919455425d57cc20788b7457ce4ab0a9b39ffbbe4e25b28460043593a3604051908152f35b634e487b7160e01b600052601160045260246000fd5b60209061100f611e42565b82828501015201610a60565b905061103291503d806000833e6106198183611a85565b5050505050509150826109e9565b34610233576060366003190112610233576044358015158103610233573360009081527f5c91a81dd90adcbb976f07115cdaa60f95931610e4c2893856278a1e5607a9cc602052604090205460ff1615611240576004356000526003602052604060002090600982016110b7815460243510611d79565b6024356000526008830160205260406000209160ff60038401541660058110156104e2576002036112085780156111fe576110f760035b60038501611cf7565b80156111f757425b60068401556007830180546001600160a01b0319163317905561114e575b60ff60038301541661113260405180926118d0565b60243590600080516020611f73833981519152602060043592a3005b5460019060005b8181106111b3575b50509060ff92600392611172575b509061111d565b820160028419825416179055604051600281527f8fb6fda973f304b2834c4147004045448416c05b253872373ac5b19f4a5b7a5d602060043592a28361116b565b806000526008850160205260ff6003604060002001541660058110156104e2576003036111e8576111e390611bca565b611155565b5060009150839050600361115d565b60006110ff565b6110f760046110ee565b60405162461bcd60e51b815260206004820152601060248201526f4e6f7420756e6465722072657669657760801b6044820152606490fd5b60405162461bcd60e51b815260206004820152600c60248201526b2737ba103932bb34b2bbb2b960a11b6044820152606490fd5b34610233576000366003190112610233576001546040516001600160a01b039091168152602090f35b346102335760003660031901126102335760206040517fc10c77be35aff266144ed64c26a1fa104bae2f284ae99ac4a34203454704a1858152f35b34610233576040366003190112610233576112f161185c565b336001600160a01b0382160361130d576102959060043561199f565b60405163334bd91960e11b8152600490fd5b346102335761132d36611872565b816000526003916020838152600a60406000200133600052815260ff9361135a8560406000205416611d0f565b826000528082526008604060002061137760098201548710611d79565b0194846000528583526040600020918083019283549280841690600591828110156104e2576113a69015611db9565b600460009301998a54935b8481106113df578a8a600080516020611f738339815191528b8b60018c60ff191617905560405160018152a3005b6113e9818d611bd9565b905490871b1c6000528189528286604060002001541690848210156104e25761053b876114169314611df6565b6113b1565b346102335760403660031901126102335761029560043561143a61185c565b908060005260006020526114556001604060002001546118dd565b611921565b346102335760003660031901126102335760206040517fa88d484f5aeb539ab60f9bd084e23511bc356a4f715a255e909643bb69ddcb418152f35b346102335760203660031901126102335760043560005260006020526020600160406000200154604051908152f35b346102335760603660031901126102335760443560248035906004359067ffffffffffffffff90818511610233573660238601121561023357846004013591821161023357368183870101116102335782600052600394602092868452600a60406000200133600052845261154060ff60406000205416611d0f565b846000528684526008604060002061155d60098201548910611d79565b0196866000528785526040600020938185019460ff8654169960058b10156117325761158c6001809c14611db9565b84156116ee57600090600483018054925b83811061169b5750505050600501936115c0846115ba8754611c5f565b87611cb0565b600090601f851160011461162157998493928492600080516020611f738339815191529a9b9c600096611614575b5050501b92600019911b1c19161790555b600260ff1982541617905560405160028152a3005b01013593508b80806115ee565b9099939291601f1984169a86600052886000209360005b8d8110611684575085600080516020611f738339815191529b9c9d10611668575b5050505050811b0190556115ff565b60f886600019921b161c19920101351690558880808080611659565b848301840135865594870194918a01918a01611638565b6116a58183611bd9565b905490881b1c600052828b5260ff87604060002001541660058110156116d9579061053b886116d49314611df6565b61159d565b86634e487b7160e01b60005260216004526000fd5b60405162461bcd60e51b8152600481018990526017818501527f496e76616c69642064656c6976657261626c65205552490000000000000000006044820152606490fd5b82634e487b7160e01b60005260216004526000fd5b34610233576000366003190112610233576002546040516001600160a01b039091168152602090f35b34610233576020366003190112610233576004356000526003602052610100604060002080549060018060a01b0360018201541690600281015460ff6003830154166117e6600484015491600585015493600960068701549601549660405198895260208901526040880152606087019061184f565b608085015260a084015260c083015260e0820152f35b34610233576020366003190112610233576004359063ffffffff60e01b821680920361023357602091637965db0b60e01b811490811561183e575b5015158152f35b6301ffc9a760e01b14905083611837565b9060048210156104e25752565b602435906001600160a01b038216820361023357565b6040906003190112610233576004359060243590565b60005b83811061189b5750506000910152565b818101518382015260200161188b565b906020916118c481518092818552858086019101611888565b601f01601f1916010190565b9060058210156104e25752565b80600052600060205260406000203360005260205260ff60406000205416156119035750565b6044906040519063e2517d3f60e01b82523360048301526024820152fd5b9060009180835282602052604083209160018060a01b03169182845260205260ff6040842054161560001461199a57808352826020526040832082845260205260408320600160ff198254161790557f2f8788117e7eff1d82e926ec794901d17c78024a50270940304540a733656f0d339380a4600190565b505090565b9060009180835282602052604083209160018060a01b03169182845260205260ff60408420541660001461199a5780835282602052604083208284526020526040832060ff1981541690557ff6391f5c32d9c69d2a47ea670b442974b53935d1edc7fd64eb21e047a839171b339380a4600190565b610100810190811067ffffffffffffffff821117610ece57604052565b6080810190811067ffffffffffffffff821117610ece57604052565b6020810190811067ffffffffffffffff821117610ece57604052565b6040810190811067ffffffffffffffff821117610ece57604052565b90601f8019910116810190811067ffffffffffffffff821117610ece57604052565b51906001600160a01b038216820361023357565b5190811515820361023357565b91906101208382031261023357825192611ae460208201611aa7565b92604082015192606083015167ffffffffffffffff908181116102335784019082601f83011215610233578151908111610ece5760405192611b30601f8301601f191660200185611a85565b8184526020828401011161023357611b4e9160208085019101611888565b91611b5b60808201611abb565b91611b6860a08301611aa7565b9160c081015191611b88610100611b8160e08501611abb565b9301611aa7565b90565b15611b9257565b60405162461bcd60e51b815260206004820152601060248201526f2737ba103837b9ba1031b932b0ba37b960811b6044820152606490fd5b6000198114610fee5760010190565b8054821015611bf15760005260206000200190600090565b634e487b7160e01b600052603260045260246000fd5b8054600160401b811015610ece57611c2491600182018155611bd9565b819291549060031b9160018060a01b03809116831b921b1916179055565b805115611bf15760200190565b805160011015611bf15760400190565b90600182811c92168015611c8f575b6020831014611c7957565b634e487b7160e01b600052602260045260246000fd5b91607f1691611c6e565b818110611ca4575050565b60008155600101611c99565b9190601f8111611cbf57505050565b611ceb926000526020600020906020601f840160051c83019310611ced575b601f0160051c0190611c99565b565b9091508190611cde565b9060058110156104e25760ff80198354169116179055565b15611d1657565b60405162461bcd60e51b815260206004820152600f60248201526e2737ba103a32b0b69036b2b6b132b960891b6044820152606490fd5b60405190611d5a82611a69565b601082526f4d494c4553544f4e455f55504441544560801b6020830152565b15611d8057565b60405162461bcd60e51b8152602060048201526011602482015270496e76616c6964206d696c6573746f6e6560781b6044820152606490fd5b15611dc057565b60405162461bcd60e51b815260206004820152600e60248201526d496e76616c69642073746174757360901b6044820152606490fd5b15611dfd57565b60405162461bcd60e51b815260206004820152601a60248201527f446570656e64656e63696573206e6f7420636f6d706c657465640000000000006044820152606490fd5b60405190611e4f82611a14565b600060e0836060815282602082015282604082015282606082015260606080820152606060a08201528260c08201520152565b9060405191826000825492611e9684611c5f565b908184526001948581169081600014611f035750600114611ec0575b5050611ceb92500383611a85565b9093915060005260209081600020936000915b818310611eeb575050611ceb93508201013880611eb2565b85548884018501529485019487945091830191611ed3565b915050611ceb94506020925060ff191682840152151560051b8201013880611eb2565b60405190611f3382611a31565b606080836000815260006020820152600060408201520152565b60405190611f5a82611a31565b6000606083828152816020820152826040820152015256febec752a593d8ddbe45792918310a70eaa90968426e352c981df882c16b81124ca164736f6c6343000814000a",
  "linkReferences": {},
  "deployedLinkReferences": {}
}