{
  "_format": "hh-sol-artifact-1",
  "contractName": "TribeController",
  "sourceName": "contracts/TribeController.sol",
  "abi": [
    {
      "inputs": [
        {
          "internalType": "address",
          "name": "_roleManager",
          "type": "address"
        }
      ],
      "stateMutability": "nonpayable",
      "type": "constructor"
    },
    {
      "inputs": [],
      "name": "InvalidInitialization",
      "type": "error"
    },
    {
      "inputs": [],
      "name": "NotInitializing",
      "type": "error"
    },
    {
      "anonymous": false,
      "inputs": [
        {
          "indexed": false,
          "internalType": "uint64",
          "name": "version",
          "type": "uint64"
        }
      ],
      "name": "Initialized",
      "type": "event"
    },
    {
      "anonymous": false,
      "inputs": [
        {
          "indexed": true,
          "internalType": "uint256",
          "name": "tribeId",
          "type": "uint256"
        },
        {
          "indexed": true,
          "internalType": "bytes32",
          "name": "codeHash",
          "type": "bytes32"
        },
        {
          "indexed": false,
          "internalType": "uint256",
          "name": "maxUses",
          "type": "uint256"
        },
        {
          "indexed": false,
          "internalType": "uint256",
          "name": "expiryTime",
          "type": "uint256"
        }
      ],
      "name": "InviteCodeCreated",
      "type": "event"
    },
    {
      "anonymous": false,
      "inputs": [
        {
          "indexed": true,
          "internalType": "uint256",
          "name": "tribeId",
          "type": "uint256"
        },
        {
          "indexed": true,
          "internalType": "bytes32",
          "name": "codeHash",
          "type": "bytes32"
        }
      ],
      "name": "InviteCodeRevoked",
      "type": "event"
    },
    {
      "anonymous": false,
      "inputs": [
        {
          "indexed": true,
          "internalType": "uint256",
          "name": "tribeId",
          "type": "uint256"
        },
        {
          "indexed": true,
          "internalType": "address",
          "name": "member",
          "type": "address"
        }
      ],
      "name": "MemberJoined",
      "type": "event"
    },
    {
      "anonymous": false,
      "inputs": [
        {
          "indexed": true,
          "internalType": "uint256",
          "name": "tribeId",
          "type": "uint256"
        },
        {
          "indexed": true,
          "internalType": "address",
          "name": "member",
          "type": "address"
        },
        {
          "indexed": false,
          "internalType": "enum ITribeController.MemberStatus",
          "name": "status",
          "type": "uint8"
        }
      ],
      "name": "MembershipUpdated",
      "type": "event"
    },
    {
      "anonymous": false,
      "inputs": [
        {
          "indexed": true,
          "internalType": "uint256",
          "name": "requestId",
          "type": "uint256"
        }
      ],
      "name": "MergeApproved",
      "type": "event"
    },
    {
      "anonymous": false,
      "inputs": [
        {
          "indexed": true,
          "internalType": "uint256",
          "name": "requestId",
          "type": "uint256"
        }
      ],
      "name": "MergeCancelled",
      "type": "event"
    },
    {
      "anonymous": false,
      "inputs": [
        {
          "indexed": true,
          "internalType": "uint256",
          "name": "requestId",
          "type": "uint256"
        },
        {
          "indexed": true,
          "internalType": "uint256",
          "name": "sourceTribeId",
          "type": "uint256"
        },
        {
          "indexed": true,
          "internalType": "uint256",
          "name": "targetTribeId",
          "type": "uint256"
        }
      ],
      "name": "MergeExecuted",
      "type": "event"
    },
    {
      "anonymous": false,
      "inputs": [
        {
          "indexed": true,
          "internalType": "uint256",
          "name": "requestId",
          "type": "uint256"
        },
        {
          "indexed": true,
          "internalType": "uint256",
          "name": "sourceTribeId",
          "type": "uint256"
        },
        {
          "indexed": true,
          "internalType": "uint256",
          "name": "targetTribeId",
          "type": "uint256"
        }
      ],
      "name": "MergeRequested",
      "type": "event"
    },
    {
      "anonymous": false,
      "inputs": [
        {
          "indexed": true,
          "internalType": "uint256",
          "name": "tribeId",
          "type": "uint256"
        },
        {
          "indexed": false,
          "internalType": "enum ITribeController.JoinType",
          "name": "joinType",
          "type": "uint8"
        },
        {
          "indexed": false,
          "internalType": "uint256",
          "name": "entryFee",
          "type": "uint256"
        }
      ],
      "name": "TribeConfigUpdated",
      "type": "event"
    },
    {
      "anonymous": false,
      "inputs": [
        {
          "indexed": true,
          "internalType": "uint256",
          "name": "tribeId",
          "type": "uint256"
        },
        {
          "indexed": true,
          "internalType": "address",
          "name": "creator",
          "type": "address"
        },
        {
          "indexed": false,
          "internalType": "string",
          "name": "tribeName",
          "type": "string"
        },
        {
          "indexed": false,
          "internalType": "enum ITribeController.JoinType",
          "name": "joinType",
          "type": "uint8"
        }
      ],
      "name": "TribeCreated",
      "type": "event"
    },
    {
      "inputs": [
        {
          "internalType": "uint256",
          "name": "tribeId",
          "type": "uint256"
        },
        {
          "internalType": "address",
          "name": "member",
          "type": "address"
        }
      ],
      "name": "approveMember",
      "outputs": [],
      "stateMutability": "nonpayable",
      "type": "function"
    },
    {
      "inputs": [
        {
          "internalType": "uint256",
          "name": "mergeRequestId",
          "type": "uint256"
        }
      ],
      "name": "approveMerge",
      "outputs": [],
      "stateMutability": "nonpayable",
      "type": "function"
    },
    {
      "inputs": [
        {
          "internalType": "uint256",
          "name": "tribeId",
          "type": "uint256"
        },
        {
          "internalType": "address",
          "name": "member",
          "type": "address"
        }
      ],
      "name": "banMember",
      "outputs": [],
      "stateMutability": "nonpayable",
      "type": "function"
    },
    {
      "inputs": [
        {
          "internalType": "uint256",
          "name": "mergeRequestId",
          "type": "uint256"
        }
      ],
      "name": "cancelMerge",
      "outputs": [],
      "stateMutability": "nonpayable",
      "type": "function"
    },
    {
      "inputs": [
        {
          "internalType": "uint256",
          "name": "tribeId",
          "type": "uint256"
        },
        {
          "internalType": "string",
          "name": "code",
          "type": "string"
        },
        {
          "internalType": "uint256",
          "name": "maxUses",
          "type": "uint256"
        },
        {
          "internalType": "uint256",
          "name": "expiryTime",
          "type": "uint256"
        }
      ],
      "name": "createInviteCode",
      "outputs": [],
      "stateMutability": "nonpayable",
      "type": "function"
    },
    {
      "inputs": [
        {
          "internalType": "string",
          "name": "name",
          "type": "string"
        },
        {
          "internalType": "string",
          "name": "metadata",
          "type": "string"
        },
        {
          "internalType": "address[]",
          "name": "admins",
          "type": "address[]"
        },
        {
          "internalType": "enum ITribeController.JoinType",
          "name": "joinType",
          "type": "uint8"
        },
        {
          "internalType": "uint256",
          "name": "entryFee",
          "type": "uint256"
        },
        {
          "components": [
            {
              "internalType": "address",
              "name": "nftContract",
              "type": "address"
            },
            {
              "internalType": "enum ITribeController.NFTType",
              "name": "nftType",
              "type": "uint8"
            },
            {
              "internalType": "bool",
              "name": "isMandatory",
              "type": "bool"
            },
            {
              "internalType": "uint256",
              "name": "minAmount",
              "type": "uint256"
            },
            {
              "internalType": "uint256[]",
              "name": "tokenIds",
              "type": "uint256[]"
            }
          ],
          "internalType": "struct ITribeController.NFTRequirement[]",
          "name": "nftRequirements",
          "type": "tuple[]"
        }
      ],
      "name": "createTribe",
      "outputs": [
        {
          "internalType": "uint256",
          "name": "",
          "type": "uint256"
        }
      ],
      "stateMutability": "nonpayable",
      "type": "function"
    },
    {
      "inputs": [
        {
          "internalType": "uint256",
          "name": "mergeRequestId",
          "type": "uint256"
        }
      ],
      "name": "executeMerge",
      "outputs": [],
      "stateMutability": "nonpayable",
      "type": "function"
    },
    {
      "inputs": [
        {
          "internalType": "uint256",
          "name": "tribeId",
          "type": "uint256"
        },
        {
          "internalType": "string",
          "name": "code",
          "type": "string"
        }
      ],
      "name": "getInviteCodeStatus",
      "outputs": [
        {
          "internalType": "bool",
          "name": "valid",
          "type": "bool"
        },
        {
          "internalType": "uint256",
          "name": "remainingUses",
          "type": "uint256"
        }
      ],
      "stateMutability": "view",
      "type": "function"
    },
    {
      "inputs": [
        {
          "internalType": "uint256",
          "name": "tribeId",
          "type": "uint256"
        }
      ],
      "name": "getMemberCount",
      "outputs": [
        {
          "internalType": "uint256",
          "name": "",
          "type": "uint256"
        }
      ],
      "stateMutability": "view",
      "type": "function"
    },
    {
      "inputs": [
        {
          "internalType": "uint256",
          "name": "tribeId",
          "type": "uint256"
        },
        {
          "internalType": "address",
          "name": "member",
          "type": "address"
        }
      ],
      "name": "getMemberStatus",
      "outputs": [
        {
          "internalType": "enum ITribeController.MemberStatus",
          "name": "",
          "type": "uint8"
        }
      ],
      "stateMutability": "view",
      "type": "function"
    },
    {
      "inputs": [
        {
          "internalType": "uint256",
          "name": "requestId",
          "type": "uint256"
        }
      ],
      "name": "getMergeRequest",
      "outputs": [
        {
          "components": [
            {
              "internalType": "uint256",
              "name": "sourceTribeId",
              "type": "uint256"
            },
            {
              "internalType": "uint256",
              "name": "targetTribeId",
              "type": "uint256"
            },
            {
              "internalType": "uint256",
              "name": "requestTime",
              "type": "uint256"
            },
            {
              "internalType": "bool",
              "name": "approved",
              "type": "bool"
            }
          ],
          "internalType": "struct ITribeController.MergeRequest",
          "name": "",
          "type": "tuple"
        }
      ],
      "stateMutability": "view",
      "type": "function"
    },
    {
      "inputs": [
        {
          "internalType": "uint256",
          "name": "tribeId",
          "type": "uint256"
        }
      ],
      "name": "getTribeAdmin",
      "outputs": [
        {
          "internalType": "address",
          "name": "",
          "type": "address"
        }
      ],
      "stateMutability": "view",
      "type": "function"
    },
    {
      "inputs": [
        {
          "internalType": "uint256",
          "name": "tribeId",
          "type": "uint256"
        }
      ],
      "name": "getTribeConfigView",
      "outputs": [
        {
          "components": [
            {
              "internalType": "enum ITribeController.JoinType",
              "name": "joinType",
              "type": "uint8"
            },
            {
              "internalType": "uint256",
              "name": "entryFee",
              "type": "uint256"
            },
            {
              "components": [
                {
                  "internalType": "address",
                  "name": "nftContract",
                  "type": "address"
                },
                {
                  "internalType": "enum ITribeController.NFTType",
                  "name": "nftType",
                  "type": "uint8"
                },
                {
                  "internalType": "bool",
                  "name": "isMandatory",
                  "type": "bool"
                },
                {
                  "internalType": "uint256",
                  "name": "minAmount",
                  "type": "uint256"
                },
                {
                  "internalType": "uint256[]",
                  "name": "tokenIds",
                  "type": "uint256[]"
                }
              ],
              "internalType": "struct ITribeController.NFTRequirement[]",
              "name": "nftRequirements",
              "type": "tuple[]"
            },
            {
              "internalType": "bool",
              "name": "canMerge",
              "type": "bool"
            }
          ],
          "internalType": "struct ITribeController.TribeConfigView",
          "name": "",
          "type": "tuple"
        }
      ],
      "stateMutability": "view",
      "type": "function"
    },
    {
      "inputs": [
        {
          "internalType": "uint256",
          "name": "tribeId",
          "type": "uint256"
        }
      ],
      "name": "getTribeDetails",
      "outputs": [
        {
          "components": [
            {
              "internalType": "string",
              "name": "name",
              "type": "string"
            },
            {
              "internalType": "string",
              "name": "metadata",
              "type": "string"
            },
            {
              "internalType": "address",
              "name": "admin",
              "type": "address"
            },
            {
              "internalType": "address[]",
              "name": "whitelist",
              "type": "address[]"
            },
            {
              "internalType": "enum ITribeController.JoinType",
              "name": "joinType",
              "type": "uint8"
            },
            {
              "internalType": "uint256",
              "name": "entryFee",
              "type": "uint256"
            },
            {
              "components": [
                {
                  "internalType": "address",
                  "name": "nftContract",
                  "type": "address"
                },
                {
                  "internalType": "enum ITribeController.NFTType",
                  "name": "nftType",
                  "type": "uint8"
                },
                {
                  "internalType": "bool",
                  "name": "isMandatory",
                  "type": "bool"
                },
                {
                  "internalType": "uint256",
                  "name": "minAmount",
                  "type": "uint256"
                },
                {
                  "internalType": "uint256[]",
                  "name": "tokenIds",
                  "type": "uint256[]"
                }
              ],
              "internalType": "struct ITribeController.NFTRequirement[]",
              "name": "nftRequirements",
              "type": "tuple[]"
            },
            {
              "internalType": "uint256",
              "name": "memberCount",
              "type": "uint256"
            },
            {
              "internalType": "bool",
              "name": "canMerge",
              "type": "bool"
            },
            {
              "internalType": "bool",
              "name": "isActive",
              "type": "bool"
            },
            {
              "internalType": "bytes32[]",
              "name": "availableInviteCodes",
              "type": "bytes32[]"
            }
          ],
          "internalType": "struct TribeController.TribeDetailsView",
          "name": "",
          "type": "tuple"
        }
      ],
      "stateMutability": "view",
      "type": "function"
    },
    {
      "inputs": [
        {
          "internalType": "uint256",
          "name": "tribeId",
          "type": "uint256"
        }
      ],
      "name": "getTribeExists",
      "outputs": [
        {
          "internalType": "bool",
          "name": "",
          "type": "bool"
        }
      ],
      "stateMutability": "view",
      "type": "function"
    },
    {
      "inputs": [
        {
          "internalType": "uint256",
          "name": "tribeId",
          "type": "uint256"
        }
      ],
      "name": "getTribeWhitelist",
      "outputs": [
        {
          "internalType": "address[]",
          "name": "",
          "type": "address[]"
        }
      ],
      "stateMutability": "view",
      "type": "function"
    },
    {
      "inputs": [
        {
          "internalType": "address",
          "name": "user",
          "type": "address"
        }
      ],
      "name": "getUserTribes",
      "outputs": [
        {
          "internalType": "uint256[]",
          "name": "",
          "type": "uint256[]"
        }
      ],
      "stateMutability": "view",
      "type": "function"
    },
    {
      "inputs": [
        {
          "internalType": "uint256",
          "name": "",
          "type": "uint256"
        },
        {
          "internalType": "bytes32",
          "name": "",
          "type": "bytes32"
        }
      ],
      "name": "inviteCodes",
      "outputs": [
        {
          "internalType": "bool",
          "name": "",
          "type": "bool"
        }
      ],
      "stateMutability": "view",
      "type": "function"
    },
    {
      "inputs": [
        {
          "internalType": "uint256",
          "name": "tribeId",
          "type": "uint256"
        },
        {
          "internalType": "address",
          "name": "user",
          "type": "address"
        }
      ],
      "name": "isAddressWhitelisted",
      "outputs": [
        {
          "internalType": "bool",
          "name": "",
          "type": "bool"
        }
      ],
      "stateMutability": "view",
      "type": "function"
    },
    {
      "inputs": [
        {
          "internalType": "uint256",
          "name": "",
          "type": "uint256"
        },
        {
          "internalType": "address",
          "name": "",
          "type": "address"
        }
      ],
      "name": "isMember",
      "outputs": [
        {
          "internalType": "bool",
          "name": "",
          "type": "bool"
        }
      ],
      "stateMutability": "view",
      "type": "function"
    },
    {
      "inputs": [
        {
          "internalType": "uint256",
          "name": "tribeId",
          "type": "uint256"
        }
      ],
      "name": "joinTribe",
      "outputs": [],
      "stateMutability": "nonpayable",
      "type": "function"
    },
    {
      "inputs": [
        {
          "internalType": "uint256",
          "name": "tribeId",
          "type": "uint256"
        },
        {
          "internalType": "bytes32",
          "name": "inviteCode",
          "type": "bytes32"
        }
      ],
      "name": "joinTribeWithCode",
      "outputs": [],
      "stateMutability": "nonpayable",
      "type": "function"
    },
    {
      "inputs": [],
      "name": "nextMergeRequestId",
      "outputs": [
        {
          "internalType": "uint256",
          "name": "",
          "type": "uint256"
        }
      ],
      "stateMutability": "view",
      "type": "function"
    },
    {
      "inputs": [],
      "name": "nextTribeId",
      "outputs": [
        {
          "internalType": "uint256",
          "name": "",
          "type": "uint256"
        }
      ],
      "stateMutability": "view",
      "type": "function"
    },
    {
      "inputs": [
        {
          "internalType": "uint256",
          "name": "tribeId",
          "type": "uint256"
        },
        {
          "internalType": "address",
          "name": "member",
          "type": "address"
        }
      ],
      "name": "rejectMember",
      "outputs": [],
      "stateMutability": "nonpayable",
      "type": "function"
    },
    {
      "inputs": [
        {
          "internalType": "uint256",
          "name": "sourceTribeId",
          "type": "uint256"
        },
        {
          "internalType": "uint256",
          "name": "targetTribeId",
          "type": "uint256"
        }
      ],
      "name": "requestMerge",
      "outputs": [],
      "stateMutability": "nonpayable",
      "type": "function"
    },
    {
      "inputs": [
        {
          "internalType": "uint256",
          "name": "tribeId",
          "type": "uint256"
        }
      ],
      "name": "requestToJoinTribe",
      "outputs": [],
      "stateMutability": "payable",
      "type": "function"
    },
    {
      "inputs": [
        {
          "internalType": "uint256",
          "name": "tribeId",
          "type": "uint256"
        },
        {
          "internalType": "string",
          "name": "code",
          "type": "string"
        }
      ],
      "name": "revokeInviteCode",
      "outputs": [],
      "stateMutability": "nonpayable",
      "type": "function"
    },
    {
      "inputs": [],
      "name": "roleManager",
      "outputs": [
        {
          "internalType": "contract IRoleManager",
          "name": "",
          "type": "address"
        }
      ],
      "stateMutability": "view",
      "type": "function"
    },
    {
      "inputs": [
        {
          "internalType": "uint256",
          "name": "tribeId",
          "type": "uint256"
        },
        {
          "internalType": "string",
          "name": "newMetadata",
          "type": "string"
        },
        {
          "internalType": "address[]",
          "name": "updatedWhitelist",
          "type": "address[]"
        }
      ],
      "name": "updateTribe",
      "outputs": [],
      "stateMutability": "nonpayable",
      "type": "function"
    },
    {
      "inputs": [
        {
          "internalType": "uint256",
          "name": "tribeId",
          "type": "uint256"
        },
        {
          "internalType": "enum ITribeController.JoinType",
          "name": "joinType",
          "type": "uint8"
        },
        {
          "internalType": "uint256",
          "name": "entryFee",
          "type": "uint256"
        },
        {
          "components": [
            {
              "internalType": "address",
              "name": "nftContract",
              "type": "address"
            },
            {
              "internalType": "enum ITribeController.NFTType",
              "name": "nftType",
              "type": "uint8"
            },
            {
              "internalType": "bool",
              "name": "isMandatory",
              "type": "bool"
            },
            {
              "internalType": "uint256",
              "name": "minAmount",
              "type": "uint256"
            },
            {
              "internalType": "uint256[]",
              "name": "tokenIds",
              "type": "uint256[]"
            }
          ],
          "internalType": "struct ITribeController.NFTRequirement[]",
          "name": "nftRequirements",
          "type": "tuple[]"
        }
      ],
      "name": "updateTribeConfig",
      "outputs": [],
      "stateMutability": "nonpayable",
      "type": "function"
    }
  ],
  "bytecode": "0x6080346200008257601f6200386138819003918201601f19168301916001600160401b0383118484101762000087578084926020946040528339810103126200008257516001600160a01b038116908190036200008257600880546001600160a01b03191691909117905560008080556001556040516137c390816200009e8239f35b600080fd5b634e487b7160e01b600052604160045260246000fdfe608080604052600436101561001357600080fd5b60003560e01c908162435da5146127f25750806319069924146126cf578063229cc2131461254057806326e98b8b146124ec5780632a29182a146121c5578063321f18c01461202757806339d0971914611fdc5780633fa0176514611d855780634218e730146118e05780634ce0ed3d146118a95780635ce9284f1461187d57806373a878f61461185f5780637a62e3f0146115df5780637d9e10f51461159257806380cabdc31461141b5780638d472b16146113fd5780638e271fa7146111a65780639913496f14610fae578063a733b40714610e3f578063ac3f83db14610df8578063b612098214610ce1578063bebc2cbd14610a49578063c569022f14610916578063c7128b12146108ef578063cb15eb481461067f578063d1af032c1461064f578063e8ae7f5e146104ef578063ef0a10ec146103f6578063f01e90e4146103be578063f3be383c146103235763f6549a9d1461017357600080fd5b3461031e57604036600319011261031e5760043561018f612816565b908060005260206002815260018060a01b03806002604060002001541633148015610291575b6101be90612dc2565b8260005260038252604060002093169283600052815260ff60406000205416600481101561027b5760026101f29114612f4d565b81600052600381526040600020836000528152604060002060ff19815416905581600052600281526005604060002001548381158015610249575b50836000805160206137978339815191528460405160008152a3005b60008093819382938390610272575bf1156102665738838161022d565b6040513d6000823e3d90fd5b506108fc610258565b634e487b7160e01b600052602160045260246000fd5b506102d38282600854166102a3612d70565b805190830120604051632474521560e21b8152600481019190915233602482015292839190829081906044820190565b03915afa8015610266576101be916000916102f1575b5090506101b5565b6103119150843d8611610317575b6103098183612bb0565b810190612daa565b386102e9565b503d6102ff565b600080fd5b3461031e57602036600319011261031e576000606060405161034481612b7a565b828152826020820152826040820152015260043560005260046020526080604060002060405161037381612b7a565b815491828252600181015460208301908152606060ff600360028501549460408701958652015416930192151583526040519384525160208401525160408301525115156060820152f35b3461031e576103cc366129e8565b906000526007602052604060002090600052602052602060ff604060002054166040519015158152f35b3461031e57602036600319011261031e5760043580600052600460205260406000206001810154600052600260205260018060a01b036002604060002001541633036104b157600301805460ff81166104795760ff191660011790557f2dace2d4cbd91289153fc9cc70df2b62ee974efefa671e34ad899fbbdcb37752600080a2005b60405162461bcd60e51b815260206004820152601060248201526f105b1c9958591e48185c1c1c9bdd995960821b6044820152606490fd5b60405162461bcd60e51b81526020600482015260166024820152752737ba103a30b933b2ba103a3934b1329030b236b4b760511b6044820152606490fd5b3461031e57604036600319011261031e5760043561050b612816565b90806000526020916002835260018060a01b0392836002604060002001541633148015610602575b61053c90612dc2565b826000526003815260406000209382169384600052815260ff60406000205416600481101561027b576000805160206137978339815191529261058460026105f89314612f4d565b84600052600383526040600020866000528352604060002060ff1990600182825416179055856000526006845260406000208760005284526001604060002091825416179055846000526005835260406000206105e18154612a2e565b905584600052600283526003604060002001612f12565b60405160018152a3005b506106148185600854166102a3612d70565b03915afa80156102665761053c91600091610632575b509050610533565b6106499150833d8511610317576103098183612bb0565b8661062a565b3461031e57604036600319011261031e57602061067561066d612816565b6004356134ff565b6040519015158152f35b3461031e5760208060031936011261031e576004356106a16000548210612e00565b806000526006825260406000203360005282526106c660ff6040600020541615612e3f565b8060005260038252604060002033600052825260ff60406000205416600481101561027b5760036106f8911415612e7e565b8060005260028252604060002061071860ff600883015460081c16612ebb565b60ff6004820154166007811015908161027b57801580156108d0575b1561087a578161027b576003811491821561086c575b821561085b575b5050610808575b6107c59082600052600384526040600020336000528452604060002060ff1990600182825416179055836000526006855260406000203360005285526001604060002091825416179055826000526005845260406000206107b98154612a2e565b90556003339101612f12565b6000805160206137978339815191526040519233837f78da64a590c3052953ad9e0a5546bbf12bb68ae7634e3fb2a774e22a8c6557c1600080a3600184523393a3005b6108123383613092565b6107585760405162461bcd60e51b815260048101849052601860248201527f4e465420726571756972656d656e7473206e6f74206d657400000000000000006044820152606490fd5b90915061027b576005148480610751565b50600481149150600061074a565b60405162461bcd60e51b815260048101869052602860248201527f5472696265206e6f74207075626c6963206f7220726571756972657320696e7660448201526769746520636f646560c01b6064820152608490fd5b5060009150600181148015906107345750600091506006811415610734565b3461031e57604061090861090236612859565b91613608565b825191151582526020820152f35b3461031e5760208060031936011261031e57600435908160005260048152604060002060ff600382015416610a0b5780546000526002825260018060a01b03806002604060002001541633149182156109ee575b5050156109b9576004908260005252600060036040822082815582600182015582600282015501557fd41a9756aead28843b4df524be6958dda467c88e19f9881ca2d775662ed50ce2600080a2005b6064906040519062461bcd60e51b82526004820152600e60248201526d139bdd08185d5d1a1bdc9a5e995960921b6044820152fd5b60019192500154600052600260406000200154163314838061096a565b60405162461bcd60e51b815260048101839052601660248201527513595c99d948185b1c9958591e48185c1c1c9bdd995960521b6044820152606490fd5b3461031e57606036600319011261031e576004356001600160401b0360243581811161031e57610a7d90369060040161282c565b909160443581811161031e57610a979036906004016129fe565b9190856000526020946002865260018060a01b038681600260406000200154163314918215610c93575b5050610acc90612dc2565b86600052600286526001948560406000200191848211610bd4578190610af28454612a3d565b601f8111610c58575b50600090601f8311600114610bf557600092610bea575b5050600019600383901b1c191690861b1790555b85600052600285526003604060002001918311610bd457600160401b8311610bd457610b5783835481855584612a8e565b906000528360002060005b838110610bbb57867f167d2ad855848d6eb73e79a85988d8d84831e2b40fb6d945aef441502283d68360408883600052600281528160002090600560ff60048401541692015490610bb584518094612909565b820152a2005b849086610bc785612ab3565b9401938184015501610b62565b634e487b7160e01b600052604160045260246000fd5b013590508980610b12565b889350601f19831691856000528a6000209260005b8c828210610c425750508411610c28575b505050811b019055610b26565b0135600019600384901b60f8161c19169055898080610c1b565b8385013586558c97909501949283019201610c0a565b610c8390856000528a600020601f850160051c8101918c8610610c89575b601f0160051c0190612a77565b8a610afb565b9091508190610c76565b610ca49250600854166102a3612d70565b03915afa801561026657610acc91600091610cc4575b5090508689610ac1565b610cdb9150883d8a11610317576103098183612bb0565b89610cba565b3461031e5760208060031936011261031e5760006060604051610d0381612b7a565b828152828482015281604082015201526004356000526002815260406000209060068201918254610d3381613557565b9360005b828110610dc157505050610db460ff6004830154169360ff600860058501549401541692610d7160405196610d6b88612b7a565b876135ca565b84860190815260408601918252606086019315158452610d9c60405196868897885287019051612909565b516040850152516080606085015260a0840190612916565b9051151560808301520390f35b80610dd8610dd2610df39385612c42565b50612fda565b610de2828961307e565b52610ded818861307e565b50612a2e565b610d37565b3461031e57602036600319011261031e576004356000526002602052610e3b610e2760036040600020016134a7565b6040519182916020835260208301906128cc565b0390f35b3461031e57604036600319011261031e57600435610e5b612816565b908060005260206002815260018060a01b03806002604060002001541633148015610f61575b610e8a90612dc2565b8260005260038252604060002093169283600052815260ff60406000205416600481101561027b57600103610f2957816000526003815260406000208360005281526040600020600360ff1982541617905581600052600581526040600020908154918215610f13576000805160206137978339815191529260001901905560405160038152a3005b634e487b7160e01b600052601160045260246000fd5b6064906040519062461bcd60e51b8252600482015260116024820152704d656d626572206e6f742061637469766560781b6044820152fd5b50610f738282600854166102a3612d70565b03915afa801561026657610e8a91600091610f91575b509050610e81565b610fa89150843d8611610317576103098183612bb0565b86610f89565b3461031e57604036600319011261031e57600435602435908060005260206002815260018060a01b038181600260406000200154163314918215611158575b5050610ff890612dc2565b816000526002815260ff60086040600020015460081c168061113f575b1561110357816000526002815260ff60086040600020015416156110bf576001549061104082612a2e565b600155600360405161105181612b7a565b848152828101868152604082019042825260046060840195600087528760005252604060002092518355516001830155516002820155019051151560ff801983541691161790557f64c84de789f839375b76fe02aab24a62e5366dbd7e9beb091324d29634631b99600080a4005b6064906040519062461bcd60e51b82526004820152601d60248201527f536f757263652074726962652063616e6e6f74206265206d65726765640000006044820152fd5b6064906040519062461bcd60e51b825260048201526015602482015274547269626573206d7573742062652061637469766560581b6044820152fd5b508260005260ff60086040600020015460081c16611015565b6111699250600854166102a3612d70565b03915afa801561026657610ff891600091611189575b5090508185610fed565b6111a09150833d8511610317576103098183612bb0565b8561117f565b3461031e5760808060031936011261031e576004359060243590600782101561031e57604435906064356001600160401b03811161031e576111ec9036906004016129fe565b600086815260026020818152604090922081015491946001600160a01b0393928416331480156113b0575b61122090612dc2565b886000528186526006604060002061123b8a60048301612ac7565b886005820155019081546000835580611347575b5060005b84811061128d578a7f167d2ad855848d6eb73e79a85988d8d84831e2b40fb6d945aef441502283d68360408c8c8c610bb584518094612909565b6112a061129b82878a612adf565b612ab3565b90886112ad82888b612adf565b01358581101561031e5761134292611333898c8c8b61133d966113226112df60406112d98c8688612adf565b01612b01565b916113088d6112ff8d606097886112f783838d612adf565b013599612adf565b90810190612b0e565b9690976040519a6113188c612b5f565b168a528901612bd1565b151560408701528501523691612bf4565b8582015285612c5e565b612a2e565b611253565b6003908082029082820403610f13578360005288600020908101905b81811061137157505061124f565b8060008492556000600182015586810180546000825580611395575b505001611363565b6113a9916000528c60002090810190612a77565b8e8061138d565b506113c28685600854166102a3612d70565b03915afa801561026657611220916000916113e0575b509050611217565b6113f79150883d8a11610317576103098183612bb0565b8b6113d8565b3461031e57600036600319011261031e576020600154604051908152f35b60208060031936011261031e576004358060005260028252604060002061144b60ff600883015460081c16612ebb565b60ff600482015416600781101561027b571561154d578160005260038352604060002033600052835260ff60406000205416600481101561027b576003611493911415612e7e565b8160005260038352604060002033600052835260ff6040600020541690600482101561027b576114c860016005931415612e3f565b0154341061150f57806000526003825260406000203360005282526040600020600260ff1982541617905560008051602061379783398151915260405192600284523393a3005b60405162461bcd60e51b8152600481018390526016602482015275496e73756666696369656e7420656e7472792066656560501b6044820152606490fd5b60405162461bcd60e51b815260048101849052601f60248201527f557365206a6f696e547269626520666f72207075626c696320747269626573006044820152606490fd5b3461031e57604036600319011261031e576115ab612816565b600435600052600660205260406000209060018060a01b0316600052602052602060ff604060002054166040519015158152f35b3461031e57608036600319011261031e576004356024356001600160401b03811161031e5761161290369060040161282c565b6000838152600260208181526040909220810154909493604435936064359392336001600160a01b03918216149084908215611811575b505061165490612dc2565b8560005286835260ff60046040600020015416600781101561027b57600661167c9114612f8e565b84156117d957831580156117d0575b15611795576116b3836040518381948383019687378101600083820152038084520182612bb0565b5190209484600052808252600760406000200186600052825260406000205461175a57917fb7cc141846290dbf61ab4e7e4d3f3f8e02227854b751b84c82d9e4e9c5460a329391604093600385519161170b83612b7a565b898352838301908682528784016000815260608501928784528b60005282875260078a600020018d600052875289600020955186555160018601555190840155519101558351928352820152a3005b60405162461bcd60e51b8152600481018390526013602482015272436f646520616c72656164792065786973747360681b6044820152606490fd5b60405162461bcd60e51b8152600481018490526013602482015272496e76616c6964206578706972792074696d6560681b6044820152606490fd5b5042841161168b565b60405162461bcd60e51b815260048101849052601060248201526f496e76616c6964206d6178207573657360801b6044820152606490fd5b6118229250600854166102a3612d70565b03915afa80156102665761165491600091611842575b5090508389611649565b6118599150853d8711610317576103098183612bb0565b89611838565b3461031e57600036600319011261031e576020600054604051908152f35b3461031e57602036600319011261031e5760043560005260056020526020604060002054604051908152f35b3461031e57602036600319011261031e576004356000526002602052602060018060a01b0360026040600020015416604051908152f35b3461031e5760c036600319011261031e576004356001600160401b03811161031e5761191090369060040161282c565b6024356001600160401b03811161031e5761192f90369060040161282c565b6044929192356001600160401b03811161031e576119519036906004016129fe565b906007606435101561031e5760a4356001600160401b03811161031e5761197c9036906004016129fe565b9290916000549661198c88612a2e565b6000558760005260026020526040600020956001600160401b038811610bd4576119b68754612a3d565b601f8111611d53575b50876000601f8211600114611cec57600091611ce1575b508860011b906000198a60031b1c19161787555b6001600160401b038111610bd457806001880192611a088454612a3d565b601f8111611caf575b50600090601f8311600114611c4757600092611c3c575b50508160011b916000199060031b1c19161790555b6002850180546001600160a01b031916331790556001600160401b038211610bd457600160401b8211610bd4576003850190611a7e83835481855584612a8e565b90600052602060002060005b838110611c215750505050611aa460643560048501612ac7565b608435600584015560005b828110611b68575050507f9c2ca0c0571b1af33856f34ddcaf898eb01ef8ce8f429c1dc323b30e3114a651602094600885930161010161ffff19825416179055826000526003865260406000203360005286526040600020600160ff19825416179055826000526005865260016040600020558360405191604083528160408401526060830137600060608583010152611b4d868201606435612909565b3393601f01601f1916810181900360600190a3604051908152f35b611b7661129b828585612adf565b906020611b84828686612adf565b0135600281101561031e57611c1c9261133d91611c0f611baa60406112d9878b8b612adf565b91611bfe606080611bbc898d8d612adf565b013590611bca898d8d612adf565b95611bda60809788810190612b0e565b94909560405199611bea8b612b5f565b6001600160a01b03168a5260208a01612bd1565b151560408801528601523691612bf4565b9082015260068701612c5e565b611aaf565b6001906020611c2f85612ab3565b9401938184015501611a8a565b013590508b80611a28565b600085815260208120909450915b601f1984168510611c97576001945083601f19811610611c7d575b505050811b019055611a3d565b0135600019600384901b60f8161c191690558b8080611c70565b81810135835560209485019460019093019201611c55565b611cdb90856000526020600020601f850160051c81019160208610610c8957601f0160051c0190612a77565b8c611a11565b90508a01358b6119d6565b60008981526020812092505b8c601f198c168210611d3b57505089601f19811610611d21575b5050600188811b0187556119ea565b8b013560001960038b901b60f8161c191690558a80611d12565b60018394602093948493013581550193019101611cf8565b611d7f90886000526020600020601f8b0160051c81019160208c10610c8957601f0160051c0190612a77565b8a6119bf565b3461031e57611d93366129e8565b90611da16000548210612e00565b80600052602091600683526040600020336000528352611dc960ff6040600020541615612e3f565b8160005260038352604060002033600052835260ff60406000205416600481101561027b576003611dfb911415612e7e565b81600052600283526040600020611e1b60ff600883015460081c16612ebb565b60ff60048201541690600782101561027b57611e3b600660079314612f8e565b82600052018352604060002090815403611fa157600381015480611f5a575b5060026001820154910190815480911115611f1c57611e7890612a2e565b905580600052600382526040600020336000528252604060002060ff199060018282541617905581600052600683526040600020336000528352600160406000209182541617905580600052600582526040600020611ed78154612a2e565b90556000805160206137978339815191526040519233837f78da64a590c3052953ad9e0a5546bbf12bb68ae7634e3fb2a774e22a8c6557c1600080a3600184523393a3005b60405162461bcd60e51b8152600481018590526016602482015275125b9d9a5d194818dbd91948199d5b1b1e481d5cd95960521b6044820152606490fd5b4211611f665783611e5a565b60405162461bcd60e51b8152600481018490526013602482015272125b9d9a5d194818dbd91948195e1c1a5c9959606a1b6044820152606490fd5b60405162461bcd60e51b8152600481018490526013602482015272496e76616c696420696e7669746520636f646560681b6044820152606490fd5b3461031e57602036600319011261031e57600435600054811080612008575b6020906040519015158152f35b506000526002602052602060ff60086040600020015460081c16611ffb565b3461031e5760208060031936011261031e57600435806000526004825260406000209060ff9260038481850154161561218b578354936001918280920154966000925b6120d9575b50505050826000526005815260406000205490846000526040600020918254908101809111610f1357600292558360005252600860406000200161ff001981541690557fff3b9367aa394fb616945c065d9becd867f35f2916b90ae4920283e940f64035600080a4005b866000526002855281604060002001805484101561218557836120fb91612efa565b60018060a01b03915490841b1c1692876000528286526040600020846000528652816040600020541690600482101561027b5785948561214093146121465750612a2e565b9261206a565b8a600052848852604060002081600052885260406000208660ff198254161790558a60008051602061379783398151915289604051898152a38a610ded565b5061206f565b60405162461bcd60e51b815260048101839052601260248201527113595c99d9481b9bdd08185c1c1c9bdd995960721b6044820152606490fd5b3461031e57602036600319011261031e5760606101406040516121e781612b43565b82815282602082015260006040820152828082015260006080820152600060a08201528260c0820152600060e082015260006101008201526000610120820152015261223860005460043510612e00565b600435600052600260205260406000206006810190815461225881613557565b9260005b8281106124c157505050604051602081018181106001600160401b03821117610bd457604052600081529060ff600482015416600781101561027b5760068114612454575b9060ff9160018060a01b03600283015416946005830154600435600052600560205261231b6040600020549361230d60036008880154976040519b6122e58d612b43565b6122ee826136f2565b8d528c60206122ff600185016136f2565b91015260408d0152016134a7565b60608a0152608089016135ca565b60a087015260c086015260e0850152818116151561010085015260081c1615156101208301526101408201526040518091602082526101406123e76123b561238a6123748551610160602089015261018088019061288c565b6020860151878203601f1901604089015261288c565b60408501516001600160a01b0316606087810191909152850151868203601f190160808801526128cc565b6123c7608085015160a0870190612909565b60a084015160c086015260c0840151601f198683030160e0870152612916565b9160e08101516101008501526101008101511515610120850152610120810151151582850152015190601f19838203016101608401526020808351928381520192019060005b81811061243b575050500390f35b825184528594506020938401939092019160010161242d565b60405192509061246383612b95565b60018352602083019160203684378360405160208101906a53414d504c455f434f444560a81b8252600b815261249881612b95565b5190209051156124ab57909252906122a1565b634e487b7160e01b600052603260045260246000fd5b806124d2610dd26124e79385612c42565b6124dc828861307e565b52610ded818761307e565b61225c565b3461031e57604036600319011261031e57612505612816565b600435600052600360205260406000209060018060a01b031660005260205260ff60406000205416604051600482101561027b576020918152f35b3461031e5761254e36612859565b91908160005260029060209382855260018060a01b0385818560406000200154163314918215612681575b505061258490612dc2565b8360005282855260ff60046040600020015416600781101561027b5760066125ac9114612f8e565b6125cf856040518381948383019687378101600083820152038084520182612bb0565b5190209282600052818152600760406000200184600052815283604060002054036126475760009160039184845281815260076040852001908685525282604081209181835581600184015582015501557f8bcf42fdfa71a916c751e9d55d6b6a4f9b9d34e4cb04d5e04434d06c939dccab600080a3005b6064906040519062461bcd60e51b82526004820152601360248201527210dbd91948191bd95cc81b9bdd08195e1a5cdd606a1b6044820152fd5b6126929250600854166102a3612d70565b03915afa801561026657612584916000916126b2575b5090508587612579565b6126c99150873d8911610317576103098183612bb0565b876126a8565b3461031e5760208060031936011261031e576004356001600160a01b038116919082900361031e57600091600054612706816135d6565b9160005b8281106127965750505061271d836135d6565b9260005b81811061276d575050506040519181839283018184528251809152816040850193019160005b82811061275657505050500390f35b835185528695509381019392810192600101612747565b8061277d61278e9285979561307e565b51612788828661307e565b52612a2e565b939193612721565b8060009694965260038552604060002082600052855260ff60406000205416600481101561027b576001146127d7575b6127cf90612a2e565b94929461270a565b926127ea81856127886127cf948a61307e565b9390506127c6565b3461031e57600036600319011261031e576008546001600160a01b03168152602090f35b602435906001600160a01b038216820361031e57565b9181601f8401121561031e578235916001600160401b03831161031e576020838186019501011161031e57565b90604060031983011261031e5760043591602435906001600160401b03821161031e576128889160040161282c565b9091565b919082519283825260005b8481106128b8575050826000602080949584010152601f8019910116010190565b602081830181015184830182015201612897565b90815180825260208080930193019160005b8281106128ec575050505090565b83516001600160a01b0316855293810193928101926001016128de565b90600782101561027b5752565b908082519081815260208091019281808460051b8301019501936000915b8483106129445750505050505090565b909192939495601f1982820301835286519060a08082019160018060a01b0384511681528784015190600282101561027b57808995949386938460c094015260408087015115159083015260608087015190830152608080960151958201528451809452019201906000905b8082106129cf5750505090806001929801930193019194939290612934565b91938060019294865181520194019201879392916129b0565b604090600319011261031e576004359060243590565b9181601f8401121561031e578235916001600160401b03831161031e576020808501948460051b01011161031e57565b6000198114610f135760010190565b90600182811c92168015612a6d575b6020831014612a5757565b634e487b7160e01b600052602260045260246000fd5b91607f1691612a4c565b818110612a82575050565b60008155600101612a77565b91818110612a9b57505050565b612ab19260005260206000209182019101612a77565b565b356001600160a01b038116810361031e5790565b90600781101561027b5760ff80198354169116179055565b91908110156124ab5760051b81013590609e198136030182121561031e570190565b35801515810361031e5790565b903590601e198136030182121561031e57018035906001600160401b03821161031e57602001918160051b3603831361031e57565b61016081019081106001600160401b03821117610bd457604052565b60a081019081106001600160401b03821117610bd457604052565b608081019081106001600160401b03821117610bd457604052565b604081019081106001600160401b03821117610bd457604052565b90601f801991011681019081106001600160401b03821117610bd457604052565b600282101561027b5752565b6001600160401b038111610bd45760051b60200190565b9291612bff82612bdd565b91612c0d6040519384612bb0565b829481845260208094019160051b810192831161031e57905b828210612c335750505050565b81358152908301908301612c26565b80548210156124ab576000526003602060002091020190600090565b90815490600160401b9182811015610bd457612c81906001948582018155612c42565b612d5a5760018060a01b038251168154816bffffffffffffffffffffffff60a01b82161783556020928385015191600283101561027b5760408601516001600160b01b031990911690931760a09290921b60ff60a01b169190911791151560a81b60ff60a81b1691909117815560608301518582015560809290920151805193600293909301926001600160401b038511610bd4578411610bd4578190612d2d85855481875586612a8e565b0191600052806000209060005b848110612d4957505050505050565b835183820155928101928501612d3a565b634e487b7160e01b600052600060045260246000fd5b60405190604082018281106001600160401b03821117610bd457604052600e82526d4d4f44455241544f525f524f4c4560901b6020830152565b9081602091031261031e5751801515810361031e5790565b15612dc957565b60405162461bcd60e51b815260206004820152600f60248201526e2737ba103a3934b1329030b236b4b760891b6044820152606490fd5b15612e0757565b60405162461bcd60e51b815260206004820152601060248201526f125b9d985b1a59081d1c9a589948125160821b6044820152606490fd5b15612e4657565b60405162461bcd60e51b815260206004820152601060248201526f20b63932b0b23c90309036b2b6b132b960811b6044820152606490fd5b15612e8557565b60405162461bcd60e51b815260206004820152600e60248201526d155cd95c881a5cc818985b9b995960921b6044820152606490fd5b15612ec257565b60405162461bcd60e51b815260206004820152601060248201526f5472696265206e6f742061637469766560801b6044820152606490fd5b80548210156124ab5760005260206000200190600090565b8054600160401b811015610bd457612f2f91600182018155612efa565b819291549060031b9160018060a01b03809116831b921b1916179055565b15612f5457565b60405162461bcd60e51b81526020600482015260126024820152714d656d626572206e6f742070656e64696e6760701b6044820152606490fd5b15612f9557565b60405162461bcd60e51b815260206004820152601f60248201527f547269626520646f6573206e6f742075736520696e7669746520636f646573006044820152606490fd5b9060405191612fe883612b5f565b80546001600160a01b0381168452839060209060ff9061301060a082901c8316848601612bd1565b60a81c1615156040830152600260019384810154606085015201604051918294859382845491828152019360005282600020926000905b82821061306657505050505060809291613062910384612bb0565b0152565b84548652889650948501949383019390830190613047565b80518210156124ab5760209160051b010190565b90600090828252602090600282526040936006858520019283546130b581612bdd565b946130c288519687612bb0565b81865286528186208690838088015b8484106131ff5750505050508351156131f45760029185525260ff600485852001541660078110156131e057600481036131665750825b825181101561315c578461311c828561307e565b510151151580613141575b6131395761313490612a2e565b613108565b505050905090565b5061315682613150838661307e565b5161321e565b15613127565b5050505050600190565b929350916005036131ab57825b81518110156131a55761318a83613150838561307e565b61319c5761319790612a2e565b613173565b50505050600190565b50505090565b8291925b815181101561319c576131c684613150838561307e565b156131d9576131d490612a2e565b6131af565b5050905090565b634e487b7160e01b84526021600452602484fd5b505050505050600190565b60019160039161320e85612fda565b81520192019201919084906130d1565b80516001600160a01b039081161561349f5760208083018051600281101561027b576133ae57508183511690604093838551966370a0823160e01b88521694868381600496898883015260249a8b915afa6000918161337f575b5061328a575050505050505050600090565b606083015111613373576080820196875151156133665760005b8851805182101561335757856132be838a8851169361307e565b51848651809481936331a9108f60e11b83528c8301525afa809160009161331a575b50906132f55750505050505050505050600090565b878991160361330c5761330790612a2e565b6132a4565b505050505050505050600090565b8781813d8311613350575b61332f8183612bb0565b8101031261334c57519089821682036133495750386132e0565b80fd5b5080fd5b503d613325565b50505050505050505050600190565b5050505050505050600190565b50505050505050600090565b90918582813d83116133a7575b6133968183612bb0565b810103126133495750519038613278565b503d61338c565b51939291600285101561027b5760018095146133ce575050505050600090565b60808301938451511561349457600094865b6133ee575b50505050505090565b8051805187101561348e578461340888868951169361307e565b51604460405180948193627eeac760e11b8352898916600484015260248301525afa6000918161345f575b50613445575050505050505050600090565b606086015111613373576134598796612a2e565b956133e0565b90918682813d8311613487575b6134768183612bb0565b810103126133495750519038613433565b503d61346c565b506133e5565b505050505050600090565b505050600090565b9060405191828154918282526020928383019160005283600020936000905b8282106134dc57505050612ab192500383612bb0565b85546001600160a01b0316845260019586019588955093810193909101906134c6565b600052600260205261351760036040600020016134a7565b9060005b825181101561349f576001600160a01b0380613537838661307e565b51169083161461354f5761354a90612a2e565b61351b565b505050600190565b9061356182612bdd565b60409061357082519182612bb0565b8381528093613581601f1991612bdd565b019160005b8381106135935750505050565b60209082516135a181612b5f565b600081528260008183015260008583015260606000818401526080830152828601015201613586565b600782101561027b5752565b906135e082612bdd565b6135ed6040519182612bb0565b82815280926135fe601f1991612bdd565b0190602036910137565b92916000918483526020916002835260ff60046040862001541660078110156136de5760066136379114612f8e565b6136598360405183819483830196873781018783820152038084520182612bb0565b5190209382526002815260076040832001908483525260408120928354036136cd57600383015480151590816136d3575b506136cd576001600284015493015492838110156136c65783039283116136b2575060019190565b634e487b7160e01b81526011600452602490fd5b5091508190565b91508190565b90504210153861368a565b634e487b7160e01b85526021600452602485fd5b906040519182600082549261370684612a3d565b9081845260019485811690816000146137735750600114613730575b5050612ab192500383612bb0565b9093915060005260209081600020936000915b81831061375b575050612ab193508201013880613722565b85548884018501529485019487945091830191613743565b915050612ab194506020925060ff191682840152151560051b820101388061372256fee320afcc03d630316ba80e1b1293b1bf31a082cf85cfdbf8a194416f05233e24a164736f6c6343000814000a",
  "linkReferences": {},
  "deployedLinkReferences": {}
}