{
  "_format": "hh-sol-artifact-1",
  "contractName": "PostMinter",
  "sourceName": "contracts/PostMinter.sol",
  "abi": [
    {
      "inputs": [
        {
          "internalType": "address",
          "name": "_roleManager",
          "type": "address"
        },
        {
          "internalType": "address",
          "name": "_tribeController",
          "type": "address"
        },
        {
          "internalType": "address",
          "name": "_collectibleController",
          "type": "address"
        }
      ],
      "stateMutability": "nonpayable",
      "type": "constructor"
    },
    {
      "inputs": [],
      "name": "AccessControlBadConfirmation",
      "type": "error"
    },
    {
      "inputs": [
        {
          "internalType": "address",
          "name": "account",
          "type": "address"
        },
        {
          "internalType": "bytes32",
          "name": "neededRole",
          "type": "bytes32"
        }
      ],
      "name": "AccessControlUnauthorizedAccount",
      "type": "error"
    },
    {
      "inputs": [],
      "name": "EnforcedPause",
      "type": "error"
    },
    {
      "inputs": [],
      "name": "ExpectedPause",
      "type": "error"
    },
    {
      "inputs": [],
      "name": "ReentrancyGuardReentrantCall",
      "type": "error"
    },
    {
      "anonymous": false,
      "inputs": [
        {
          "indexed": true,
          "internalType": "uint256",
          "name": "tribeId",
          "type": "uint256"
        },
        {
          "indexed": true,
          "internalType": "address",
          "name": "creator",
          "type": "address"
        },
        {
          "indexed": false,
          "internalType": "uint256[]",
          "name": "postIds",
          "type": "uint256[]"
        }
      ],
      "name": "BatchPostsCreated",
      "type": "event"
    },
    {
      "anonymous": false,
      "inputs": [
        {
          "indexed": true,
          "internalType": "uint256",
          "name": "postId",
          "type": "uint256"
        },
        {
          "indexed": true,
          "internalType": "uint256",
          "name": "tribeId",
          "type": "uint256"
        },
        {
          "indexed": true,
          "internalType": "address",
          "name": "creator",
          "type": "address"
        },
        {
          "indexed": false,
          "internalType": "string",
          "name": "metadata",
          "type": "string"
        },
        {
          "indexed": false,
          "internalType": "bytes32",
          "name": "encryptionKeyHash",
          "type": "bytes32"
        },
        {
          "indexed": false,
          "internalType": "address",
          "name": "accessSigner",
          "type": "address"
        }
      ],
      "name": "EncryptedPostCreated",
      "type": "event"
    },
    {
      "anonymous": false,
      "inputs": [
        {
          "indexed": true,
          "internalType": "uint256",
          "name": "tribeId",
          "type": "uint256"
        },
        {
          "indexed": false,
          "internalType": "bool",
          "name": "enabled",
          "type": "bool"
        },
        {
          "indexed": true,
          "internalType": "address",
          "name": "manager",
          "type": "address"
        },
        {
          "indexed": false,
          "internalType": "uint256",
          "name": "maxPostsPerDay",
          "type": "uint256"
        }
      ],
      "name": "FeedManaged",
      "type": "event"
    },
    {
      "anonymous": false,
      "inputs": [
        {
          "indexed": false,
          "internalType": "address",
          "name": "account",
          "type": "address"
        }
      ],
      "name": "Paused",
      "type": "event"
    },
    {
      "anonymous": false,
      "inputs": [
        {
          "indexed": true,
          "internalType": "uint256",
          "name": "postId",
          "type": "uint256"
        },
        {
          "indexed": true,
          "internalType": "uint256",
          "name": "tribeId",
          "type": "uint256"
        },
        {
          "indexed": true,
          "internalType": "address",
          "name": "creator",
          "type": "address"
        },
        {
          "indexed": false,
          "internalType": "string",
          "name": "metadata",
          "type": "string"
        }
      ],
      "name": "PostCreated",
      "type": "event"
    },
    {
      "anonymous": false,
      "inputs": [
        {
          "indexed": true,
          "internalType": "uint256",
          "name": "postId",
          "type": "uint256"
        },
        {
          "indexed": true,
          "internalType": "address",
          "name": "deleter",
          "type": "address"
        }
      ],
      "name": "PostDeleted",
      "type": "event"
    },
    {
      "anonymous": false,
      "inputs": [
        {
          "indexed": true,
          "internalType": "uint256",
          "name": "postId",
          "type": "uint256"
        },
        {
          "indexed": true,
          "internalType": "address",
          "name": "user",
          "type": "address"
        },
        {
          "indexed": false,
          "internalType": "enum IPostMinter.InteractionType",
          "name": "interactionType",
          "type": "uint8"
        }
      ],
      "name": "PostInteraction",
      "type": "event"
    },
    {
      "anonymous": false,
      "inputs": [
        {
          "indexed": true,
          "internalType": "uint256",
          "name": "postId",
          "type": "uint256"
        },
        {
          "indexed": true,
          "internalType": "address",
          "name": "reporter",
          "type": "address"
        },
        {
          "indexed": false,
          "internalType": "string",
          "name": "reason",
          "type": "string"
        }
      ],
      "name": "PostReported",
      "type": "event"
    },
    {
      "anonymous": false,
      "inputs": [
        {
          "indexed": true,
          "internalType": "enum IPostMinter.PostType",
          "name": "postType",
          "type": "uint8"
        },
        {
          "indexed": false,
          "internalType": "uint256",
          "name": "cooldown",
          "type": "uint256"
        }
      ],
      "name": "PostTypeCooldownUpdated",
      "type": "event"
    },
    {
      "anonymous": false,
      "inputs": [
        {
          "indexed": true,
          "internalType": "uint256",
          "name": "postId",
          "type": "uint256"
        },
        {
          "indexed": true,
          "internalType": "address",
          "name": "updater",
          "type": "address"
        },
        {
          "indexed": false,
          "internalType": "string",
          "name": "metadata",
          "type": "string"
        }
      ],
      "name": "PostUpdated",
      "type": "event"
    },
    {
      "anonymous": false,
      "inputs": [
        {
          "indexed": true,
          "internalType": "bytes32",
          "name": "role",
          "type": "bytes32"
        },
        {
          "indexed": true,
          "internalType": "bytes32",
          "name": "previousAdminRole",
          "type": "bytes32"
        },
        {
          "indexed": true,
          "internalType": "bytes32",
          "name": "newAdminRole",
          "type": "bytes32"
        }
      ],
      "name": "RoleAdminChanged",
      "type": "event"
    },
    {
      "anonymous": false,
      "inputs": [
        {
          "indexed": true,
          "internalType": "bytes32",
          "name": "role",
          "type": "bytes32"
        },
        {
          "indexed": true,
          "internalType": "address",
          "name": "account",
          "type": "address"
        },
        {
          "indexed": true,
          "internalType": "address",
          "name": "sender",
          "type": "address"
        }
      ],
      "name": "RoleGranted",
      "type": "event"
    },
    {
      "anonymous": false,
      "inputs": [
        {
          "indexed": true,
          "internalType": "bytes32",
          "name": "role",
          "type": "bytes32"
        },
        {
          "indexed": true,
          "internalType": "address",
          "name": "account",
          "type": "address"
        },
        {
          "indexed": true,
          "internalType": "address",
          "name": "sender",
          "type": "address"
        }
      ],
      "name": "RoleRevoked",
      "type": "event"
    },
    {
      "anonymous": false,
      "inputs": [
        {
          "indexed": true,
          "internalType": "uint256",
          "name": "postId",
          "type": "uint256"
        },
        {
          "indexed": true,
          "internalType": "uint256",
          "name": "tribeId",
          "type": "uint256"
        },
        {
          "indexed": true,
          "internalType": "address",
          "name": "creator",
          "type": "address"
        },
        {
          "indexed": false,
          "internalType": "string",
          "name": "metadata",
          "type": "string"
        },
        {
          "indexed": false,
          "internalType": "bytes32",
          "name": "encryptionKeyHash",
          "type": "bytes32"
        },
        {
          "indexed": false,
          "internalType": "address",
          "name": "accessSigner",
          "type": "address"
        },
        {
          "indexed": false,
          "internalType": "address",
          "name": "collectibleContract",
          "type": "address"
        },
        {
          "indexed": false,
          "internalType": "uint256",
          "name": "collectibleId",
          "type": "uint256"
        }
      ],
      "name": "SignatureGatedPostCreated",
      "type": "event"
    },
    {
      "anonymous": false,
      "inputs": [
        {
          "indexed": true,
          "internalType": "uint256",
          "name": "tribeId",
          "type": "uint256"
        },
        {
          "indexed": true,
          "internalType": "bytes32",
          "name": "keyHash",
          "type": "bytes32"
        }
      ],
      "name": "TribeKeyUpdated",
      "type": "event"
    },
    {
      "anonymous": false,
      "inputs": [
        {
          "indexed": false,
          "internalType": "address",
          "name": "account",
          "type": "address"
        }
      ],
      "name": "Unpaused",
      "type": "event"
    },
    {
      "anonymous": false,
      "inputs": [
        {
          "indexed": true,
          "internalType": "uint256",
          "name": "postId",
          "type": "uint256"
        },
        {
          "indexed": true,
          "internalType": "address",
          "name": "viewer",
          "type": "address"
        }
      ],
      "name": "ViewerAuthorized",
      "type": "event"
    },
    {
      "inputs": [],
      "name": "BATCH_POST_COOLDOWN",
      "outputs": [
        {
          "internalType": "uint256",
          "name": "",
          "type": "uint256"
        }
      ],
      "stateMutability": "view",
      "type": "function"
    },
    {
      "inputs": [],
      "name": "DEFAULT_ADMIN_ROLE",
      "outputs": [
        {
          "internalType": "bytes32",
          "name": "",
          "type": "bytes32"
        }
      ],
      "stateMutability": "view",
      "type": "function"
    },
    {
      "inputs": [],
      "name": "FEED_MANAGER_ROLE",
      "outputs": [
        {
          "internalType": "bytes32",
          "name": "",
          "type": "bytes32"
        }
      ],
      "stateMutability": "view",
      "type": "function"
    },
    {
      "inputs": [],
      "name": "MAX_BATCH_POSTS",
      "outputs": [
        {
          "internalType": "uint256",
          "name": "",
          "type": "uint256"
        }
      ],
      "stateMutability": "view",
      "type": "function"
    },
    {
      "inputs": [],
      "name": "PROJECT_CREATOR_ROLE",
      "outputs": [
        {
          "internalType": "bytes32",
          "name": "",
          "type": "bytes32"
        }
      ],
      "stateMutability": "view",
      "type": "function"
    },
    {
      "inputs": [],
      "name": "RATE_LIMIT_MANAGER_ROLE",
      "outputs": [
        {
          "internalType": "bytes32",
          "name": "",
          "type": "bytes32"
        }
      ],
      "stateMutability": "view",
      "type": "function"
    },
    {
      "inputs": [],
      "name": "REPORT_THRESHOLD",
      "outputs": [
        {
          "internalType": "uint256",
          "name": "",
          "type": "uint256"
        }
      ],
      "stateMutability": "view",
      "type": "function"
    },
    {
      "inputs": [
        {
          "internalType": "uint256",
          "name": "postId",
          "type": "uint256"
        },
        {
          "internalType": "address",
          "name": "viewer",
          "type": "address"
        }
      ],
      "name": "authorizeViewer",
      "outputs": [],
      "stateMutability": "nonpayable",
      "type": "function"
    },
    {
      "inputs": [
        {
          "internalType": "uint256",
          "name": "postId",
          "type": "uint256"
        },
        {
          "internalType": "address",
          "name": "viewer",
          "type": "address"
        }
      ],
      "name": "canViewPost",
      "outputs": [
        {
          "internalType": "bool",
          "name": "",
          "type": "bool"
        }
      ],
      "stateMutability": "view",
      "type": "function"
    },
    {
      "inputs": [],
      "name": "collectibleController",
      "outputs": [
        {
          "internalType": "contract ICollectibleController",
          "name": "",
          "type": "address"
        }
      ],
      "stateMutability": "view",
      "type": "function"
    },
    {
      "inputs": [
        {
          "internalType": "uint256",
          "name": "tribeId",
          "type": "uint256"
        },
        {
          "components": [
            {
              "internalType": "string",
              "name": "metadata",
              "type": "string"
            },
            {
              "internalType": "bool",
              "name": "isGated",
              "type": "bool"
            },
            {
              "internalType": "address",
              "name": "collectibleContract",
              "type": "address"
            },
            {
              "internalType": "uint256",
              "name": "collectibleId",
              "type": "uint256"
            },
            {
              "internalType": "enum IPostMinter.PostType",
              "name": "postType",
              "type": "uint8"
            }
          ],
          "internalType": "struct IPostMinter.BatchPostData[]",
          "name": "posts",
          "type": "tuple[]"
        }
      ],
      "name": "createBatchPosts",
      "outputs": [
        {
          "internalType": "uint256[]",
          "name": "",
          "type": "uint256[]"
        }
      ],
      "stateMutability": "nonpayable",
      "type": "function"
    },
    {
      "inputs": [
        {
          "internalType": "uint256",
          "name": "tribeId",
          "type": "uint256"
        },
        {
          "internalType": "string",
          "name": "metadata",
          "type": "string"
        },
        {
          "internalType": "bytes32",
          "name": "encryptionKeyHash",
          "type": "bytes32"
        },
        {
          "internalType": "address",
          "name": "accessSigner",
          "type": "address"
        }
      ],
      "name": "createEncryptedPost",
      "outputs": [
        {
          "internalType": "uint256",
          "name": "",
          "type": "uint256"
        }
      ],
      "stateMutability": "nonpayable",
      "type": "function"
    },
    {
      "inputs": [
        {
          "internalType": "uint256",
          "name": "tribeId",
          "type": "uint256"
        },
        {
          "internalType": "string",
          "name": "metadata",
          "type": "string"
        },
        {
          "internalType": "bool",
          "name": "isGated",
          "type": "bool"
        },
        {
          "internalType": "address",
          "name": "collectibleContract",
          "type": "address"
        },
        {
          "internalType": "uint256",
          "name": "collectibleId",
          "type": "uint256"
        }
      ],
      "name": "createPost",
      "outputs": [
        {
          "internalType": "uint256",
          "name": "",
          "type": "uint256"
        }
      ],
      "stateMutability": "nonpayable",
      "type": "function"
    },
    {
      "inputs": [
        {
          "internalType": "uint256",
          "name": "parentPostId",
          "type": "uint256"
        },
        {
          "internalType": "string",
          "name": "metadata",
          "type": "string"
        },
        {
          "internalType": "bool",
          "name": "isGated",
          "type": "bool"
        },
        {
          "internalType": "address",
          "name": "collectibleContract",
          "type": "address"
        },
        {
          "internalType": "uint256",
          "name": "collectibleId",
          "type": "uint256"
        }
      ],
      "name": "createReply",
      "outputs": [
        {
          "internalType": "uint256",
          "name": "",
          "type": "uint256"
        }
      ],
      "stateMutability": "nonpayable",
      "type": "function"
    },
    {
      "inputs": [
        {
          "internalType": "uint256",
          "name": "tribeId",
          "type": "uint256"
        },
        {
          "internalType": "string",
          "name": "metadata",
          "type": "string"
        },
        {
          "internalType": "bytes32",
          "name": "encryptionKeyHash",
          "type": "bytes32"
        },
        {
          "internalType": "address",
          "name": "accessSigner",
          "type": "address"
        },
        {
          "internalType": "address",
          "name": "collectibleContract",
          "type": "address"
        },
        {
          "internalType": "uint256",
          "name": "collectibleId",
          "type": "uint256"
        }
      ],
      "name": "createSignatureGatedPost",
      "outputs": [
        {
          "internalType": "uint256",
          "name": "",
          "type": "uint256"
        }
      ],
      "stateMutability": "nonpayable",
      "type": "function"
    },
    {
      "inputs": [
        {
          "internalType": "uint256",
          "name": "postId",
          "type": "uint256"
        }
      ],
      "name": "deletePost",
      "outputs": [],
      "stateMutability": "nonpayable",
      "type": "function"
    },
    {
      "inputs": [
        {
          "internalType": "uint256",
          "name": "tribeId",
          "type": "uint256"
        },
        {
          "internalType": "address",
          "name": "member",
          "type": "address"
        }
      ],
      "name": "deriveSharedKey",
      "outputs": [
        {
          "internalType": "bytes32",
          "name": "",
          "type": "bytes32"
        }
      ],
      "stateMutability": "view",
      "type": "function"
    },
    {
      "inputs": [
        {
          "internalType": "uint256",
          "name": "tribeId",
          "type": "uint256"
        },
        {
          "internalType": "bool",
          "name": "enableFeed",
          "type": "bool"
        },
        {
          "internalType": "uint256",
          "name": "maxPostsPerDay",
          "type": "uint256"
        }
      ],
      "name": "feedManager",
      "outputs": [],
      "stateMutability": "nonpayable",
      "type": "function"
    },
    {
      "inputs": [
        {
          "internalType": "uint256",
          "name": "postId",
          "type": "uint256"
        }
      ],
      "name": "generatePostKey",
      "outputs": [
        {
          "internalType": "bytes32",
          "name": "",
          "type": "bytes32"
        }
      ],
      "stateMutability": "view",
      "type": "function"
    },
    {
      "inputs": [],
      "name": "getBatchPostingLimits",
      "outputs": [
        {
          "internalType": "uint256",
          "name": "maxBatchSize",
          "type": "uint256"
        },
        {
          "internalType": "uint256",
          "name": "batchCooldown",
          "type": "uint256"
        }
      ],
      "stateMutability": "pure",
      "type": "function"
    },
    {
      "inputs": [
        {
          "internalType": "uint256",
          "name": "tribeId",
          "type": "uint256"
        }
      ],
      "name": "getFeedConfig",
      "outputs": [
        {
          "internalType": "bool",
          "name": "isEnabled",
          "type": "bool"
        },
        {
          "internalType": "uint256",
          "name": "maxPostsPerDay",
          "type": "uint256"
        },
        {
          "internalType": "uint256",
          "name": "postCountToday",
          "type": "uint256"
        }
      ],
      "stateMutability": "view",
      "type": "function"
    },
    {
      "inputs": [
        {
          "internalType": "address",
          "name": "user",
          "type": "address"
        },
        {
          "internalType": "uint256",
          "name": "offset",
          "type": "uint256"
        },
        {
          "internalType": "uint256",
          "name": "limit",
          "type": "uint256"
        }
      ],
      "name": "getFeedForUser",
      "outputs": [
        {
          "internalType": "uint256[]",
          "name": "postIds",
          "type": "uint256[]"
        },
        {
          "internalType": "uint256",
          "name": "total",
          "type": "uint256"
        }
      ],
      "stateMutability": "view",
      "type": "function"
    },
    {
      "inputs": [
        {
          "internalType": "uint256",
          "name": "postId",
          "type": "uint256"
        },
        {
          "internalType": "enum IPostMinter.InteractionType",
          "name": "interactionType",
          "type": "uint8"
        }
      ],
      "name": "getInteractionCount",
      "outputs": [
        {
          "internalType": "uint256",
          "name": "",
          "type": "uint256"
        }
      ],
      "stateMutability": "view",
      "type": "function"
    },
    {
      "inputs": [
        {
          "internalType": "uint256",
          "name": "postId",
          "type": "uint256"
        }
      ],
      "name": "getPost",
      "outputs": [
        {
          "internalType": "uint256",
          "name": "id",
          "type": "uint256"
        },
        {
          "internalType": "address",
          "name": "creator",
          "type": "address"
        },
        {
          "internalType": "uint256",
          "name": "tribeId",
          "type": "uint256"
        },
        {
          "internalType": "string",
          "name": "metadata",
          "type": "string"
        },
        {
          "internalType": "bool",
          "name": "isGated",
          "type": "bool"
        },
        {
          "internalType": "address",
          "name": "collectibleContract",
          "type": "address"
        },
        {
          "internalType": "uint256",
          "name": "collectibleId",
          "type": "uint256"
        },
        {
          "internalType": "bool",
          "name": "isEncrypted",
          "type": "bool"
        },
        {
          "internalType": "address",
          "name": "accessSigner",
          "type": "address"
        }
      ],
      "stateMutability": "view",
      "type": "function"
    },
    {
      "inputs": [
        {
          "internalType": "uint256",
          "name": "postId",
          "type": "uint256"
        },
        {
          "internalType": "address",
          "name": "viewer",
          "type": "address"
        }
      ],
      "name": "getPostDecryptionKey",
      "outputs": [
        {
          "internalType": "bytes32",
          "name": "",
          "type": "bytes32"
        }
      ],
      "stateMutability": "view",
      "type": "function"
    },
    {
      "inputs": [
        {
          "internalType": "uint256",
          "name": "postId",
          "type": "uint256"
        }
      ],
      "name": "getPostReplies",
      "outputs": [
        {
          "internalType": "uint256[]",
          "name": "",
          "type": "uint256[]"
        }
      ],
      "stateMutability": "view",
      "type": "function"
    },
    {
      "inputs": [
        {
          "internalType": "enum IPostMinter.PostType",
          "name": "postType",
          "type": "uint8"
        }
      ],
      "name": "getPostTypeCooldown",
      "outputs": [
        {
          "internalType": "uint256",
          "name": "",
          "type": "uint256"
        }
      ],
      "stateMutability": "view",
      "type": "function"
    },
    {
      "inputs": [
        {
          "internalType": "uint256",
          "name": "tribeId",
          "type": "uint256"
        },
        {
          "internalType": "uint256",
          "name": "offset",
          "type": "uint256"
        },
        {
          "internalType": "uint256",
          "name": "limit",
          "type": "uint256"
        }
      ],
      "name": "getPostsByTribe",
      "outputs": [
        {
          "internalType": "uint256[]",
          "name": "postIds",
          "type": "uint256[]"
        },
        {
          "internalType": "uint256",
          "name": "total",
          "type": "uint256"
        }
      ],
      "stateMutability": "view",
      "type": "function"
    },
    {
      "inputs": [
        {
          "internalType": "uint256",
          "name": "tribeId",
          "type": "uint256"
        },
        {
          "internalType": "address",
          "name": "user",
          "type": "address"
        },
        {
          "internalType": "uint256",
          "name": "offset",
          "type": "uint256"
        },
        {
          "internalType": "uint256",
          "name": "limit",
          "type": "uint256"
        }
      ],
      "name": "getPostsByTribeAndUser",
      "outputs": [
        {
          "internalType": "uint256[]",
          "name": "postIds",
          "type": "uint256[]"
        },
        {
          "internalType": "uint256",
          "name": "total",
          "type": "uint256"
        }
      ],
      "stateMutability": "view",
      "type": "function"
    },
    {
      "inputs": [
        {
          "internalType": "address",
          "name": "user",
          "type": "address"
        },
        {
          "internalType": "uint256",
          "name": "offset",
          "type": "uint256"
        },
        {
          "internalType": "uint256",
          "name": "limit",
          "type": "uint256"
        }
      ],
      "name": "getPostsByUser",
      "outputs": [
        {
          "internalType": "uint256[]",
          "name": "postIds",
          "type": "uint256[]"
        },
        {
          "internalType": "uint256",
          "name": "total",
          "type": "uint256"
        }
      ],
      "stateMutability": "view",
      "type": "function"
    },
    {
      "inputs": [
        {
          "internalType": "address",
          "name": "user",
          "type": "address"
        },
        {
          "internalType": "enum IPostMinter.PostType",
          "name": "postType",
          "type": "uint8"
        }
      ],
      "name": "getRemainingCooldown",
      "outputs": [
        {
          "internalType": "uint256",
          "name": "",
          "type": "uint256"
        }
      ],
      "stateMutability": "view",
      "type": "function"
    },
    {
      "inputs": [
        {
          "internalType": "bytes32",
          "name": "role",
          "type": "bytes32"
        }
      ],
      "name": "getRoleAdmin",
      "outputs": [
        {
          "internalType": "bytes32",
          "name": "",
          "type": "bytes32"
        }
      ],
      "stateMutability": "view",
      "type": "function"
    },
    {
      "inputs": [
        {
          "internalType": "bytes32",
          "name": "role",
          "type": "bytes32"
        },
        {
          "internalType": "address",
          "name": "account",
          "type": "address"
        }
      ],
      "name": "grantRole",
      "outputs": [],
      "stateMutability": "nonpayable",
      "type": "function"
    },
    {
      "inputs": [
        {
          "internalType": "bytes32",
          "name": "role",
          "type": "bytes32"
        },
        {
          "internalType": "address",
          "name": "account",
          "type": "address"
        }
      ],
      "name": "hasRole",
      "outputs": [
        {
          "internalType": "bool",
          "name": "",
          "type": "bool"
        }
      ],
      "stateMutability": "view",
      "type": "function"
    },
    {
      "inputs": [
        {
          "internalType": "uint256",
          "name": "postId",
          "type": "uint256"
        },
        {
          "internalType": "enum IPostMinter.InteractionType",
          "name": "interactionType",
          "type": "uint8"
        }
      ],
      "name": "interactWithPost",
      "outputs": [],
      "stateMutability": "nonpayable",
      "type": "function"
    },
    {
      "inputs": [
        {
          "internalType": "uint256",
          "name": "tribeId",
          "type": "uint256"
        }
      ],
      "name": "isFeedEnabled",
      "outputs": [
        {
          "internalType": "bool",
          "name": "",
          "type": "bool"
        }
      ],
      "stateMutability": "view",
      "type": "function"
    },
    {
      "inputs": [
        {
          "internalType": "address",
          "name": "",
          "type": "address"
        }
      ],
      "name": "lastBatchTime",
      "outputs": [
        {
          "internalType": "uint256",
          "name": "",
          "type": "uint256"
        }
      ],
      "stateMutability": "view",
      "type": "function"
    },
    {
      "inputs": [
        {
          "internalType": "address",
          "name": "",
          "type": "address"
        },
        {
          "internalType": "enum IPostMinter.PostType",
          "name": "",
          "type": "uint8"
        }
      ],
      "name": "lastPostTimeByType",
      "outputs": [
        {
          "internalType": "uint256",
          "name": "",
          "type": "uint256"
        }
      ],
      "stateMutability": "view",
      "type": "function"
    },
    {
      "inputs": [],
      "name": "nextPostId",
      "outputs": [
        {
          "internalType": "uint256",
          "name": "",
          "type": "uint256"
        }
      ],
      "stateMutability": "view",
      "type": "function"
    },
    {
      "inputs": [],
      "name": "pause",
      "outputs": [],
      "stateMutability": "nonpayable",
      "type": "function"
    },
    {
      "inputs": [],
      "name": "paused",
      "outputs": [
        {
          "internalType": "bool",
          "name": "",
          "type": "bool"
        }
      ],
      "stateMutability": "view",
      "type": "function"
    },
    {
      "inputs": [
        {
          "internalType": "enum IPostMinter.PostType",
          "name": "",
          "type": "uint8"
        }
      ],
      "name": "postTypeCooldowns",
      "outputs": [
        {
          "internalType": "uint256",
          "name": "",
          "type": "uint256"
        }
      ],
      "stateMutability": "view",
      "type": "function"
    },
    {
      "inputs": [
        {
          "internalType": "bytes32",
          "name": "role",
          "type": "bytes32"
        },
        {
          "internalType": "address",
          "name": "account",
          "type": "address"
        }
      ],
      "name": "renounceRole",
      "outputs": [],
      "stateMutability": "nonpayable",
      "type": "function"
    },
    {
      "inputs": [
        {
          "internalType": "uint256",
          "name": "",
          "type": "uint256"
        }
      ],
      "name": "reportCount",
      "outputs": [
        {
          "internalType": "uint256",
          "name": "",
          "type": "uint256"
        }
      ],
      "stateMutability": "view",
      "type": "function"
    },
    {
      "inputs": [
        {
          "internalType": "uint256",
          "name": "postId",
          "type": "uint256"
        },
        {
          "internalType": "string",
          "name": "reason",
          "type": "string"
        }
      ],
      "name": "reportPost",
      "outputs": [],
      "stateMutability": "nonpayable",
      "type": "function"
    },
    {
      "inputs": [
        {
          "internalType": "bytes32",
          "name": "role",
          "type": "bytes32"
        },
        {
          "internalType": "address",
          "name": "account",
          "type": "address"
        }
      ],
      "name": "revokeRole",
      "outputs": [],
      "stateMutability": "nonpayable",
      "type": "function"
    },
    {
      "inputs": [],
      "name": "roleManager",
      "outputs": [
        {
          "internalType": "contract IRoleManager",
          "name": "",
          "type": "address"
        }
      ],
      "stateMutability": "view",
      "type": "function"
    },
    {
      "inputs": [
        {
          "internalType": "enum IPostMinter.PostType",
          "name": "postType",
          "type": "uint8"
        },
        {
          "internalType": "uint256",
          "name": "cooldown",
          "type": "uint256"
        }
      ],
      "name": "setPostTypeCooldown",
      "outputs": [],
      "stateMutability": "nonpayable",
      "type": "function"
    },
    {
      "inputs": [
        {
          "internalType": "uint256",
          "name": "tribeId",
          "type": "uint256"
        },
        {
          "internalType": "bytes32",
          "name": "encryptionKey",
          "type": "bytes32"
        }
      ],
      "name": "setTribeEncryptionKey",
      "outputs": [],
      "stateMutability": "nonpayable",
      "type": "function"
    },
    {
      "inputs": [
        {
          "internalType": "bytes4",
          "name": "interfaceId",
          "type": "bytes4"
        }
      ],
      "name": "supportsInterface",
      "outputs": [
        {
          "internalType": "bool",
          "name": "",
          "type": "bool"
        }
      ],
      "stateMutability": "view",
      "type": "function"
    },
    {
      "inputs": [],
      "name": "tribeController",
      "outputs": [
        {
          "internalType": "contract ITribeController",
          "name": "",
          "type": "address"
        }
      ],
      "stateMutability": "view",
      "type": "function"
    },
    {
      "inputs": [
        {
          "internalType": "uint256",
          "name": "",
          "type": "uint256"
        }
      ],
      "name": "tribeEncryptionKeys",
      "outputs": [
        {
          "internalType": "bytes32",
          "name": "",
          "type": "bytes32"
        }
      ],
      "stateMutability": "view",
      "type": "function"
    },
    {
      "inputs": [],
      "name": "unpause",
      "outputs": [],
      "stateMutability": "nonpayable",
      "type": "function"
    },
    {
      "inputs": [
        {
          "internalType": "uint256",
          "name": "postId",
          "type": "uint256"
        },
        {
          "internalType": "string",
          "name": "metadata",
          "type": "string"
        }
      ],
      "name": "updatePost",
      "outputs": [],
      "stateMutability": "nonpayable",
      "type": "function"
    },
    {
      "inputs": [
        {
          "internalType": "string",
          "name": "metadata",
          "type": "string"
        },
        {
          "internalType": "enum IPostMinter.PostType",
          "name": "postType",
          "type": "uint8"
        }
      ],
      "name": "validateMetadata",
      "outputs": [
        {
          "internalType": "bool",
          "name": "",
          "type": "bool"
        }
      ],
      "stateMutability": "pure",
      "type": "function"
    },
    {
      "inputs": [
        {
          "internalType": "uint256",
          "name": "postId",
          "type": "uint256"
        },
        {
          "internalType": "address",
          "name": "viewer",
          "type": "address"
        },
        {
          "internalType": "bytes",
          "name": "signature",
          "type": "bytes"
        }
      ],
      "name": "verifyPostAccess",
      "outputs": [
        {
          "internalType": "bool",
          "name": "",
          "type": "bool"
        }
      ],
      "stateMutability": "view",
      "type": "function"
    }
  ],
  "bytecode": "0x6080346200014c57601f6200560438819003918201601f191683019291906001600160401b03841183851017620001515781606092849260409687528339810103126200014c57620000518162000167565b6200006c83620000646020850162000167565b930162000167565b60018055600280546001600160a81b03191660089390931b610100600160a81b031692909217909155600380546001600160a01b03199081166001600160a01b03948516179091556004805490911692909116919091179055620000d0336200017c565b50620000dc33620001fc565b50620000e8336200029e565b50620000f4336200033b565b5060788160008080526017602052603c8282205560018152828282205560028152601e828220556003815261012c808383205560048252838383205560058252828220556006815220555161520b9081620003d98239f35b600080fd5b634e487b7160e01b600052604160045260246000fd5b51906001600160a01b03821682036200014c57565b6001600160a01b031660008181527fad3228b676f7d3cd4284a5443f17f1962b36e491b30a40b2405849e597ba5fb5602052604081205490919060ff16620001f857818052816020526040822081835260205260408220600160ff198254161790553391600080516020620055e48339815191528180a4600190565b5090565b6001600160a01b031660008181527fc448a26375e4525d74e98abed52ab853d6b68cb7dc4e14a91f99969c6530a34060205260408120549091907fd2ad11a4404270d22b2f1ce9a30bc7295171184fa77fc61dd65faeb3205771029060ff166200029957808352826020526040832082845260205260408320600160ff19825416179055600080516020620055e4833981519152339380a4600190565b505090565b6001600160a01b031660008181527fcb298d04a03638c9e6c78e365ec81575735ecfb27b92b206d0a36c96d1f6837a60205260408120549091907fa91575122619884f8f346f6f08d276f996bc367457e1cf69df01d9361cf4e0f19060ff166200029957808352826020526040832082845260205260408320600160ff19825416179055600080516020620055e4833981519152339380a4600190565b6001600160a01b031660008181527f51ff18b21c447e105ebe7f1df018a6388f6b0b95b88884a053f40188c31af6b160205260408120549091907fddbe48f52bb812894c8051224ff4457244fc2b78c8caa3e39179c65d4b6de4129060ff166200029957808352826020526040832082845260205260408320600160ff19825416179055600080516020620055e4833981519152339380a460019056fe608080604052600436101561001357600080fd5b60003560e01c908162435da5146131cf5750806301ffc9a71461317957806302f5752a14612cc057806303dd9a0a14612c7757806306f91f5614612c52578063094cd5ee14612b6c578063109330c514611430578063152bd0da14612ab357806316bfd12b14612a8a5780631d46a21814612a4257806323c1a61c14612a07578063248a9ca3146129da5780632558c522146128955780632688da311461287b57806328eff150146128585780632be02d42146128325780632f2ff15d146127d757806331e87f53146127be57806336568abe146126bc5780633dea22391461268c5780633f4ba83a146126225780634033d619146125fd57806340731c24146124b957806340f3242b1461234357806342ff737514611f185780634aa0644714611d1c5780634b85521614611eef5780634d1f48da14611d3f5780635c09bd9814611d215780635c8add0714611d1c5780635c975abb14611cf95780635f46d44414611b295780636a2aef0514611af957806370367da51461185857806370c5af0c1461181a5780637341ec81146117fd578063793e641b146117d15780637ef94bce1461160f5780638456cb59146115b5578063851937e11461157a578063901578161461150557806391d14854146114b857806398e393601461147d578063a217fddf14611461578063a4965ffe14611430578063a679154714610dbe578063aa33103814610d90578063acd971bf14610cd1578063b406db9b14610ae4578063be485a7314610a8f578063d20682f314610a5e578063d547741f14610974578063dda82bdd14610948578063ee1962781461092e578063f2a51677146102d85763faa5b6261461028657600080fd5b346102d35760803660031901126102d3576102c96102b56102a561330a565b6064359060443590600435614142565b604051928392604084526040840190613320565b9060208301520390f35b600080fd5b346102d3576102e636613461565b6003546040516326e98b8b60e01b815260048101879052336024820152939592949390602090829060449082906001600160a01b03165afa9081156107ba57610344916001916000916108ff575b5061033e816134d0565b146134da565b3360009081526000805160206151df833981519152602052604090205460ff16156108c4575b610372613805565b60006103a46040516103838161322d565b600e81526d113a3cb832911d1122ab22a72a1160911b602082015285614702565b1561080b57506103b660025b84614594565b156107c65784610737575b600954936103ce85613754565b600955604051956103de876131f6565b8587523360208801528360408801528460608801521515608087015260018060a01b031660a086015260c0850152600060e08501526000610100850152600061012085015260006101408501524261016085015260006101808501528260005260056020526040600020845181556001810160018060a01b036020870151166001600160601b0360a01b8254161790556040850151600282015560608501519485516001600160401b0381116107215761049b6003840154613763565b96601f88116106da575b602097508790601f8311600114610662579282600b93610180936105ae9796600092610657575b50508160011b916000199060031b1c19161760038501555b6004840161050460808301511515829060ff801983541691151516179055565b60a08201518154610100600160a81b0360089290921b91909116610100600160a81b031990911617905560c0810151600585015560e081015160068501805460ff191691151560ff1691909117905561010081015160078501556008840160018060a01b03610120830151166001600160601b0360a01b8254161790556101408101516009850155610160810151600a8501550151151591019060ff801983541691151516179055565b80600052601184526105c48360406000206137cb565b33600052601284526105da8360406000206137cb565b806000526013845260406000203360005284526105fb8360406000206137cb565b827f61a7a6dea2aa2bb38e8d1303241c981b5ba162215611d715da3efa50195c177d60405186815280610632339689830190613420565b0390a433600052600b8252604060002060008052825242604060002055604051908152f35b015190508b806104cc565b9060038501600052886000209160005b601f19851681106106c3575083610180936105ae979693600193600b97601f198116106106aa575b505050811b0160038501556104e4565b015160001960f88460031b161c191690558b808061069a565b91928a600181928685015181550194019201610672565b600384016000526020600020601f830160051c81016020841061071a575b601f8a0160051c8201811061070e5750506104a5565b600081556001016106f8565b50806106f8565b634e487b7160e01b600052604160045260246000fd5b6004546024906000906001600160a01b039081169061075990881682146135ac565b604051928380926372d9967560e01b82528660048301525afa9081156107ba576107929160e091600091610797575b5001511515613712565b6103c1565b6107b491503d806000833e6107ac8183613263565b810190613647565b88610788565b6040513d6000823e3d90fd5b60405162461bcd60e51b815260206004820152601760248201527f496e76616c6964206d6574616461746120666f726d61740000000000000000006044820152606490fd5b61084060405161081a8161322d565b6013815272113a3cb832911d112924a1a42fa6a2a224a09160691b602082015285614702565b1561085057506103b660016103b0565b61086161085b613573565b85614702565b61086f575b6103b6906103b0565b50600461087b8461483f565b6108665760405162461bcd60e51b815260206004820152601860248201527f496e73756666696369656e74207065726d697373696f6e7300000000000000006044820152606490fd5b600b6020526040600020600080526020526108fa6108f260406000205460176020526040600020549061351b565b421015613528565b61036a565b610921915060203d602011610927575b6109198183613263565b8101906134b8565b88610334565b503d61090f565b346102d3576102c96102b561094236613385565b91614005565b346102d35760203660031901126102d357600435600052600d6020526020604060002054604051908152f35b346102d35760403660031901126102d35760043561099061330a565b6109b06109ab83600052600060205260016040600020015490565b613e5f565b8115801590610a2a575b156109e557816109de6109ab6109e394600052600060205260016040600020015490565b6150f0565b005b60405162461bcd60e51b815260206004820152601860248201527f43616e6e6f74207265766f6b65206c6173742061646d696e00000000000000006044820152606490fd5b506000805260146020527f4f26c3876aa9f4b92579780beea1161a61f87ebf1ec6ee865b299e447ecba99c546001106109ba565b346102d35760203660031901126102d3576004356000526015602052602060ff604060002054166040519015158152f35b346102d35760203660031901126102d3576040516020810160043581524260408301523360601b60608301526054825260808201908282106001600160401b0383111761072157602092826040525190208152f35b346102d35760403660031901126102d3576001600160401b036004356024358281116102d357610b189036906004016132d6565b8160005260209260058452600190610b4060018060a01b03836040600020015416331461390a565b8360005260058552610b5d60ff600b60406000200154161561396c565b8360005260058552600360406000200191835191821161072157610b818354613763565b601f8111610c88575b5085601f8311600114610bfe57918080610bee95937f99cef96894bce91ada1fac6cdc3094423e3cb7dc7efc085c9e10d5e74fa990ad9795600093610bf3575b501b916000199060031b1c19161790555b6040519182918683523396830190613420565b0390a3005b86015192508a610bca565b601f9291921982169084600052876000209160005b89828210610c74575050918391610bee96947f99cef96894bce91ada1fac6cdc3094423e3cb7dc7efc085c9e10d5e74fa990ad98969410610c5b575b5050811b019055610bdb565b85015160001960f88460031b161c191690558880610c4f565b888401518555938601939283019201610c13565b8360005286600020601f840160051c810191888510610cc7575b601f0160051c019082905b828110610cbb575050610b8a565b60008155018290610cad565b9091508190610ca2565b346102d35760403660031901126102d35760043560078110156102d3573360009081526000805160206151df8339815191526020526040902054602435907fd2ad11a4404270d22b2f1ce9a30bc7295171184fa77fc61dd65faeb3205771029060ff1615610d7257506020817fc6c4ea05b7c57af45d48db1560fcabb6e1fca3d85920a5dd0b07d43c58089e9492610d6885613354565b55604051908152a2005b6044906040519063e2517d3f60e01b82523360048301526024820152fd5b346102d35760403660031901126102d3576020610db6610dae61330a565b600435613de5565b604051908152f35b346102d35760403660031901126102d3576001600160401b03602435116102d3573660236024350112156102d3576001600160401b0360243560040135116102d35736602480356004013560051b81350101116102d3576003546040516326e98b8b60e01b8152600480359082015233602482015290602090829060449082906001600160a01b03165afa9081156107ba57610e6891600191600091611411575061033e816134d0565b610e70613805565b600560243560040135116113cc5733600052600c60205260406000205461012c81018091116113b657421061137257610eae60243560040135613d9f565b6000905b602435600401358210610f1a57610f16906040516020815233907ff224a8904d2da43e6b8697f8834ed15dc8245dafd2e518b412f64ca71f843ac36004359180610eff6020820187613320565b0390a3604051918291602083526020830190613320565b0390f35b610f38610f328360243560040135602480350161479e565b806147c0565b6080610f4f8560243560040135602480350161479e565b01359060078210156102d357610f6f92610f6a91369161329f565b614594565b156107c65760095491610f8183613754565b600955610f9c610f328260243560040135602480350161479e565b93906020610fb58460243560040135602480350161479e565b013580151581036102d3576040610fd78560243560040135602480350161479e565b0135906001600160a01b03821682036102d35761102c60606110048760243560040135602480350161479e565b013593604051986110148a6131f6565b868a523360208b015260043560408b0152369161329f565b60608801521515608087015260018060a01b031660a086015260c0850152600060e08501526000610100850152600061012085015260006101408501524261016085015260006101808501528060005260056020526040600020845181556001810160018060a01b036020870151166001600160601b0360a01b8254161790556040850151600282015560608501519485516001600160401b038111610721576110d96003840154613763565b601f811161132b575b506020601f82116001146112ae576111e7939282600b936101809361129d9a9b6000926112a3575b50508160011b916000199060031b1c19161760038501555b6004840161114260808301511515829060ff801983541691151516179055565b60a08201518154610100600160a81b03600892831b16610100600160a81b03199091161790915560c0820151600586015560e082015160068601805460ff191691151560ff169190911790556101008201516007860155840160018060a01b03610120830151166001600160601b0360a01b8254161790556101408101516009850155610160810151600a8501550151151591019060ff801983541691151516179055565b60043560005260116020526112008160406000206137cb565b3360005260126020526112178160406000206137cb565b600435600052601360205260406000203360005260205261123c8160406000206137cb565b806112478386613dd1565b52611260610f328360243560040135602480350161479e565b917f61a7a6dea2aa2bb38e8d1303241c981b5ba162215611d715da3efa50195c177d60405180611295339660043596836139a7565b0390a4613754565b90610eb2565b015190508b8061110a565b6003840160005260206000209760005b601f198416811061131357509260018361129d999a610180946111e79897600b97601f198116106112fa575b505050811b016003850155611122565b015160001960f88460031b161c191690558b80806112ea565b828201518a55600190990198602092830192016112be565b600384016000526020600020601f830160051c81016020841061136b575b601f830160051c8201811061135f5750506110e2565b60008155600101611349565b5080611349565b606460405162461bcd60e51b815260206004820152602060248201527f506c656173652077616974206265666f726520626174636820706f7374696e676044820152fd5b634e487b7160e01b600052601160045260246000fd5b60405162461bcd60e51b815260206004820152601760248201527f546f6f206d616e7920706f73747320696e2062617463680000000000000000006044820152606490fd5b61142a915060203d602011610927576109198183613263565b83610334565b346102d35760203660031901126102d35760043560078110156102d357611458602091613354565b54604051908152f35b346102d35760003660031901126102d357602060405160008152f35b346102d35760003660031901126102d35760206040517fddbe48f52bb812894c8051224ff4457244fc2b78c8caa3e39179c65d4b6de4128152f35b346102d35760403660031901126102d3576114d161330a565b600435600052600060205260406000209060018060a01b0316600052602052602060ff604060002054166040519015158152f35b346102d35760403660031901126102d35760043561152161330a565b9080600052600560205260018060a01b03906115488260016040600020015416331461390a565b611550613805565b6000526008602052604060002091166000526020526040600020600160ff19825416179055600080f35b346102d35760003660031901126102d35760206040517fd2ad11a4404270d22b2f1ce9a30bc7295171184fa77fc61dd65faeb3205771028152f35b346102d35760003660031901126102d3576115ce613e25565b6115d6613805565b600160ff1960025416176002557f62e78cea01bee320cd4e420270b5ea74000d11b0c9f74754ebdbfc544b05a2586020604051338152a1005b346102d35760403660031901126102d3576024356004356001600160401b038083116102d357366023840112156102d35782600401359081116102d35736602482850101116102d357611660613805565b611668613949565b8160005260206005815261168760ff600b60406000200154161561396c565b8260005260068152604060002033600052815260406000206004600052815260ff6040600020541661179a577f52445589f146589c7ef4b77e2a66d0492b4addd046b14551af597215c43347469161174e918460005260068152604060002033600052815260406000206004600052815260406000209060ff199160018382541617905585600052600d815260406000206117228154613754565b905585600052600d815260056040600020541015611757575b50506040519182916024339701836139a7565b0390a360018055005b600590526001600b6040600020019182541617905533847f1da4a15b15417b54b8b3bea2ca87cfc4c94f0fee7d86702d0dab9e2906e7a7d3600080a3858061173b565b6064906040519062461bcd60e51b82526004820152601060248201526f105b1c9958591e481c995c1bdc9d195960821b6044820152fd5b346102d35760203660031901126102d357600435600052600e6020526020604060002054604051908152f35b346102d35760003660031901126102d357602060405161012c8152f35b346102d35760203660031901126102d3576004356001600160a01b038116908190036102d357600052600c6020526020604060002054604051908152f35b346102d35761186636613461565b6000858152600560209081526040918290206002015460035492516326e98b8b60e01b815260048101919091523360248201529096959492916001600160a01b03919088908290604490829086165afa9081156107ba576118d591600191600091611adc575061033e816134d0565b7fd2ad11a4404270d22b2f1ce9a30bc7295171184fa77fc61dd65faeb32057710260005260008752604060002033600052875260ff6040600020541615611aac575b61191f613805565b600954861015611a7157856000526005875260ff600b6040600020015416611a365791869391869593611985976000526005865260026040600020015493604051988996879663f2a5167760e01b8852600488015260a0602488015260a4870190613420565b9315156044860152166064840152608483015203816000305af19182156107ba57600092611a07575b508160005260058352806009604060002001556000526007825260406000206005600052825260406000206119e38154613754565b905533600052600b8252604060002060008052825242604060002055604051908152f35b9091508281813d8311611a2f575b611a1f8183613263565b810103126102d3575190836119ae565b503d611a15565b60405162461bcd60e51b815260048101889052601360248201527214185c995b9d081c1bdcdd0819195b195d1959606a1b6044820152606490fd5b60405162461bcd60e51b8152600481018890526013602482015272125b9d985b1a59081c185c995b9d081c1bdcdd606a1b6044820152606490fd5b600b87526040600020600080528752611ad76108f260406000205460178a526040600020549061351b565b611917565b611af391508a3d8c11610927576109198183613263565b8a610334565b346102d3576020611458611b0c366133af565b6001600160a01b039091166000908152600b84526040902061336d565b346102d35760603660031901126102d35760043560243590811515918281036102d3573360009081527f51ff18b21c447e105ebe7f1df018a6388f6b0b95b88884a053f40188c31af6b16020908152604090912054604435907fddbe48f52bb812894c8051224ff4457244fc2b78c8caa3e39179c65d4b6de4129060ff1615610d7257506003546040516339d0971960e01b815260048101869052908390829060249082906001600160a01b03165afa9081156107ba57600091611cc4575b5015611c88578360005260158252611c108360406000209060ff801983541691151516179055565b60168252611c2f604060002093849060ff801983541691151516179055565b8015611c7b576003600091935b84600182015542600282015501556040519384528301527f800783ef92fa5dd400b654f5a10d8261839fad38959073beeca520064630a52860403393a3005b5060006003603293611c3c565b60405162461bcd60e51b8152600481018390526014602482015273151c9a589948191bd95cc81b9bdd08195e1a5cdd60621b6044820152606490fd5b90508281813d8311611cf2575b611cdb8183613263565b810103126102d357611cec9061363a565b86611be8565b503d611cd1565b346102d35760003660031901126102d357602060ff600254166040519015158152f35b613445565b346102d35760003660031901126102d3576020600954604051908152f35b346102d357611d4d366133de565b611d55613805565b8160005260209160058352611d7560ff600b60406000200154161561396c565b8060005260068352604060002033600052835260ff611d98836040600020613823565b5416611eb557611da833826139cf565b15611e7d576009821015611e67578115611e0c575b611dfe9281600792600052600682526040600020336000528252611de5846040600020613823565b600160ff19825416179055600052526040600020613823565b611e088154613754565b9055005b80600052600583523360018060a01b036001604060002001541603611dbd5760405162461bcd60e51b815260048101849052601460248201527310d85b9b9bdd081b1a5ad9481bdddb881c1bdcdd60621b6044820152606490fd5b634e487b7160e01b600052602160045260246000fd5b60405162461bcd60e51b815260048101849052601060248201526f10d85b9b9bdd081d9a595dc81c1bdcdd60821b6044820152606490fd5b60405162461bcd60e51b8152600481018490526012602482015271105b1c9958591e481a5b9d195c9858dd195960721b6044820152606490fd5b346102d35760003660031901126102d3576004546040516001600160a01b039091168152602090f35b346102d35760803660031901126102d3576024356001600160401b0381116102d357611f489036906004016132d6565b611f506132f4565b6003546040516326e98b8b60e01b8152600480359082015233602482015291929190602090829060449082906001600160a01b03165afa9081156107ba57611fa691600191600091612324575061033e816134d0565b3360009081526000805160206151df833981519152602052604090205460ff16156122f0575b611fd4613805565b611fe08151151561383b565b611fed604435151561387a565b6120016001600160a01b03831615156138c6565b6009549061200e82613754565b6009556040519261201e846131f6565b828452336020850152600435604085015281606085015260006080850152600060a0850152600060c0850152600160e085015260443561010085015260018060a01b03811661012085015260006101408501524261016085015260006101808501528260005260056020526040600020845181556001810160018060a01b036020870151166001600160601b0360a01b8254161790556040850151600282015560608501519485516001600160401b038111610721576120e16003840154613763565b96601f88116122a9575b602097508790601f831160011461224b579282600b936101809361214897966000926106575750508160011b916000199060031b1c19161760038501556004840161050460808301511515829060ff801983541691151516179055565b82600052600a84526040600020336000528452604435604060002055600435600052600e84526040600020805415612240575b506011845261218e8360406000206137cb565b33600052601284526121a48360406000206137cb565b6004356000526013845260406000203360005284526121c78360406000206137cb565b6121dc60405192606084526060840190613420565b906044358584015260018060a01b03166040830152827fca165bd0d0da9653be63395ae04f9c883e3e0c4a60aff4cd6205ddcc85b94257339380600435940390a433600052600b825260406000206006600052825242604060002055604051908152f35b60443590558461217b565b9060038501600052886000209160005b601f198516811061229257508361018093612148979693600193600b97601f198116106106aa57505050811b0160038501556104e4565b91928a60018192868501518155019401920161225b565b600384016000526020600020601f830160051c8101602084106122e9575b601f8a0160051c820181106122dd5750506120eb565b600081556001016122c7565b50806122c7565b600b6020526040600020600660005260205261231f6108f260406000205460176020526040600020549061351b565b611fcc565b61233d915060203d602011610927576109198183613263565b85610334565b346102d35760603660031901126102d35761235c61330a565b6044356001600160401b0381116102d357366023820112156102d35761238c90369060248160040135910161329f565b600435600090815260056020526040902060088101546001600160a01b03939084169290831561247457600261241d9301546040519060208201926001600160601b03199060601b1683526034820152603481526123e981613212565b5190207f19457468657265756d205369676e6564204d6573736167653a0a333200000000600052601c52603c600020613cbc565b5061242a819392936134d0565b61243b576020926040519216148152f35b60405162461bcd60e51b8152602060048201526011602482015270496e76616c6964207369676e617475726560781b6044820152606490fd5b60405162461bcd60e51b815260206004820152601860248201527f506f7374206e6f74207369676e617475726520676174656400000000000000006044820152606490fd5b346102d3576020806003193601126102d35760043560005260058152604060002080549060018060a01b03906001908282820154166002820154936003830160048401549560058501549383600860ff60068901541697015416968a6040519460009281549161252883613763565b808952928281169081156125db57506001146125a1575b5050505090612555846125769594930384613263565b6040519a8b9a8b528a015260408901526101208060608a0152880190613420565b9460ff81161515608088015260081c1660a086015260c0850152151560e08401526101008301520390f35b6000908152838120939450925b8284106125c8575050508401018a8461257661255561253f565b80548885018601529284019281016125ae565b60ff1916858a0152505050151560051b85010190508a8461257661255561253f565b346102d3576020611458612610366133de565b90600052600783526040600020613823565b346102d35760003660031901126102d35761263b613e25565b60025460ff81161561267a5760ff19166002557f5db9ee0a495bf2e6ff9c91a7834c1ba4fdd244a5e8aa4e537bd38aeae4b073aa6020604051338152a1005b604051638dfc202b60e01b8152600490fd5b346102d35760403660031901126102d35760206126b26126aa61330a565b6004356139cf565b6040519015158152f35b346102d35760403660031901126102d3576004356126d861330a565b336001600160a01b03821603612779578115801590612745575b15612700576109e3916150f0565b60405162461bcd60e51b815260206004820152601f60248201527f43616e6e6f742072656e6f756e6365206c6173742061646d696e20726f6c65006044820152606490fd5b506000805260146020527f4f26c3876aa9f4b92579780beea1161a61f87ebf1ec6ee865b299e447ecba99c546001106126f2565b60405162461bcd60e51b815260206004820152601b60248201527f43616e206f6e6c792072656e6f756e6365206f776e20726f6c657300000000006044820152606490fd5b346102d3576020610db66127d1366133af565b906147f2565b346102d35760403660031901126102d3576109e36004356127f661330a565b906128126109ab82600052600060205260016040600020015490565b61282d6109ab82600052600060205260016040600020015490565b615165565b346102d35760403660031901126102d3576020610db661285061330a565b600435613b5f565b346102d35760003660031901126102d357604080516005815261012c6020820152f35b346102d3576102c96102b561288f36613385565b9161421a565b346102d35760403660031901126102d3576003546040516326e98b8b60e01b815260048035908201819052336024830152916020916001600160a01b0391821691908381604481865afa9283156107ba57612901600160249587946000916129bd575061033e816134d0565b612909613805565b60405193848092634ce0ed3d60e01b82528860048301525afa9182156107ba57600092612985575b503391160361294f57600e9160005252602435604060002055600080f35b6064906040519062461bcd60e51b82526004820152600f60248201526e2737ba103a3934b1329030b236b4b760891b6044820152fd5b9091508281813d83116129b6575b61299d8183613263565b810103126102d3575181811681036102d3579084612931565b503d612993565b6129d49150853d8711610927576109198183613263565b89610334565b346102d35760203660031901126102d3576020610db6600435600052600060205260016040600020015490565b346102d35760003660031901126102d35760206040517fa91575122619884f8f346f6f08d276f996bc367457e1cf69df01d9361cf4e0f18152f35b346102d35760203660031901126102d35760043560005260166020526060604060002060ff815416906003600182015491015490604051921515835260208301526040820152f35b346102d35760003660031901126102d3576003546040516001600160a01b039091168152602090f35b346102d3576020806003193601126102d357600435908160005260078152604060002091600592836000528252612aee604060002054613d9f565b926000906000926009918254945b858110612b165760405187815280610f16818a018b613320565b80612b3d9160005282885260406000208486820154149081612b5c575b50612b4257613754565b612afc565b80612b56612b4f88613754565b978b613dd1565b52613754565b60ff9150600b015416158a612b33565b346102d35760203660031901126102d357600435806000526005602052612ba460018060a01b0360016040600020015416331461390a565b612bac613805565b612bb4613949565b80600052600560205260ff600b6040600020015416612c1657806000526005602052600b604060002001600160ff1982541617905533907f1da4a15b15417b54b8b3bea2ca87cfc4c94f0fee7d86702d0dab9e2906e7a7d3600080a360018055005b60405162461bcd60e51b8152602060048201526014602482015273141bdcdd08185b1c9958591e4819195b195d195960621b6044820152606490fd5b346102d35760603660031901126102d3576102c96102b5604435602435600435613e92565b346102d35760403660031901126102d3576004356001600160401b0381116102d357612ca79036906004016132d6565b6024359060078210156102d3576020916126b291614594565b346102d35760c03660031901126102d3576024356001600160401b0381116102d357612cf09036906004016132d6565b612cf86132f4565b608435916001600160a01b03831683036102d3576003546040516326e98b8b60e01b8152600480359082015233602482015290602090829060449082906001600160a01b03165afa9081156107ba57612d5f9160019160009161315a575061033e816134d0565b3360009081526000805160206151df833981519152602052604090205460ff1615613127575b612d8d613805565b612d998151151561383b565b612da6604435151561387a565b612dba6001600160a01b03831615156138c6565b6004546024906000906001600160a01b0390811690612ddc90871682146135ac565b6040516372d9967560e01b815260a435600482015292839182905afa9081156107ba57612e179160e09160009161310c575001511515613712565b60095491612e2483613754565b60095560405193612e34856131f6565b83855233602086015260043560408601528260608601526001608086015260018060a01b03811660a086015260a43560c0860152600160e086015260443561010086015260018060a01b03821661012086015260006101408601524261016086015260006101808601528360005260056020526040600020855181556001810160018060a01b036020880151166001600160601b0360a01b8254161790556040860151600282015560608601519586516001600160401b03811161072157612eff6003840154613763565b97601f89116130c5575b602098508890601f831160011461304e579282600b9361018093612f6697966000926130435750508160011b916000199060031b1c19161760038501556004840161050460808301511515829060ff801983541691151516179055565b60043560005260118552612f7e8460406000206137cb565b3360005260128552612f948460406000206137cb565b600435600052601385526040600020336000528552612fb78460406000206137cb565b612fcc6040519360a0855260a0850190613420565b604435848701526001600160a01b0392831660408501529116606083015260a435608083015233916004359184917fe997ed541d9de5091469e07bd495b97e6370bc1281355c23484e8500813d4b7b9181900390a433600052600b8252604060002060008052825242604060002055604051908152f35b015190508c806104cc565b9060038501600052896000209160005b601f19851681106130ae57508361018093612f66979693600193600b97601f1981161061309557505050811b0160038501556104e4565b015160001960f88460031b161c191690558c808061069a565b91928b60018192868501518155019401920161305e565b600384016000526020600020601f830160051c810160208410613105575b601f8b0160051c820181106130f9575050612f09565b600081556001016130e3565b50806130e3565b61312191503d806000833e6107ac8183613263565b86610788565b600b6020526040600020600080526020526131556108f260406000205460176020526040600020549061351b565b612d85565b613173915060203d602011610927576109198183613263565b86610334565b346102d35760203660031901126102d35760043563ffffffff60e01b81168091036102d357602090637965db0b60e01b81149081156131be575b506040519015158152f35b6301ffc9a760e01b149050826131b3565b346102d35760003660031901126102d35760025460081c6001600160a01b03168152602090f35b6101a081019081106001600160401b0382111761072157604052565b606081019081106001600160401b0382111761072157604052565b604081019081106001600160401b0382111761072157604052565b602081019081106001600160401b0382111761072157604052565b90601f801991011681019081106001600160401b0382111761072157604052565b6001600160401b03811161072157601f01601f191660200190565b9291926132ab82613284565b916132b96040519384613263565b8294818452818301116102d3578281602093846000960137010152565b9080601f830112156102d3578160206132f19335910161329f565b90565b606435906001600160a01b03821682036102d357565b602435906001600160a01b03821682036102d357565b90815180825260208080930193019160005b828110613340575050505090565b835185529381019392810192600101613332565b6007811015611e67576000526017602052604060002090565b906007811015611e6757600052602052604060002090565b60609060031901126102d3576004356001600160a01b03811681036102d357906024359060443590565b60409060031901126102d3576004356001600160a01b03811681036102d3579060243560078110156102d35790565b60409060031901126102d3576004359060243560098110156102d35790565b60005b8381106134105750506000910152565b8181015183820152602001613400565b90602091613439815180928185528580860191016133fd565b601f01601f1916010190565b346102d35760003660031901126102d357602060405160058152f35b9060a06003198301126102d35760043591602435906001600160401b0382116102d357613490916004016132d6565b9060443580151581036102d357906064356001600160a01b03811681036102d3579060843590565b908160209103126102d3575160048110156102d35790565b60041115611e6757565b156134e157565b60405162461bcd60e51b81526020600482015260126024820152712737ba1030903a3934b1329036b2b6b132b960711b6044820152606490fd5b919082018092116113b657565b1561352f57565b606460405162461bcd60e51b815260206004820152602060248201527f506c656173652077616974206265666f726520706f7374696e6720616761696e6044820152fd5b604051906135808261322d565b601782527f2274797065223a2250524f4a4543545f555044415445220000000000000000006020830152565b156135b357565b60405162461bcd60e51b815260206004820152601c60248201527f496e76616c696420636f6c6c65637469626c6520636f6e7472616374000000006044820152606490fd5b81601f820112156102d357805161360e81613284565b9261361c6040519485613263565b818452602082840101116102d3576132f191602080850191016133fd565b519081151582036102d357565b6020818303126102d35780516001600160401b03918282116102d35701916101009283818303126102d357604051938401848110848211176107215760405280518381116102d3578261369b9183016135f8565b845260208101518381116102d357826136b59183016135f8565b602085015260408101519283116102d3576136d760e09261370a9483016135f8565b6040850152606081015160608501526080810151608085015260a081015160a085015260c081015160c08501520161363a565b60e082015290565b1561371957565b60405162461bcd60e51b8152602060048201526013602482015272496e76616c696420636f6c6c65637469626c6560681b6044820152606490fd5b60001981146113b65760010190565b90600182811c92168015613793575b602083101461377d57565b634e487b7160e01b600052602260045260246000fd5b91607f1691613772565b80548210156137b55760005260206000200190600090565b634e487b7160e01b600052603260045260246000fd5b805468010000000000000000811015610721576137ed9160018201815561379d565b819291549060031b91821b91600019901b1916179055565b60ff6002541661381157565b60405163d93c066560e01b8152600490fd5b906009811015611e6757600052602052604060002090565b1561384257565b60405162461bcd60e51b815260206004820152601060248201526f496e76616c6964206d6574616461746160801b6044820152606490fd5b1561388157565b60405162461bcd60e51b815260206004820152601b60248201527f496e76616c696420656e6372797074696f6e206b6579206861736800000000006044820152606490fd5b156138cd57565b60405162461bcd60e51b815260206004820152601560248201527424b73b30b634b21030b1b1b2b9b99039b4b3b732b960591b6044820152606490fd5b1561391157565b60405162461bcd60e51b815260206004820152601060248201526f2737ba103837b9ba1031b932b0ba37b960811b6044820152606490fd5b60026001541461395a576002600155565b604051633ee5aeb560e01b8152600490fd5b1561397357565b60405162461bcd60e51b815260206004820152600c60248201526b141bdcdd0819195b195d195960a21b6044820152606490fd5b90918060409360208452816020850152848401376000828201840152601f01601f1916010190565b9060009182526020916005835260409283822060ff600b82015416613b5757600882528483206001600160a01b03808616808652918452868520549195909160ff16613b1b57858260018501541614613b1b57600354600284015488516326e98b8b60e01b815260048101919091526001600160a01b0392909216602483015284908290604490829086165afa908115613b4d57906001918691613b30575b50613a78816134d0565b03613b2757600482015460ff811615613b1b5760081c169384613aa057505050505050600190565b60446005849301549187519687938492627eeac760e11b8452600484015260248301525afa938415613b1057508193613adc575b505050151590565b9091809350813d8311613b09575b613af48183613263565b81010312613b06575051388080613ad4565b80fd5b503d613aea565b51913d9150823e3d90fd5b50505050505050600190565b50505091505090565b613b479150853d8711610927576109198183613263565b38613a6e565b87513d87823e3d90fd5b505091505090565b90613b6a81836139cf565b15613c7757600091808352602090600a825260408085209160018060a01b039283861690818852855282872054613c5e5750855260058352808520928460ff6006860154169384613bd1575b50505050613bc357505090565b6132f1925060020154613de5565b600354600287015485516326e98b8b60e01b815260048101919091526001600160a01b039390931660248401529394509092829184916044918391165afa928315613c55575090600192918692613c38575b5050613c2e816134d0565b1438808481613bb6565b613c4e9250803d10610927576109198183613263565b3880613c23565b513d87823e3d90fd5b939250909480945052600a815283832091835252205490565b60405162461bcd60e51b815260206004820152601b60248201527f4e6f7420617574686f72697a656420746f207669657720706f737400000000006044820152606490fd5b8151919060418303613ced57613ce692506020820151906060604084015193015160001a90613cf8565b9192909190565b505060009160029190565b91907f7fffffffffffffffffffffffffffffff5d576e7357a4501ddfe92f46681b20a08411613d7c57926020929160ff608095604051948552168484015260408301526060820152600092839182805260015afa15613d705780516001600160a01b03811615613d6757918190565b50809160019190565b604051903d90823e3d90fd5b50505060009160039190565b6001600160401b0381116107215760051b60200190565b90613da982613d88565b613db66040519182613263565b8281528092613dc7601f1991613d88565b0190602036910137565b80518210156137b55760209160051b010190565b600052600e6020526040600020549060405190602082019283526001600160601b03199060601b16604082015260348152613e1f81613212565b51902090565b3360009081527fad3228b676f7d3cd4284a5443f17f1962b36e491b30a40b2405849e597ba5fb5602052604081205460ff1615610d725750565b80600052600060205260406000203360005260205260ff6040600020541615610d725750565b919082039182116113b657565b909260009182526020916011835260409081812095819282968854975b888110613fbb575084831015613f9d57613ec9908361351b565b82858211613f95575b613edb91613e85565b92613ee584613d9f565b9481968295835b8b811080613f8c575b15613f7b57613f04818e61379d565b9054600391821b1c865260058c5260ff600b88882001541615613f31575b50613f2c90613754565b613eec565b9099908d888a10613f655791613f5d91613f4e8d613f2c9561379d565b9054911b1c612b56828d613dd1565b995b90613f22565b50509896613f75613f2c91613754565b97613f5f565b505098509850505050509150509190565b50818a10613ef5565b859150613ed2565b5093955050925093505190613fb182613248565b8082523681379190565b613fc5818b61379d565b90549060031b1c85526005885260ff600b84872001541615613ff0575b613feb90613754565b613eaf565b94613ffd613feb91613754565b959050613fe2565b909260009160018060a01b031682526020916012835260409081812095819282968854975b8881106140f8575084831015613f9d57614044908361351b565b828582116140f0575b61405691613e85565b9261406084613d9f565b9481968295835b8b8110806140e7575b15613f7b5761407f818e61379d565b9054600391821b1c865260058c5260ff600b888820015416156140ac575b506140a790613754565b614067565b9099908d888a106140d157916140c991613f4e8d6140a79561379d565b995b9061409d565b505098966140e16140a791613754565b976140cb565b50818a10614070565b85915061404d565b614102818b61379d565b90549060031b1c85526005885260ff600b8487200154161561412d575b61412890613754565b61402a565b9461413a61412891613754565b95905061411f565b9093929360009182526013602052604082209060018060a01b031682526020526040812090815494858410156142095761417c908461351b565b83868211614201575b61418e91613e85565b9061419882613d9f565b93815b8381106141ab5750505050509190565b6141b5818361351b565b600181018091116141ed57906141d76141d16141e8938b613e85565b8761379d565b90549060031b1c612b568289613dd1565b61419b565b634e487b7160e01b84526011600452602484fd5b869150614185565b5091505060405190613fb182613248565b600354604051630641a64960e21b81526001600160a01b03928316600482015294929160009186916024918391165afa9384156107ba576000946144f0575b50600091825b855184101561429a5761428e614294916142798689613dd1565b5160005260116020526040600020549061351b565b93613754565b9261425f565b92509290938285108015906144e8575b6144cb576142b783613d9f565b926142c181613d9f565b9560009360005b845181101561436a576142db8186613dd1565b516000526011602052604060002060009080545b89818410614309575050505061430490613754565b6142c8565b8961435d9161432f869c6143228798614363979861379d565b90549060031b1c92613dd1565b5261433a8b8661379d565b90549060031b1c60005260056020528d612b5682600a6040600020015492613dd1565b98613754565b91906142ef565b5092509250936000925b600019928684018781116113b6578510156144505760005b6143968689613e85565b8581019081116113b65781101561443d576143b1818a613dd1565b5190600181018082116113b6576143d9926143cc828d613dd1565b51116143de575b50613754565b61438c565b6143e8828c613dd1565b518b6143ff846143f88584613dd1565b5192613dd1565b5261440a828d613dd1565b52614436614418838b613dd1565b5191614424818c613dd1565b5161442f858d613dd1565b528a613dd1565b52386143d3565b5092509261444a90613754565b92614374565b92509392509394508285614464838361351b565b11156144b957614475915085613e85565b9061447f82613d9f565b9260005b83811061449257505050509190565b806144a96144a36144b4938561351b565b85613dd1565b51612b568288613dd1565b614483565b6144c6614475928261351b565b613e85565b505091506040516144db81613248565b6000815260003681379190565b5081156142aa565b9093503d806000833e6145038183613263565b81019060209081818403126102d3578051906001600160401b0382116102d357019180601f840112156102d357825161453b81613d88565b936145496040519586613263565b818552838086019260051b8201019283116102d3578301905b82821061457457505050509238614259565b81518152908301908301614562565b9081518110156137b5570160200190565b90815180156146fa5760208301516001600160f81b0319908116607b60f81b1480159291906146d1575b50506146c1576145ed6040516145d38161322d565b6007815266113a34ba36329160c91b602082015283614702565b6146186040516145fc8161322d565b60098152681131b7b73a32b73a1160b91b602082015284614702565b90159081156146c8575b506146c1576007811015611e6757600281036146785750604051614669916146498261322d565b600e82526d1132bb32b73a2232ba30b4b6399160911b6020830152614702565b1561467357600190565b600090565b600114614686575b50600190565b6040516146b6916146968261322d565b600e82526d1136b2b234b0a1b7b73a32b73a1160911b6020830152614702565b156146735738614680565b5050600090565b90501538614622565b600019820192509082116113b657607d60f81b916146ef9085614583565b5116141538806145be565b505050600090565b9081518151116146c1576000905b61471d8351825190613e85565b8210156146fa5760019260005b8251811015614794576001600160f81b03198061475061474a848861351b565b85614583565b51169061475d8386614583565b5116036147725761476d90613754565b61472a565b5092509060005b61478c5761478690613754565b90614710565b505050600190565b5092919091614779565b91908110156137b55760051b81013590609e19813603018212156102d3570190565b903590601e19813603018212156102d357018035906001600160401b0382116102d3576020019181360383136102d357565b906148269160018060a01b0316600052600b60205261481f61481882604060002061336d565b5491613354565b549061351b565b80421015614839576132f1904290613e85565b50600090565b61485061484a613573565b82614702565b156146805761485e9061494e565b906000198214614948576000918252602060058152604083209060ff600b830154166149445760019160018060a01b038382015416331461493d5760030160405192858254926148ad84613763565b8087529383811690811561491957506001146148de575b50505050506148d9816132f193940382613263565b614ba7565b9080949750528583205b828410614906575050508101909201916148d9816132f138806148c4565b80548585018801529286019281016148e8565b60ff19168787015250505050151560051b82010192506148d9816132f138806148c4565b5090925050565b5050565b60009150565b60405161495a8161322d565b601081526f11383937b532b1ba2837b9ba24b2111d60811b6020820152604051906149ac906149888361322d565b60118352701137b934b3b4b730b62837b9ba24b2111d60791b6020840152836149c4565b91600183016149bf576132f192506149c4565b505090565b916000905b6149d68451845190613e85565b821015614b9d5760019260005b8151811015614b93576001600160f81b031980614a09614a03848861351b565b89614583565b511690614a168385614583565b511603614a2b57614a2690613754565b6149e3565b5092509060005b614a4557614a3f90613754565b906149c9565b614a519192519061351b565b8251811080614b2c575b15614a6e57614a6990613754565b614a51565b919060005b8251841080614b0a575b80614ae8575b15614ae257602f19614a958585614583565b5160f81c0160ff908181116113b6571690600a90818319048111614ad6578181029181830414901517156113b657614ad09161428e9161351b565b92614a73565b50505091505060001990565b92509050565b50603960f81b6001600160f81b0319614b018686614583565b51161115614a83565b50600360fc1b6001600160f81b0319614b238686614583565b51161015614a7d565b506001600160f81b0319600160fd1b81614b468487614583565b511614908115614b78575b8115614b5e575b50614a5b565b601d60f91b9150614b6f8386614583565b51161438614b58565b9050601160f91b81614b8a8487614583565b51161490614b51565b5092919091614a32565b6000199350915050565b604090815190614bb68261322d565b6008825260209267227465616d223a5b60c01b848401526000925b614bde8351825190613e85565b8410156150a45760019460005b825181101561509a576001600160f81b031980614c11614c0b848a61351b565b88614583565b511690614c1e8386614583565b511603614c3357614c2e90613754565b614beb565b5094509260005b614c4d57614c4790613754565b92614bd1565b93819293915194614c5d86613212565b60288652818601928436853760005b60148110614fc9575090614cc891614cc1602c8751809a6a1130b2323932b9b9911d1160a91b8883015251614ca781602b9a8b8501906133fd565b8101601160f91b809982015203600c81018b520189613263565b519061351b565b935b8051851080614fa7575b15614f3c5760019560005b8151811015614f9d57614cf2818861351b565b835111801590614f69575b614d0f57614d0a90613754565b614cdf565b5095509360005b614d2957614d2390613754565b93614cca565b9450909192835194614d3a8661322d565b600e86526d113832b936b4b9b9b4b7b739911d60911b83870152935b8151851080614f47575b15614f3c5760019560005b8151811015614f3257614d7e818861351b565b845111801590614efe575b614d9b57614d9690613754565b614d6b565b5095509360005b614db6575b614db090613754565b93614d56565b614dc89086929496959395519061351b565b8351811080614e98575b15614de557614de090613754565b614dc8565b9390825192614df38461322d565b600684526555504441544560d01b8385015260019660005b8551811015614e8b57614e1e818961351b565b875111801590614e57575b614e3b57614e3690613754565b614e0b565b50949293509490955060005b15614da757505050505050600190565b506001600160f81b031980614e75614e6f848c61351b565b8a614583565b511690614e828389614583565b51161415614e29565b5094929350949095614e47565b506001600160f81b031986600160fd1b82614eb38589614583565b511614918215614ee3575b8215614ecc575b5050614dd2565b909150614ed98387614583565b5116148638614ec5565b9150605b60f81b82614ef58589614583565b51161491614ebe565b506001600160f81b031980614f1c614f16848b61351b565b87614583565b511690614f298385614583565b51161415614d89565b5095949094614da2565b505050505050600090565b50605d60f81b6001600160f81b0319614f608785614583565b51161415614d60565b506001600160f81b031980614f87614f81848b61351b565b86614583565b511690614f948385614583565b51161415614cfd565b5095949094614d16565b50605d60f81b6001600160f81b0319614fc08784614583565b51161415614cd4565b6013908082039182116113b657600382901b916001600160fd1b038116036113b65760ff918281116113b6576001811b156150845733901c60f08116838216039283116113b6576150229060f41b600f60f81b166150ae565b600182901b926001600160ff1b03831683036113b65761505c9160001a615049858d614583565b5360f81b6001600160f81b0319166150ae565b91600181018091116113b65761507961507f9360001a918b614583565b53613754565b614c6c565b634e487b7160e01b600052601260045260246000fd5b5094939093614c3a565b5050505050600090565b60f81c600a8110156150d55760300160ff81116113b65760f81b6001600160f81b03191690565b60570160ff81116113b65760f81b6001600160f81b03191690565b9060009180835282602052604083209160018060a01b03169182845260205260ff6040842054166000146149bf5780835282602052604083208284526020526040832060ff1981541690557ff6391f5c32d9c69d2a47ea670b442974b53935d1edc7fd64eb21e047a839171b339380a4600190565b9060009180835282602052604083209160018060a01b03169182845260205260ff604084205416156000146149bf57808352826020526040832082845260205260408320600160ff198254161790557f2f8788117e7eff1d82e926ec794901d17c78024a50270940304540a733656f0d339380a460019056fec448a26375e4525d74e98abed52ab853d6b68cb7dc4e14a91f99969c6530a340a164736f6c6343000814000a2f8788117e7eff1d82e926ec794901d17c78024a50270940304540a733656f0d",
  "linkReferences": {},
  "deployedLinkReferences": {}
}