{
  "_format": "hh-sol-artifact-1",
  "contractName": "SuperCommunityController",
  "sourceName": "contracts/SuperCommunityController.sol",
  "abi": [
    {
      "inputs": [
        {
          "internalType": "address",
          "name": "_roleManager",
          "type": "address"
        },
        {
          "internalType": "address",
          "name": "_tribeController",
          "type": "address"
        }
      ],
      "stateMutability": "nonpayable",
      "type": "constructor"
    },
    {
      "anonymous": false,
      "inputs": [
        {
          "indexed": true,
          "internalType": "uint256",
          "name": "superCommunityId",
          "type": "uint256"
        },
        {
          "indexed": false,
          "internalType": "string",
          "name": "name",
          "type": "string"
        },
        {
          "indexed": true,
          "internalType": "address",
          "name": "admin",
          "type": "address"
        }
      ],
      "name": "SuperCommunityCreated",
      "type": "event"
    },
    {
      "anonymous": false,
      "inputs": [
        {
          "indexed": true,
          "internalType": "uint256",
          "name": "superCommunityId",
          "type": "uint256"
        },
        {
          "indexed": true,
          "internalType": "uint256",
          "name": "tribeId",
          "type": "uint256"
        }
      ],
      "name": "TribeJoinedSuperCommunity",
      "type": "event"
    },
    {
      "anonymous": false,
      "inputs": [
        {
          "indexed": true,
          "internalType": "uint256",
          "name": "superCommunityId",
          "type": "uint256"
        },
        {
          "indexed": true,
          "internalType": "uint256",
          "name": "tribeId",
          "type": "uint256"
        }
      ],
      "name": "TribeLeftSuperCommunity",
      "type": "event"
    },
    {
      "inputs": [
        {
          "internalType": "uint256",
          "name": "superCommunityId",
          "type": "uint256"
        },
        {
          "internalType": "uint256",
          "name": "tribeId",
          "type": "uint256"
        }
      ],
      "name": "addTribeToSuperCommunity",
      "outputs": [],
      "stateMutability": "nonpayable",
      "type": "function"
    },
    {
      "inputs": [
        {
          "internalType": "string",
          "name": "name",
          "type": "string"
        },
        {
          "internalType": "string",
          "name": "metadata",
          "type": "string"
        },
        {
          "internalType": "uint256[]",
          "name": "initialTribeIds",
          "type": "uint256[]"
        }
      ],
      "name": "createSuperCommunity",
      "outputs": [
        {
          "internalType": "uint256",
          "name": "",
          "type": "uint256"
        }
      ],
      "stateMutability": "nonpayable",
      "type": "function"
    },
    {
      "inputs": [
        {
          "internalType": "uint256",
          "name": "superCommunityId",
          "type": "uint256"
        }
      ],
      "name": "getSuperCommunityTribes",
      "outputs": [
        {
          "internalType": "uint256[]",
          "name": "",
          "type": "uint256[]"
        }
      ],
      "stateMutability": "view",
      "type": "function"
    },
    {
      "inputs": [
        {
          "internalType": "uint256",
          "name": "superCommunityId",
          "type": "uint256"
        },
        {
          "internalType": "address",
          "name": "user",
          "type": "address"
        }
      ],
      "name": "isSuperCommunityMember",
      "outputs": [
        {
          "internalType": "bool",
          "name": "",
          "type": "bool"
        }
      ],
      "stateMutability": "view",
      "type": "function"
    },
    {
      "inputs": [],
      "name": "nextSuperCommunityId",
      "outputs": [
        {
          "internalType": "uint256",
          "name": "",
          "type": "uint256"
        }
      ],
      "stateMutability": "view",
      "type": "function"
    },
    {
      "inputs": [
        {
          "internalType": "uint256",
          "name": "superCommunityId",
          "type": "uint256"
        },
        {
          "internalType": "uint256",
          "name": "tribeId",
          "type": "uint256"
        }
      ],
      "name": "removeTribeFromSuperCommunity",
      "outputs": [],
      "stateMutability": "nonpayable",
      "type": "function"
    },
    {
      "inputs": [],
      "name": "roleManager",
      "outputs": [
        {
          "internalType": "contract RoleManager",
          "name": "",
          "type": "address"
        }
      ],
      "stateMutability": "view",
      "type": "function"
    },
    {
      "inputs": [
        {
          "internalType": "uint256",
          "name": "",
          "type": "uint256"
        }
      ],
      "name": "superCommunities",
      "outputs": [
        {
          "internalType": "string",
          "name": "name",
          "type": "string"
        },
        {
          "internalType": "string",
          "name": "metadata",
          "type": "string"
        },
        {
          "internalType": "address",
          "name": "admin",
          "type": "address"
        },
        {
          "internalType": "bool",
          "name": "active",
          "type": "bool"
        }
      ],
      "stateMutability": "view",
      "type": "function"
    },
    {
      "inputs": [],
      "name": "tribeController",
      "outputs": [
        {
          "internalType": "contract TribeController",
          "name": "",
          "type": "address"
        }
      ],
      "stateMutability": "view",
      "type": "function"
    },
    {
      "inputs": [
        {
          "internalType": "uint256",
          "name": "",
          "type": "uint256"
        }
      ],
      "name": "tribeInSuperCommunity",
      "outputs": [
        {
          "internalType": "bool",
          "name": "",
          "type": "bool"
        }
      ],
      "stateMutability": "view",
      "type": "function"
    },
    {
      "inputs": [
        {
          "internalType": "uint256",
          "name": "",
          "type": "uint256"
        }
      ],
      "name": "tribeSuperCommunity",
      "outputs": [
        {
          "internalType": "uint256",
          "name": "",
          "type": "uint256"
        }
      ],
      "stateMutability": "view",
      "type": "function"
    },
    {
      "inputs": [
        {
          "internalType": "uint256",
          "name": "superCommunityId",
          "type": "uint256"
        },
        {
          "internalType": "string",
          "name": "newName",
          "type": "string"
        },
        {
          "internalType": "string",
          "name": "newMetadata",
          "type": "string"
        }
      ],
      "name": "updateSuperCommunityMetadata",
      "outputs": [],
      "stateMutability": "nonpayable",
      "type": "function"
    }
  ],
  "bytecode": "0x60803461008d57601f61134138819003918201601f19168301916001600160401b0383118484101761009257808492604094855283398101031261008d57610052602061004b836100a8565b92016100a8565b600080546001600160a01b039384166001600160a01b0319918216179091556001805492909316911617905560405161128490816100bd8239f35b600080fd5b634e487b7160e01b600052604160045260246000fd5b51906001600160a01b038216820361008d5756fe608080604052600436101561001357600080fd5b60003560e01c908162435da514610e2e575080630408732714610df257806316bfd12b14610dc95780634c2210d414610b6457806384c7b243146109605780638e2bb484146108da5780638fce9e13146107f15780639dc62981146107d3578063ce1afbf3146107a2578063cec460bd14610776578063da6254eb146106cd5763f082292f146100a257600080fd5b346106c05760603660031901126106c05760043567ffffffffffffffff81116106c0576100d3903690600401610e68565b60243567ffffffffffffffff81116106c0576100f3903690600401610e68565b91909267ffffffffffffffff604435116106c0573660236044350112156106c05767ffffffffffffffff60443560040135116106c0573660246044356004013560051b6044350101116106c057600054604051637909cb5960e01b81526001600160a01b0390911690602081600481855afa801561068957600090610695575b60209150604460405180948193632474521560e21b835260048301523360248301525afa9081156106895760009161065a575b501561062557600554926101b984610ff0565b600555604051948560a081011067ffffffffffffffff60a08801111761050b576101f89160a087016040526101ef368686610fff565b87523691610fff565b60208501523360408501526040519361021d60206044356004013560051b0186610ed0565b604435600481013586526024019485602082015b60246044356004013560051b604435010182106106155750506060820152600160808201528360005260026020526040600020815180519067ffffffffffffffff821161050b57819061028e826102888654610e96565b8661105d565b602090601f83116001146105a95760009261059e575b50508160011b916000199060031b1c19161781555b602082015180519067ffffffffffffffff821161050b5781906102ec826102e36001870154610e96565b6001870161105d565b602090601f831160011461052c57600092610521575b50508160011b916000199060031b1c19161760018201555b6002810160018060a01b036040840151166bffffffffffffffffffffffff60a01b825416179055606082015180519067ffffffffffffffff821161050b57600160401b821161050b5760209060038401548360038601558084106104eb575b500160038301600052602060002060005b8381106104d7575050505060046080910191015115159460ff19918281541660ff80981617905560005b60443560040135811061041d5760208686817f6c5ddb457f1c1ec9f984378e6b123add8249a0fe69a498d7a3453bec4dcad528888360405191878352818884015260408301376000604085830101526040813395601f80199101168101030190a3604051908152f35b806104326104d29260443560040135856110a2565b35600052600460205261044c8860406000205416156110c8565b61045d8160443560040135856110a2565b3560005260036020528660406000205561047e8160443560040135856110a2565b35600052600460205260406000206001858254161790556104a68160443560040135856110a2565b35877f7c86e128ff5235c45900bb710ecf1947404283dd53ffce2c0e40f509af645ed6600080a3610ff0565b6103b4565b60019060208451940193818401550161038a565b610505906003860160005284846000209182019101611046565b38610379565b634e487b7160e01b600052604160045260246000fd5b015190503880610302565b9250600184016000526020600020906000935b601f1984168510610583576001945083601f1981161061056a575b505050811b01600182015561031a565b015160001960f88460031b161c1916905538808061055a565b8181015183556020948501946001909301929091019061053f565b0151905038806102a4565b9250836000526020600020906000935b601f19841685106105fa576001945083601f198116106105e1575b505050811b0181556102b9565b015160001960f88460031b161c191690553880806105d4565b818101518355602094850194600190930192909101906105b9565b8135815260209182019101610231565b60405162461bcd60e51b815260206004820152600d60248201526c2737ba1037b933b0b734bd32b960991b6044820152606490fd5b61067c915060203d602011610682575b6106748183610ed0565b810190610fd8565b386101a6565b503d61066a565b6040513d6000823e3d90fd5b506020813d6020116106c5575b816106af60209383610ed0565b810103126106c05760209051610173565b600080fd5b3d91506106a2565b346106c0576020806003193601126106c05760043560005260028152600360406000200160405190818382549182815201908192600052846000209060005b8682821061076257868661072282880383610ed0565b604051928392818401908285525180915260408401929160005b82811061074b57505050500390f35b83518552869550938101939281019260010161073c565b83548552909301926001928301920161070c565b346106c05760203660031901126106c05760043560005260036020526020604060002054604051908152f35b346106c05760203660031901126106c0576004356000526004602052602060ff604060002054166040519015158152f35b346106c05760003660031901126106c0576020600554604051908152f35b346106c0576107ff36610e52565b908060005260026020526003604060002061082060ff600483015416611113565b61083760018060a01b03600283015416331461115f565b83600052600460205261085260ff60406000205416156110c8565b018054600160401b81101561050b576108758161088e9360018794018155611197565b90919082549060031b91821b91600019901b1916179055565b8160005260036020528060406000205560046020526040600020600160ff198254161790557f7c86e128ff5235c45900bb710ecf1947404283dd53ffce2c0e40f509af645ed6600080a3005b346106c05760203660031901126106c0576004356000526002602052610941604060002061090781610ef2565b9061091460018201610ef2565b61094f60ff600460018060a01b036002860154169401541691604051958695608087526080870190610f98565b908582036020870152610f98565b916040840152151560608301520390f35b346106c05760603660031901126106c05767ffffffffffffffff6024358181116106c057610992903690600401610e68565b6044358381116106c0576109aa903690600401610e68565b9190600435600052602091600283526040600020946109cf60ff600488015416611113565b6109e660018060a01b03600288015416331461115f565b86821161050b578190610a03826109fd8954610e96565b8961105d565b600090601f8311600114610afa57600092610aef575b50508160011b916000199060031b1c19161784555b600180940194831161050b57610a4e83610a488754610e96565b8761105d565b600091601f8411600114610a8c5750928293918392600094610a81575b50501b916000199060031b1c1916179055600080f35b013592508580610a6b565b9183601f1981168760005284600020946000905b88838310610ad55750505010610abb575b505050811b019055005b0135600019600384901b60f8161c19169055838080610ab1565b868601358855909601959384019387935090810190610aa0565b013590508780610a19565b909150601f1983169187600052856000209260005b87828210610b4e575050908460019594939210610b34575b505050811b018455610a2e565b0135600019600384901b60f8161c19169055878080610b27565b6001849682939587013581550195019201610b0f565b346106c057610b7236610e52565b908060005260209060028252604060002091610b9460ff600485015416611113565b6002830154336001600160a01b0391821614908115610d55575b5015610d2057836000526003928382528260406000205403610cd15783019060005b825480821015610cc45786610be58386611197565b905490881b1c14610bff5750610bfa90610ff0565b610bd0565b600095929394951991828201918211610cae57610875610c22610c2f9388611197565b905490861b1c9187611197565b8354938415610c9857816004950191610c488383611197565b9091825491861b1b19169055555b8460005281526000604081205552604060002060ff1981541690557f090b0ea9c51a0925c30254012f3c0e67459a894a1b0b0214ca7b668bf95612cf600080a3005b634e487b7160e01b600052603160045260246000fd5b634e487b7160e01b600052601160045260246000fd5b5050905060049192610c56565b60405162461bcd60e51b815260048101839052602160248201527f5472696265206e6f7420696e207468697320737570657220636f6d6d756e69746044820152607960f81b6064820152608490fd5b6064906040519062461bcd60e51b82526004820152600e60248201526d139bdd08185d5d1a1bdc9a5e995960921b6044820152fd5b6024915082816001541660405193848092634ce0ed3d60e01b82528a60048301525afa91821561068957600092610d91575b5016331485610bae565b9091508281813d8311610dc2575b610da98183610ed0565b810103126106c0575181811681036106c0579086610d87565b503d610d9f565b346106c05760003660031901126106c0576001546040516001600160a01b039091168152602090f35b346106c05760403660031901126106c0576024356001600160a01b03811681036106c057610e246020916004356111af565b6040519015158152f35b346106c05760003660031901126106c0576000546001600160a01b03168152602090f35b60409060031901126106c0576004359060243590565b9181601f840112156106c05782359167ffffffffffffffff83116106c057602083818601950101116106c057565b90600182811c92168015610ec6575b6020831014610eb057565b634e487b7160e01b600052602260045260246000fd5b91607f1691610ea5565b90601f8019910116810190811067ffffffffffffffff82111761050b57604052565b9060405191826000825492610f0684610e96565b908184526001948581169081600014610f755750600114610f32575b5050610f3092500383610ed0565b565b9093915060005260209081600020936000915b818310610f5d575050610f3093508201013880610f22565b85548884018501529485019487945091830191610f45565b915050610f3094506020925060ff191682840152151560051b8201013880610f22565b919082519283825260005b848110610fc4575050826000602080949584010152601f8019910116010190565b602081830181015184830182015201610fa3565b908160209103126106c0575180151581036106c05790565b6000198114610cae5760010190565b92919267ffffffffffffffff821161050b5760405191611029601f8201601f191660200184610ed0565b8294818452818301116106c0578281602093846000960137010152565b818110611051575050565b60008155600101611046565b9190601f811161106c57505050565b610f30926000526020600020906020601f840160051c83019310611098575b601f0160051c0190611046565b909150819061108b565b91908110156110b25760051b0190565b634e487b7160e01b600052603260045260246000fd5b156110cf57565b606460405162461bcd60e51b815260206004820152602060248201527f547269626520616c726561647920696e20737570657220636f6d6d756e6974796044820152fd5b1561111a57565b60405162461bcd60e51b815260206004820152601a60248201527f537570657220636f6d6d756e697479206e6f74206163746976650000000000006044820152606490fd5b1561116657565b60405162461bcd60e51b81526020600482015260096024820152682737ba1030b236b4b760b91b6044820152606490fd5b80548210156110b25760005260206000200190600090565b9060009182526020600281526003604090808286200192859484549560018060a01b039360019685885416925b8981106111f0575050505050505050505090565b6111fa8183611197565b9054895163346bc0cb60e21b815291851b1c600482015285881660248201528681604481885afa90811561126d578c91611250575b506112425761123d90610ff0565b6111dc565b505050505050505091505090565b6112679150873d8911610682576106748183610ed0565b3861122f565b89513d8e823e3d90fdfea164736f6c6343000814000a",
  "linkReferences": {},
  "deployedLinkReferences": {}
}